{
  "_format": "hh-sol-artifact-1",
  "contractName": "Escrow",
  "sourceName": "contracts/modules/escrow/Escrow.sol",
  "abi": [
    {
      "inputs": [
        {
          "internalType": "uint256",
          "name": "_minimumCollateralRatio",
          "type": "uint256"
        },
        {
          "internalType": "address",
          "name": "_oracle",
          "type": "address"
        },
        {
          "internalType": "address",
          "name": "_loan",
          "type": "address"
        },
        {
          "internalType": "address",
          "name": "_borrower",
          "type": "address"
        }
      ],
      "stateMutability": "nonpayable",
      "type": "constructor"
    },
    {
      "anonymous": false,
      "inputs": [
        {
          "indexed": true,
          "internalType": "address",
          "name": "token",
          "type": "address"
        },
        {
          "indexed": false,
          "internalType": "uint256",
          "name": "amount",
          "type": "uint256"
        }
      ],
      "name": "CollateralAdded",
      "type": "event"
    },
    {
      "anonymous": false,
      "inputs": [
        {
          "indexed": true,
          "internalType": "address",
          "name": "token",
          "type": "address"
        },
        {
          "indexed": false,
          "internalType": "uint256",
          "name": "amount",
          "type": "uint256"
        }
      ],
      "name": "CollateralFarmed",
      "type": "event"
    },
    {
      "anonymous": false,
      "inputs": [
        {
          "indexed": true,
          "internalType": "address",
          "name": "token",
          "type": "address"
        },
        {
          "indexed": false,
          "internalType": "uint256",
          "name": "amount",
          "type": "uint256"
        }
      ],
      "name": "CollateralRemoved",
      "type": "event"
    },
    {
      "anonymous": false,
      "inputs": [
        {
          "indexed": true,
          "internalType": "address",
          "name": "token",
          "type": "address"
        },
        {
          "indexed": false,
          "internalType": "uint256",
          "name": "amount",
          "type": "uint256"
        }
      ],
      "name": "CollateralRemovedFromFarm",
      "type": "event"
    },
    {
      "anonymous": false,
      "inputs": [
        {
          "indexed": true,
          "internalType": "address",
          "name": "token",
          "type": "address"
        },
        {
          "indexed": false,
          "internalType": "uint256",
          "name": "amount",
          "type": "uint256"
        }
      ],
      "name": "Liquidated",
      "type": "event"
    },
    {
      "inputs": [
        {
          "internalType": "uint256",
          "name": "amount",
          "type": "uint256"
        },
        {
          "internalType": "address",
          "name": "token",
          "type": "address"
        }
      ],
      "name": "addCollateral",
      "outputs": [
        {
          "internalType": "uint256",
          "name": "",
          "type": "uint256"
        }
      ],
      "stateMutability": "nonpayable",
      "type": "function"
    },
    {
      "inputs": [],
      "name": "borrower",
      "outputs": [
        {
          "internalType": "address",
          "name": "",
          "type": "address"
        }
      ],
      "stateMutability": "view",
      "type": "function"
    },
    {
      "inputs": [
        {
          "internalType": "address[]",
          "name": "farmedTokens",
          "type": "address[]"
        }
      ],
      "name": "claimStakingRewards",
      "outputs": [],
      "stateMutability": "nonpayable",
      "type": "function"
    },
    {
      "inputs": [
        {
          "internalType": "address",
          "name": "",
          "type": "address"
        }
      ],
      "name": "deposited",
      "outputs": [
        {
          "internalType": "uint256",
          "name": "amount",
          "type": "uint256"
        },
        {
          "internalType": "bool",
          "name": "isERC4626",
          "type": "bool"
        },
        {
          "internalType": "address",
          "name": "asset",
          "type": "address"
        },
        {
          "internalType": "uint8",
          "name": "assetDecimals",
          "type": "uint8"
        }
      ],
      "stateMutability": "view",
      "type": "function"
    },
    {
      "inputs": [
        {
          "internalType": "address",
          "name": "",
          "type": "address"
        }
      ],
      "name": "farmedTokens",
      "outputs": [
        {
          "internalType": "bytes4",
          "name": "depositFunc",
          "type": "bytes4"
        },
        {
          "internalType": "bytes4",
          "name": "withdrawFunc",
          "type": "bytes4"
        }
      ],
      "stateMutability": "view",
      "type": "function"
    },
    {
      "inputs": [],
      "name": "getCollateralRatio",
      "outputs": [
        {
          "internalType": "uint256",
          "name": "",
          "type": "uint256"
        }
      ],
      "stateMutability": "nonpayable",
      "type": "function"
    },
    {
      "inputs": [],
      "name": "getCollateralValue",
      "outputs": [
        {
          "internalType": "uint256",
          "name": "",
          "type": "uint256"
        }
      ],
      "stateMutability": "nonpayable",
      "type": "function"
    },
    {
      "inputs": [
        {
          "internalType": "uint256",
          "name": "amount",
          "type": "uint256"
        },
        {
          "internalType": "address",
          "name": "token",
          "type": "address"
        },
        {
          "internalType": "address",
          "name": "to",
          "type": "address"
        }
      ],
      "name": "liquidate",
      "outputs": [
        {
          "internalType": "bool",
          "name": "",
          "type": "bool"
        }
      ],
      "stateMutability": "nonpayable",
      "type": "function"
    },
    {
      "inputs": [],
      "name": "loan",
      "outputs": [
        {
          "internalType": "address",
          "name": "",
          "type": "address"
        }
      ],
      "stateMutability": "view",
      "type": "function"
    },
    {
      "inputs": [],
      "name": "minimumCollateralRatio",
      "outputs": [
        {
          "internalType": "uint256",
          "name": "",
          "type": "uint256"
        }
      ],
      "stateMutability": "view",
      "type": "function"
    },
    {
      "inputs": [],
      "name": "oracle",
      "outputs": [
        {
          "internalType": "address",
          "name": "",
          "type": "address"
        }
      ],
      "stateMutability": "view",
      "type": "function"
    },
    {
      "inputs": [
        {
          "internalType": "uint256",
          "name": "amount",
          "type": "uint256"
        },
        {
          "internalType": "address",
          "name": "token",
          "type": "address"
        },
        {
          "internalType": "address",
          "name": "to",
          "type": "address"
        }
      ],
      "name": "releaseCollateral",
      "outputs": [
        {
          "internalType": "uint256",
          "name": "",
          "type": "uint256"
        }
      ],
      "stateMutability": "nonpayable",
      "type": "function"
    },
    {
      "inputs": [
        {
          "internalType": "address",
          "name": "token",
          "type": "address"
        },
        {
          "internalType": "uint256",
          "name": "amount",
          "type": "uint256"
        },
        {
          "components": [
            {
              "internalType": "bytes4",
              "name": "depositFunc",
              "type": "bytes4"
            },
            {
              "internalType": "bytes4",
              "name": "withdrawFunc",
              "type": "bytes4"
            },
            {
              "internalType": "address[]",
              "name": "rewardTokens",
              "type": "address[]"
            }
          ],
          "internalType": "struct IEscrow.Farm",
          "name": "farm",
          "type": "tuple"
        }
      ],
      "name": "stakeCollateral",
      "outputs": [],
      "stateMutability": "nonpayable",
      "type": "function"
    },
    {
      "inputs": [
        {
          "internalType": "address",
          "name": "token",
          "type": "address"
        },
        {
          "internalType": "uint256",
          "name": "amount",
          "type": "uint256"
        },
        {
          "components": [
            {
              "internalType": "bytes4",
              "name": "depositFunc",
              "type": "bytes4"
            },
            {
              "internalType": "bytes4",
              "name": "withdrawFunc",
              "type": "bytes4"
            },
            {
              "internalType": "address[]",
              "name": "rewardTokens",
              "type": "address[]"
            }
          ],
          "internalType": "struct IEscrow.Farm",
          "name": "farm",
          "type": "tuple"
        }
      ],
      "name": "unstakeCollateral",
      "outputs": [],
      "stateMutability": "nonpayable",
      "type": "function"
    }
  ],
  "bytecode": "0x60806040527fffffffffffffffffffffffffffffffffffffffffffffffffffffffffffffffff6001553480156200003557600080fd5b5060405162002b2038038062002b2083398181016040528101906200005b9190620001d4565b8360008190555082600360006101000a81548173ffffffffffffffffffffffffffffffffffffffff021916908373ffffffffffffffffffffffffffffffffffffffff16021790555081600260006101000a81548173ffffffffffffffffffffffffffffffffffffffff021916908373ffffffffffffffffffffffffffffffffffffffff16021790555080600460006101000a81548173ffffffffffffffffffffffffffffffffffffffff021916908373ffffffffffffffffffffffffffffffffffffffff1602179055505050505062000246565b600080fd5b6000819050919050565b620001498162000134565b81146200015557600080fd5b50565b60008151905062000169816200013e565b92915050565b600073ffffffffffffffffffffffffffffffffffffffff82169050919050565b60006200019c826200016f565b9050919050565b620001ae816200018f565b8114620001ba57600080fd5b50565b600081519050620001ce81620001a3565b92915050565b60008060008060808587031215620001f157620001f06200012f565b5b6000620002018782880162000158565b94505060206200021487828801620001bd565b93505060406200022787828801620001bd565b92505060606200023a87828801620001bd565b91505092959194509250565b6128ca80620002566000396000f3fe608060405234801561001057600080fd5b50600436106100ea5760003560e01c8063c047e5631161008c578063cb13cddb11610066578063cb13cddb14610260578063cb5f5ce014610293578063cd377c53146102af578063d285b7b4146102cd576100ea565b8063c047e563146101f6578063c59b1ab414610214578063cadac47914610230576100ea565b80637dc0d1d0116100c85780637dc0d1d01461016b5780637df1f1b9146101895780639f1837ce146101a7578063b6aa6c50146101c5576100ea565b8063060336ec146100ef578063250bc3841461011f5780633a87e3011461014f575b600080fd5b61010960048036038101906101049190611928565b6102eb565b6040516101169190611996565b60405180910390f35b61013960048036038101906101349190611928565b6105d7565b60405161014691906119c0565b60405180910390f35b61016960048036038101906101649190611b34565b6108c9565b005b610173610904565b6040516101809190611b8c565b60405180910390f35b61019161092a565b60405161019e9190611b8c565b60405180910390f35b6101af610950565b6040516101bc91906119c0565b60405180910390f35b6101df60048036038101906101da9190611ba7565b610956565b6040516101ed929190611c0f565b60405180910390f35b6101fe610994565b60405161020b91906119c0565b60405180910390f35b61022e60048036038101906102299190611cee565b6109a3565b005b61024a60048036038101906102459190611d5d565b6109de565b60405161025791906119c0565b60405180910390f35b61027a60048036038101906102759190611ba7565b610c6a565b60405161028a9493929190611db9565b60405180910390f35b6102ad60048036038101906102a89190611cee565b610cd4565b005b6102b7610d0f565b6040516102c491906119c0565b60405180910390f35b6102d5610d1e565b6040516102e29190611b8c565b60405180910390f35b600080841161032f576040517f08c379a000000000000000000000000000000000000000000000000000000000815260040161032690611e5b565b60405180910390fd5b600260009054906101000a900473ffffffffffffffffffffffffffffffffffffffff1673ffffffffffffffffffffffffffffffffffffffff163373ffffffffffffffffffffffffffffffffffffffff16146103bf576040517f08c379a00000000000000000000000000000000000000000000000000000000081526004016103b690611eed565b60405180910390fd5b6103c7610d44565b6000541161040a576040517f08c379a000000000000000000000000000000000000000000000000000000000815260040161040190611f7f565b60405180910390fd5b83600760008573ffffffffffffffffffffffffffffffffffffffff1673ffffffffffffffffffffffffffffffffffffffff16815260200190815260200160002060000154101561048f576040517f08c379a000000000000000000000000000000000000000000000000000000000815260040161048690611feb565b60405180910390fd5b83600760008573ffffffffffffffffffffffffffffffffffffffff1673ffffffffffffffffffffffffffffffffffffffff16815260200190815260200160002060000160008282546104e1919061203a565b925050819055508273ffffffffffffffffffffffffffffffffffffffff1663a9059cbb83866040518363ffffffff1660e01b815260040161052392919061206e565b602060405180830381600087803b15801561053d57600080fd5b505af1158015610551573d6000803e3d6000fd5b505050506040513d601f19601f8201168201806040525081019061057591906120c3565b61057e57600080fd5b8273ffffffffffffffffffffffffffffffffffffffff167fa5ee7a2b0254fce91deed604506790ed7fa072d0b14cba4859c3bc8955b9caac856040516105c491906119c0565b60405180910390a2600190509392505050565b600080841161061b576040517f08c379a000000000000000000000000000000000000000000000000000000000815260040161061290611e5b565b60405180910390fd5b600460009054906101000a900473ffffffffffffffffffffffffffffffffffffffff1673ffffffffffffffffffffffffffffffffffffffff163373ffffffffffffffffffffffffffffffffffffffff16146106ab576040517f08c379a00000000000000000000000000000000000000000000000000000000081526004016106a29061213c565b60405180910390fd5b83600760008573ffffffffffffffffffffffffffffffffffffffff1673ffffffffffffffffffffffffffffffffffffffff168152602001908152602001600020600001541015610730576040517f08c379a000000000000000000000000000000000000000000000000000000000815260040161072790611feb565b60405180910390fd5b83600760008573ffffffffffffffffffffffffffffffffffffffff1673ffffffffffffffffffffffffffffffffffffffff1681526020019081526020016000206000016000828254610782919061203a565b925050819055508273ffffffffffffffffffffffffffffffffffffffff1663a9059cbb83866040518363ffffffff1660e01b81526004016107c492919061206e565b602060405180830381600087803b1580156107de57600080fd5b505af11580156107f2573d6000803e3d6000fd5b505050506040513d601f19601f8201168201806040525081019061081691906120c3565b61081f57600080fd5b6000610829610d44565b9050600054811015610870576040517f08c379a0000000000000000000000000000000000000000000000000000000008152600401610867906121f4565b60405180910390fd5b8373ffffffffffffffffffffffffffffffffffffffff167f12c7466676da8453fdc8fb091f1a24d31919043a79a50ebe022867a5f5c1ed34866040516108b691906119c0565b60405180910390a2809150509392505050565b6040517f08c379a00000000000000000000000000000000000000000000000000000000081526004016108fb90612260565b60405180910390fd5b600360009054906101000a900473ffffffffffffffffffffffffffffffffffffffff1681565b600460009054906101000a900473ffffffffffffffffffffffffffffffffffffffff1681565b60005481565b60086020528060005260406000206000915090508060000160009054906101000a900460e01b908060000160049054906101000a900460e01b905082565b600061099e610ed8565b905090565b6040517f08c379a00000000000000000000000000000000000000000000000000000000081526004016109d590612260565b60405180910390fd5b6000808311610a22576040517f08c379a0000000000000000000000000000000000000000000000000000000008152600401610a1990611e5b565b60405180910390fd5b6000600360009054906101000a900473ffffffffffffffffffffffffffffffffffffffff1673ffffffffffffffffffffffffffffffffffffffff16636849a3ba846040518263ffffffff1660e01b8152600401610a7f9190611b8c565b602060405180830381600087803b158015610a9957600080fd5b505af1158015610aad573d6000803e3d6000fd5b505050506040513d601f19601f82011682018060405250810190610ad191906122b6565b1415610b12576040517f08c379a0000000000000000000000000000000000000000000000000000000008152600401610b0990612355565b60405180910390fd5b8173ffffffffffffffffffffffffffffffffffffffff166323b872dd3330866040518463ffffffff1660e01b8152600401610b4f93929190612375565b602060405180830381600087803b158015610b6957600080fd5b505af1158015610b7d573d6000803e3d6000fd5b505050506040513d601f19601f82011682018060405250810190610ba191906120c3565b610baa57600080fd5b82600760008473ffffffffffffffffffffffffffffffffffffffff1673ffffffffffffffffffffffffffffffffffffffff1681526020019081526020016000206000016000828254610bfc91906123ac565b92505081905550610c0c8261125b565b8173ffffffffffffffffffffffffffffffffffffffff167f7dba1be544024070cd5eebfa8bdd80a8b198cea8058c7d3cc1f8dd36e41ab2f784604051610c5291906119c0565b60405180910390a2610c62610d44565b905092915050565b60076020528060005260406000206000915090508060000154908060010160009054906101000a900460ff16908060010160019054906101000a900473ffffffffffffffffffffffffffffffffffffffff16908060010160159054906101000a900460ff16905084565b6040517f08c379a0000000000000000000000000000000000000000000000000000000008152600401610d0690612260565b60405180910390fd5b6000610d19610d44565b905090565b600260009054906101000a900473ffffffffffffffffffffffffffffffffffffffff1681565b6000600260009054906101000a900473ffffffffffffffffffffffffffffffffffffffff1673ffffffffffffffffffffffffffffffffffffffff1663a6afed956040518163ffffffff1660e01b8152600401602060405180830381600087803b158015610db057600080fd5b505af1158015610dc4573d6000803e3d6000fd5b505050506040513d601f19601f82011682018060405250810190610de89190612417565b506000600260009054906101000a900473ffffffffffffffffffffffffffffffffffffffff1673ffffffffffffffffffffffffffffffffffffffff1663dc1f24e66040518163ffffffff1660e01b8152600401602060405180830381600087803b158015610e5557600080fd5b505af1158015610e69573d6000803e3d6000fd5b505050506040513d601f19601f82011682018060405250810190610e8d9190612417565b90506000610e99610ed8565b90506000811415610eaf57600092505050610ed5565b6000821415610ec45760015492505050610ed5565b610ed081836012611823565b925050505b90565b6000806000905060005b60058054905081101561125357600060058281548110610f0557610f04612444565b5b9060005260206000200160009054906101000a900473ffffffffffffffffffffffffffffffffffffffff1690506000600760008373ffffffffffffffffffffffffffffffffffffffff1673ffffffffffffffffffffffffffffffffffffffff1681526020019081526020016000206000015490506000811461123e57600760008373ffffffffffffffffffffffffffffffffffffffff1673ffffffffffffffffffffffffffffffffffffffff16815260200190815260200160002060010160009054906101000a900460ff16156110eb576000808373ffffffffffffffffffffffffffffffffffffffff168360405160240161100191906119c0565b6040516020818303038152906040527f4cdad506000000000000000000000000000000000000000000000000000000007bffffffffffffffffffffffffffffffffffffffffffffffffffffffff19166020820180517bffffffffffffffffffffffffffffffffffffffffffffffffffffffff838183161783525050505060405161108b91906124ed565b6000604051808303816000865af19150503d80600081146110c8576040519150601f19603f3d011682016040523d82523d6000602084013e6110cd565b606091505b5091509150808060200190518101906110e69190612417565b925050505b6000600360009054906101000a900473ffffffffffffffffffffffffffffffffffffffff1673ffffffffffffffffffffffffffffffffffffffff16636849a3ba846040518263ffffffff1660e01b81526004016111489190611b8c565b602060405180830381600087803b15801561116257600080fd5b505af1158015611176573d6000803e3d6000fd5b505050506040513d601f19601f8201168201806040525081019061119a91906122b6565b905060008082126111ab57816111ae565b60005b9050600760008573ffffffffffffffffffffffffffffffffffffffff1673ffffffffffffffffffffffffffffffffffffffff16815260200190815260200160002060010160159054906101000a900460ff16600a61120c9190612637565b60016112189190612682565b83826112249190612682565b61122e919061270b565b8661123991906123ac565b955050505b5050808061124b9061273c565b915050610ee2565b508091505090565b600660008273ffffffffffffffffffffffffffffffffffffffff1673ffffffffffffffffffffffffffffffffffffffff16815260200190815260200160002060009054906101000a900460ff16611820576001600660008373ffffffffffffffffffffffffffffffffffffffff1673ffffffffffffffffffffffffffffffffffffffff16815260200190815260200160002060006101000a81548160ff0219169083151502179055506005819080600181540180825580915050600190039060005260206000200160009091909190916101000a81548173ffffffffffffffffffffffffffffffffffffffff021916908373ffffffffffffffffffffffffffffffffffffffff1602179055506000808273ffffffffffffffffffffffffffffffffffffffff166040516024016040516020818303038152906040527f38d52e0f000000000000000000000000000000000000000000000000000000007bffffffffffffffffffffffffffffffffffffffffffffffffffffffff19166020820180517bffffffffffffffffffffffffffffffffffffffffffffffffffffffff838183161783525050505060405161141191906124ed565b6000604051808303816000865af19150503d806000811461144e576040519150601f19603f3d011682016040523d82523d6000602084013e611453565b606091505b509150915060008082511180156114675750825b905080600760008673ffffffffffffffffffffffffffffffffffffffff1673ffffffffffffffffffffffffffffffffffffffff16815260200190815260200160002060010160006101000a81548160ff021916908315150217905550801561156257818060200190518101906114dd91906127c3565b600760008673ffffffffffffffffffffffffffffffffffffffff1673ffffffffffffffffffffffffffffffffffffffff16815260200190815260200160002060010160016101000a81548173ffffffffffffffffffffffffffffffffffffffff021916908373ffffffffffffffffffffffffffffffffffffffff1602179055506115e4565b83600760008673ffffffffffffffffffffffffffffffffffffffff1673ffffffffffffffffffffffffffffffffffffffff16815260200190815260200160002060010160016101000a81548173ffffffffffffffffffffffffffffffffffffffff021916908373ffffffffffffffffffffffffffffffffffffffff1602179055505b600080600760008773ffffffffffffffffffffffffffffffffffffffff1673ffffffffffffffffffffffffffffffffffffffff16815260200190815260200160002060010160019054906101000a900473ffffffffffffffffffffffffffffffffffffffff1673ffffffffffffffffffffffffffffffffffffffff166040516024016040516020818303038152906040527f313ce567000000000000000000000000000000000000000000000000000000007bffffffffffffffffffffffffffffffffffffffffffffffffffffffff19166020820180517bffffffffffffffffffffffffffffffffffffffffffffffffffffffff83818316178352505050506040516116f091906124ed565b6000604051808303816000865af19150503d806000811461172d576040519150601f19603f3d011682016040523d82523d6000602084013e611732565b606091505b5091509150600081511180156117455750815b156117bd578080602001905181019061175e919061281c565b600760008873ffffffffffffffffffffffffffffffffffffffff1673ffffffffffffffffffffffffffffffffffffffff16815260200190815260200160002060010160156101000a81548160ff021916908360ff16021790555061181a565b6012600760008873ffffffffffffffffffffffffffffffffffffffff1673ffffffffffffffffffffffffffffffffffffffff16815260200190815260200160002060010160156101000a81548160ff021916908360ff1602179055505b50505050505b50565b60008060018361183391906123ac565b600a61183f9190612849565b8561184a9190612682565b90506000600a6005868461185e919061270b565b61186891906123ac565b611872919061270b565b905080925050509392505050565b6000604051905090565b600080fd5b600080fd5b6000819050919050565b6118a781611894565b81146118b257600080fd5b50565b6000813590506118c48161189e565b92915050565b600073ffffffffffffffffffffffffffffffffffffffff82169050919050565b60006118f5826118ca565b9050919050565b611905816118ea565b811461191057600080fd5b50565b600081359050611922816118fc565b92915050565b6000806000606084860312156119415761194061188a565b5b600061194f868287016118b5565b935050602061196086828701611913565b925050604061197186828701611913565b9150509250925092565b60008115159050919050565b6119908161197b565b82525050565b60006020820190506119ab6000830184611987565b92915050565b6119ba81611894565b82525050565b60006020820190506119d560008301846119b1565b92915050565b600080fd5b6000601f19601f8301169050919050565b7f4e487b7100000000000000000000000000000000000000000000000000000000600052604160045260246000fd5b611a29826119e0565b810181811067ffffffffffffffff82111715611a4857611a476119f1565b5b80604052505050565b6000611a5b611880565b9050611a678282611a20565b919050565b600067ffffffffffffffff821115611a8757611a866119f1565b5b602082029050602081019050919050565b600080fd5b6000611ab0611aab84611a6c565b611a51565b90508083825260208201905060208402830185811115611ad357611ad2611a98565b5b835b81811015611afc5780611ae88882611913565b845260208401935050602081019050611ad5565b5050509392505050565b600082601f830112611b1b57611b1a6119db565b5b8135611b2b848260208601611a9d565b91505092915050565b600060208284031215611b4a57611b4961188a565b5b600082013567ffffffffffffffff811115611b6857611b6761188f565b5b611b7484828501611b06565b91505092915050565b611b86816118ea565b82525050565b6000602082019050611ba16000830184611b7d565b92915050565b600060208284031215611bbd57611bbc61188a565b5b6000611bcb84828501611913565b91505092915050565b60007fffffffff0000000000000000000000000000000000000000000000000000000082169050919050565b611c0981611bd4565b82525050565b6000604082019050611c246000830185611c00565b611c316020830184611c00565b9392505050565b600080fd5b600080fd5b611c4b81611bd4565b8114611c5657600080fd5b50565b600081359050611c6881611c42565b92915050565b600060608284031215611c8457611c83611c38565b5b611c8e6060611a51565b90506000611c9e84828501611c59565b6000830152506020611cb284828501611c59565b602083015250604082013567ffffffffffffffff811115611cd657611cd5611c3d565b5b611ce284828501611b06565b60408301525092915050565b600080600060608486031215611d0757611d0661188a565b5b6000611d1586828701611913565b9350506020611d26868287016118b5565b925050604084013567ffffffffffffffff811115611d4757611d4661188f565b5b611d5386828701611c6e565b9150509250925092565b60008060408385031215611d7457611d7361188a565b5b6000611d82858286016118b5565b9250506020611d9385828601611913565b9150509250929050565b600060ff82169050919050565b611db381611d9d565b82525050565b6000608082019050611dce60008301876119b1565b611ddb6020830186611987565b611de86040830185611b7d565b611df56060830184611daa565b95945050505050565b600082825260208201905092915050565b7f457363726f773a20616d6f756e74206973203000000000000000000000000000600082015250565b6000611e45601383611dfe565b9150611e5082611e0f565b602082019050919050565b60006020820190508181036000830152611e7481611e38565b9050919050565b7f457363726f773a206d73672e73656e646572206d75737420626520746865206c60008201527f6f616e20636f6e74726163740000000000000000000000000000000000000000602082015250565b6000611ed7602c83611dfe565b9150611ee282611e7b565b604082019050919050565b60006020820190508181036000830152611f0681611eca565b9050919050565b7f457363726f773a206e6f7420656c696769626c6520666f72206c69717569646160008201527f74696f6e00000000000000000000000000000000000000000000000000000000602082015250565b6000611f69602483611dfe565b9150611f7482611f0d565b604082019050919050565b60006020820190508181036000830152611f9881611f5c565b9050919050565b7f457363726f773a20696e73756666696369656e742062616c616e636500000000600082015250565b6000611fd5601c83611dfe565b9150611fe082611f9f565b602082019050919050565b6000602082019050818103600083015261200481611fc8565b9050919050565b7f4e487b7100000000000000000000000000000000000000000000000000000000600052601160045260246000fd5b600061204582611894565b915061205083611894565b9250828210156120635761206261200b565b5b828203905092915050565b60006040820190506120836000830185611b7d565b61209060208301846119b1565b9392505050565b6120a08161197b565b81146120ab57600080fd5b50565b6000815190506120bd81612097565b92915050565b6000602082840312156120d9576120d861188a565b5b60006120e7848285016120ae565b91505092915050565b7f457363726f773a206f6e6c7920626f72726f7765722063616e2063616c6c0000600082015250565b6000612126601e83611dfe565b9150612131826120f0565b602082019050919050565b6000602082019050818103600083015261215581612119565b9050919050565b7f457363726f773a2063616e6e6f742072656c6561736520636f6c6c617465726160008201527f6c2069662063726174696f206265636f6d6573206c6f776572207468616e207460208201527f6865206d696e696d756d00000000000000000000000000000000000000000000604082015250565b60006121de604a83611dfe565b91506121e98261215c565b606082019050919050565b6000602082019050818103600083015261220d816121d1565b9050919050565b7f4e6f7420696d706c656d656e7465640000000000000000000000000000000000600082015250565b600061224a600f83611dfe565b915061225582612214565b602082019050919050565b600060208201905081810360008301526122798161223d565b9050919050565b6000819050919050565b61229381612280565b811461229e57600080fd5b50565b6000815190506122b08161228a565b92915050565b6000602082840312156122cc576122cb61188a565b5b60006122da848285016122a1565b91505092915050565b7f457363726f773a206465706f736974656420746f6b656e20646f6573206e6f7460008201527f2068617665206120707269636520666565640000000000000000000000000000602082015250565b600061233f603283611dfe565b915061234a826122e3565b604082019050919050565b6000602082019050818103600083015261236e81612332565b9050919050565b600060608201905061238a6000830186611b7d565b6123976020830185611b7d565b6123a460408301846119b1565b949350505050565b60006123b782611894565b91506123c283611894565b9250827fffffffffffffffffffffffffffffffffffffffffffffffffffffffffffffffff038211156123f7576123f661200b565b5b828201905092915050565b6000815190506124118161189e565b92915050565b60006020828403121561242d5761242c61188a565b5b600061243b84828501612402565b91505092915050565b7f4e487b7100000000000000000000000000000000000000000000000000000000600052603260045260246000fd5b600081519050919050565b600081905092915050565b60005b838110156124a757808201518184015260208101905061248c565b838111156124b6576000848401525b50505050565b60006124c782612473565b6124d1818561247e565b93506124e1818560208601612489565b80840191505092915050565b60006124f982846124bc565b915081905092915050565b60008160011c9050919050565b6000808291508390505b600185111561255b578086048111156125375761253661200b565b5b60018516156125465780820291505b808102905061255485612504565b945061251b565b94509492505050565b6000826125745760019050612630565b816125825760009050612630565b816001811461259857600281146125a2576125d1565b6001915050612630565b60ff8411156125b4576125b361200b565b5b8360020a9150848211156125cb576125ca61200b565b5b50612630565b5060208310610133831016604e8410600b84101617156126065782820a9050838111156126015761260061200b565b5b612630565b6126138484846001612511565b9250905081840481111561262a5761262961200b565b5b81810290505b9392505050565b600061264282611894565b915061264d83611d9d565b925061267a7fffffffffffffffffffffffffffffffffffffffffffffffffffffffffffffffff8484612564565b905092915050565b600061268d82611894565b915061269883611894565b9250817fffffffffffffffffffffffffffffffffffffffffffffffffffffffffffffffff04831182151516156126d1576126d061200b565b5b828202905092915050565b7f4e487b7100000000000000000000000000000000000000000000000000000000600052601260045260246000fd5b600061271682611894565b915061272183611894565b925082612731576127306126dc565b5b828204905092915050565b600061274782611894565b91507fffffffffffffffffffffffffffffffffffffffffffffffffffffffffffffffff82141561277a5761277961200b565b5b600182019050919050565b6000612790826118ca565b9050919050565b6127a081612785565b81146127ab57600080fd5b50565b6000815190506127bd81612797565b92915050565b6000602082840312156127d9576127d861188a565b5b60006127e7848285016127ae565b91505092915050565b6127f981611d9d565b811461280457600080fd5b50565b600081519050612816816127f0565b92915050565b6000602082840312156128325761283161188a565b5b600061284084828501612807565b91505092915050565b600061285482611894565b915061285f83611894565b925061288c7fffffffffffffffffffffffffffffffffffffffffffffffffffffffffffffffff8484612564565b90509291505056fea2646970667358221220661f41fc43b677ca272c4a1ea80cae99da77782bf7a7e436be7f86d6a02adfbb64736f6c63430008090033",
  "linkReferences": {},
  "deployedLinkReferences": {}
}