{
  "_format": "hh-sol-artifact-1",
  "contractName": "Escrow",
  "sourceName": "contracts/modules/escrow/Escrow.sol",
  "abi": [
    {
      "inputs": [
        {
          "internalType": "uint256",
          "name": "_minimumCollateralRatio",
          "type": "uint256"
        },
        {
          "internalType": "address",
          "name": "_oracle",
          "type": "address"
        },
        {
          "internalType": "address",
          "name": "_loan",
          "type": "address"
        },
        {
          "internalType": "address",
          "name": "_borrower",
          "type": "address"
        }
      ],
      "stateMutability": "nonpayable",
      "type": "constructor"
    },
    {
      "anonymous": false,
      "inputs": [
        {
          "indexed": true,
          "internalType": "address",
          "name": "token",
          "type": "address"
        },
        {
          "indexed": true,
          "internalType": "uint256",
          "name": "amount",
          "type": "uint256"
        }
      ],
      "name": "AddCollateral",
      "type": "event"
    },
    {
      "anonymous": false,
      "inputs": [
        {
          "indexed": true,
          "internalType": "address",
          "name": "token",
          "type": "address"
        },
        {
          "indexed": true,
          "internalType": "uint256",
          "name": "amount",
          "type": "uint256"
        }
      ],
      "name": "FarmCollateral",
      "type": "event"
    },
    {
      "anonymous": false,
      "inputs": [
        {
          "indexed": true,
          "internalType": "address",
          "name": "token",
          "type": "address"
        },
        {
          "indexed": true,
          "internalType": "uint256",
          "name": "amount",
          "type": "uint256"
        }
      ],
      "name": "Liquidate",
      "type": "event"
    },
    {
      "anonymous": false,
      "inputs": [
        {
          "indexed": true,
          "internalType": "address",
          "name": "token",
          "type": "address"
        },
        {
          "indexed": true,
          "internalType": "uint256",
          "name": "amount",
          "type": "uint256"
        }
      ],
      "name": "RemoveCollateral",
      "type": "event"
    },
    {
      "anonymous": false,
      "inputs": [
        {
          "indexed": true,
          "internalType": "address",
          "name": "token",
          "type": "address"
        },
        {
          "indexed": true,
          "internalType": "uint256",
          "name": "amount",
          "type": "uint256"
        }
      ],
      "name": "RemoveCollateralFromFarm",
      "type": "event"
    },
    {
      "inputs": [
        {
          "internalType": "uint256",
          "name": "amount",
          "type": "uint256"
        },
        {
          "internalType": "address",
          "name": "token",
          "type": "address"
        }
      ],
      "name": "addCollateral",
      "outputs": [
        {
          "internalType": "uint256",
          "name": "",
          "type": "uint256"
        }
      ],
      "stateMutability": "nonpayable",
      "type": "function"
    },
    {
      "inputs": [],
      "name": "borrower",
      "outputs": [
        {
          "internalType": "address",
          "name": "",
          "type": "address"
        }
      ],
      "stateMutability": "view",
      "type": "function"
    },
    {
      "inputs": [
        {
          "internalType": "address[]",
          "name": "farmedTokens",
          "type": "address[]"
        }
      ],
      "name": "claimStakingRewards",
      "outputs": [],
      "stateMutability": "nonpayable",
      "type": "function"
    },
    {
      "inputs": [
        {
          "internalType": "address",
          "name": "",
          "type": "address"
        }
      ],
      "name": "deposited",
      "outputs": [
        {
          "internalType": "uint256",
          "name": "amount",
          "type": "uint256"
        },
        {
          "internalType": "bool",
          "name": "isERC4626",
          "type": "bool"
        },
        {
          "internalType": "address",
          "name": "asset",
          "type": "address"
        },
        {
          "internalType": "uint8",
          "name": "assetDecimals",
          "type": "uint8"
        }
      ],
      "stateMutability": "view",
      "type": "function"
    },
    {
      "inputs": [
        {
          "internalType": "address",
          "name": "",
          "type": "address"
        }
      ],
      "name": "farmedTokens",
      "outputs": [
        {
          "internalType": "bytes4",
          "name": "depositFunc",
          "type": "bytes4"
        },
        {
          "internalType": "bytes4",
          "name": "withdrawFunc",
          "type": "bytes4"
        }
      ],
      "stateMutability": "view",
      "type": "function"
    },
    {
      "inputs": [],
      "name": "getCollateralRatio",
      "outputs": [
        {
          "internalType": "uint256",
          "name": "",
          "type": "uint256"
        }
      ],
      "stateMutability": "nonpayable",
      "type": "function"
    },
    {
      "inputs": [],
      "name": "getCollateralValue",
      "outputs": [
        {
          "internalType": "uint256",
          "name": "",
          "type": "uint256"
        }
      ],
      "stateMutability": "nonpayable",
      "type": "function"
    },
    {
      "inputs": [
        {
          "internalType": "uint256",
          "name": "amount",
          "type": "uint256"
        },
        {
          "internalType": "address",
          "name": "token",
          "type": "address"
        },
        {
          "internalType": "address",
          "name": "to",
          "type": "address"
        }
      ],
      "name": "liquidate",
      "outputs": [
        {
          "internalType": "bool",
          "name": "",
          "type": "bool"
        }
      ],
      "stateMutability": "nonpayable",
      "type": "function"
    },
    {
      "inputs": [],
      "name": "loan",
      "outputs": [
        {
          "internalType": "address",
          "name": "",
          "type": "address"
        }
      ],
      "stateMutability": "view",
      "type": "function"
    },
    {
      "inputs": [],
      "name": "minimumCollateralRatio",
      "outputs": [
        {
          "internalType": "uint256",
          "name": "",
          "type": "uint256"
        }
      ],
      "stateMutability": "view",
      "type": "function"
    },
    {
      "inputs": [],
      "name": "oracle",
      "outputs": [
        {
          "internalType": "address",
          "name": "",
          "type": "address"
        }
      ],
      "stateMutability": "view",
      "type": "function"
    },
    {
      "inputs": [
        {
          "internalType": "uint256",
          "name": "amount",
          "type": "uint256"
        },
        {
          "internalType": "address",
          "name": "token",
          "type": "address"
        },
        {
          "internalType": "address",
          "name": "to",
          "type": "address"
        }
      ],
      "name": "releaseCollateral",
      "outputs": [
        {
          "internalType": "uint256",
          "name": "",
          "type": "uint256"
        }
      ],
      "stateMutability": "nonpayable",
      "type": "function"
    },
    {
      "inputs": [
        {
          "internalType": "address",
          "name": "token",
          "type": "address"
        },
        {
          "internalType": "uint256",
          "name": "amount",
          "type": "uint256"
        },
        {
          "components": [
            {
              "internalType": "bytes4",
              "name": "depositFunc",
              "type": "bytes4"
            },
            {
              "internalType": "bytes4",
              "name": "withdrawFunc",
              "type": "bytes4"
            },
            {
              "internalType": "address[]",
              "name": "rewardTokens",
              "type": "address[]"
            }
          ],
          "internalType": "struct IEscrow.Farm",
          "name": "farm",
          "type": "tuple"
        }
      ],
      "name": "stakeCollateral",
      "outputs": [],
      "stateMutability": "nonpayable",
      "type": "function"
    },
    {
      "inputs": [
        {
          "internalType": "address",
          "name": "token",
          "type": "address"
        },
        {
          "internalType": "uint256",
          "name": "amount",
          "type": "uint256"
        },
        {
          "components": [
            {
              "internalType": "bytes4",
              "name": "depositFunc",
              "type": "bytes4"
            },
            {
              "internalType": "bytes4",
              "name": "withdrawFunc",
              "type": "bytes4"
            },
            {
              "internalType": "address[]",
              "name": "rewardTokens",
              "type": "address[]"
            }
          ],
          "internalType": "struct IEscrow.Farm",
          "name": "farm",
          "type": "tuple"
        }
      ],
      "name": "unstakeCollateral",
      "outputs": [],
      "stateMutability": "nonpayable",
      "type": "function"
    }
  ],
  "bytecode": "0x60806040527fffffffffffffffffffffffffffffffffffffffffffffffffffffffffffffffff6001553480156200003557600080fd5b5060405162002b0238038062002b0283398181016040528101906200005b9190620001d4565b8360008190555082600360006101000a81548173ffffffffffffffffffffffffffffffffffffffff021916908373ffffffffffffffffffffffffffffffffffffffff16021790555081600260006101000a81548173ffffffffffffffffffffffffffffffffffffffff021916908373ffffffffffffffffffffffffffffffffffffffff16021790555080600460006101000a81548173ffffffffffffffffffffffffffffffffffffffff021916908373ffffffffffffffffffffffffffffffffffffffff1602179055505050505062000246565b600080fd5b6000819050919050565b620001498162000134565b81146200015557600080fd5b50565b60008151905062000169816200013e565b92915050565b600073ffffffffffffffffffffffffffffffffffffffff82169050919050565b60006200019c826200016f565b9050919050565b620001ae816200018f565b8114620001ba57600080fd5b50565b600081519050620001ce81620001a3565b92915050565b60008060008060808587031215620001f157620001f06200012f565b5b6000620002018782880162000158565b94505060206200021487828801620001bd565b93505060406200022787828801620001bd565b92505060606200023a87828801620001bd565b91505092959194509250565b6128ac80620002566000396000f3fe608060405234801561001057600080fd5b50600436106100ea5760003560e01c8063c047e5631161008c578063cb13cddb11610066578063cb13cddb14610260578063cb5f5ce014610293578063cd377c53146102af578063d285b7b4146102cd576100ea565b8063c047e563146101f6578063c59b1ab414610214578063cadac47914610230576100ea565b80637dc0d1d0116100c85780637dc0d1d01461016b5780637df1f1b9146101895780639f1837ce146101a7578063b6aa6c50146101c5576100ea565b8063060336ec146100ef578063250bc3841461011f5780633a87e3011461014f575b600080fd5b6101096004803603810190610104919061190a565b6102eb565b6040516101169190611978565b60405180910390f35b6101396004803603810190610134919061190a565b6105cd565b60405161014691906119a2565b60405180910390f35b61016960048036038101906101649190611b16565b6108b5565b005b6101736108f0565b6040516101809190611b6e565b60405180910390f35b610191610916565b60405161019e9190611b6e565b60405180910390f35b6101af61093c565b6040516101bc91906119a2565b60405180910390f35b6101df60048036038101906101da9190611b89565b610942565b6040516101ed929190611bf1565b60405180910390f35b6101fe610980565b60405161020b91906119a2565b60405180910390f35b61022e60048036038101906102299190611cd0565b61098f565b005b61024a60048036038101906102459190611d3f565b6109ca565b60405161025791906119a2565b60405180910390f35b61027a60048036038101906102759190611b89565b610c4c565b60405161028a9493929190611d9b565b60405180910390f35b6102ad60048036038101906102a89190611cd0565b610cb6565b005b6102b7610cf1565b6040516102c491906119a2565b60405180910390f35b6102d5610d00565b6040516102e29190611b6e565b60405180910390f35b600080841161032f576040517f08c379a000000000000000000000000000000000000000000000000000000000815260040161032690611e3d565b60405180910390fd5b600260009054906101000a900473ffffffffffffffffffffffffffffffffffffffff1673ffffffffffffffffffffffffffffffffffffffff163373ffffffffffffffffffffffffffffffffffffffff16146103bf576040517f08c379a00000000000000000000000000000000000000000000000000000000081526004016103b690611ecf565b60405180910390fd5b6103c7610d26565b6000541161040a576040517f08c379a000000000000000000000000000000000000000000000000000000000815260040161040190611f61565b60405180910390fd5b83600760008573ffffffffffffffffffffffffffffffffffffffff1673ffffffffffffffffffffffffffffffffffffffff16815260200190815260200160002060000154101561048f576040517f08c379a000000000000000000000000000000000000000000000000000000000815260040161048690611fcd565b60405180910390fd5b83600760008573ffffffffffffffffffffffffffffffffffffffff1673ffffffffffffffffffffffffffffffffffffffff16815260200190815260200160002060000160008282546104e1919061201c565b925050819055508273ffffffffffffffffffffffffffffffffffffffff1663a9059cbb83866040518363ffffffff1660e01b8152600401610523929190612050565b602060405180830381600087803b15801561053d57600080fd5b505af1158015610551573d6000803e3d6000fd5b505050506040513d601f19601f8201168201806040525081019061057591906120a5565b61057e57600080fd5b838373ffffffffffffffffffffffffffffffffffffffff167f08813a3631e12129135cc9440d3fea50eec346f1673b20b994b0456d5d46ccb960405160405180910390a3600190509392505050565b6000808411610611576040517f08c379a000000000000000000000000000000000000000000000000000000000815260040161060890611e3d565b60405180910390fd5b600460009054906101000a900473ffffffffffffffffffffffffffffffffffffffff1673ffffffffffffffffffffffffffffffffffffffff163373ffffffffffffffffffffffffffffffffffffffff16146106a1576040517f08c379a00000000000000000000000000000000000000000000000000000000081526004016106989061211e565b60405180910390fd5b83600760008573ffffffffffffffffffffffffffffffffffffffff1673ffffffffffffffffffffffffffffffffffffffff168152602001908152602001600020600001541015610726576040517f08c379a000000000000000000000000000000000000000000000000000000000815260040161071d90611fcd565b60405180910390fd5b83600760008573ffffffffffffffffffffffffffffffffffffffff1673ffffffffffffffffffffffffffffffffffffffff1681526020019081526020016000206000016000828254610778919061201c565b925050819055508273ffffffffffffffffffffffffffffffffffffffff1663a9059cbb83866040518363ffffffff1660e01b81526004016107ba929190612050565b602060405180830381600087803b1580156107d457600080fd5b505af11580156107e8573d6000803e3d6000fd5b505050506040513d601f19601f8201168201806040525081019061080c91906120a5565b61081557600080fd5b600061081f610d26565b9050600054811015610866576040517f08c379a000000000000000000000000000000000000000000000000000000000815260040161085d906121d6565b60405180910390fd5b848473ffffffffffffffffffffffffffffffffffffffff167fe25410a4059619c9594dc6f022fe231b02aaea733f689e7ab0cd21b3d4d0eb5460405160405180910390a3809150509392505050565b6040517f08c379a00000000000000000000000000000000000000000000000000000000081526004016108e790612242565b60405180910390fd5b600360009054906101000a900473ffffffffffffffffffffffffffffffffffffffff1681565b600460009054906101000a900473ffffffffffffffffffffffffffffffffffffffff1681565b60005481565b60086020528060005260406000206000915090508060000160009054906101000a900460e01b908060000160049054906101000a900460e01b905082565b600061098a610eba565b905090565b6040517f08c379a00000000000000000000000000000000000000000000000000000000081526004016109c190612242565b60405180910390fd5b6000808311610a0e576040517f08c379a0000000000000000000000000000000000000000000000000000000008152600401610a0590611e3d565b60405180910390fd5b6000600360009054906101000a900473ffffffffffffffffffffffffffffffffffffffff1673ffffffffffffffffffffffffffffffffffffffff16636849a3ba846040518263ffffffff1660e01b8152600401610a6b9190611b6e565b602060405180830381600087803b158015610a8557600080fd5b505af1158015610a99573d6000803e3d6000fd5b505050506040513d601f19601f82011682018060405250810190610abd9190612298565b1415610afe576040517f08c379a0000000000000000000000000000000000000000000000000000000008152600401610af590612337565b60405180910390fd5b8173ffffffffffffffffffffffffffffffffffffffff166323b872dd3330866040518463ffffffff1660e01b8152600401610b3b93929190612357565b602060405180830381600087803b158015610b5557600080fd5b505af1158015610b69573d6000803e3d6000fd5b505050506040513d601f19601f82011682018060405250810190610b8d91906120a5565b610b9657600080fd5b82600760008473ffffffffffffffffffffffffffffffffffffffff1673ffffffffffffffffffffffffffffffffffffffff1681526020019081526020016000206000016000828254610be8919061238e565b92505081905550610bf88261123d565b828273ffffffffffffffffffffffffffffffffffffffff167f2ac90482c3b6bea30a2c085cf093016bad7f970d91c5fd233e6b848d3e231dc360405160405180910390a3610c44610d26565b905092915050565b60076020528060005260406000206000915090508060000154908060010160009054906101000a900460ff16908060010160019054906101000a900473ffffffffffffffffffffffffffffffffffffffff16908060010160159054906101000a900460ff16905084565b6040517f08c379a0000000000000000000000000000000000000000000000000000000008152600401610ce890612242565b60405180910390fd5b6000610cfb610d26565b905090565b600260009054906101000a900473ffffffffffffffffffffffffffffffffffffffff1681565b6000600260009054906101000a900473ffffffffffffffffffffffffffffffffffffffff1673ffffffffffffffffffffffffffffffffffffffff1663a6afed956040518163ffffffff1660e01b8152600401602060405180830381600087803b158015610d9257600080fd5b505af1158015610da6573d6000803e3d6000fd5b505050506040513d601f19601f82011682018060405250810190610dca91906123f9565b506000600260009054906101000a900473ffffffffffffffffffffffffffffffffffffffff1673ffffffffffffffffffffffffffffffffffffffff1663dc1f24e66040518163ffffffff1660e01b8152600401602060405180830381600087803b158015610e3757600080fd5b505af1158015610e4b573d6000803e3d6000fd5b505050506040513d601f19601f82011682018060405250810190610e6f91906123f9565b90506000610e7b610eba565b90506000811415610e9157600092505050610eb7565b6000821415610ea65760015492505050610eb7565b610eb281836012611805565b925050505b90565b6000806000905060005b60058054905081101561123557600060058281548110610ee757610ee6612426565b5b9060005260206000200160009054906101000a900473ffffffffffffffffffffffffffffffffffffffff1690506000600760008373ffffffffffffffffffffffffffffffffffffffff1673ffffffffffffffffffffffffffffffffffffffff1681526020019081526020016000206000015490506000811461122057600760008373ffffffffffffffffffffffffffffffffffffffff1673ffffffffffffffffffffffffffffffffffffffff16815260200190815260200160002060010160009054906101000a900460ff16156110cd576000808373ffffffffffffffffffffffffffffffffffffffff1683604051602401610fe391906119a2565b6040516020818303038152906040527f4cdad506000000000000000000000000000000000000000000000000000000007bffffffffffffffffffffffffffffffffffffffffffffffffffffffff19166020820180517bffffffffffffffffffffffffffffffffffffffffffffffffffffffff838183161783525050505060405161106d91906124cf565b6000604051808303816000865af19150503d80600081146110aa576040519150601f19603f3d011682016040523d82523d6000602084013e6110af565b606091505b5091509150808060200190518101906110c891906123f9565b925050505b6000600360009054906101000a900473ffffffffffffffffffffffffffffffffffffffff1673ffffffffffffffffffffffffffffffffffffffff16636849a3ba846040518263ffffffff1660e01b815260040161112a9190611b6e565b602060405180830381600087803b15801561114457600080fd5b505af1158015611158573d6000803e3d6000fd5b505050506040513d601f19601f8201168201806040525081019061117c9190612298565b9050600080821261118d5781611190565b60005b9050600760008573ffffffffffffffffffffffffffffffffffffffff1673ffffffffffffffffffffffffffffffffffffffff16815260200190815260200160002060010160159054906101000a900460ff16600a6111ee9190612619565b60016111fa9190612664565b83826112069190612664565b61121091906126ed565b8661121b919061238e565b955050505b5050808061122d9061271e565b915050610ec4565b508091505090565b600660008273ffffffffffffffffffffffffffffffffffffffff1673ffffffffffffffffffffffffffffffffffffffff16815260200190815260200160002060009054906101000a900460ff16611802576001600660008373ffffffffffffffffffffffffffffffffffffffff1673ffffffffffffffffffffffffffffffffffffffff16815260200190815260200160002060006101000a81548160ff0219169083151502179055506005819080600181540180825580915050600190039060005260206000200160009091909190916101000a81548173ffffffffffffffffffffffffffffffffffffffff021916908373ffffffffffffffffffffffffffffffffffffffff1602179055506000808273ffffffffffffffffffffffffffffffffffffffff166040516024016040516020818303038152906040527f38d52e0f000000000000000000000000000000000000000000000000000000007bffffffffffffffffffffffffffffffffffffffffffffffffffffffff19166020820180517bffffffffffffffffffffffffffffffffffffffffffffffffffffffff83818316178352505050506040516113f391906124cf565b6000604051808303816000865af19150503d8060008114611430576040519150601f19603f3d011682016040523d82523d6000602084013e611435565b606091505b509150915060008082511180156114495750825b905080600760008673ffffffffffffffffffffffffffffffffffffffff1673ffffffffffffffffffffffffffffffffffffffff16815260200190815260200160002060010160006101000a81548160ff021916908315150217905550801561154457818060200190518101906114bf91906127a5565b600760008673ffffffffffffffffffffffffffffffffffffffff1673ffffffffffffffffffffffffffffffffffffffff16815260200190815260200160002060010160016101000a81548173ffffffffffffffffffffffffffffffffffffffff021916908373ffffffffffffffffffffffffffffffffffffffff1602179055506115c6565b83600760008673ffffffffffffffffffffffffffffffffffffffff1673ffffffffffffffffffffffffffffffffffffffff16815260200190815260200160002060010160016101000a81548173ffffffffffffffffffffffffffffffffffffffff021916908373ffffffffffffffffffffffffffffffffffffffff1602179055505b600080600760008773ffffffffffffffffffffffffffffffffffffffff1673ffffffffffffffffffffffffffffffffffffffff16815260200190815260200160002060010160019054906101000a900473ffffffffffffffffffffffffffffffffffffffff1673ffffffffffffffffffffffffffffffffffffffff166040516024016040516020818303038152906040527f313ce567000000000000000000000000000000000000000000000000000000007bffffffffffffffffffffffffffffffffffffffffffffffffffffffff19166020820180517bffffffffffffffffffffffffffffffffffffffffffffffffffffffff83818316178352505050506040516116d291906124cf565b6000604051808303816000865af19150503d806000811461170f576040519150601f19603f3d011682016040523d82523d6000602084013e611714565b606091505b5091509150600081511180156117275750815b1561179f578080602001905181019061174091906127fe565b600760008873ffffffffffffffffffffffffffffffffffffffff1673ffffffffffffffffffffffffffffffffffffffff16815260200190815260200160002060010160156101000a81548160ff021916908360ff1602179055506117fc565b6012600760008873ffffffffffffffffffffffffffffffffffffffff1673ffffffffffffffffffffffffffffffffffffffff16815260200190815260200160002060010160156101000a81548160ff021916908360ff1602179055505b50505050505b50565b600080600183611815919061238e565b600a611821919061282b565b8561182c9190612664565b90506000600a6005868461184091906126ed565b61184a919061238e565b61185491906126ed565b905080925050509392505050565b6000604051905090565b600080fd5b600080fd5b6000819050919050565b61188981611876565b811461189457600080fd5b50565b6000813590506118a681611880565b92915050565b600073ffffffffffffffffffffffffffffffffffffffff82169050919050565b60006118d7826118ac565b9050919050565b6118e7816118cc565b81146118f257600080fd5b50565b600081359050611904816118de565b92915050565b6000806000606084860312156119235761192261186c565b5b600061193186828701611897565b9350506020611942868287016118f5565b9250506040611953868287016118f5565b9150509250925092565b60008115159050919050565b6119728161195d565b82525050565b600060208201905061198d6000830184611969565b92915050565b61199c81611876565b82525050565b60006020820190506119b76000830184611993565b92915050565b600080fd5b6000601f19601f8301169050919050565b7f4e487b7100000000000000000000000000000000000000000000000000000000600052604160045260246000fd5b611a0b826119c2565b810181811067ffffffffffffffff82111715611a2a57611a296119d3565b5b80604052505050565b6000611a3d611862565b9050611a498282611a02565b919050565b600067ffffffffffffffff821115611a6957611a686119d3565b5b602082029050602081019050919050565b600080fd5b6000611a92611a8d84611a4e565b611a33565b90508083825260208201905060208402830185811115611ab557611ab4611a7a565b5b835b81811015611ade5780611aca88826118f5565b845260208401935050602081019050611ab7565b5050509392505050565b600082601f830112611afd57611afc6119bd565b5b8135611b0d848260208601611a7f565b91505092915050565b600060208284031215611b2c57611b2b61186c565b5b600082013567ffffffffffffffff811115611b4a57611b49611871565b5b611b5684828501611ae8565b91505092915050565b611b68816118cc565b82525050565b6000602082019050611b836000830184611b5f565b92915050565b600060208284031215611b9f57611b9e61186c565b5b6000611bad848285016118f5565b91505092915050565b60007fffffffff0000000000000000000000000000000000000000000000000000000082169050919050565b611beb81611bb6565b82525050565b6000604082019050611c066000830185611be2565b611c136020830184611be2565b9392505050565b600080fd5b600080fd5b611c2d81611bb6565b8114611c3857600080fd5b50565b600081359050611c4a81611c24565b92915050565b600060608284031215611c6657611c65611c1a565b5b611c706060611a33565b90506000611c8084828501611c3b565b6000830152506020611c9484828501611c3b565b602083015250604082013567ffffffffffffffff811115611cb857611cb7611c1f565b5b611cc484828501611ae8565b60408301525092915050565b600080600060608486031215611ce957611ce861186c565b5b6000611cf7868287016118f5565b9350506020611d0886828701611897565b925050604084013567ffffffffffffffff811115611d2957611d28611871565b5b611d3586828701611c50565b9150509250925092565b60008060408385031215611d5657611d5561186c565b5b6000611d6485828601611897565b9250506020611d75858286016118f5565b9150509250929050565b600060ff82169050919050565b611d9581611d7f565b82525050565b6000608082019050611db06000830187611993565b611dbd6020830186611969565b611dca6040830185611b5f565b611dd76060830184611d8c565b95945050505050565b600082825260208201905092915050565b7f457363726f773a20616d6f756e74206973203000000000000000000000000000600082015250565b6000611e27601383611de0565b9150611e3282611df1565b602082019050919050565b60006020820190508181036000830152611e5681611e1a565b9050919050565b7f457363726f773a206d73672e73656e646572206d75737420626520746865206c60008201527f6f616e20636f6e74726163740000000000000000000000000000000000000000602082015250565b6000611eb9602c83611de0565b9150611ec482611e5d565b604082019050919050565b60006020820190508181036000830152611ee881611eac565b9050919050565b7f457363726f773a206e6f7420656c696769626c6520666f72206c69717569646160008201527f74696f6e00000000000000000000000000000000000000000000000000000000602082015250565b6000611f4b602483611de0565b9150611f5682611eef565b604082019050919050565b60006020820190508181036000830152611f7a81611f3e565b9050919050565b7f457363726f773a20696e73756666696369656e742062616c616e636500000000600082015250565b6000611fb7601c83611de0565b9150611fc282611f81565b602082019050919050565b60006020820190508181036000830152611fe681611faa565b9050919050565b7f4e487b7100000000000000000000000000000000000000000000000000000000600052601160045260246000fd5b600061202782611876565b915061203283611876565b92508282101561204557612044611fed565b5b828203905092915050565b60006040820190506120656000830185611b5f565b6120726020830184611993565b9392505050565b6120828161195d565b811461208d57600080fd5b50565b60008151905061209f81612079565b92915050565b6000602082840312156120bb576120ba61186c565b5b60006120c984828501612090565b91505092915050565b7f457363726f773a206f6e6c7920626f72726f7765722063616e2063616c6c0000600082015250565b6000612108601e83611de0565b9150612113826120d2565b602082019050919050565b60006020820190508181036000830152612137816120fb565b9050919050565b7f457363726f773a2063616e6e6f742072656c6561736520636f6c6c617465726160008201527f6c2069662063726174696f206265636f6d6573206c6f776572207468616e207460208201527f6865206d696e696d756d00000000000000000000000000000000000000000000604082015250565b60006121c0604a83611de0565b91506121cb8261213e565b606082019050919050565b600060208201905081810360008301526121ef816121b3565b9050919050565b7f4e6f7420696d706c656d656e7465640000000000000000000000000000000000600082015250565b600061222c600f83611de0565b9150612237826121f6565b602082019050919050565b6000602082019050818103600083015261225b8161221f565b9050919050565b6000819050919050565b61227581612262565b811461228057600080fd5b50565b6000815190506122928161226c565b92915050565b6000602082840312156122ae576122ad61186c565b5b60006122bc84828501612283565b91505092915050565b7f457363726f773a206465706f736974656420746f6b656e20646f6573206e6f7460008201527f2068617665206120707269636520666565640000000000000000000000000000602082015250565b6000612321603283611de0565b915061232c826122c5565b604082019050919050565b6000602082019050818103600083015261235081612314565b9050919050565b600060608201905061236c6000830186611b5f565b6123796020830185611b5f565b6123866040830184611993565b949350505050565b600061239982611876565b91506123a483611876565b9250827fffffffffffffffffffffffffffffffffffffffffffffffffffffffffffffffff038211156123d9576123d8611fed565b5b828201905092915050565b6000815190506123f381611880565b92915050565b60006020828403121561240f5761240e61186c565b5b600061241d848285016123e4565b91505092915050565b7f4e487b7100000000000000000000000000000000000000000000000000000000600052603260045260246000fd5b600081519050919050565b600081905092915050565b60005b8381101561248957808201518184015260208101905061246e565b83811115612498576000848401525b50505050565b60006124a982612455565b6124b38185612460565b93506124c381856020860161246b565b80840191505092915050565b60006124db828461249e565b915081905092915050565b60008160011c9050919050565b6000808291508390505b600185111561253d5780860481111561251957612518611fed565b5b60018516156125285780820291505b8081029050612536856124e6565b94506124fd565b94509492505050565b6000826125565760019050612612565b816125645760009050612612565b816001811461257a5760028114612584576125b3565b6001915050612612565b60ff84111561259657612595611fed565b5b8360020a9150848211156125ad576125ac611fed565b5b50612612565b5060208310610133831016604e8410600b84101617156125e85782820a9050838111156125e3576125e2611fed565b5b612612565b6125f584848460016124f3565b9250905081840481111561260c5761260b611fed565b5b81810290505b9392505050565b600061262482611876565b915061262f83611d7f565b925061265c7fffffffffffffffffffffffffffffffffffffffffffffffffffffffffffffffff8484612546565b905092915050565b600061266f82611876565b915061267a83611876565b9250817fffffffffffffffffffffffffffffffffffffffffffffffffffffffffffffffff04831182151516156126b3576126b2611fed565b5b828202905092915050565b7f4e487b7100000000000000000000000000000000000000000000000000000000600052601260045260246000fd5b60006126f882611876565b915061270383611876565b925082612713576127126126be565b5b828204905092915050565b600061272982611876565b91507fffffffffffffffffffffffffffffffffffffffffffffffffffffffffffffffff82141561275c5761275b611fed565b5b600182019050919050565b6000612772826118ac565b9050919050565b61278281612767565b811461278d57600080fd5b50565b60008151905061279f81612779565b92915050565b6000602082840312156127bb576127ba61186c565b5b60006127c984828501612790565b91505092915050565b6127db81611d7f565b81146127e657600080fd5b50565b6000815190506127f8816127d2565b92915050565b6000602082840312156128145761281361186c565b5b6000612822848285016127e9565b91505092915050565b600061283682611876565b915061284183611876565b925061286e7fffffffffffffffffffffffffffffffffffffffffffffffffffffffffffffffff8484612546565b90509291505056fea2646970667358221220ae0a266eebd02ecafb2b7ad2ca5b481e1033bcb5e4172b42db6421c9222b61de64736f6c63430008090033",
  "linkReferences": {},
  "deployedLinkReferences": {}
}