{
  "abi": [
    {
      "inputs": [
        {
          "internalType": "uint32",
          "name": "_minimumCollateralRatio",
          "type": "uint32"
        },
        {
          "internalType": "address",
          "name": "_oracle",
          "type": "address"
        },
        {
          "internalType": "address",
          "name": "_line",
          "type": "address"
        },
        {
          "internalType": "address",
          "name": "_borrower",
          "type": "address"
        }
      ],
      "stateMutability": "nonpayable",
      "type": "constructor"
    },
    {
      "inputs": [],
      "name": "CallerAccessDenied",
      "type": "error"
    },
    {
      "inputs": [],
      "name": "InvalidCollateral",
      "type": "error"
    },
    {
      "inputs": [],
      "name": "NotLiquidatable",
      "type": "error"
    },
    {
      "inputs": [],
      "name": "UnderCollateralized",
      "type": "error"
    },
    {
      "anonymous": false,
      "inputs": [
        {
          "indexed": true,
          "internalType": "address",
          "name": "token",
          "type": "address"
        },
        {
          "indexed": true,
          "internalType": "uint256",
          "name": "amount",
          "type": "uint256"
        }
      ],
      "name": "AddCollateral",
      "type": "event"
    },
    {
      "anonymous": false,
      "inputs": [
        {
          "indexed": true,
          "internalType": "address",
          "name": "token",
          "type": "address"
        }
      ],
      "name": "EnableCollateral",
      "type": "event"
    },
    {
      "anonymous": false,
      "inputs": [
        {
          "indexed": true,
          "internalType": "address",
          "name": "token",
          "type": "address"
        },
        {
          "indexed": true,
          "internalType": "uint256",
          "name": "amount",
          "type": "uint256"
        }
      ],
      "name": "RemoveCollateral",
      "type": "event"
    },
    {
      "inputs": [
        {
          "internalType": "uint256",
          "name": "amount",
          "type": "uint256"
        },
        {
          "internalType": "address",
          "name": "token",
          "type": "address"
        }
      ],
      "name": "addCollateral",
      "outputs": [
        {
          "internalType": "uint256",
          "name": "",
          "type": "uint256"
        }
      ],
      "stateMutability": "payable",
      "type": "function"
    },
    {
      "inputs": [],
      "name": "borrower",
      "outputs": [
        {
          "internalType": "address",
          "name": "",
          "type": "address"
        }
      ],
      "stateMutability": "view",
      "type": "function"
    },
    {
      "inputs": [
        {
          "internalType": "address",
          "name": "token",
          "type": "address"
        }
      ],
      "name": "enableCollateral",
      "outputs": [
        {
          "internalType": "bool",
          "name": "",
          "type": "bool"
        }
      ],
      "stateMutability": "nonpayable",
      "type": "function"
    },
    {
      "inputs": [],
      "name": "getCollateralRatio",
      "outputs": [
        {
          "internalType": "uint256",
          "name": "",
          "type": "uint256"
        }
      ],
      "stateMutability": "nonpayable",
      "type": "function"
    },
    {
      "inputs": [],
      "name": "getCollateralValue",
      "outputs": [
        {
          "internalType": "uint256",
          "name": "",
          "type": "uint256"
        }
      ],
      "stateMutability": "nonpayable",
      "type": "function"
    },
    {
      "inputs": [],
      "name": "isLiquidatable",
      "outputs": [
        {
          "internalType": "bool",
          "name": "",
          "type": "bool"
        }
      ],
      "stateMutability": "nonpayable",
      "type": "function"
    },
    {
      "inputs": [],
      "name": "line",
      "outputs": [
        {
          "internalType": "address",
          "name": "",
          "type": "address"
        }
      ],
      "stateMutability": "view",
      "type": "function"
    },
    {
      "inputs": [
        {
          "internalType": "uint256",
          "name": "amount",
          "type": "uint256"
        },
        {
          "internalType": "address",
          "name": "token",
          "type": "address"
        },
        {
          "internalType": "address",
          "name": "to",
          "type": "address"
        }
      ],
      "name": "liquidate",
      "outputs": [
        {
          "internalType": "bool",
          "name": "",
          "type": "bool"
        }
      ],
      "stateMutability": "nonpayable",
      "type": "function"
    },
    {
      "inputs": [],
      "name": "minimumCollateralRatio",
      "outputs": [
        {
          "internalType": "uint32",
          "name": "",
          "type": "uint32"
        }
      ],
      "stateMutability": "view",
      "type": "function"
    },
    {
      "inputs": [],
      "name": "oracle",
      "outputs": [
        {
          "internalType": "address",
          "name": "",
          "type": "address"
        }
      ],
      "stateMutability": "view",
      "type": "function"
    },
    {
      "inputs": [
        {
          "internalType": "uint256",
          "name": "amount",
          "type": "uint256"
        },
        {
          "internalType": "address",
          "name": "token",
          "type": "address"
        },
        {
          "internalType": "address",
          "name": "to",
          "type": "address"
        }
      ],
      "name": "releaseCollateral",
      "outputs": [
        {
          "internalType": "uint256",
          "name": "",
          "type": "uint256"
        }
      ],
      "stateMutability": "nonpayable",
      "type": "function"
    },
    {
      "inputs": [
        {
          "internalType": "address",
          "name": "_line",
          "type": "address"
        }
      ],
      "name": "updateLine",
      "outputs": [
        {
          "internalType": "bool",
          "name": "",
          "type": "bool"
        }
      ],
      "stateMutability": "nonpayable",
      "type": "function"
    }
  ],
  "bytecode": {
    "object": "0x60e060405234801561001057600080fd5b50604051610a95380380610a9583398101604081905261002f91610085565b63ffffffff939093166080526001600160a01b0391821660a052600080546001600160a01b0319169183169190911790551660c0526100e4565b80516001600160a01b038116811461008057600080fd5b919050565b6000806000806080858703121561009b57600080fd5b845163ffffffff811681146100af57600080fd5b93506100bd60208601610069565b92506100cb60408601610069565b91506100d960608601610069565b905092959194509250565b60805160a05160c051610943610152600039600081816101a20152610418015260008181610156015281816103540152818161044001528181610538015281816106680152818161071e01526107e90152600081816101d60152818161046d015261056401526109436000f3fe6080604052600436106100a75760003560e01c80639f1837ce116100645780639f1837ce146101c4578063a2c5925f1461020d578063b56b83531461022d578063c047e5631461024b578063cadac47914610260578063cd377c531461027357600080fd5b8063060336ec146100ac57806311be0de5146100e1578063250bc38414610101578063578c65e41461012f5780637dc0d1d0146101445780637df1f1b914610190575b600080fd5b3480156100b857600080fd5b506100cc6100c736600461084f565b610288565b60405190151581526020015b60405180910390f35b3480156100ed57600080fd5b506100cc6100fc36600461088b565b610334565b34801561010d57600080fd5b5061012161011c36600461084f565b6103f8565b6040519081526020016100d8565b34801561013b57600080fd5b506100cc610518565b34801561015057600080fd5b506101787f000000000000000000000000000000000000000000000000000000000000000081565b6040516001600160a01b0390911681526020016100d8565b34801561019c57600080fd5b506101787f000000000000000000000000000000000000000000000000000000000000000081565b3480156101d057600080fd5b506101f87f000000000000000000000000000000000000000000000000000000000000000081565b60405163ffffffff90911681526020016100d8565b34801561021957600080fd5b506100cc61022836600461088b565b6105fe565b34801561023957600080fd5b506000546001600160a01b0316610178565b34801561025757600080fd5b50610121610648565b61012161026e3660046108a6565b6106fe565b34801561027f57600080fd5b506101216107c9565b60405163ec77178760e01b8152600060048201819052602482018590526001600160a01b038085166044840152831660648301529073__$8daa6fbba8f2011ed51a616355b87438bf$__9063ec7717879060840160206040518083038186803b1580156102f457600080fd5b505af4158015610308573d6000803e3d6000fd5b505050506040513d601f19601f8201168201806040525081019061032c91906108d2565b949350505050565b604051631377ce7f60e01b81526000600482018190526001600160a01b037f000000000000000000000000000000000000000000000000000000000000000081166024840152831660448301529073__$8daa6fbba8f2011ed51a616355b87438bf$__90631377ce7f906064015b60206040518083038186803b1580156103ba57600080fd5b505af41580156103ce573d6000803e3d6000fd5b505050506040513d601f19601f820116820180604052508101906103f291906108d2565b92915050565b604051631a505ed360e11b81526000600482018190526001600160a01b037f0000000000000000000000000000000000000000000000000000000000000000811660248401527f00000000000000000000000000000000000000000000000000000000000000008116604484015263ffffffff7f00000000000000000000000000000000000000000000000000000000000000001660648401526084830186905280851660a4840152831660c48301529073__$8daa6fbba8f2011ed51a616355b87438bf$__906334a0bda69060e40160206040518083038186803b1580156104e057600080fd5b505af41580156104f4573d6000803e3d6000fd5b505050506040513d601f19601f8201168201806040525081019061032c91906108f4565b604051630e36a96960e31b81526000600482018190526001600160a01b037f000000000000000000000000000000000000000000000000000000000000000016602483015263ffffffff7f00000000000000000000000000000000000000000000000000000000000000001660448301529073__$8daa6fbba8f2011ed51a616355b87438bf$__906371b54b489060640160206040518083038186803b1580156105c157600080fd5b505af41580156105d5573d6000803e3d6000fd5b505050506040513d601f19601f820116820180604052508101906105f991906108d2565b905090565b604051630b0cb18160e41b81526000600482018190526001600160a01b03831660248301529073__$8daa6fbba8f2011ed51a616355b87438bf$__9063b0cb1810906044016103a2565b60405163796748bf60e11b81526000600482018190526001600160a01b037f00000000000000000000000000000000000000000000000000000000000000001660248301529073__$8daa6fbba8f2011ed51a616355b87438bf$__9063f2ce917e906044015b60206040518083038186803b1580156106c657600080fd5b505af41580156106da573d6000803e3d6000fd5b505050506040513d601f19601f820116820180604052508101906105f991906108f4565b604051633d9e93eb60e21b81526000600482018190526001600160a01b037f00000000000000000000000000000000000000000000000000000000000000008116602484015260448301859052831660648301529073__$8daa6fbba8f2011ed51a616355b87438bf$__9063f67a4fac9060840160206040518083038186803b15801561078a57600080fd5b505af415801561079e573d6000803e3d6000fd5b505050506040513d601f19601f820116820180604052508101906107c291906108f4565b9392505050565b60405163788fa08960e01b81526000600482018190526001600160a01b037f00000000000000000000000000000000000000000000000000000000000000001660248301529073__$8daa6fbba8f2011ed51a616355b87438bf$__9063788fa089906044016106ae565b80356001600160a01b038116811461084a57600080fd5b919050565b60008060006060848603121561086457600080fd5b8335925061087460208501610833565b915061088260408501610833565b90509250925092565b60006020828403121561089d57600080fd5b6107c282610833565b600080604083850312156108b957600080fd5b823591506108c960208401610833565b90509250929050565b6000602082840312156108e457600080fd5b815180151581146107c257600080fd5b60006020828403121561090657600080fd5b505191905056fea26469706673582212207df260e65ecb812d9e22bbc78e488d95b652813e4e2f1e295db4b8344de2de7164736f6c63430008090033",
    "linkReferences": {
      "contracts/utils/EscrowLib.sol": {
        "EscrowLib": [
          {
            "start": 1041,
            "length": 20
          },
          {
            "start": 1238,
            "length": 20
          },
          {
            "start": 1533,
            "length": 20
          },
          {
            "start": 1758,
            "length": 20
          },
          {
            "start": 1912,
            "length": 20
          },
          {
            "start": 2018,
            "length": 20
          },
          {
            "start": 2215,
            "length": 20
          },
          {
            "start": 2403,
            "length": 20
          }
        ]
      }
    }
  },
  "methodIdentifiers": {
    "addCollateral(uint256,address)": "cadac479",
    "borrower()": "7df1f1b9",
    "enableCollateral(address)": "11be0de5",
    "getCollateralRatio()": "cd377c53",
    "getCollateralValue()": "c047e563",
    "isLiquidatable()": "578c65e4",
    "line()": "b56b8353",
    "liquidate(uint256,address,address)": "060336ec",
    "minimumCollateralRatio()": "9f1837ce",
    "oracle()": "7dc0d1d0",
    "releaseCollateral(uint256,address,address)": "250bc384",
    "updateLine(address)": "a2c5925f"
  },
  "userdoc": {
    "version": 1,
    "kind": "user",
    "methods": {
      "addCollateral(uint256,address)": {
        "notice": "add collateral to your position"
      },
      "enableCollateral(address)": {
        "notice": "- allows  the lines arbiter to  enable thdeposits of an asset        - gives  better risk segmentation forlenders"
      },
      "getCollateralRatio()": {
        "notice": "calculates the cratio"
      },
      "getCollateralValue()": {
        "notice": "calculates the collateral value in USD to 8 decimals"
      },
      "liquidate(uint256,address,address)": {
        "notice": "liquidates borrowers collateral by token and amount         line can liquidate at anytime based off other covenants besides cratio"
      },
      "releaseCollateral(uint256,address,address)": {
        "notice": "remove collateral from your position. Must remain above min collateral ratio"
      }
    }
  },
  "devdoc": {
    "version": 1,
    "kind": "dev",
    "methods": {
      "addCollateral(uint256,address)": {
        "details": "updates cratiorequires that the token deposited can be valued by the escrow's oracle & the depositor has approved this contract- callable by anyone",
        "params": {
          "amount": "- the amount of collateral to add",
          "token": "- the token address of the deposited token"
        },
        "returns": {
          "_0": "- the updated cratio"
        }
      },
      "enableCollateral(address)": {
        "details": "- whitelisting protects against malicious 4626 tokens and DoS attacks       - only need to allow once. Can not disable collateral once enabled.",
        "params": {
          "token": "- the token to all borrow to deposit as collateral"
        }
      },
      "getCollateralRatio()": {
        "details": "callable by anyone",
        "returns": {
          "_0": "- the calculated cratio"
        }
      },
      "getCollateralValue()": {
        "details": "callable by anyone",
        "returns": {
          "_0": "- the calculated collateral value to 8 decimals"
        }
      },
      "liquidate(uint256,address,address)": {
        "details": "requires that the cratio is at or below the liquidation thresholdcallable by `line`",
        "params": {
          "amount": "- the amount of tokens to liquidate",
          "to": "- the address to receive the funds",
          "token": "- the address of the token to draw funds from"
        },
        "returns": {
          "_0": "- true if successful"
        }
      },
      "releaseCollateral(uint256,address,address)": {
        "details": "callable by `borrower`updates cratio",
        "params": {
          "amount": "- the amount of collateral to release",
          "to": "- who should receive the funds",
          "token": "- the token address to withdraw"
        },
        "returns": {
          "_0": "- the updated cratio"
        }
      }
    }
  },
  "id": 23
}