{
  "abi": [
    {
      "anonymous": false,
      "inputs": [
        {
          "indexed": true,
          "internalType": "address",
          "name": "deployedAt",
          "type": "address"
        },
        {
          "indexed": true,
          "internalType": "uint32",
          "name": "minCRatio",
          "type": "uint32"
        },
        {
          "indexed": true,
          "internalType": "address",
          "name": "oracle",
          "type": "address"
        },
        {
          "indexed": false,
          "internalType": "address",
          "name": "owner",
          "type": "address"
        }
      ],
      "name": "DeployedEscrow",
      "type": "event"
    },
    {
      "anonymous": false,
      "inputs": [
        {
          "indexed": true,
          "internalType": "address",
          "name": "deployedAt",
          "type": "address"
        },
        {
          "indexed": true,
          "internalType": "address",
          "name": "owner",
          "type": "address"
        },
        {
          "indexed": true,
          "internalType": "address",
          "name": "treasury",
          "type": "address"
        },
        {
          "indexed": false,
          "internalType": "address",
          "name": "operator",
          "type": "address"
        }
      ],
      "name": "DeployedSpigot",
      "type": "event"
    },
    {
      "inputs": [
        {
          "internalType": "uint32",
          "name": "minCRatio",
          "type": "uint32"
        },
        {
          "internalType": "address",
          "name": "oracle",
          "type": "address"
        },
        {
          "internalType": "address",
          "name": "owner",
          "type": "address"
        },
        {
          "internalType": "address",
          "name": "borrower",
          "type": "address"
        }
      ],
      "name": "deployEscrow",
      "outputs": [
        {
          "internalType": "address",
          "name": "module",
          "type": "address"
        }
      ],
      "stateMutability": "nonpayable",
      "type": "function"
    },
    {
      "inputs": [
        {
          "internalType": "address",
          "name": "owner",
          "type": "address"
        },
        {
          "internalType": "address",
          "name": "treasury",
          "type": "address"
        },
        {
          "internalType": "address",
          "name": "operator",
          "type": "address"
        }
      ],
      "name": "deploySpigot",
      "outputs": [
        {
          "internalType": "address",
          "name": "module",
          "type": "address"
        }
      ],
      "stateMutability": "nonpayable",
      "type": "function"
    }
  ],
  "bytecode": {
    "object": "0x608060405234801561001057600080fd5b50611c59806100206000396000f3fe608060405234801561001057600080fd5b50600436106100365760003560e01c806343adf0fd1461003b578063fc049db81461006a575b600080fd5b61004e610049366004610233565b61007d565b6040516001600160a01b03909116815260200160405180910390f35b61004e610078366004610276565b610138565b600083838360405161008e906101fd565b6001600160a01b03938416815291831660208301529091166040820152606001604051809103906000f0801580156100ca573d6000803e3d6000fd5b509050826001600160a01b0316846001600160a01b0316826001600160a01b03167f428bf1b02d25cb7e5bcda01978a9d59b201bc137c2d6dfc5d0ab7aab50abf2428560405161012991906001600160a01b0391909116815260200190565b60405180910390a49392505050565b60008484848460405161014a9061020a565b63ffffffff90941684526001600160a01b0392831660208501529082166040840152166060820152608001604051809103906000f080158015610191573d6000803e3d6000fd5b509050816001600160a01b03168563ffffffff16826001600160a01b03167f795112e1546f70e94f47252ccd7189f90d711b2e6557885dc3def7b589c7f7ac866040516101ed91906001600160a01b0391909116815260200190565b60405180910390a4949350505050565b610eb9806102d683390190565b610a958061118f83390190565b80356001600160a01b038116811461022e57600080fd5b919050565b60008060006060848603121561024857600080fd5b61025184610217565b925061025f60208501610217565b915061026d60408501610217565b90509250925092565b6000806000806080858703121561028c57600080fd5b843563ffffffff811681146102a057600080fd5b93506102ae60208601610217565b92506102bc60408601610217565b91506102ca60608601610217565b90509295919450925056fe608060405234801561001057600080fd5b50604051610eb9380380610eb983398101604081905261002f91610092565b6001600081905580546001600160a01b039485166001600160a01b0319918216179091556002805492851692821692909217909155600380549290931691161790556100d5565b80516001600160a01b038116811461008d57600080fd5b919050565b6000806000606084860312156100a757600080fd5b6100b084610076565b92506100be60208501610076565b91506100cc60408501610076565b90509250925092565b610dd5806100e46000396000f3fe6080604052600436106100f75760003560e01c8063880cdc311161008a578063c2ae60d811610059578063c2ae60d8146102b4578063d2ee198614610310578063d403e9ec14610330578063f9b0631e1461035057600080fd5b8063880cdc31146102365780638da5cb5b14610256578063ac7475ed14610274578063b8bf1c091461029457600080fd5b806353ad370d116100c657806353ad370d146101a6578063570ca735146101c657806361d027b3146101f85780637f51bb1f1461021657600080fd5b806302b0d26d1461010357806308b6eb411461013657806312879a52146101565780631846f4791461018657600080fd5b366100fe57005b600080fd5b34801561010f57600080fd5b5061012361011e366004610aa0565b610370565b6040519081526020015b60405180910390f35b34801561014257600080fd5b50610123610151366004610abd565b61040b565b34801561016257600080fd5b50610176610171366004610b5c565b610505565b604051901515815260200161012d565b34801561019257600080fd5b506101766101a1366004610aa0565b6105ab565b3480156101b257600080fd5b506101766101c1366004610abd565b610641565b3480156101d257600080fd5b506002546001600160a01b03165b6040516001600160a01b03909116815260200161012d565b34801561020457600080fd5b506003546001600160a01b03166101e0565b34801561022257600080fd5b50610176610231366004610aa0565b6106da565b34801561024257600080fd5b50610176610251366004610aa0565b610724565b34801561026257600080fd5b506001546001600160a01b03166101e0565b34801561028057600080fd5b5061017661028f366004610aa0565b61076e565b3480156102a057600080fd5b506101766102af366004610bb6565b6107b8565b3480156102c057600080fd5b506102d46102cf366004610aa0565b610839565b604080516001600160a01b03909516855260ff90931660208501526001600160e01b03199182169284019290925216606082015260800161012d565b34801561031c57600080fd5b5061017661032b366004610c6a565b6108e3565b34801561033c57600080fd5b5061017661034b366004610c95565b61092e565b34801561035c57600080fd5b5061012361036b366004610aa0565b610981565b60405163036579e760e41b8152600160048201526001600160a01b038216602482015260009073d40bf1dc5c9ed959642443876d79fde2ff81196a906336579e709060440160206040518083038186803b1580156103cd57600080fd5b505af41580156103e1573d6000803e3d6000fd5b505050506040513d601f19601f820116820180604052508101906104059190610cc3565b92915050565b6000600260005414156104655760405162461bcd60e51b815260206004820152601f60248201527f5265656e7472616e637947756172643a207265656e7472616e742063616c6c0060448201526064015b60405180910390fd5b6002600055604051633696616360e11b815273d40bf1dc5c9ed959642443876d79fde2ff81196a90636d2cc2c6906104a890600190889088908890600401610cdc565b60206040518083038186803b1580156104c057600080fd5b505af41580156104d4573d6000803e3d6000fd5b505050506040513d601f19601f820116820180604052508101906104f89190610cc3565b6001600055949350505050565b6040516324c4684d60e21b8152600160048201526001600160a01b038316602482015260ff8216604482015260009073d40bf1dc5c9ed959642443876d79fde2ff81196a90639311a134906064015b60206040518083038186803b15801561056c57600080fd5b505af4158015610580573d6000803e3d6000fd5b505050506040513d601f19601f820116820180604052508101906105a49190610d23565b9392505050565b60405163d72efba960e01b8152600160048201526001600160a01b038216602482015260009073d40bf1dc5c9ed959642443876d79fde2ff81196a9063d72efba9906044015b60206040518083038186803b15801561060957600080fd5b505af415801561061d573d6000803e3d6000fd5b505050506040513d601f19601f820116820180604052508101906104059190610d23565b604051637f6b516f60e01b815260009073d40bf1dc5c9ed959642443876d79fde2ff81196a90637f6b516f9061068290600190889088908890600401610cdc565b60206040518083038186803b15801561069a57600080fd5b505af41580156106ae573d6000803e3d6000fd5b505050506040513d601f19601f820116820180604052508101906106d29190610d23565b949350505050565b604051634467db4960e11b8152600160048201526001600160a01b038216602482015260009073d40bf1dc5c9ed959642443876d79fde2ff81196a906388cfb692906044016105f1565b604051633f279f2760e11b8152600160048201526001600160a01b038216602482015260009073d40bf1dc5c9ed959642443876d79fde2ff81196a90637e4f3e4e906044016105f1565b60405163939ee34160e01b8152600160048201526001600160a01b038216602482015260009073d40bf1dc5c9ed959642443876d79fde2ff81196a9063939ee341906044016105f1565b6040805163f51fdc4b60e01b8152600160048201526001600160a01b0380851660248301528351166044820152602083015160ff166064820152908201516001600160e01b0319908116608483015260608301511660a482015260009073d40bf1dc5c9ed959642443876d79fde2ff81196a9063f51fdc4b9060c401610554565b604051634f94f74160e01b8152600160048201526001600160a01b038216602482015260009081908190819073d40bf1dc5c9ed959642443876d79fde2ff81196a90634f94f7419060440160806040518083038186803b15801561089c57600080fd5b505af41580156108b0573d6000803e3d6000fd5b505050506040513d601f19601f820116820180604052508101906108d49190610d40565b93509350935093509193509193565b6040516320a7a3e560e01b8152600160048201526001600160e01b03198216602482015260009073d40bf1dc5c9ed959642443876d79fde2ff81196a906320a7a3e5906044016105f1565b604051633f28cbf160e01b8152600160048201526001600160e01b031983166024820152811515604482015260009073d40bf1dc5c9ed959642443876d79fde2ff81196a90633f28cbf190606401610554565b6000600260005414156109d65760405162461bcd60e51b815260206004820152601f60248201527f5265656e7472616e637947756172643a207265656e7472616e742063616c6c00604482015260640161045c565b6002600055604051633f166fdf60e21b8152600160048201526001600160a01b038316602482015273d40bf1dc5c9ed959642443876d79fde2ff81196a9063fc59bf7c9060440160206040518083038186803b158015610a3557600080fd5b505af4158015610a49573d6000803e3d6000fd5b505050506040513d601f19601f82011682018060405250810190610a6d9190610cc3565b600160005592915050565b6001600160a01b0381168114610a8d57600080fd5b50565b8035610a9b81610a78565b919050565b600060208284031215610ab257600080fd5b81356105a481610a78565b600080600060408486031215610ad257600080fd5b8335610add81610a78565b9250602084013567ffffffffffffffff80821115610afa57600080fd5b818601915086601f830112610b0e57600080fd5b813581811115610b1d57600080fd5b876020828501011115610b2f57600080fd5b6020830194508093505050509250925092565b60ff81168114610a8d57600080fd5b8035610a9b81610b42565b60008060408385031215610b6f57600080fd5b8235610b7a81610a78565b91506020830135610b8a81610b42565b809150509250929050565b6001600160e01b031981168114610a8d57600080fd5b8035610a9b81610b95565b60008082840360a0811215610bca57600080fd5b8335610bd581610a78565b92506080601f1982011215610be957600080fd5b506040516080810181811067ffffffffffffffff82111715610c1b57634e487b7160e01b600052604160045260246000fd5b604052610c2a60208501610a90565b8152610c3860408501610b51565b6020820152610c4960608501610bab565b6040820152610c5a60808501610bab565b6060820152809150509250929050565b600060208284031215610c7c57600080fd5b81356105a481610b95565b8015158114610a8d57600080fd5b60008060408385031215610ca857600080fd5b8235610cb381610b95565b91506020830135610b8a81610c87565b600060208284031215610cd557600080fd5b5051919050565b8481526001600160a01b03841660208201526060604082018190528101829052818360808301376000818301608090810191909152601f909201601f191601019392505050565b600060208284031215610d3557600080fd5b81516105a481610c87565b60008060008060808587031215610d5657600080fd5b8451610d6181610a78565b6020860151909450610d7281610b42565b6040860151909350610d8381610b95565b6060860151909250610d9481610b95565b93969295509093505056fea2646970667358221220dd992e7b2926fdfb21d03af22d7bfad2c58b3701031adc53422281e3d350d09464736f6c6343000809003360e060405234801561001057600080fd5b50604051610a95380380610a9583398101604081905261002f91610085565b63ffffffff939093166080526001600160a01b0391821660a052600080546001600160a01b0319169183169190911790551660c0526100e4565b80516001600160a01b038116811461008057600080fd5b919050565b6000806000806080858703121561009b57600080fd5b845163ffffffff811681146100af57600080fd5b93506100bd60208601610069565b92506100cb60408601610069565b91506100d960608601610069565b905092959194509250565b60805160a05160c051610943610152600039600081816101a20152610418015260008181610156015281816103540152818161044001528181610538015281816106680152818161071e01526107e90152600081816101d60152818161046d015261056401526109436000f3fe6080604052600436106100a75760003560e01c80639f1837ce116100645780639f1837ce146101c4578063a2c5925f1461020d578063b56b83531461022d578063c047e5631461024b578063cadac47914610260578063cd377c531461027357600080fd5b8063060336ec146100ac57806311be0de5146100e1578063250bc38414610101578063578c65e41461012f5780637dc0d1d0146101445780637df1f1b914610190575b600080fd5b3480156100b857600080fd5b506100cc6100c736600461084f565b610288565b60405190151581526020015b60405180910390f35b3480156100ed57600080fd5b506100cc6100fc36600461088b565b610334565b34801561010d57600080fd5b5061012161011c36600461084f565b6103f8565b6040519081526020016100d8565b34801561013b57600080fd5b506100cc610518565b34801561015057600080fd5b506101787f000000000000000000000000000000000000000000000000000000000000000081565b6040516001600160a01b0390911681526020016100d8565b34801561019c57600080fd5b506101787f000000000000000000000000000000000000000000000000000000000000000081565b3480156101d057600080fd5b506101f87f000000000000000000000000000000000000000000000000000000000000000081565b60405163ffffffff90911681526020016100d8565b34801561021957600080fd5b506100cc61022836600461088b565b6105fe565b34801561023957600080fd5b506000546001600160a01b0316610178565b34801561025757600080fd5b50610121610648565b61012161026e3660046108a6565b6106fe565b34801561027f57600080fd5b506101216107c9565b60405163ec77178760e01b8152600060048201819052602482018590526001600160a01b038085166044840152831660648301529073faffe74894e36c6534cc13b73af015b5666b4ea99063ec7717879060840160206040518083038186803b1580156102f457600080fd5b505af4158015610308573d6000803e3d6000fd5b505050506040513d601f19601f8201168201806040525081019061032c91906108d2565b949350505050565b604051631377ce7f60e01b81526000600482018190526001600160a01b037f000000000000000000000000000000000000000000000000000000000000000081166024840152831660448301529073faffe74894e36c6534cc13b73af015b5666b4ea990631377ce7f906064015b60206040518083038186803b1580156103ba57600080fd5b505af41580156103ce573d6000803e3d6000fd5b505050506040513d601f19601f820116820180604052508101906103f291906108d2565b92915050565b604051631a505ed360e11b81526000600482018190526001600160a01b037f0000000000000000000000000000000000000000000000000000000000000000811660248401527f00000000000000000000000000000000000000000000000000000000000000008116604484015263ffffffff7f00000000000000000000000000000000000000000000000000000000000000001660648401526084830186905280851660a4840152831660c48301529073faffe74894e36c6534cc13b73af015b5666b4ea9906334a0bda69060e40160206040518083038186803b1580156104e057600080fd5b505af41580156104f4573d6000803e3d6000fd5b505050506040513d601f19601f8201168201806040525081019061032c91906108f4565b604051630e36a96960e31b81526000600482018190526001600160a01b037f000000000000000000000000000000000000000000000000000000000000000016602483015263ffffffff7f00000000000000000000000000000000000000000000000000000000000000001660448301529073faffe74894e36c6534cc13b73af015b5666b4ea9906371b54b489060640160206040518083038186803b1580156105c157600080fd5b505af41580156105d5573d6000803e3d6000fd5b505050506040513d601f19601f820116820180604052508101906105f991906108d2565b905090565b604051630b0cb18160e41b81526000600482018190526001600160a01b03831660248301529073faffe74894e36c6534cc13b73af015b5666b4ea99063b0cb1810906044016103a2565b60405163796748bf60e11b81526000600482018190526001600160a01b037f00000000000000000000000000000000000000000000000000000000000000001660248301529073faffe74894e36c6534cc13b73af015b5666b4ea99063f2ce917e906044015b60206040518083038186803b1580156106c657600080fd5b505af41580156106da573d6000803e3d6000fd5b505050506040513d601f19601f820116820180604052508101906105f991906108f4565b604051633d9e93eb60e21b81526000600482018190526001600160a01b037f00000000000000000000000000000000000000000000000000000000000000008116602484015260448301859052831660648301529073faffe74894e36c6534cc13b73af015b5666b4ea99063f67a4fac9060840160206040518083038186803b15801561078a57600080fd5b505af415801561079e573d6000803e3d6000fd5b505050506040513d601f19601f820116820180604052508101906107c291906108f4565b9392505050565b60405163788fa08960e01b81526000600482018190526001600160a01b037f00000000000000000000000000000000000000000000000000000000000000001660248301529073faffe74894e36c6534cc13b73af015b5666b4ea99063788fa089906044016106ae565b80356001600160a01b038116811461084a57600080fd5b919050565b60008060006060848603121561086457600080fd5b8335925061087460208501610833565b915061088260408501610833565b90509250925092565b60006020828403121561089d57600080fd5b6107c282610833565b600080604083850312156108b957600080fd5b823591506108c960208401610833565b90509250929050565b6000602082840312156108e457600080fd5b815180151581146107c257600080fd5b60006020828403121561090657600080fd5b505191905056fea2646970667358221220c1e27a11da2b6dcaf0a6fd22ded095080ea4289b844873ced7df1d0677a11acd64736f6c63430008090033a264697066735822122090551c8d8b9c72376b0d773aff7252a1867e09e9fcf8dab9b54973878f6a156164736f6c63430008090033",
    "linkReferences": {}
  },
  "methodIdentifiers": {
    "deployEscrow(uint32,address,address,address)": "fc049db8",
    "deploySpigot(address,address,address)": "43adf0fd"
  },
  "id": 25
}