{
  "_format": "hh-sol-artifact-1",
  "contractName": "Oracle",
  "sourceName": "contracts/modules/oracle/Oracle.sol",
  "abi": [
    {
      "inputs": [
        {
          "internalType": "address",
          "name": "_registry",
          "type": "address"
        }
      ],
      "stateMutability": "nonpayable",
      "type": "constructor"
    },
    {
      "inputs": [],
      "name": "USD",
      "outputs": [
        {
          "internalType": "address",
          "name": "",
          "type": "address"
        }
      ],
      "stateMutability": "view",
      "type": "function"
    },
    {
      "inputs": [
        {
          "internalType": "address",
          "name": "token",
          "type": "address"
        }
      ],
      "name": "getLatestAnswer",
      "outputs": [
        {
          "internalType": "int256",
          "name": "",
          "type": "int256"
        }
      ],
      "stateMutability": "nonpayable",
      "type": "function"
    }
  ],
  "bytecode": "0x6080604052610348600160006101000a81548173ffffffffffffffffffffffffffffffffffffffff021916908373ffffffffffffffffffffffffffffffffffffffff16021790555034801561005357600080fd5b5060405161076f38038061076f8339818101604052810190610075919061011e565b806000806101000a81548173ffffffffffffffffffffffffffffffffffffffff021916908373ffffffffffffffffffffffffffffffffffffffff1602179055505061014b565b600080fd5b600073ffffffffffffffffffffffffffffffffffffffff82169050919050565b60006100eb826100c0565b9050919050565b6100fb816100e0565b811461010657600080fd5b50565b600081519050610118816100f2565b92915050565b600060208284031215610134576101336100bb565b5b600061014284828501610109565b91505092915050565b6106158061015a6000396000f3fe608060405234801561001057600080fd5b50600436106100365760003560e01c80631bf6c21b1461003b5780636849a3ba14610059575b600080fd5b610043610089565b60405161005091906102ee565b60405180910390f35b610073600480360381019061006e919061033a565b6100af565b6040516100809190610380565b60405180910390f35b600160009054906101000a900473ffffffffffffffffffffffffffffffffffffffff1681565b60008060008373ffffffffffffffffffffffffffffffffffffffff166040516024016040516020818303038152906040527f38d52e0f000000000000000000000000000000000000000000000000000000007bffffffffffffffffffffffffffffffffffffffffffffffffffffffff19166020820180517bffffffffffffffffffffffffffffffffffffffffffffffffffffffff838183161783525050505060405161015b9190610415565b6000604051808303816000865af19150503d8060008114610198576040519150601f19603f3d011682016040523d82523d6000602084013e61019d565b606091505b50915091508180156101b0575060008151115b156101cc57808060200190518101906101c9919061046a565b93505b60008060009054906101000a900473ffffffffffffffffffffffffffffffffffffffff1673ffffffffffffffffffffffffffffffffffffffff1663bcfd032d86600160009054906101000a900473ffffffffffffffffffffffffffffffffffffffff166040518363ffffffff1660e01b815260040161024c929190610497565b60a06040518083038186803b15801561026457600080fd5b505afa158015610278573d6000803e3d6000fd5b505050506040513d601f19601f8201168201806040525081019061029c9190610564565b505050915050809350505050919050565b600073ffffffffffffffffffffffffffffffffffffffff82169050919050565b60006102d8826102ad565b9050919050565b6102e8816102cd565b82525050565b600060208201905061030360008301846102df565b92915050565b600080fd5b610317816102cd565b811461032257600080fd5b50565b6000813590506103348161030e565b92915050565b6000602082840312156103505761034f610309565b5b600061035e84828501610325565b91505092915050565b6000819050919050565b61037a81610367565b82525050565b60006020820190506103956000830184610371565b92915050565b600081519050919050565b600081905092915050565b60005b838110156103cf5780820151818401526020810190506103b4565b838111156103de576000848401525b50505050565b60006103ef8261039b565b6103f981856103a6565b93506104098185602086016103b1565b80840191505092915050565b600061042182846103e4565b915081905092915050565b6000610437826102ad565b9050919050565b6104478161042c565b811461045257600080fd5b50565b6000815190506104648161043e565b92915050565b6000602082840312156104805761047f610309565b5b600061048e84828501610455565b91505092915050565b60006040820190506104ac60008301856102df565b6104b960208301846102df565b9392505050565b600069ffffffffffffffffffff82169050919050565b6104df816104c0565b81146104ea57600080fd5b50565b6000815190506104fc816104d6565b92915050565b61050b81610367565b811461051657600080fd5b50565b60008151905061052881610502565b92915050565b6000819050919050565b6105418161052e565b811461054c57600080fd5b50565b60008151905061055e81610538565b92915050565b600080600080600060a086880312156105805761057f610309565b5b600061058e888289016104ed565b955050602061059f88828901610519565b94505060406105b08882890161054f565b93505060606105c18882890161054f565b92505060806105d2888289016104ed565b915050929550929590935056fea26469706673582212207383f8186b712c704b9aa17246b24d68b9eefb2f084aff2554d5e2c1ccdda1e764736f6c63430008090033",
  "linkReferences": {},
  "deployedLinkReferences": {}
}