{
  "_format": "hh-sol-artifact-1",
  "contractName": "SecuredLoan",
  "sourceName": "contracts/modules/credit/SecuredLoan.sol",
  "abi": [
    {
      "inputs": [
        {
          "internalType": "address",
          "name": "oracle_",
          "type": "address"
        },
        {
          "internalType": "address",
          "name": "arbiter_",
          "type": "address"
        },
        {
          "internalType": "address",
          "name": "borrower_",
          "type": "address"
        },
        {
          "internalType": "address",
          "name": "swapTarget_",
          "type": "address"
        },
        {
          "internalType": "uint256",
          "name": "minCollateral_",
          "type": "uint256"
        },
        {
          "internalType": "uint256",
          "name": "ttl_",
          "type": "uint256"
        },
        {
          "internalType": "uint8",
          "name": "defaultSplit_",
          "type": "uint8"
        }
      ],
      "stateMutability": "nonpayable",
      "type": "constructor"
    },
    {
      "anonymous": false,
      "inputs": [
        {
          "indexed": true,
          "internalType": "address",
          "name": "lender",
          "type": "address"
        },
        {
          "indexed": true,
          "internalType": "address",
          "name": "token",
          "type": "address"
        },
        {
          "indexed": true,
          "internalType": "uint256",
          "name": "deposit",
          "type": "uint256"
        },
        {
          "indexed": false,
          "internalType": "uint256",
          "name": "initialPrincipal",
          "type": "uint256"
        }
      ],
      "name": "AddDebtPosition",
      "type": "event"
    },
    {
      "anonymous": false,
      "inputs": [
        {
          "indexed": true,
          "internalType": "bytes32",
          "name": "positionId",
          "type": "bytes32"
        },
        {
          "indexed": true,
          "internalType": "uint256",
          "name": "amount",
          "type": "uint256"
        },
        {
          "indexed": true,
          "internalType": "uint256",
          "name": "value",
          "type": "uint256"
        }
      ],
      "name": "Borrow",
      "type": "event"
    },
    {
      "anonymous": false,
      "inputs": [
        {
          "indexed": true,
          "internalType": "bytes32",
          "name": "positionId",
          "type": "bytes32"
        }
      ],
      "name": "CloseDebtPosition",
      "type": "event"
    },
    {
      "anonymous": false,
      "inputs": [
        {
          "indexed": true,
          "internalType": "bytes32",
          "name": "positionId",
          "type": "bytes32"
        },
        {
          "indexed": true,
          "internalType": "uint256",
          "name": "amount",
          "type": "uint256"
        },
        {
          "indexed": true,
          "internalType": "uint256",
          "name": "value",
          "type": "uint256"
        }
      ],
      "name": "Default",
      "type": "event"
    },
    {
      "anonymous": false,
      "inputs": [
        {
          "indexed": true,
          "internalType": "address",
          "name": "oracle",
          "type": "address"
        },
        {
          "indexed": true,
          "internalType": "address",
          "name": "arbiter",
          "type": "address"
        },
        {
          "indexed": true,
          "internalType": "address",
          "name": "borrower",
          "type": "address"
        }
      ],
      "name": "DeployLoan",
      "type": "event"
    },
    {
      "anonymous": false,
      "inputs": [
        {
          "indexed": true,
          "internalType": "bytes32",
          "name": "positionId",
          "type": "bytes32"
        },
        {
          "indexed": true,
          "internalType": "uint256",
          "name": "amount",
          "type": "uint256"
        },
        {
          "indexed": true,
          "internalType": "uint256",
          "name": "value",
          "type": "uint256"
        }
      ],
      "name": "InterestAccrued",
      "type": "event"
    },
    {
      "anonymous": false,
      "inputs": [
        {
          "indexed": true,
          "internalType": "bytes32",
          "name": "positionId",
          "type": "bytes32"
        },
        {
          "indexed": true,
          "internalType": "uint256",
          "name": "amount",
          "type": "uint256"
        },
        {
          "indexed": true,
          "internalType": "address",
          "name": "token",
          "type": "address"
        }
      ],
      "name": "Liquidate",
      "type": "event"
    },
    {
      "anonymous": false,
      "inputs": [
        {
          "indexed": false,
          "internalType": "bytes32",
          "name": "_upgradeHash",
          "type": "bytes32"
        }
      ],
      "name": "MutualUpgradeRegistered",
      "type": "event"
    },
    {
      "anonymous": false,
      "inputs": [
        {
          "indexed": true,
          "internalType": "bytes32",
          "name": "positionId",
          "type": "bytes32"
        },
        {
          "indexed": true,
          "internalType": "uint256",
          "name": "amount",
          "type": "uint256"
        },
        {
          "indexed": true,
          "internalType": "uint256",
          "name": "value",
          "type": "uint256"
        }
      ],
      "name": "RepayInterest",
      "type": "event"
    },
    {
      "anonymous": false,
      "inputs": [
        {
          "indexed": true,
          "internalType": "bytes32",
          "name": "positionId",
          "type": "bytes32"
        },
        {
          "indexed": true,
          "internalType": "uint256",
          "name": "amount",
          "type": "uint256"
        },
        {
          "indexed": true,
          "internalType": "uint256",
          "name": "value",
          "type": "uint256"
        }
      ],
      "name": "RepayPrincipal",
      "type": "event"
    },
    {
      "anonymous": false,
      "inputs": [
        {
          "indexed": true,
          "internalType": "address",
          "name": "token",
          "type": "address"
        },
        {
          "indexed": true,
          "internalType": "uint256",
          "name": "amount",
          "type": "uint256"
        }
      ],
      "name": "RevenuePayment",
      "type": "event"
    },
    {
      "anonymous": false,
      "inputs": [
        {
          "indexed": true,
          "internalType": "address",
          "name": "revenueToken",
          "type": "address"
        },
        {
          "indexed": false,
          "internalType": "uint256",
          "name": "revenueTokenAmount",
          "type": "uint256"
        },
        {
          "indexed": true,
          "internalType": "address",
          "name": "debtToken",
          "type": "address"
        },
        {
          "indexed": true,
          "internalType": "uint256",
          "name": "debtTokensBought",
          "type": "uint256"
        }
      ],
      "name": "TradeSpigotRevenue",
      "type": "event"
    },
    {
      "anonymous": false,
      "inputs": [
        {
          "indexed": true,
          "internalType": "uint256",
          "name": "status",
          "type": "uint256"
        }
      ],
      "name": "UpdateLoanStatus",
      "type": "event"
    },
    {
      "anonymous": false,
      "inputs": [
        {
          "indexed": true,
          "internalType": "bytes32",
          "name": "positionId",
          "type": "bytes32"
        },
        {
          "indexed": true,
          "internalType": "uint128",
          "name": "drawnRate",
          "type": "uint128"
        },
        {
          "indexed": true,
          "internalType": "uint128",
          "name": "facilityRate",
          "type": "uint128"
        }
      ],
      "name": "UpdateRates",
      "type": "event"
    },
    {
      "anonymous": false,
      "inputs": [
        {
          "indexed": true,
          "internalType": "bytes32",
          "name": "positionId",
          "type": "bytes32"
        },
        {
          "indexed": true,
          "internalType": "uint256",
          "name": "amount",
          "type": "uint256"
        }
      ],
      "name": "WithdrawDeposit",
      "type": "event"
    },
    {
      "anonymous": false,
      "inputs": [
        {
          "indexed": true,
          "internalType": "bytes32",
          "name": "positionId",
          "type": "bytes32"
        },
        {
          "indexed": true,
          "internalType": "uint256",
          "name": "amount",
          "type": "uint256"
        }
      ],
      "name": "WithdrawProfit",
      "type": "event"
    },
    {
      "inputs": [],
      "name": "accrueInterest",
      "outputs": [
        {
          "internalType": "uint256",
          "name": "accruedValue",
          "type": "uint256"
        }
      ],
      "stateMutability": "nonpayable",
      "type": "function"
    },
    {
      "inputs": [
        {
          "internalType": "uint128",
          "name": "drawnRate",
          "type": "uint128"
        },
        {
          "internalType": "uint128",
          "name": "facilityRate",
          "type": "uint128"
        },
        {
          "internalType": "uint256",
          "name": "amount",
          "type": "uint256"
        },
        {
          "internalType": "address",
          "name": "token",
          "type": "address"
        },
        {
          "internalType": "address",
          "name": "lender",
          "type": "address"
        }
      ],
      "name": "addDebtPosition",
      "outputs": [
        {
          "internalType": "bool",
          "name": "",
          "type": "bool"
        }
      ],
      "stateMutability": "nonpayable",
      "type": "function"
    },
    {
      "inputs": [
        {
          "internalType": "address",
          "name": "revenueContract",
          "type": "address"
        },
        {
          "components": [
            {
              "internalType": "address",
              "name": "token",
              "type": "address"
            },
            {
              "internalType": "uint8",
              "name": "ownerSplit",
              "type": "uint8"
            },
            {
              "internalType": "bytes4",
              "name": "claimFunction",
              "type": "bytes4"
            },
            {
              "internalType": "bytes4",
              "name": "transferOwnerFunction",
              "type": "bytes4"
            }
          ],
          "internalType": "struct SpigotController.SpigotSettings",
          "name": "setting",
          "type": "tuple"
        }
      ],
      "name": "addSpigot",
      "outputs": [
        {
          "internalType": "bool",
          "name": "",
          "type": "bool"
        }
      ],
      "stateMutability": "nonpayable",
      "type": "function"
    },
    {
      "inputs": [],
      "name": "arbiter",
      "outputs": [
        {
          "internalType": "address",
          "name": "",
          "type": "address"
        }
      ],
      "stateMutability": "view",
      "type": "function"
    },
    {
      "inputs": [
        {
          "internalType": "bytes32",
          "name": "positionId",
          "type": "bytes32"
        },
        {
          "internalType": "uint256",
          "name": "amount",
          "type": "uint256"
        }
      ],
      "name": "borrow",
      "outputs": [
        {
          "internalType": "bool",
          "name": "",
          "type": "bool"
        }
      ],
      "stateMutability": "nonpayable",
      "type": "function"
    },
    {
      "inputs": [],
      "name": "borrower",
      "outputs": [
        {
          "internalType": "address",
          "name": "",
          "type": "address"
        }
      ],
      "stateMutability": "view",
      "type": "function"
    },
    {
      "inputs": [
        {
          "internalType": "address",
          "name": "claimToken",
          "type": "address"
        },
        {
          "internalType": "bytes",
          "name": "zeroExTradeData",
          "type": "bytes"
        }
      ],
      "name": "claimAndRepay",
      "outputs": [
        {
          "internalType": "bool",
          "name": "",
          "type": "bool"
        }
      ],
      "stateMutability": "nonpayable",
      "type": "function"
    },
    {
      "inputs": [
        {
          "internalType": "address",
          "name": "claimToken",
          "type": "address"
        },
        {
          "internalType": "bytes",
          "name": "zeroExTradeData",
          "type": "bytes"
        }
      ],
      "name": "claimAndTrade",
      "outputs": [
        {
          "internalType": "uint256",
          "name": "tokensBought",
          "type": "uint256"
        }
      ],
      "stateMutability": "nonpayable",
      "type": "function"
    },
    {
      "inputs": [
        {
          "internalType": "bytes32",
          "name": "positionId",
          "type": "bytes32"
        }
      ],
      "name": "close",
      "outputs": [
        {
          "internalType": "bool",
          "name": "",
          "type": "bool"
        }
      ],
      "stateMutability": "nonpayable",
      "type": "function"
    },
    {
      "inputs": [],
      "name": "deadline",
      "outputs": [
        {
          "internalType": "uint256",
          "name": "",
          "type": "uint256"
        }
      ],
      "stateMutability": "view",
      "type": "function"
    },
    {
      "inputs": [
        {
          "internalType": "bytes32",
          "name": "",
          "type": "bytes32"
        }
      ],
      "name": "debts",
      "outputs": [
        {
          "internalType": "uint256",
          "name": "deposit",
          "type": "uint256"
        },
        {
          "internalType": "uint256",
          "name": "principal",
          "type": "uint256"
        },
        {
          "internalType": "uint256",
          "name": "interestAccrued",
          "type": "uint256"
        },
        {
          "internalType": "uint256",
          "name": "interestRepaid",
          "type": "uint256"
        },
        {
          "internalType": "uint8",
          "name": "decimals",
          "type": "uint8"
        },
        {
          "internalType": "address",
          "name": "lender",
          "type": "address"
        },
        {
          "internalType": "address",
          "name": "token",
          "type": "address"
        }
      ],
      "stateMutability": "view",
      "type": "function"
    },
    {
      "inputs": [],
      "name": "defaultRevenueSplit",
      "outputs": [
        {
          "internalType": "uint8",
          "name": "",
          "type": "uint8"
        }
      ],
      "stateMutability": "view",
      "type": "function"
    },
    {
      "inputs": [],
      "name": "depositAndClose",
      "outputs": [
        {
          "internalType": "bool",
          "name": "",
          "type": "bool"
        }
      ],
      "stateMutability": "nonpayable",
      "type": "function"
    },
    {
      "inputs": [
        {
          "internalType": "uint256",
          "name": "amount",
          "type": "uint256"
        }
      ],
      "name": "depositAndRepay",
      "outputs": [
        {
          "internalType": "bool",
          "name": "",
          "type": "bool"
        }
      ],
      "stateMutability": "nonpayable",
      "type": "function"
    },
    {
      "inputs": [],
      "name": "escrow",
      "outputs": [
        {
          "internalType": "contract Escrow",
          "name": "",
          "type": "address"
        }
      ],
      "stateMutability": "view",
      "type": "function"
    },
    {
      "inputs": [],
      "name": "getOutstandingDebt",
      "outputs": [
        {
          "internalType": "uint256",
          "name": "",
          "type": "uint256"
        }
      ],
      "stateMutability": "nonpayable",
      "type": "function"
    },
    {
      "inputs": [],
      "name": "healthcheck",
      "outputs": [
        {
          "internalType": "enum LoanLib.STATUS",
          "name": "",
          "type": "uint8"
        }
      ],
      "stateMutability": "nonpayable",
      "type": "function"
    },
    {
      "inputs": [],
      "name": "interestRate",
      "outputs": [
        {
          "internalType": "contract InterestRateCredit",
          "name": "",
          "type": "address"
        }
      ],
      "stateMutability": "view",
      "type": "function"
    },
    {
      "inputs": [],
      "name": "interestUsd",
      "outputs": [
        {
          "internalType": "uint256",
          "name": "",
          "type": "uint256"
        }
      ],
      "stateMutability": "view",
      "type": "function"
    },
    {
      "inputs": [
        {
          "internalType": "bytes32",
          "name": "positionId",
          "type": "bytes32"
        },
        {
          "internalType": "uint256",
          "name": "amount",
          "type": "uint256"
        },
        {
          "internalType": "address",
          "name": "targetToken",
          "type": "address"
        }
      ],
      "name": "liquidate",
      "outputs": [
        {
          "internalType": "uint256",
          "name": "",
          "type": "uint256"
        }
      ],
      "stateMutability": "nonpayable",
      "type": "function"
    },
    {
      "inputs": [],
      "name": "loanStatus",
      "outputs": [
        {
          "internalType": "enum LoanLib.STATUS",
          "name": "",
          "type": "uint8"
        }
      ],
      "stateMutability": "view",
      "type": "function"
    },
    {
      "inputs": [
        {
          "internalType": "bytes32",
          "name": "",
          "type": "bytes32"
        }
      ],
      "name": "mutualUpgrades",
      "outputs": [
        {
          "internalType": "bool",
          "name": "",
          "type": "bool"
        }
      ],
      "stateMutability": "view",
      "type": "function"
    },
    {
      "inputs": [],
      "name": "oracle",
      "outputs": [
        {
          "internalType": "contract IOracle",
          "name": "",
          "type": "address"
        }
      ],
      "stateMutability": "view",
      "type": "function"
    },
    {
      "inputs": [
        {
          "internalType": "uint256",
          "name": "",
          "type": "uint256"
        }
      ],
      "name": "positionIds",
      "outputs": [
        {
          "internalType": "bytes32",
          "name": "",
          "type": "bytes32"
        }
      ],
      "stateMutability": "view",
      "type": "function"
    },
    {
      "inputs": [],
      "name": "principalUsd",
      "outputs": [
        {
          "internalType": "uint256",
          "name": "",
          "type": "uint256"
        }
      ],
      "stateMutability": "view",
      "type": "function"
    },
    {
      "inputs": [],
      "name": "releaseSpigot",
      "outputs": [
        {
          "internalType": "bool",
          "name": "",
          "type": "bool"
        }
      ],
      "stateMutability": "nonpayable",
      "type": "function"
    },
    {
      "inputs": [],
      "name": "spigot",
      "outputs": [
        {
          "internalType": "contract SpigotController",
          "name": "",
          "type": "address"
        }
      ],
      "stateMutability": "view",
      "type": "function"
    },
    {
      "inputs": [],
      "name": "swapTarget",
      "outputs": [
        {
          "internalType": "address",
          "name": "",
          "type": "address"
        }
      ],
      "stateMutability": "view",
      "type": "function"
    },
    {
      "inputs": [
        {
          "internalType": "address",
          "name": "token",
          "type": "address"
        }
      ],
      "name": "sweep",
      "outputs": [
        {
          "internalType": "uint256",
          "name": "",
          "type": "uint256"
        }
      ],
      "stateMutability": "nonpayable",
      "type": "function"
    },
    {
      "inputs": [
        {
          "internalType": "address",
          "name": "token",
          "type": "address"
        }
      ],
      "name": "unused",
      "outputs": [
        {
          "internalType": "uint256",
          "name": "",
          "type": "uint256"
        }
      ],
      "stateMutability": "view",
      "type": "function"
    },
    {
      "inputs": [
        {
          "internalType": "address",
          "name": "revenueContract",
          "type": "address"
        }
      ],
      "name": "updateOwnerSplit",
      "outputs": [],
      "stateMutability": "nonpayable",
      "type": "function"
    },
    {
      "inputs": [
        {
          "internalType": "bytes4",
          "name": "func",
          "type": "bytes4"
        },
        {
          "internalType": "bool",
          "name": "a",
          "type": "bool"
        }
      ],
      "name": "updateWhitelist",
      "outputs": [
        {
          "internalType": "bool",
          "name": "",
          "type": "bool"
        }
      ],
      "stateMutability": "nonpayable",
      "type": "function"
    },
    {
      "inputs": [
        {
          "internalType": "bytes32",
          "name": "positionId",
          "type": "bytes32"
        },
        {
          "internalType": "uint256",
          "name": "amount",
          "type": "uint256"
        }
      ],
      "name": "withdraw",
      "outputs": [
        {
          "internalType": "bool",
          "name": "",
          "type": "bool"
        }
      ],
      "stateMutability": "nonpayable",
      "type": "function"
    }
  ],
  "bytecode": "0x6101a06040523480156200001257600080fd5b506040516200e1f63803806200e1f683398181016040528101906200003891906200047a565b828786898989898888858585848383838073ffffffffffffffffffffffffffffffffffffffff1660808173ffffffffffffffffffffffffffffffffffffffff16815250508173ffffffffffffffffffffffffffffffffffffffff1660c08173ffffffffffffffffffffffffffffffffffffffff16815250508273ffffffffffffffffffffffffffffffffffffffff1660a08173ffffffffffffffffffffffffffffffffffffffff168152505060018060006101000a81548160ff0219169083600b8111156200010c576200010b6200052d565b5b02179055508073ffffffffffffffffffffffffffffffffffffffff168273ffffffffffffffffffffffffffffffffffffffff168473ffffffffffffffffffffffffffffffffffffffff167e230e6d5b76fd5f4a1863818841fa8d09044c464e751ca16c0f2cbf7c81ebfb60405160405180910390a450505060405162000192906200036d565b604051809103906000f080158015620001af573d6000803e3d6000fd5b5073ffffffffffffffffffffffffffffffffffffffff166101008173ffffffffffffffffffffffffffffffffffffffff16815250508042620001f291906200058b565b60e081815250506002600160006101000a81548160ff0219169083600b8111156200022257620002216200052d565b5b0217905550505050503060805160805160405162000240906200037b565b6200024e93929190620005f9565b604051809103906000f0801580156200026b573d6000803e3d6000fd5b5073ffffffffffffffffffffffffffffffffffffffff166101208173ffffffffffffffffffffffffffffffffffffffff16815250508060ff166101608160ff16815250508273ffffffffffffffffffffffffffffffffffffffff166101408173ffffffffffffffffffffffffffffffffffffffff168152505050505050505082823083604051620002fc9062000389565b6200030b949392919062000647565b604051809103906000f08015801562000328573d6000803e3d6000fd5b5073ffffffffffffffffffffffffffffffffffffffff166101808173ffffffffffffffffffffffffffffffffffffffff16815250505050505050505050505062000694565b6109bf806200769483390190565b6136a1806200805383390190565b612b02806200b6f483390190565b600080fd5b600073ffffffffffffffffffffffffffffffffffffffff82169050919050565b6000620003c9826200039c565b9050919050565b620003db81620003bc565b8114620003e757600080fd5b50565b600081519050620003fb81620003d0565b92915050565b6000819050919050565b620004168162000401565b81146200042257600080fd5b50565b60008151905062000436816200040b565b92915050565b600060ff82169050919050565b62000454816200043c565b81146200046057600080fd5b50565b600081519050620004748162000449565b92915050565b600080600080600080600060e0888a0312156200049c576200049b62000397565b5b6000620004ac8a828b01620003ea565b9750506020620004bf8a828b01620003ea565b9650506040620004d28a828b01620003ea565b9550506060620004e58a828b01620003ea565b9450506080620004f88a828b0162000425565b93505060a06200050b8a828b0162000425565b92505060c06200051e8a828b0162000463565b91505092959891949750929550565b7f4e487b7100000000000000000000000000000000000000000000000000000000600052602160045260246000fd5b7f4e487b7100000000000000000000000000000000000000000000000000000000600052601160045260246000fd5b6000620005988262000401565b9150620005a58362000401565b9250827fffffffffffffffffffffffffffffffffffffffffffffffffffffffffffffffff03821115620005dd57620005dc6200055c565b5b828201905092915050565b620005f381620003bc565b82525050565b6000606082019050620006106000830186620005e8565b6200061f6020830185620005e8565b6200062e6040830184620005e8565b949350505050565b620006418162000401565b82525050565b60006080820190506200065e600083018762000636565b6200066d6020830186620005e8565b6200067c6040830185620005e8565b6200068b6060830184620005e8565b95945050505050565b60805160a05160c05160e0516101005161012051610140516101605161018051616e62620008326000396000818161307b01528181614f3c01528181614fda01526150930152600081816129ab01528181612a18015261309f0152600081816120c2015281816137ea015281816138da01526139790152600081816118a7015281816123a1015281816124f00152818161266501528181612839015281816129db01528181612afd01528181612db7015261370601526000818161165d01528181611a4a015261332601526000610fc401526000818161079f01528181610d4f0152818161177e015281816119220152818161252c0152818161260d01528181612bb501526130c9015260008181611d1d0152818161207a0152818161341001528181613d9201528181613ec601528181613f83015281816145e801528181614dae0152614e7401526000818161073301528181610cfa0152818161115501528181611398015281816118cd01528181611ae601528181611f590152818161209e0152818161213a015281816123dd0152612bd60152616e626000f3fe608060405234801561001057600080fd5b50600436106101fb5760003560e01c80637dc0d1d01161011a578063a9caa411116100ad578063dfe960831161007c578063dfe9608314610648578063e2fdcc1714610678578063e96b496f14610696578063f3d96a50146106b4578063fe25e00a146106d2576101fb565b8063a9caa411146105a8578063b57cb9fc146105de578063b8bf1c09146105fa578063dc1f24e61461062a576101fb565b806387fffaf3116100e957806387fffaf31461050c578063921c5fcb1461052a578063939c5f7a1461055a578063a6afed951461058a576101fb565b80637dc0d1d0146104945780637df1f1b9146104b25780637e7f0cde146104d05780637eef544d146104ee576101fb565b80634f42fc02116101925780635f618768116101615780635f618768146103f85780637af39dbe146104285780637c3a00fd146104465780637c93ec3014610464576101fb565b80634f42fc021461035c57806358e7317d1461037a5780635a37eb64146103aa5780635e235d54146103da576101fb565b806329dcb0cf116101ce57806329dcb0cf146102ae578063389f1532146102cc57806339c79e0c146102fc578063461035af1461032c576101fb565b806301681a6214610200578063040cf02014610230578063074ca966146102605780631acb75251461027e575b600080fd5b61021a600480360381019061021591906152e0565b6106f0565b6040516102279190615326565b60405180910390f35b61024a600480360381019061024591906153a3565b6107d5565b60405161025791906153fe565b60405180910390f35b610268610cc0565b6040516102759190615490565b60405180910390f35b61029860048036038101906102939190615510565b610cd3565b6040516102a591906153fe565b60405180910390f35b6102b6610fc2565b6040516102c39190615326565b60405180910390f35b6102e660048036038101906102e19190615570565b610fe6565b6040516102f391906153fe565b60405180910390f35b61031660048036038101906103119190615570565b611006565b60405161032391906153fe565b60405180910390f35b610346600480360381019061034191906152e0565b6112bd565b6040516103539190615326565b60405180910390f35b610364611306565b6040516103719190615490565b60405180910390f35b610394600480360381019061038f91906155e5565b61131d565b6040516103a191906153fe565b60405180910390f35b6103c460048036038101906103bf9190615660565b61177a565b6040516103d19190615326565b60405180910390f35b6103e26118a5565b6040516103ef9190615712565b60405180910390f35b610412600480360381019061040d9190615510565b6118c9565b60405161041f9190615326565b60405180910390f35b610430611a42565b60405161043d9190615326565b60405180910390f35b61044e611a48565b60405161045b9190615760565b60405180910390f35b61047e600480360381019061047991906153a3565b611a6c565b60405161048b91906153fe565b60405180910390f35b61049c612078565b6040516104a9919061579c565b60405180910390f35b6104ba61209c565b6040516104c791906157c6565b60405180910390f35b6104d86120c0565b6040516104e591906157c6565b60405180910390f35b6104f66120e4565b60405161050391906153fe565b60405180910390f35b610514612361565b60405161052191906153fe565b60405180910390f35b610544600480360381019061053f9190615865565b612609565b60405161055191906153fe565b60405180910390f35b610574600480360381019061056f91906158a5565b612718565b60405161058191906158e1565b60405180910390f35b61059261273c565b60405161059f9190615326565b60405180910390f35b6105c260048036038101906105bd9190615570565b6127a5565b6040516105d59796959493929190615918565b60405180910390f35b6105f860048036038101906105f391906152e0565b612834565b005b610614600480360381019061060f91906159ab565b612bb1565b60405161062191906153fe565b60405180910390f35b610632612e6f565b60405161063f9190615326565b60405180910390f35b610662600480360381019061065d91906158a5565b612e93565b60405161066f91906153fe565b60405180910390f35b610680613079565b60405161068d9190615a0c565b60405180910390f35b61069e61309d565b6040516106ab9190615a27565b60405180910390f35b6106bc6130c1565b6040516106c99190615326565b60405180910390f35b6106da6130c7565b6040516106e791906157c6565b60405180910390f35b6000600a600b81111561070657610705615419565b5b600160009054906101000a900460ff16600b81111561072857610727615419565b5b141561075f576107587f0000000000000000000000000000000000000000000000000000000000000000836130eb565b90506107d0565b600b8081111561077257610771615419565b5b600160009054906101000a900460ff16600b81111561079457610793615419565b5b14156107cb576107c47f0000000000000000000000000000000000000000000000000000000000000000836130eb565b90506107d0565b600090505b919050565b60006005600084815260200190815260200160002060040160019054906101000a900473ffffffffffffffffffffffffffffffffffffffff1673ffffffffffffffffffffffffffffffffffffffff163373ffffffffffffffffffffffffffffffffffffffff161461087b576040517f08c379a000000000000000000000000000000000000000000000000000000000815260040161087290615a9f565b60405180910390fd5b6108848361320e565b50506000600560008581526020019081526020016000206040518060e0016040529081600082015481526020016001820154815260200160028201548152602001600382015481526020016004820160009054906101000a900460ff1660ff1660ff1681526020016004820160019054906101000a900473ffffffffffffffffffffffffffffffffffffffff1673ffffffffffffffffffffffffffffffffffffffff1673ffffffffffffffffffffffffffffffffffffffff1681526020016005820160009054906101000a900473ffffffffffffffffffffffffffffffffffffffff1673ffffffffffffffffffffffffffffffffffffffff1673ffffffffffffffffffffffffffffffffffffffff168152505090508060200151816060015182600001516109b29190615aee565b6109bc9190615b44565b8311156109fe576040517f08c379a00000000000000000000000000000000000000000000000000000000081526004016109f590615bc4565b60405180910390fd5b8060600151831115610aa557806060015183610a1a9190615b44565b925082847fa8c6fb49698d38e185a46a516da8802444a0816d0e0ee3a5d3f530e17b6fa41f60405160405180910390a38060600151847f4f78e5d544f0502bfc2b8cfc5ae7f6b6918cab2266650ddf720f878b6b832c8360405160405180910390a38281600001818151610a8e9190615b44565b915081815250506000816060018181525050610aed565b8281606001818151610ab79190615b44565b9150818152505082847f4f78e5d544f0502bfc2b8cfc5ae7f6b6918cab2266650ddf720f878b6b832c8360405160405180910390a35b60008160c0015173ffffffffffffffffffffffffffffffffffffffff1663a9059cbb8360a00151866040518363ffffffff1660e01b8152600401610b32929190615be4565b602060405180830381600087803b158015610b4c57600080fd5b505af1158015610b60573d6000803e3d6000fd5b505050506040513d601f19601f82011682018060405250810190610b849190615c22565b905080610bc6576040517f08c379a0000000000000000000000000000000000000000000000000000000008152600401610bbd90615c9b565b60405180910390fd5b81600560008781526020019081526020016000206000820151816000015560208201518160010155604082015181600201556060820151816003015560808201518160040160006101000a81548160ff021916908360ff16021790555060a08201518160040160016101000a81548173ffffffffffffffffffffffffffffffffffffffff021916908373ffffffffffffffffffffffffffffffffffffffff16021790555060c08201518160050160006101000a81548173ffffffffffffffffffffffffffffffffffffffff021916908373ffffffffffffffffffffffffffffffffffffffff16021790555090505060019250505092915050565b600160009054906101000a900460ff1681565b6000806004600081548110610ceb57610cea615cbb565b5b906000526020600020015490507f000000000000000000000000000000000000000000000000000000000000000073ffffffffffffffffffffffffffffffffffffffff163373ffffffffffffffffffffffffffffffffffffffff161480610d9d57507f000000000000000000000000000000000000000000000000000000000000000073ffffffffffffffffffffffffffffffffffffffff163373ffffffffffffffffffffffffffffffffffffffff16145b610da657600080fd5b610daf8161320e565b505060006005600083815260200190815260200160002060050160009054906101000a900473ffffffffffffffffffffffffffffffffffffffff1690506000610dfa878388886135e7565b90506000600660008473ffffffffffffffffffffffffffffffffffffffff1673ffffffffffffffffffffffffffffffffffffffff1681526020019081526020016000205482610e499190615aee565b9050600060056000868152602001908152602001600020600101546005600087815260200190815260200160002060020154610e859190615aee565b905080821115610e93578091505b82821115610f01578282610ea79190615b44565b600660008673ffffffffffffffffffffffffffffffffffffffff1673ffffffffffffffffffffffffffffffffffffffff1681526020019081526020016000206000828254610ef59190615b44565b92505081905550610f63565b8183610f0d9190615b44565b600660008673ffffffffffffffffffffffffffffffffffffffff1673ffffffffffffffffffffffffffffffffffffffff1681526020019081526020016000206000828254610f5b9190615aee565b925050819055505b610f6d8583613c3c565b50828973ffffffffffffffffffffffffffffffffffffffff167f8343d4254deba24e9e0e659e47f973c9705b70baa52a884516698b13af1588bb60405160405180910390a36001955050505050509392505050565b7f000000000000000000000000000000000000000000000000000000000000000081565b60006020528060005260406000206000915054906101000a900460ff1681565b600080600560008481526020019081526020016000206040518060e0016040529081600082015481526020016001820154815260200160028201548152602001600382015481526020016004820160009054906101000a900460ff1660ff1660ff1681526020016004820160019054906101000a900473ffffffffffffffffffffffffffffffffffffffff1673ffffffffffffffffffffffffffffffffffffffff1673ffffffffffffffffffffffffffffffffffffffff1681526020016005820160009054906101000a900473ffffffffffffffffffffffffffffffffffffffff1673ffffffffffffffffffffffffffffffffffffffff1673ffffffffffffffffffffffffffffffffffffffff168152505090508060a0015173ffffffffffffffffffffffffffffffffffffffff163373ffffffffffffffffffffffffffffffffffffffff1614806111a357507f000000000000000000000000000000000000000000000000000000000000000073ffffffffffffffffffffffffffffffffffffffff163373ffffffffffffffffffffffffffffffffffffffff16145b6111e2576040517f08c379a00000000000000000000000000000000000000000000000000000000081526004016111d990615d5c565b60405180910390fd5b6000816000015111156112a1578060c0015173ffffffffffffffffffffffffffffffffffffffff1663a9059cbb8260a00151836060015184600001516112289190615aee565b6040518363ffffffff1660e01b8152600401611245929190615be4565b602060405180830381600087803b15801561125f57600080fd5b505af1158015611273573d6000803e3d6000fd5b505050506040513d601f19601f820116820180604052508101906112979190615c22565b6112a057600080fd5b5b6112aa836142a1565b6112b357600080fd5b6001915050919050565b6000600660008373ffffffffffffffffffffffffffffffffffffffff1673ffffffffffffffffffffffffffffffffffffffff168152602001908152602001600020549050919050565b60006113186113136144c9565b6144d8565b905090565b60006002600b81111561133357611332615419565b5b600160009054906101000a900460ff16600b81111561135557611354615419565b5b14611395576040517f08c379a000000000000000000000000000000000000000000000000000000000815260040161138c90615dc8565b60405180910390fd5b817f00000000000000000000000000000000000000000000000000000000000000008173ffffffffffffffffffffffffffffffffffffffff163373ffffffffffffffffffffffffffffffffffffffff16148061141c57508073ffffffffffffffffffffffffffffffffffffffff163373ffffffffffffffffffffffffffffffffffffffff16145b61145b576040517f08c379a000000000000000000000000000000000000000000000000000000000815260040161145290615e34565b60405180910390fd5b6000611467838361459e565b9050600080368360405160200161148093929190615edb565b60405160208183030381529060405280519060200120905060008082815260200190815260200160002060009054906101000a900460ff166115555760008036336040516020016114d393929190615edb565b604051602081830303815290604052805190602001209050600160008083815260200190815260200160002060006101000a81548160ff0219169083151502179055507f2d8be207af2fa24175b649fe62755a7b86fb6cb82c6efbd96de7447196d652ff8160405161154591906158e1565b60405180910390a150505061176f565b60008082815260200190815260200160002060006101000a81549060ff021916905560008773ffffffffffffffffffffffffffffffffffffffff166323b872dd88308c6040518463ffffffff1660e01b81526004016115b693929190615f05565b602060405180830381600087803b1580156115d057600080fd5b505af11580156115e4573d6000803e3d6000fd5b505050506040513d601f19601f820116820180604052508101906116089190615c22565b90508061164a576040517f08c379a000000000000000000000000000000000000000000000000000000000815260040161164190615f88565b60405180910390fd5b6000611659888a8c60006145e3565b90507f000000000000000000000000000000000000000000000000000000000000000073ffffffffffffffffffffffffffffffffffffffff1663a35108ab828e8e6040518463ffffffff1660e01b81526004016116b893929190615fb7565b602060405180830381600087803b1580156116d257600080fd5b505af11580156116e6573d6000803e3d6000fd5b505050506040513d601f19601f8201168201806040525081019061170a9190615c22565b61171357600080fd5b8a6fffffffffffffffffffffffffffffffff168c6fffffffffffffffffffffffffffffffff16827f2996134c3599d52298cb4756dbde7cb74c09890d5482962297f679cb7aa0261260405160405180910390a460019650505050505b505095945050505050565b60007f000000000000000000000000000000000000000000000000000000000000000073ffffffffffffffffffffffffffffffffffffffff163373ffffffffffffffffffffffffffffffffffffffff161461180a576040517f08c379a00000000000000000000000000000000000000000000000000000000081526004016118019061603a565b60405180910390fd5b61181a6118156144c9565b6144d8565b506004600b81111561182f5761182e615419565b5b600160009054906101000a900460ff16600b81111561185157611850615419565b5b14611891576040517f08c379a0000000000000000000000000000000000000000000000000000000008152600401611888906160a6565b60405180910390fd5b61189c848484614b06565b90509392505050565b7f000000000000000000000000000000000000000000000000000000000000000081565b60007f000000000000000000000000000000000000000000000000000000000000000073ffffffffffffffffffffffffffffffffffffffff163373ffffffffffffffffffffffffffffffffffffffff16148061197057507f000000000000000000000000000000000000000000000000000000000000000073ffffffffffffffffffffffffffffffffffffffff163373ffffffffffffffffffffffffffffffffffffffff16145b61197957600080fd5b600060056000600460008154811061199457611993615cbb565b5b9060005260206000200154815260200190815260200160002060050160009054906101000a900473ffffffffffffffffffffffffffffffffffffffff16905060006119e1868387876135e7565b905080600660008473ffffffffffffffffffffffffffffffffffffffff1673ffffffffffffffffffffffffffffffffffffffff1681526020019081526020016000206000828254611a329190615aee565b9250508190555050509392505050565b60035481565b7f000000000000000000000000000000000000000000000000000000000000000081565b60006002600b811115611a8257611a81615419565b5b600160009054906101000a900460ff16600b811115611aa457611aa3615419565b5b14611ae4576040517f08c379a0000000000000000000000000000000000000000000000000000000008152600401611adb90615dc8565b60405180910390fd5b7f000000000000000000000000000000000000000000000000000000000000000073ffffffffffffffffffffffffffffffffffffffff163373ffffffffffffffffffffffffffffffffffffffff1614611b72576040517f08c379a0000000000000000000000000000000000000000000000000000000008152600401611b6990616112565b60405180910390fd5b611b7b8361320e565b50506000600560008581526020019081526020016000206040518060e0016040529081600082015481526020016001820154815260200160028201548152602001600382015481526020016004820160009054906101000a900460ff1660ff1660ff1681526020016004820160019054906101000a900473ffffffffffffffffffffffffffffffffffffffff1673ffffffffffffffffffffffffffffffffffffffff1673ffffffffffffffffffffffffffffffffffffffff1681526020016005820160009054906101000a900473ffffffffffffffffffffffffffffffffffffffff1673ffffffffffffffffffffffffffffffffffffffff1673ffffffffffffffffffffffffffffffffffffffff1681525050905080602001518160000151611ca49190615b44565b831115611ce6576040517f08c379a0000000000000000000000000000000000000000000000000000000008152600401611cdd90615bc4565b60405180910390fd5b8281602001818151611cf89190615aee565b91508181525050600073__$32ba42df846b62dd60aa3eb92b7287f6a6$__63cae8b7127f00000000000000000000000000000000000000000000000000000000000000008460c001518786608001516040518563ffffffff1660e01b8152600401611d66949392919061616e565b60206040518083038186803b158015611d7e57600080fd5b505af4158015611d92573d6000803e3d6000fd5b505050506040513d601f19601f82011682018060405250810190611db691906161c8565b90508060026000828254611dca9190615aee565b9250508190555081600560008781526020019081526020016000206000820151816000015560208201518160010155604082015181600201556060820151816003015560808201518160040160006101000a81548160ff021916908360ff16021790555060a08201518160040160016101000a81548173ffffffffffffffffffffffffffffffffffffffff021916908373ffffffffffffffffffffffffffffffffffffffff16021790555060c08201518160050160006101000a81548173ffffffffffffffffffffffffffffffffffffffff021916908373ffffffffffffffffffffffffffffffffffffffff1602179055509050506002600b811115611ed357611ed2615419565b5b611ee3611ede6144c9565b6144d8565b600b811115611ef557611ef4615419565b5b14611f35576040517f08c379a0000000000000000000000000000000000000000000000000000000008152600401611f2c90616241565b60405180910390fd5b60008260c0015173ffffffffffffffffffffffffffffffffffffffff1663a9059cbb7f0000000000000000000000000000000000000000000000000000000000000000876040518363ffffffff1660e01b8152600401611f96929190615be4565b602060405180830381600087803b158015611fb057600080fd5b505af1158015611fc4573d6000803e3d6000fd5b505050506040513d601f19601f82011682018060405250810190611fe89190615c22565b90508061202a576040517f08c379a0000000000000000000000000000000000000000000000000000000008152600401612021906162ad565b60405180910390fd5b8185877fdf4f9775f935591b5bdb8939150c67d9bb433821a8b1e65ec53eb44674e16ad660405160405180910390a461206286614b1c565b61206b57600080fd5b6001935050505092915050565b7f000000000000000000000000000000000000000000000000000000000000000081565b7f000000000000000000000000000000000000000000000000000000000000000081565b7f000000000000000000000000000000000000000000000000000000000000000081565b60008060048054905011801561212f575060006005600060046000815481106121105761210f615cbb565b5b9060005260206000200154815260200190815260200160002060010154115b61213857600080fd5b7f000000000000000000000000000000000000000000000000000000000000000073ffffffffffffffffffffffffffffffffffffffff163373ffffffffffffffffffffffffffffffffffffffff16146121c6576040517f08c379a00000000000000000000000000000000000000000000000000000000081526004016121bd90616112565b60405180910390fd5b600060046000815481106121dd576121dc615cbb565b5b906000526020600020015490506121f38161320e565b505060006005600083815260200190815260200160002060020154600560008481526020019081526020016000206001015461222f9190615aee565b905060006005600084815260200190815260200160002060050160009054906101000a900473ffffffffffffffffffffffffffffffffffffffff1673ffffffffffffffffffffffffffffffffffffffff166323b872dd3330856040518463ffffffff1660e01b81526004016122a693929190615f05565b602060405180830381600087803b1580156122c057600080fd5b505af11580156122d4573d6000803e3d6000fd5b505050506040513d601f19601f820116820180604052508101906122f89190615c22565b90508061233a576040517f08c379a000000000000000000000000000000000000000000000000000000000815260040161233190616319565b60405180910390fd5b6123448383613c3c565b5061234e836142a1565b61235757600080fd5b6001935050505090565b6000600a600b81111561237757612376615419565b5b600160009054906101000a900460ff16600b81111561239957612398615419565b5b14156124b2577f000000000000000000000000000000000000000000000000000000000000000073ffffffffffffffffffffffffffffffffffffffff1663880cdc317f00000000000000000000000000000000000000000000000000000000000000006040518263ffffffff1660e01b815260040161241891906157c6565b602060405180830381600087803b15801561243257600080fd5b505af1158015612446573d6000803e3d6000fd5b505050506040513d601f19601f8201168201806040525081019061246a9190615c22565b6124a9576040517f08c379a00000000000000000000000000000000000000000000000000000000081526004016124a090616385565b60405180910390fd5b60019050612606565b6004600b8111156124c6576124c5615419565b5b600160009054906101000a900460ff16600b8111156124e8576124e7615419565b5b1415612601577f000000000000000000000000000000000000000000000000000000000000000073ffffffffffffffffffffffffffffffffffffffff1663880cdc317f00000000000000000000000000000000000000000000000000000000000000006040518263ffffffff1660e01b815260040161256791906157c6565b602060405180830381600087803b15801561258157600080fd5b505af1158015612595573d6000803e3d6000fd5b505050506040513d601f19601f820116820180604052508101906125b99190615c22565b6125f8576040517f08c379a00000000000000000000000000000000000000000000000000000000081526004016125ef90616385565b60405180910390fd5b60019050612606565b600090505b90565b60007f000000000000000000000000000000000000000000000000000000000000000073ffffffffffffffffffffffffffffffffffffffff163373ffffffffffffffffffffffffffffffffffffffff161461266357600080fd5b7f000000000000000000000000000000000000000000000000000000000000000073ffffffffffffffffffffffffffffffffffffffff1663d403e9ec84846040518363ffffffff1660e01b81526004016126be9291906163b4565b602060405180830381600087803b1580156126d857600080fd5b505af11580156126ec573d6000803e3d6000fd5b505050506040513d601f19601f820116820180604052508101906127109190615c22565b905092915050565b6004818154811061272857600080fd5b906000526020600020016000915090505481565b600080600480549050905060005b818110156127a057600061277b6004838154811061276b5761276a615cbb565b5b906000526020600020015461320e565b915050808461278a9190615aee565b9350508080612798906163dd565b91505061274a565b505090565b60056020528060005260406000206000915090508060000154908060010154908060020154908060030154908060040160009054906101000a900460ff16908060040160019054906101000a900473ffffffffffffffffffffffffffffffffffffffff16908060050160009054906101000a900473ffffffffffffffffffffffffffffffffffffffff16905087565b6000807f000000000000000000000000000000000000000000000000000000000000000073ffffffffffffffffffffffffffffffffffffffff1663c2ae60d8846040518263ffffffff1660e01b815260040161289091906157c6565b60806040518083038186803b1580156128a857600080fd5b505afa1580156128bc573d6000803e3d6000fd5b505050506040513d601f19601f820116820180604052508101906128e0919061647c565b935050925050600060e01b7bffffffffffffffffffffffffffffffffffffffffffffffffffffffff1916817bffffffffffffffffffffffffffffffffffffffffffffffffffffffff1916141561296b576040517f08c379a00000000000000000000000000000000000000000000000000000000081526004016129629061652f565b60405180910390fd5b6002600b81111561297f5761297e615419565b5b600160009054906101000a900460ff16600b8111156129a1576129a0615419565b5b1480156129d457507f000000000000000000000000000000000000000000000000000000000000000060ff168260ff1614155b15612aac577f000000000000000000000000000000000000000000000000000000000000000073ffffffffffffffffffffffffffffffffffffffff166312879a52847f00000000000000000000000000000000000000000000000000000000000000006040518363ffffffff1660e01b8152600401612a5492919061654f565b602060405180830381600087803b158015612a6e57600080fd5b505af1158015612a82573d6000803e3d6000fd5b505050506040513d601f19601f82011682018060405250810190612aa69190615c22565b50612bac565b6004600b811115612ac057612abf615419565b5b600160009054906101000a900460ff16600b811115612ae257612ae1615419565b5b148015612af65750606460ff168260ff1614155b15612bab577f000000000000000000000000000000000000000000000000000000000000000073ffffffffffffffffffffffffffffffffffffffff166312879a528460646040518363ffffffff1660e01b8152600401612b5792919061654f565b602060405180830381600087803b158015612b7157600080fd5b505af1158015612b85573d6000803e3d6000fd5b505050506040513d601f19601f82011682018060405250810190612ba99190615c22565b505b5b505050565b60007f00000000000000000000000000000000000000000000000000000000000000007f00000000000000000000000000000000000000000000000000000000000000008173ffffffffffffffffffffffffffffffffffffffff163373ffffffffffffffffffffffffffffffffffffffff161480612c5a57508073ffffffffffffffffffffffffffffffffffffffff163373ffffffffffffffffffffffffffffffffffffffff16145b612c99576040517f08c379a0000000000000000000000000000000000000000000000000000000008152600401612c9090615e34565b60405180910390fd5b6000612ca5838361459e565b90506000803683604051602001612cbe93929190615edb565b60405160208183030381529060405280519060200120905060008082815260200190815260200160002060009054906101000a900460ff16612d93576000803633604051602001612d1193929190615edb565b604051602081830303815290604052805190602001209050600160008083815260200190815260200160002060006101000a81548160ff0219169083151502179055507f2d8be207af2fa24175b649fe62755a7b86fb6cb82c6efbd96de7447196d652ff81604051612d8391906158e1565b60405180910390a1505050612e67565b60008082815260200190815260200160002060006101000a81549060ff02191690557f000000000000000000000000000000000000000000000000000000000000000073ffffffffffffffffffffffffffffffffffffffff1663b8bf1c0988886040518363ffffffff1660e01b8152600401612e10929190616674565b602060405180830381600087803b158015612e2a57600080fd5b505af1158015612e3e573d6000803e3d6000fd5b505050506040513d601f19601f82011682018060405250810190612e629190615c22565b945050505b505092915050565b6000806000612e7c614c27565b915091508082612e8c9190615aee565b9250505090565b600080600480549050118015612ede57506000600560006004600081548110612ebf57612ebe615cbb565b5b9060005260206000200154815260200190815260200160002060010154115b612ee757600080fd5b60006004600081548110612efe57612efd615cbb565b5b90600052602060002001549050612f148161320e565b505060056000828152602001908152602001600020600201546005600083815260200190815260200160002060010154612f4e9190615aee565b831115612f5a57600080fd5b60006005600083815260200190815260200160002060050160009054906101000a900473ffffffffffffffffffffffffffffffffffffffff1673ffffffffffffffffffffffffffffffffffffffff166323b872dd3330876040518463ffffffff1660e01b8152600401612fcf93929190615f05565b602060405180830381600087803b158015612fe957600080fd5b505af1158015612ffd573d6000803e3d6000fd5b505050506040513d601f19601f820116820180604052508101906130219190615c22565b905080613063576040517f08c379a000000000000000000000000000000000000000000000000000000000815260040161305a906166e9565b60405180910390fd5b61306d8285613c3c565b50600192505050919050565b7f000000000000000000000000000000000000000000000000000000000000000081565b7f000000000000000000000000000000000000000000000000000000000000000081565b60025481565b7f000000000000000000000000000000000000000000000000000000000000000081565b6000600660008373ffffffffffffffffffffffffffffffffffffffff1673ffffffffffffffffffffffffffffffffffffffff1681526020019081526020016000205490508173ffffffffffffffffffffffffffffffffffffffff1663a9059cbb84836040518363ffffffff1660e01b815260040161316a929190615be4565b602060405180830381600087803b15801561318457600080fd5b505af1158015613198573d6000803e3d6000fd5b505050506040513d601f19601f820116820180604052508101906131bc9190615c22565b6131c557600080fd5b600660008373ffffffffffffffffffffffffffffffffffffffff1673ffffffffffffffffffffffffffffffffffffffff1681526020019081526020016000206000905592915050565b6000806000600560008581526020019081526020016000206040518060e0016040529081600082015481526020016001820154815260200160028201548152602001600382015481526020016004820160009054906101000a900460ff1660ff1660ff1681526020016004820160019054906101000a900473ffffffffffffffffffffffffffffffffffffffff1673ffffffffffffffffffffffffffffffffffffffff1673ffffffffffffffffffffffffffffffffffffffff1681526020016005820160009054906101000a900473ffffffffffffffffffffffffffffffffffffffff1673ffffffffffffffffffffffffffffffffffffffff1673ffffffffffffffffffffffffffffffffffffffff168152505090507f000000000000000000000000000000000000000000000000000000000000000073ffffffffffffffffffffffffffffffffffffffff1663c619835285836020015184600001516040518463ffffffff1660e01b815260040161338993929190616709565b60206040518083038186803b1580156133a157600080fd5b505afa1580156133b5573d6000803e3d6000fd5b505050506040513d601f19601f820116820180604052508101906133d991906161c8565b925082816040018181516133ed9190615aee565b9150818152505073__$32ba42df846b62dd60aa3eb92b7287f6a6$__63cae8b7127f00000000000000000000000000000000000000000000000000000000000000008360c001518685608001516040518563ffffffff1660e01b8152600401613459949392919061616e565b60206040518083038186803b15801561347157600080fd5b505af4158015613485573d6000803e3d6000fd5b505050506040513d601f19601f820116820180604052508101906134a991906161c8565b915081600360008282546134bd9190615aee565b925050819055508183857f0b320ff38540b6525aa1a9c5356993dee599155c20cce3cba7ad5f9edc20706560405160405180910390a480600560008681526020019081526020016000206000820151816000015560208201518160010155604082015181600201556060820151816003015560808201518160040160006101000a81548160ff021916908360ff16021790555060a08201518160040160016101000a81548173ffffffffffffffffffffffffffffffffffffffff021916908373ffffffffffffffffffffffffffffffffffffffff16021790555060c08201518160050160006101000a81548173ffffffffffffffffffffffffffffffffffffffff021916908373ffffffffffffffffffffffffffffffffffffffff16021790555090505050915091565b6000808573ffffffffffffffffffffffffffffffffffffffff166370a08231306040518263ffffffff1660e01b815260040161362391906157c6565b60206040518083038186803b15801561363b57600080fd5b505afa15801561364f573d6000803e3d6000fd5b505050506040513d601f19601f8201168201806040525081019061367391906161c8565b905060008573ffffffffffffffffffffffffffffffffffffffff166370a08231306040518263ffffffff1660e01b81526004016136b091906157c6565b60206040518083038186803b1580156136c857600080fd5b505afa1580156136dc573d6000803e3d6000fd5b505050506040513d601f19601f8201168201806040525081019061370091906161c8565b905060007f000000000000000000000000000000000000000000000000000000000000000073ffffffffffffffffffffffffffffffffffffffff1663f9b0631e896040518263ffffffff1660e01b815260040161375d91906157c6565b602060405180830381600087803b15801561377757600080fd5b505af115801561378b573d6000803e3d6000fd5b505050506040513d601f19601f820116820180604052508101906137af91906161c8565b9050600073ffffffffffffffffffffffffffffffffffffffff168873ffffffffffffffffffffffffffffffffffffffff1614156138bc5760007f000000000000000000000000000000000000000000000000000000000000000073ffffffffffffffffffffffffffffffffffffffff16828888604051613830929190616740565b60006040518083038185875af1925050503d806000811461386d576040519150601f19603f3d011682016040523d82523d6000602084013e613872565b606091505b50509050806138b6576040517f08c379a00000000000000000000000000000000000000000000000000000000081526004016138ad906167a5565b60405180910390fd5b50613a46565b8773ffffffffffffffffffffffffffffffffffffffff1663095ea7b37f000000000000000000000000000000000000000000000000000000000000000083866139059190615aee565b6040518363ffffffff1660e01b8152600401613922929190615be4565b602060405180830381600087803b15801561393c57600080fd5b505af1158015613950573d6000803e3d6000fd5b505050506040513d601f19601f820116820180604052508101906139749190615c22565b5060007f000000000000000000000000000000000000000000000000000000000000000073ffffffffffffffffffffffffffffffffffffffff1687876040516139be929190616740565b6000604051808303816000865af19150503d80600081146139fb576040519150601f19603f3d011682016040523d82523d6000602084013e613a00565b606091505b5050905080613a44576040517f08c379a0000000000000000000000000000000000000000000000000000000008152600401613a3b906167a5565b60405180910390fd5b505b60008773ffffffffffffffffffffffffffffffffffffffff166370a08231306040518263ffffffff1660e01b8152600401613a8191906157c6565b60206040518083038186803b158015613a9957600080fd5b505afa158015613aad573d6000803e3d6000fd5b505050506040513d601f19601f82011682018060405250810190613ad191906161c8565b90508281613adf9190615b44565b9450848873ffffffffffffffffffffffffffffffffffffffff168a73ffffffffffffffffffffffffffffffffffffffff167f9c7e3719be13960547a8b4b08bb9a149591882ce5bdd3f07331d27590ab41e6185604051613b3f9190615326565b60405180910390a4838973ffffffffffffffffffffffffffffffffffffffff166370a08231306040518263ffffffff1660e01b8152600401613b8191906157c6565b60206040518083038186803b158015613b9957600080fd5b505afa158015613bad573d6000803e3d6000fd5b505050506040513d601f19601f82011682018060405250810190613bd191906161c8565b613bdb9190615b44565b600660008b73ffffffffffffffffffffffffffffffffffffffff1673ffffffffffffffffffffffffffffffffffffffff1681526020019081526020016000206000828254613c299190615aee565b9250508190555050505050949350505050565b600080600560008581526020019081526020016000206040518060e0016040529081600082015481526020016001820154815260200160028201548152602001600382015481526020016004820160009054906101000a900460ff1660ff1660ff1681526020016004820160019054906101000a900473ffffffffffffffffffffffffffffffffffffffff1673ffffffffffffffffffffffffffffffffffffffff1673ffffffffffffffffffffffffffffffffffffffff1681526020016005820160009054906101000a900473ffffffffffffffffffffffffffffffffffffffff1673ffffffffffffffffffffffffffffffffffffffff1673ffffffffffffffffffffffffffffffffffffffff1681525050905080604001518311613e94578281604001818151613d6d9190615b44565b91508181525050600073__$32ba42df846b62dd60aa3eb92b7287f6a6$__63cae8b7127f00000000000000000000000000000000000000000000000000000000000000008460c001518786608001516040518563ffffffff1660e01b8152600401613ddb949392919061616e565b60206040518083038186803b158015613df357600080fd5b505af4158015613e07573d6000803e3d6000fd5b505050506040513d601f19601f82011682018060405250810190613e2b91906161c8565b90508060036000828254613e3f9190615b44565b925050819055508382606001818151613e589190615aee565b915081815250508084867f493b5242b5e71fbfca59ceaffcd60d4b1f97185a1c7ea80d0bdc2c57ff35346960405160405180910390a4506141a8565b6000816040015184613ea69190615b44565b9050600073__$32ba42df846b62dd60aa3eb92b7287f6a6$__63cae8b7127f00000000000000000000000000000000000000000000000000000000000000008560c00151866040015187608001516040518563ffffffff1660e01b8152600401613f13949392919061616e565b60206040518083038186803b158015613f2b57600080fd5b505af4158015613f3f573d6000803e3d6000fd5b505050506040513d601f19601f82011682018060405250810190613f6391906161c8565b9050600073__$32ba42df846b62dd60aa3eb92b7287f6a6$__63cae8b7127f00000000000000000000000000000000000000000000000000000000000000008660c001518688608001516040518563ffffffff1660e01b8152600401613fcc949392919061616e565b60206040518083038186803b158015613fe457600080fd5b505af4158015613ff8573d6000803e3d6000fd5b505050506040513d601f19601f8201168201806040525081019061401c91906161c8565b9050818460400151887f493b5242b5e71fbfca59ceaffcd60d4b1f97185a1c7ea80d0bdc2c57ff35346960405160405180910390a48083887ff81347d4d280ec95c13f366f2f78184a5dcc5757808a397ee829ae79df53390460405160405180910390a481600360008282546140929190615b44565b9250508190555080600260008282546140ab9190615b44565b9250508190555082846020018181516140c49190615b44565b915081815250508360400151846060018181516140e19190615aee565b9150818152505060008460400181815250506000846020015114156141a45773__$32ba42df846b62dd60aa3eb92b7287f6a6$__635ee9739660046040518263ffffffff1660e01b815260040161413891906168d3565b60006040518083038186803b15801561415057600080fd5b505af4158015614164573d6000803e3d6000fd5b505050506040513d6000823e3d601f19601f8201168201806040525081019061418d9190616a59565b600490805190602001906141a2929190615198565b505b5050505b80600560008681526020019081526020016000206000820151816000015560208201518160010155604082015181600201556060820151816003015560808201518160040160006101000a81548160ff021916908360ff16021790555060a08201518160040160016101000a81548173ffffffffffffffffffffffffffffffffffffffff021916908373ffffffffffffffffffffffffffffffffffffffff16021790555060c08201518160050160006101000a81548173ffffffffffffffffffffffffffffffffffffffff021916908373ffffffffffffffffffffffffffffffffffffffff160217905550905050600191505092915050565b600080600560008481526020019081526020016000206002015460056000858152602001908152602001600020600101546142dc9190615aee565b1461431c576040517f08c379a000000000000000000000000000000000000000000000000000000000815260040161431390616aee565b60405180910390fd5b600560008381526020019081526020016000206000808201600090556001820160009055600282016000905560038201600090556004820160006101000a81549060ff02191690556004820160016101000a81549073ffffffffffffffffffffffffffffffffffffffff02191690556005820160006101000a81549073ffffffffffffffffffffffffffffffffffffffff0219169055505073__$32ba42df846b62dd60aa3eb92b7287f6a6$__634706a0f36004846040518363ffffffff1660e01b81526004016143ee929190616b1d565b60006040518083038186803b15801561440657600080fd5b505af415801561441a573d6000803e3d6000fd5b505050506040513d6000823e3d601f19601f820116820180604052508101906144439190616a59565b60049080519060200190614458929190615198565b506000600480549050141561449357600a600160006101000a81548160ff0219169083600b81111561448d5761448c615419565b5b02179055505b817fb030856cac6c0a7c8fbc3d2d0bc055a3977935b03d68f17a6e7ce9c132dd75dd60405160405180910390a260019050919050565b60006144d3614f38565b905090565b600081600b8111156144ed576144ec615419565b5b600160009054906101000a900460ff16600b81111561450f5761450e615419565b5b141561452c57600160009054906101000a900460ff169050614599565b81600160006101000a81548160ff0219169083600b81111561455157614550615419565b5b021790555081600b81111561456957614568615419565b5b7f111617786a4a1f5fb27b9fde0dc3f64f94edda8039b1ced53fc47b602b80603260405160405180910390a28190505b919050565b60008273ffffffffffffffffffffffffffffffffffffffff163373ffffffffffffffffffffffffffffffffffffffff16146145d957826145db565b815b905092915050565b6000807f000000000000000000000000000000000000000000000000000000000000000073ffffffffffffffffffffffffffffffffffffffff16636849a3ba866040518263ffffffff1660e01b815260040161463f91906157c6565b602060405180830381600087803b15801561465957600080fd5b505af115801561466d573d6000803e3d6000fd5b505050506040513d601f19601f820116820180604052508101906146919190616b83565b136146d1576040517f08c379a00000000000000000000000000000000000000000000000000000000081526004016146c890616bfc565b60405180910390fd5b73__$32ba42df846b62dd60aa3eb92b7287f6a6$__63eb21469a3087876040518463ffffffff1660e01b815260040161470c93929190616c1c565b60206040518083038186803b15801561472457600080fd5b505af4158015614738573d6000803e3d6000fd5b505050506040513d601f19601f8201168201806040525081019061475c9190616c53565b9050600073ffffffffffffffffffffffffffffffffffffffff166005600083815260200190815260200160002060040160019054906101000a900473ffffffffffffffffffffffffffffffffffffffff1673ffffffffffffffffffffffffffffffffffffffff1614614803576040517f08c379a00000000000000000000000000000000000000000000000000000000081526004016147fa90616ccc565b60405180910390fd5b6000808573ffffffffffffffffffffffffffffffffffffffff166040516024016040516020818303038152906040527f313ce567000000000000000000000000000000000000000000000000000000007bffffffffffffffffffffffffffffffffffffffffffffffffffffffff19166020820180517bffffffffffffffffffffffffffffffffffffffffffffffffffffffff83818316178352505050506040516148ad9190616d5b565b6000604051808303816000865af19150503d80600081146148ea576040519150601f19603f3d011682016040523d82523d6000602084013e6148ef565b606091505b50915091506000821561491557818060200190518101906149109190616d72565b614918565b60125b90506040518060e0016040528087815260200186815260200160008152602001600081526020018260ff1681526020018973ffffffffffffffffffffffffffffffffffffffff1681526020018873ffffffffffffffffffffffffffffffffffffffff16815250600560008681526020019081526020016000206000820151816000015560208201518160010155604082015181600201556060820151816003015560808201518160040160006101000a81548160ff021916908360ff16021790555060a08201518160040160016101000a81548173ffffffffffffffffffffffffffffffffffffffff021916908373ffffffffffffffffffffffffffffffffffffffff16021790555060c08201518160050160006101000a81548173ffffffffffffffffffffffffffffffffffffffff021916908373ffffffffffffffffffffffffffffffffffffffff1602179055509050506004849080600181540180825580915050600190039060005260206000200160009091909190915055858773ffffffffffffffffffffffffffffffffffffffff168973ffffffffffffffffffffffffffffffffffffffff167f2baafc50cc7a4143f1d78d7c2b1b2fa21c80c3b9f81d78f0b4eedde1b5e34cf76000604051614af39190616dda565b60405180910390a4505050949350505050565b6000614b1384848461508f565b90509392505050565b60008060048054905090506000805b82811015614c1a57600060048281548110614b4957614b48615cbb565b5b90600052602060002001549050808614614b8a57600060056000838152602001908152602001600020600101541115614b825750614c07565b819250614c05565b6000831415614ba0576001945050505050614c22565b60048381548110614bb457614bb3615cbb565b5b906000526020600020015460048381548110614bd357614bd2615cbb565b5b90600052602060002001819055508560048481548110614bf657614bf5615cbb565b5b90600052602060002001819055505b505b8080614c12906163dd565b915050614b2b565b506001925050505b919050565b600080600060048054905090506000811415614c4a576000809250925050614f34565b614c526151e5565b5b6000821115614f2357816001900391506005600060048481548110614c7b57614c7a615cbb565b5b906000526020600020015481526020019081526020016000206040518060e0016040529081600082015481526020016001820154815260200160028201548152602001600382015481526020016004820160009054906101000a900460ff1660ff1660ff1681526020016004820160019054906101000a900473ffffffffffffffffffffffffffffffffffffffff1673ffffffffffffffffffffffffffffffffffffffff1673ffffffffffffffffffffffffffffffffffffffff1681526020016005820160009054906101000a900473ffffffffffffffffffffffffffffffffffffffff1673ffffffffffffffffffffffffffffffffffffffff1673ffffffffffffffffffffffffffffffffffffffff1681525050905073__$32ba42df846b62dd60aa3eb92b7287f6a6$__63cae8b7127f00000000000000000000000000000000000000000000000000000000000000008360c00151846020015185608001516040518563ffffffff1660e01b8152600401614dfb949392919061616e565b60206040518083038186803b158015614e1357600080fd5b505af4158015614e27573d6000803e3d6000fd5b505050506040513d601f19601f82011682018060405250810190614e4b91906161c8565b84614e569190615aee565b935073__$32ba42df846b62dd60aa3eb92b7287f6a6$__63cae8b7127f00000000000000000000000000000000000000000000000000000000000000008360c00151846040015185608001516040518563ffffffff1660e01b8152600401614ec1949392919061616e565b60206040518083038186803b158015614ed957600080fd5b505af4158015614eed573d6000803e3d6000fd5b505050506040513d601f19601f82011682018060405250810190614f1191906161c8565b83614f1c9190615aee565b9250614c53565b836002819055508260038190555050505b9091565b60007f000000000000000000000000000000000000000000000000000000000000000073ffffffffffffffffffffffffffffffffffffffff16639f1837ce6040518163ffffffff1660e01b815260040160206040518083038186803b158015614fa057600080fd5b505afa158015614fb4573d6000803e3d6000fd5b505050506040513d601f19601f82011682018060405250810190614fd891906161c8565b7f000000000000000000000000000000000000000000000000000000000000000073ffffffffffffffffffffffffffffffffffffffff1663cd377c536040518163ffffffff1660e01b8152600401602060405180830381600087803b15801561504057600080fd5b505af1158015615054573d6000803e3d6000fd5b505050506040513d601f19601f8201168201806040525081019061507891906161c8565b1015615087576004905061508c565b600290505b90565b60007f000000000000000000000000000000000000000000000000000000000000000073ffffffffffffffffffffffffffffffffffffffff1663060336ec8484336040518463ffffffff1660e01b81526004016150ee93929190616df5565b602060405180830381600087803b15801561510857600080fd5b505af115801561511c573d6000803e3d6000fd5b505050506040513d601f19601f820116820180604052508101906151409190615c22565b61514957600080fd5b8173ffffffffffffffffffffffffffffffffffffffff1683857f6a5ac651b48b8020bf97e0b0c5b51460600ced26ec3000fbe243293ba724dcc460405160405180910390a48290509392505050565b8280548282559060005260206000209081019282156151d4579160200282015b828111156151d35782518255916020019190600101906151b8565b5b5090506151e19190615251565b5090565b6040518060e0016040528060008152602001600081526020016000815260200160008152602001600060ff168152602001600073ffffffffffffffffffffffffffffffffffffffff168152602001600073ffffffffffffffffffffffffffffffffffffffff1681525090565b5b8082111561526a576000816000905550600101615252565b5090565b6000604051905090565b600080fd5b600080fd5b600073ffffffffffffffffffffffffffffffffffffffff82169050919050565b60006152ad82615282565b9050919050565b6152bd816152a2565b81146152c857600080fd5b50565b6000813590506152da816152b4565b92915050565b6000602082840312156152f6576152f5615278565b5b6000615304848285016152cb565b91505092915050565b6000819050919050565b6153208161530d565b82525050565b600060208201905061533b6000830184615317565b92915050565b6000819050919050565b61535481615341565b811461535f57600080fd5b50565b6000813590506153718161534b565b92915050565b6153808161530d565b811461538b57600080fd5b50565b60008135905061539d81615377565b92915050565b600080604083850312156153ba576153b9615278565b5b60006153c885828601615362565b92505060206153d98582860161538e565b9150509250929050565b60008115159050919050565b6153f8816153e3565b82525050565b600060208201905061541360008301846153ef565b92915050565b7f4e487b7100000000000000000000000000000000000000000000000000000000600052602160045260246000fd5b600c811061545957615458615419565b5b50565b600081905061546a82615448565b919050565b600061547a8261545c565b9050919050565b61548a8161546f565b82525050565b60006020820190506154a56000830184615481565b92915050565b600080fd5b600080fd5b600080fd5b60008083601f8401126154d0576154cf6154ab565b5b8235905067ffffffffffffffff8111156154ed576154ec6154b0565b5b602083019150836001820283011115615509576155086154b5565b5b9250929050565b60008060006040848603121561552957615528615278565b5b6000615537868287016152cb565b935050602084013567ffffffffffffffff8111156155585761555761527d565b5b615564868287016154ba565b92509250509250925092565b60006020828403121561558657615585615278565b5b600061559484828501615362565b91505092915050565b60006fffffffffffffffffffffffffffffffff82169050919050565b6155c28161559d565b81146155cd57600080fd5b50565b6000813590506155df816155b9565b92915050565b600080600080600060a0868803121561560157615600615278565b5b600061560f888289016155d0565b9550506020615620888289016155d0565b94505060406156318882890161538e565b9350506060615642888289016152cb565b9250506080615653888289016152cb565b9150509295509295909350565b60008060006060848603121561567957615678615278565b5b600061568786828701615362565b93505060206156988682870161538e565b92505060406156a9868287016152cb565b9150509250925092565b6000819050919050565b60006156d86156d36156ce84615282565b6156b3565b615282565b9050919050565b60006156ea826156bd565b9050919050565b60006156fc826156df565b9050919050565b61570c816156f1565b82525050565b60006020820190506157276000830184615703565b92915050565b6000615738826156bd565b9050919050565b600061574a8261572d565b9050919050565b61575a8161573f565b82525050565b60006020820190506157756000830184615751565b92915050565b60006157868261572d565b9050919050565b6157968161577b565b82525050565b60006020820190506157b1600083018461578d565b92915050565b6157c0816152a2565b82525050565b60006020820190506157db60008301846157b7565b92915050565b60007fffffffff0000000000000000000000000000000000000000000000000000000082169050919050565b615816816157e1565b811461582157600080fd5b50565b6000813590506158338161580d565b92915050565b615842816153e3565b811461584d57600080fd5b50565b60008135905061585f81615839565b92915050565b6000806040838503121561587c5761587b615278565b5b600061588a85828601615824565b925050602061589b85828601615850565b9150509250929050565b6000602082840312156158bb576158ba615278565b5b60006158c98482850161538e565b91505092915050565b6158db81615341565b82525050565b60006020820190506158f660008301846158d2565b92915050565b600060ff82169050919050565b615912816158fc565b82525050565b600060e08201905061592d600083018a615317565b61593a6020830189615317565b6159476040830188615317565b6159546060830187615317565b6159616080830186615909565b61596e60a08301856157b7565b61597b60c08301846157b7565b98975050505050505050565b600080fd5b6000608082840312156159a2576159a1615987565b5b81905092915050565b60008060a083850312156159c2576159c1615278565b5b60006159d0858286016152cb565b92505060206159e18582860161598c565b9150509250929050565b60006159f68261572d565b9050919050565b615a06816159eb565b82525050565b6000602082019050615a2160008301846159fd565b92915050565b6000602082019050615a3c6000830184615909565b92915050565b600082825260208201905092915050565b7f4c6f616e3a206f6e6c79206c656e6465722063616e2077697468647261770000600082015250565b6000615a89601e83615a42565b9150615a9482615a53565b602082019050919050565b60006020820190508181036000830152615ab881615a7c565b9050919050565b7f4e487b7100000000000000000000000000000000000000000000000000000000600052601160045260246000fd5b6000615af98261530d565b9150615b048361530d565b9250827fffffffffffffffffffffffffffffffffffffffffffffffffffffffffffffffff03821115615b3957615b38615abf565b5b828201905092915050565b6000615b4f8261530d565b9150615b5a8361530d565b925082821015615b6d57615b6c615abf565b5b828203905092915050565b7f4c6f616e3a206e6f206c69717569646974790000000000000000000000000000600082015250565b6000615bae601283615a42565b9150615bb982615b78565b602082019050919050565b60006020820190508181036000830152615bdd81615ba1565b9050919050565b6000604082019050615bf960008301856157b7565b615c066020830184615317565b9392505050565b600081519050615c1c81615839565b92915050565b600060208284031215615c3857615c37615278565b5b6000615c4684828501615c0d565b91505092915050565b7f4c6f616e3a207769746864726177206661696c65640000000000000000000000600082015250565b6000615c85601583615a42565b9150615c9082615c4f565b602082019050919050565b60006020820190508181036000830152615cb481615c78565b9050919050565b7f4e487b7100000000000000000000000000000000000000000000000000000000600052603260045260246000fd5b7f4c6f616e3a206d73672e73656e646572206d75737420626520746865206c656e60008201527f646572206f7220626f72726f7765720000000000000000000000000000000000602082015250565b6000615d46602f83615a42565b9150615d5182615cea565b604082019050919050565b60006020820190508181036000830152615d7581615d39565b9050919050565b7f4c6f616e3a206e6f206f70000000000000000000000000000000000000000000600082015250565b6000615db2600b83615a42565b9150615dbd82615d7c565b602082019050919050565b60006020820190508181036000830152615de181615da5565b9050919050565b7f4d75737420626520617574686f72697a65642061646472657373000000000000600082015250565b6000615e1e601a83615a42565b9150615e2982615de8565b602082019050919050565b60006020820190508181036000830152615e4d81615e11565b9050919050565b600081905092915050565b82818337600083830152505050565b6000615e7a8385615e54565b9350615e87838584615e5f565b82840190509392505050565b60008160601b9050919050565b6000615eab82615e93565b9050919050565b6000615ebd82615ea0565b9050919050565b615ed5615ed0826152a2565b615eb2565b82525050565b6000615ee8828587615e6e565b9150615ef48284615ec4565b601482019150819050949350505050565b6000606082019050615f1a60008301866157b7565b615f2760208301856157b7565b615f346040830184615317565b949350505050565b7f4c6f616e3a206e6f20746f6b656e7320746f206c656e64000000000000000000600082015250565b6000615f72601783615a42565b9150615f7d82615f3c565b602082019050919050565b60006020820190508181036000830152615fa181615f65565b9050919050565b615fb18161559d565b82525050565b6000606082019050615fcc60008301866158d2565b615fd96020830185615fa8565b615fe66040830184615fa8565b949350505050565b7f4c6f616e3a206f6e6c7920617262697465720000000000000000000000000000600082015250565b6000616024601283615a42565b915061602f82615fee565b602082019050919050565b6000602082019050818103600083015261605381616017565b9050919050565b7f4c6f616e3a206e6f74206c6971756964617461626c6500000000000000000000600082015250565b6000616090601683615a42565b915061609b8261605a565b602082019050919050565b600060208201905081810360008301526160bf81616083565b9050919050565b7f4c6f616e3a206f6e6c7920626f72726f77657200000000000000000000000000600082015250565b60006160fc601383615a42565b9150616107826160c6565b602082019050919050565b6000602082019050818103600083015261612b816160ef565b9050919050565b61613b8161577b565b82525050565b61614a816152a2565b82525050565b6161598161530d565b82525050565b616168816158fc565b82525050565b60006080820190506161836000830187616132565b6161906020830186616141565b61619d6040830185616150565b6161aa606083018461615f565b95945050505050565b6000815190506161c281615377565b92915050565b6000602082840312156161de576161dd615278565b5b60006161ec848285016161b3565b91505092915050565b7f4c6f616e3a2063616e7420626f72726f77000000000000000000000000000000600082015250565b600061622b601183615a42565b9150616236826161f5565b602082019050919050565b6000602082019050818103600083015261625a8161621e565b9050919050565b7f4c6f616e3a20626f72726f77206661696c656400000000000000000000000000600082015250565b6000616297601383615a42565b91506162a282616261565b602082019050919050565b600060208201905081810360008301526162c68161628a565b9050919050565b7f4c6f616e3a206465706f736974206661696c6564000000000000000000000000600082015250565b6000616303601483615a42565b915061630e826162cd565b602082019050919050565b60006020820190508181036000830152616332816162f6565b9050919050565b7f537069676f74436e736d723a2063616e742072656c6561736520737069676f74600082015250565b600061636f602083615a42565b915061637a82616339565b602082019050919050565b6000602082019050818103600083015261639e81616362565b9050919050565b6163ae816157e1565b82525050565b60006040820190506163c960008301856163a5565b6163d660208301846153ef565b9392505050565b60006163e88261530d565b91507fffffffffffffffffffffffffffffffffffffffffffffffffffffffffffffffff82141561641b5761641a615abf565b5b600182019050919050565b600081519050616435816152b4565b92915050565b616444816158fc565b811461644f57600080fd5b50565b6000815190506164618161643b565b92915050565b6000815190506164768161580d565b92915050565b6000806000806080858703121561649657616495615278565b5b60006164a487828801616426565b94505060206164b587828801616452565b93505060406164c687828801616467565b92505060606164d787828801616467565b91505092959194509250565b7f537067744c6f616e3a206e6f20737069676f7400000000000000000000000000600082015250565b6000616519601383615a42565b9150616524826164e3565b602082019050919050565b600060208201905081810360008301526165488161650c565b9050919050565b600060408201905061656460008301856157b7565b6165716020830184615909565b9392505050565b600061658760208401846152cb565b905092915050565b616598816152a2565b82525050565b6000813590506165ad8161643b565b92915050565b60006165c2602084018461659e565b905092915050565b6165d3816158fc565b82525050565b60006165e86020840184615824565b905092915050565b6165f9816157e1565b82525050565b608082016166106000830183616578565b61661d600085018261658f565b5061662b60208301836165b3565b61663860208501826165ca565b5061664660408301836165d9565b61665360408501826165f0565b5061666160608301836165d9565b61666e60608501826165f0565b50505050565b600060a08201905061668960008301856157b7565b61669660208301846165ff565b9392505050565b7f4c6f616e3a206661696c65642072657061796d656e7400000000000000000000600082015250565b60006166d3601683615a42565b91506166de8261669d565b602082019050919050565b60006020820190508181036000830152616702816166c6565b9050919050565b600060608201905061671e60008301866158d2565b61672b6020830185615317565b6167386040830184615317565b949350505050565b600061674d828486615e6e565b91508190509392505050565b7f537069676f74436e736d3a207472616465206661696c65640000000000000000600082015250565b600061678f601883615a42565b915061679a82616759565b602082019050919050565b600060208201905081810360008301526167be81616782565b9050919050565b600081549050919050565b600082825260208201905092915050565b60008190508160005260206000209050919050565b6167ff81615341565b82525050565b600061681183836167f6565b60208301905092915050565b60008160001c9050919050565b6000819050919050565b60006168476168428361681d565b61682a565b9050919050565b600061685a8254616834565b9050919050565b6000600182019050919050565b6000616879826167c5565b61688381856167d0565b935061688e836167e1565b8060005b838110156168c6576168a38261684e565b6168ad8882616805565b97506168b883616861565b925050600181019050616892565b5085935050505092915050565b600060208201905081810360008301526168ed818461686e565b905092915050565b6000601f19601f8301169050919050565b7f4e487b7100000000000000000000000000000000000000000000000000000000600052604160045260246000fd5b61693e826168f5565b810181811067ffffffffffffffff8211171561695d5761695c616906565b5b80604052505050565b600061697061526e565b905061697c8282616935565b919050565b600067ffffffffffffffff82111561699c5761699b616906565b5b602082029050602081019050919050565b6000815190506169bc8161534b565b92915050565b60006169d56169d084616981565b616966565b905080838252602082019050602084028301858111156169f8576169f76154b5565b5b835b81811015616a215780616a0d88826169ad565b8452602084019350506020810190506169fa565b5050509392505050565b600082601f830112616a4057616a3f6154ab565b5b8151616a508482602086016169c2565b91505092915050565b600060208284031215616a6f57616a6e615278565b5b600082015167ffffffffffffffff811115616a8d57616a8c61527d565b5b616a9984828501616a2b565b91505092915050565b7f4c6f616e3a20636c6f7365206661696c65642e2064656274206f776564000000600082015250565b6000616ad8601d83615a42565b9150616ae382616aa2565b602082019050919050565b60006020820190508181036000830152616b0781616acb565b9050919050565b616b1781615341565b82525050565b60006040820190508181036000830152616b37818561686e565b9050616b466020830184616b0e565b9392505050565b6000819050919050565b616b6081616b4d565b8114616b6b57600080fd5b50565b600081519050616b7d81616b57565b92915050565b600060208284031215616b9957616b98615278565b5b6000616ba784828501616b6e565b91505092915050565b7f4c6f616e3a20746f6b656e2063616e6e6f742062652076616c75656400000000600082015250565b6000616be6601c83615a42565b9150616bf182616bb0565b602082019050919050565b60006020820190508181036000830152616c1581616bd9565b9050919050565b6000606082019050616c316000830186616141565b616c3e6020830185616141565b616c4b6040830184616141565b949350505050565b600060208284031215616c6957616c68615278565b5b6000616c77848285016169ad565b91505092915050565b7f4c6f616e3a20706f736974696f6e206578697374730000000000000000000000600082015250565b6000616cb6601583615a42565b9150616cc182616c80565b602082019050919050565b60006020820190508181036000830152616ce581616ca9565b9050919050565b600081519050919050565b60005b83811015616d15578082015181840152602081019050616cfa565b83811115616d24576000848401525b50505050565b6000616d3582616cec565b616d3f8185615e54565b9350616d4f818560208601616cf7565b80840191505092915050565b6000616d678284616d2a565b915081905092915050565b600060208284031215616d8857616d87615278565b5b6000616d9684828501616452565b91505092915050565b6000819050919050565b6000616dc4616dbf616dba84616d9f565b6156b3565b61530d565b9050919050565b616dd481616da9565b82525050565b6000602082019050616def6000830184616dcb565b92915050565b6000606082019050616e0a6000830186615317565b616e1760208301856157b7565b616e2460408301846157b7565b94935050505056fea26469706673582212206b5c404acefa97835a6c80196725fb1c643a6d9f59dc31990e0d216f91fc31d064736f6c6343000809003360a060405234801561001057600080fd5b503373ffffffffffffffffffffffffffffffffffffffff1660808173ffffffffffffffffffffffffffffffffffffffff16815250506080516109596100666000396000818160dc015261025301526109596000f3fe608060405234801561001057600080fd5b50600436106100415760003560e01c8063a35108ab14610046578063c619835214610076578063dc726205146100a6575b600080fd5b610060600480360381019061005b919061055e565b6100d8565b60405161006d91906105cc565b60405180910390f35b610090600480360381019061008b919061061d565b61024f565b60405161009d919061067f565b60405180910390f35b6100c060048036038101906100bb919061069a565b6102f3565b6040516100cf939291906106d6565b60405180910390f35b60007f000000000000000000000000000000000000000000000000000000000000000073ffffffffffffffffffffffffffffffffffffffff163373ffffffffffffffffffffffffffffffffffffffff1614610168576040517f08c379a000000000000000000000000000000000000000000000000000000000815260040161015f90610790565b60405180910390fd5b6040518060600160405280846fffffffffffffffffffffffffffffffff168152602001836fffffffffffffffffffffffffffffffff1681526020014281525060008086815260200190815260200160002060008201518160000160006101000a8154816fffffffffffffffffffffffffffffffff02191690836fffffffffffffffffffffffffffffffff16021790555060208201518160000160106101000a8154816fffffffffffffffffffffffffffffffff02191690836fffffffffffffffffffffffffffffffff16021790555060408201518160010155905050600190509392505050565b60007f000000000000000000000000000000000000000000000000000000000000000073ffffffffffffffffffffffffffffffffffffffff163373ffffffffffffffffffffffffffffffffffffffff16146102df576040517f08c379a00000000000000000000000000000000000000000000000000000000081526004016102d690610790565b60405180910390fd5b6102ea848484610355565b90509392505050565b60006020528060005260406000206000915090508060000160009054906101000a90046fffffffffffffffffffffffffffffffff16908060000160109054906101000a90046fffffffffffffffffffffffffffffffff16908060010154905083565b6000806000808681526020019081526020016000206040518060600160405290816000820160009054906101000a90046fffffffffffffffffffffffffffffffff166fffffffffffffffffffffffffffffffff166fffffffffffffffffffffffffffffffff1681526020016000820160109054906101000a90046fffffffffffffffffffffffffffffffff166fffffffffffffffffffffffffffffffff166fffffffffffffffffffffffffffffffff1681526020016001820154815250509050600081604001514261042791906107df565b90506127106301e0366061043b9190610813565b81868661044891906107df565b84602001516fffffffffffffffffffffffffffffffff166104699190610813565b6104739190610813565b61047d919061089c565b6127106301e0366061048f9190610813565b828785600001516fffffffffffffffffffffffffffffffff166104b29190610813565b6104bc9190610813565b6104c6919061089c565b6104d091906108cd565b925050509392505050565b600080fd5b6000819050919050565b6104f3816104e0565b81146104fe57600080fd5b50565b600081359050610510816104ea565b92915050565b60006fffffffffffffffffffffffffffffffff82169050919050565b61053b81610516565b811461054657600080fd5b50565b60008135905061055881610532565b92915050565b600080600060608486031215610577576105766104db565b5b600061058586828701610501565b935050602061059686828701610549565b92505060406105a786828701610549565b9150509250925092565b60008115159050919050565b6105c6816105b1565b82525050565b60006020820190506105e160008301846105bd565b92915050565b6000819050919050565b6105fa816105e7565b811461060557600080fd5b50565b600081359050610617816105f1565b92915050565b600080600060608486031215610636576106356104db565b5b600061064486828701610501565b935050602061065586828701610608565b925050604061066686828701610608565b9150509250925092565b610679816105e7565b82525050565b60006020820190506106946000830184610670565b92915050565b6000602082840312156106b0576106af6104db565b5b60006106be84828501610501565b91505092915050565b6106d081610516565b82525050565b60006060820190506106eb60008301866106c7565b6106f860208301856106c7565b6107056040830184610670565b949350505050565b600082825260208201905092915050565b7f496e74657265737452617465437265643a206f6e6c79206c6f616e20636f6e7460008201527f726163742e000000000000000000000000000000000000000000000000000000602082015250565b600061077a60258361070d565b91506107858261071e565b604082019050919050565b600060208201905081810360008301526107a98161076d565b9050919050565b7f4e487b7100000000000000000000000000000000000000000000000000000000600052601160045260246000fd5b60006107ea826105e7565b91506107f5836105e7565b925082821015610808576108076107b0565b5b828203905092915050565b600061081e826105e7565b9150610829836105e7565b9250817fffffffffffffffffffffffffffffffffffffffffffffffffffffffffffffffff0483118215151615610862576108616107b0565b5b828202905092915050565b7f4e487b7100000000000000000000000000000000000000000000000000000000600052601260045260246000fd5b60006108a7826105e7565b91506108b2836105e7565b9250826108c2576108c161086d565b5b828204905092915050565b60006108d8826105e7565b91506108e3836105e7565b9250827fffffffffffffffffffffffffffffffffffffffffffffffffffffffffffffffff03821115610918576109176107b0565b5b82820190509291505056fea264697066735822122052b1eeb4b3c3a0f1850ac387249fba9625991e8a5c7bc66fa0d34bcdf924dfcd64736f6c6343000809003360806040523480156200001157600080fd5b50604051620036a1380380620036a1833981810160405281019062000037919062000226565b60016000819055508273ffffffffffffffffffffffffffffffffffffffff16600073ffffffffffffffffffffffffffffffffffffffff1614156200007a57600080fd5b8173ffffffffffffffffffffffffffffffffffffffff16600073ffffffffffffffffffffffffffffffffffffffff161415620000b557600080fd5b8073ffffffffffffffffffffffffffffffffffffffff16600073ffffffffffffffffffffffffffffffffffffffff161415620000f057600080fd5b82600460006101000a81548173ffffffffffffffffffffffffffffffffffffffff021916908373ffffffffffffffffffffffffffffffffffffffff16021790555080600560006101000a81548173ffffffffffffffffffffffffffffffffffffffff021916908373ffffffffffffffffffffffffffffffffffffffff16021790555081600660006101000a81548173ffffffffffffffffffffffffffffffffffffffff021916908373ffffffffffffffffffffffffffffffffffffffff16021790555050505062000282565b600080fd5b600073ffffffffffffffffffffffffffffffffffffffff82169050919050565b6000620001ee82620001c1565b9050919050565b6200020081620001e1565b81146200020c57600080fd5b50565b6000815190506200022081620001f5565b92915050565b600080600060608486031215620002425762000241620001bc565b5b600062000252868287016200020f565b935050602062000265868287016200020f565b925050604062000278868287016200020f565b9150509250925092565b61340f80620002926000396000f3fe6080604052600436106100f75760003560e01c8063880cdc311161008a578063b8bf1c0911610059578063b8bf1c09146103a9578063c2ae60d8146103e6578063d403e9ec14610426578063f9b0631e14610463576100fe565b8063880cdc31146102c75780638c0f2b04146103045780638da5cb5b14610341578063ac7475ed1461036c576100fe565b8063570ca735116100c6578063570ca735146101f757806361d027b3146102225780636374b11b1461024d5780637f51bb1f1461028a576100fe565b806308b6eb411461010357806312879a52146101405780631846f4791461017d57806353ad370d146101ba576100fe565b366100fe57005b600080fd5b34801561010f57600080fd5b5061012a600480360381019061012591906123d7565b6104a0565b6040516101379190612450565b60405180910390f35b34801561014c57600080fd5b50610167600480360381019061016291906124a4565b61070d565b60405161017491906124ff565b60405180910390f35b34801561018957600080fd5b506101a4600480360381019061019f919061251a565b61085e565b6040516101b191906124ff565b60405180910390f35b3480156101c657600080fd5b506101e160048036038101906101dc91906123d7565b610c74565b6040516101ee91906124ff565b60405180910390f35b34801561020357600080fd5b5061020c610ce4565b6040516102199190612556565b60405180910390f35b34801561022e57600080fd5b50610237610d0a565b6040516102449190612556565b60405180910390f35b34801561025957600080fd5b50610274600480360381019061026f919061251a565b610d30565b6040516102819190612450565b60405180910390f35b34801561029657600080fd5b506102b160048036038101906102ac919061251a565b610d79565b6040516102be91906124ff565b60405180910390f35b3480156102d357600080fd5b506102ee60048036038101906102e9919061251a565b610ef4565b6040516102fb91906124ff565b60405180910390f35b34801561031057600080fd5b5061032b6004803603810190610326919061261d565b611017565b60405161033891906124ff565b60405180910390f35b34801561034d57600080fd5b506103566110f7565b6040516103639190612556565b60405180910390f35b34801561037857600080fd5b50610393600480360381019061038e919061251a565b61111d565b6040516103a091906124ff565b60405180910390f35b3480156103b557600080fd5b506103d060048036038101906103cb91906127ff565b611240565b6040516103dd91906124ff565b60405180910390f35b3480156103f257600080fd5b5061040d6004803603810190610408919061251a565b6112ae565b60405161041d949392919061285d565b60405180910390f35b34801561043257600080fd5b5061044d600480360381019061044891906128ce565b611416565b60405161045a91906124ff565b60405180910390f35b34801561046f57600080fd5b5061048a6004803603810190610485919061251a565b611484565b6040516104979190612450565b60405180910390f35b6000600260005414156104e8576040517f08c379a00000000000000000000000000000000000000000000000000000000081526004016104df9061296b565b60405180910390fd5b60026000819055506000600260008673ffffffffffffffffffffffffffffffffffffffff1673ffffffffffffffffffffffffffffffffffffffff16815260200190815260200160002060000160009054906101000a900473ffffffffffffffffffffffffffffffffffffffff169050610563858585846116ac565b915060006064600260008873ffffffffffffffffffffffffffffffffffffffff1673ffffffffffffffffffffffffffffffffffffffff16815260200190815260200160002060000160149054906101000a900460ff1660ff16846105c791906129ba565b6105d19190612a43565b905080600160008473ffffffffffffffffffffffffffffffffffffffff1673ffffffffffffffffffffffffffffffffffffffff1681526020019081526020016000205461061e9190612a74565b600160008473ffffffffffffffffffffffffffffffffffffffff1673ffffffffffffffffffffffffffffffffffffffff16815260200190815260200160002081905550808311156106ab576106a182600660009054906101000a900473ffffffffffffffffffffffffffffffffffffffff16838661069c9190612aca565b611a00565b6106aa57600080fd5b5b828273ffffffffffffffffffffffffffffffffffffffff167fe775ebd008d93b9afec302f34cd39033092430ec8e7eaab7b3104568503a442983896040516106f4929190612afe565b60405180910390a3505060016000819055509392505050565b6000600460009054906101000a900473ffffffffffffffffffffffffffffffffffffffff1673ffffffffffffffffffffffffffffffffffffffff163373ffffffffffffffffffffffffffffffffffffffff161461079f576040517f08c379a000000000000000000000000000000000000000000000000000000000815260040161079690612b73565b60405180910390fd5b60008260ff16101580156107ba5750606460ff168260ff1611155b6107f9576040517f08c379a00000000000000000000000000000000000000000000000000000000081526004016107f090612bdf565b60405180910390fd5b81600260008573ffffffffffffffffffffffffffffffffffffffff1673ffffffffffffffffffffffffffffffffffffffff16815260200190815260200160002060000160146101000a81548160ff021916908360ff1602179055506001905092915050565b6000600460009054906101000a900473ffffffffffffffffffffffffffffffffffffffff1673ffffffffffffffffffffffffffffffffffffffff163373ffffffffffffffffffffffffffffffffffffffff16146108ba57600080fd5b6000600260008473ffffffffffffffffffffffffffffffffffffffff1673ffffffffffffffffffffffffffffffffffffffff16815260200190815260200160002060000160009054906101000a900473ffffffffffffffffffffffffffffffffffffffff1690506000600160008373ffffffffffffffffffffffffffffffffffffffff1673ffffffffffffffffffffffffffffffffffffffff1681526020019081526020016000205490506000811115610a165761099b82600460009054906101000a900473ffffffffffffffffffffffffffffffffffffffff1683611a00565b6109a457600080fd5b808273ffffffffffffffffffffffffffffffffffffffff167f081bbafdf188a33eeeba9f44cd5f54b98f151cb1058475e8c555bf9fa0020623600460009054906101000a900473ffffffffffffffffffffffffffffffffffffffff16604051610a0d9190612556565b60405180910390a35b6000808573ffffffffffffffffffffffffffffffffffffffff16600260008873ffffffffffffffffffffffffffffffffffffffff1673ffffffffffffffffffffffffffffffffffffffff16815260200190815260200160002060000160199054906101000a900460e01b600560009054906101000a900473ffffffffffffffffffffffffffffffffffffffff16604051602401610ab39190612556565b604051602081830303815290604052907bffffffffffffffffffffffffffffffffffffffffffffffffffffffff19166020820180517bffffffffffffffffffffffffffffffffffffffffffffffffffffffff8381831617835250505050604051610b1d9190612c79565b6000604051808303816000865af19150503d8060008114610b5a576040519150601f19603f3d011682016040523d82523d6000602084013e610b5f565b606091505b509150915081610b6e57600080fd5b600260008773ffffffffffffffffffffffffffffffffffffffff1673ffffffffffffffffffffffffffffffffffffffff168152602001908152602001600020600080820160006101000a81549073ffffffffffffffffffffffffffffffffffffffff02191690556000820160146101000a81549060ff02191690556000820160156101000a81549063ffffffff02191690556000820160196101000a81549063ffffffff021916905550508573ffffffffffffffffffffffffffffffffffffffff167f708a88df6c6322df6982b1b78b07623652300cf8e98e73998ed28b264aaec60185604051610c5f9190612556565b60405180910390a26001945050505050919050565b6000600560009054906101000a900473ffffffffffffffffffffffffffffffffffffffff1673ffffffffffffffffffffffffffffffffffffffff163373ffffffffffffffffffffffffffffffffffffffff1614610cd057600080fd5b610cdb848484611b84565b90509392505050565b600560009054906101000a900473ffffffffffffffffffffffffffffffffffffffff1681565b600660009054906101000a900473ffffffffffffffffffffffffffffffffffffffff1681565b6000600160008373ffffffffffffffffffffffffffffffffffffffff1673ffffffffffffffffffffffffffffffffffffffff168152602001908152602001600020549050919050565b6000600660009054906101000a900473ffffffffffffffffffffffffffffffffffffffff1673ffffffffffffffffffffffffffffffffffffffff163373ffffffffffffffffffffffffffffffffffffffff161480610e245750600560009054906101000a900473ffffffffffffffffffffffffffffffffffffffff1673ffffffffffffffffffffffffffffffffffffffff163373ffffffffffffffffffffffffffffffffffffffff16145b610e2d57600080fd5b600073ffffffffffffffffffffffffffffffffffffffff168273ffffffffffffffffffffffffffffffffffffffff161415610e6757600080fd5b81600660006101000a81548173ffffffffffffffffffffffffffffffffffffffff021916908373ffffffffffffffffffffffffffffffffffffffff1602179055508173ffffffffffffffffffffffffffffffffffffffff167f1f54d231bb9d500b1923e4a1cb25e600f366a8368873d9af7c1c623814df19fc60405160405180910390a260019050919050565b6000600460009054906101000a900473ffffffffffffffffffffffffffffffffffffffff1673ffffffffffffffffffffffffffffffffffffffff163373ffffffffffffffffffffffffffffffffffffffff1614610f5057600080fd5b600073ffffffffffffffffffffffffffffffffffffffff168273ffffffffffffffffffffffffffffffffffffffff161415610f8a57600080fd5b81600460006101000a81548173ffffffffffffffffffffffffffffffffffffffff021916908373ffffffffffffffffffffffffffffffffffffffff1602179055508173ffffffffffffffffffffffffffffffffffffffff167f84022644ce39de434e8f39c4398a3628815893104188274c37205d41c2d5096760405160405180910390a260019050919050565b6000600560009054906101000a900473ffffffffffffffffffffffffffffffffffffffff1673ffffffffffffffffffffffffffffffffffffffff163373ffffffffffffffffffffffffffffffffffffffff161461107357600080fd5b60005b838390508110156110ea576110d686868381811061109757611096612c90565b5b90506020020160208101906110ac919061251a565b8585848181106110bf576110be612c90565b5b90506020028101906110d19190612cce565b611b84565b5080806110e290612d31565b915050611076565b5060019050949350505050565b600460009054906101000a900473ffffffffffffffffffffffffffffffffffffffff1681565b6000600560009054906101000a900473ffffffffffffffffffffffffffffffffffffffff1673ffffffffffffffffffffffffffffffffffffffff163373ffffffffffffffffffffffffffffffffffffffff161461117957600080fd5b600073ffffffffffffffffffffffffffffffffffffffff168273ffffffffffffffffffffffffffffffffffffffff1614156111b357600080fd5b81600560006101000a81548173ffffffffffffffffffffffffffffffffffffffff021916908373ffffffffffffffffffffffffffffffffffffffff1602179055508173ffffffffffffffffffffffffffffffffffffffff167fff936929f68b51b2ddfe0c6fcc3e9c817996ae17a98869dd0754af1323f101ee60405160405180910390a260019050919050565b6000600460009054906101000a900473ffffffffffffffffffffffffffffffffffffffff1673ffffffffffffffffffffffffffffffffffffffff163373ffffffffffffffffffffffffffffffffffffffff161461129c57600080fd5b6112a68383611e20565b905092915050565b600080600080600260008673ffffffffffffffffffffffffffffffffffffffff1673ffffffffffffffffffffffffffffffffffffffff16815260200190815260200160002060000160009054906101000a900473ffffffffffffffffffffffffffffffffffffffff16600260008773ffffffffffffffffffffffffffffffffffffffff1673ffffffffffffffffffffffffffffffffffffffff16815260200190815260200160002060000160149054906101000a900460ff16600260008873ffffffffffffffffffffffffffffffffffffffff1673ffffffffffffffffffffffffffffffffffffffff16815260200190815260200160002060000160159054906101000a900460e01b600260008973ffffffffffffffffffffffffffffffffffffffff1673ffffffffffffffffffffffffffffffffffffffff16815260200190815260200160002060000160199054906101000a900460e01b93509350935093509193509193565b6000600460009054906101000a900473ffffffffffffffffffffffffffffffffffffffff1673ffffffffffffffffffffffffffffffffffffffff163373ffffffffffffffffffffffffffffffffffffffff161461147257600080fd5b61147c838361216e565b905092915050565b6000600260005414156114cc576040517f08c379a00000000000000000000000000000000000000000000000000000000081526004016114c39061296b565b60405180910390fd5b6002600081905550600460009054906101000a900473ffffffffffffffffffffffffffffffffffffffff1673ffffffffffffffffffffffffffffffffffffffff163373ffffffffffffffffffffffffffffffffffffffff161461152e57600080fd5b600160008373ffffffffffffffffffffffffffffffffffffffff1673ffffffffffffffffffffffffffffffffffffffff168152602001908152602001600020549050600081116115b3576040517f08c379a00000000000000000000000000000000000000000000000000000000081526004016115aa90612dc6565b60405180910390fd5b6115e082600460009054906101000a900473ffffffffffffffffffffffffffffffffffffffff1683611a00565b6115e957600080fd5b6000600160008473ffffffffffffffffffffffffffffffffffffffff1673ffffffffffffffffffffffffffffffffffffffff16815260200190815260200160002081905550808273ffffffffffffffffffffffffffffffffffffffff167f081bbafdf188a33eeeba9f44cd5f54b98f151cb1058475e8c555bf9fa0020623600460009054906101000a900473ffffffffffffffffffffffffffffffffffffffff166040516116979190612556565b60405180910390a36001600081905550919050565b6000806116b883612233565b9050600060e01b7bffffffffffffffffffffffffffffffffffffffffffffffffffffffff1916600260008873ffffffffffffffffffffffffffffffffffffffff1673ffffffffffffffffffffffffffffffffffffffff16815260200190815260200160002060000160159054906101000a900460e01b7bffffffffffffffffffffffffffffffffffffffffffffffffffffffff191614156117a557600160008473ffffffffffffffffffffffffffffffffffffffff1673ffffffffffffffffffffffffffffffffffffffff168152602001908152602001600020548161179e9190612aca565b915061194a565b600260008773ffffffffffffffffffffffffffffffffffffffff1673ffffffffffffffffffffffffffffffffffffffff16815260200190815260200160002060000160159054906101000a900460e01b7bffffffffffffffffffffffffffffffffffffffffffffffffffffffff19168585906118219190612dfe565b7bffffffffffffffffffffffffffffffffffffffffffffffffffffffff191614611880576040517f08c379a000000000000000000000000000000000000000000000000000000000815260040161187790612ea9565b60405180910390fd5b6000808773ffffffffffffffffffffffffffffffffffffffff1687876040516118aa929190612efd565b6000604051808303816000865af19150503d80600081146118e7576040519150601f19603f3d011682016040523d82523d6000602084013e6118ec565b606091505b509150915081611931576040517f08c379a000000000000000000000000000000000000000000000000000000000815260040161192890612f62565b60405180910390fd5b8261193b86612233565b6119459190612aca565b935050505b6000821161198d576040517f08c379a000000000000000000000000000000000000000000000000000000000815260040161198490612fce565b60405180910390fd5b606460ff167fffffffffffffffffffffffffffffffffffffffffffffffffffffffffffffffff6119bd9190612a43565b8211156119f757606460ff167fffffffffffffffffffffffffffffffffffffffffffffffffffffffffffffffff6119f49190612a43565b91505b50949350505050565b60008073ffffffffffffffffffffffffffffffffffffffff168473ffffffffffffffffffffffffffffffffffffffff1614611ac8578373ffffffffffffffffffffffffffffffffffffffff1663a9059cbb84846040518363ffffffff1660e01b8152600401611a70929190612fee565b602060405180830381600087803b158015611a8a57600080fd5b505af1158015611a9e573d6000803e3d6000fd5b505050506040513d601f19601f82011682018060405250810190611ac2919061302c565b50611b79565b6000808473ffffffffffffffffffffffffffffffffffffffff1684604051611aef9061307f565b60006040518083038185875af1925050503d8060008114611b2c576040519150601f19603f3d011682016040523d82523d6000602084013e611b31565b606091505b509150915081611b76576040517f08c379a0000000000000000000000000000000000000000000000000000000008152600401611b6d906130e0565b60405180910390fd5b50505b600190509392505050565b600060026000541415611bcc576040517f08c379a0000000000000000000000000000000000000000000000000000000008152600401611bc39061296b565b60405180910390fd5b600260008190555060036000848490611be59190612dfe565b7bffffffffffffffffffffffffffffffffffffffffffffffffffffffff19167bffffffffffffffffffffffffffffffffffffffffffffffffffffffff1916815260200190815260200160002060009054906101000a900460ff16611c7e576040517f08c379a0000000000000000000000000000000000000000000000000000000008152600401611c759061314c565b60405180910390fd5b828290611c8b9190612dfe565b7bffffffffffffffffffffffffffffffffffffffffffffffffffffffff1916600260008673ffffffffffffffffffffffffffffffffffffffff1673ffffffffffffffffffffffffffffffffffffffff16815260200190815260200160002060000160159054906101000a900460e01b7bffffffffffffffffffffffffffffffffffffffffffffffffffffffff19161415611d5a576040517f08c379a0000000000000000000000000000000000000000000000000000000008152600401611d519061314c565b60405180910390fd5b6000808573ffffffffffffffffffffffffffffffffffffffff168585604051611d84929190612efd565b6000604051808303816000865af19150503d8060008114611dc1576040519150601f19603f3d011682016040523d82523d6000602084013e611dc6565b606091505b509150915081611e0b576040517f08c379a0000000000000000000000000000000000000000000000000000000008152600401611e02906131b8565b60405180910390fd5b60019250505060016000819055509392505050565b60003073ffffffffffffffffffffffffffffffffffffffff168373ffffffffffffffffffffffffffffffffffffffff161415611e5b57600080fd5b600060e01b7bffffffffffffffffffffffffffffffffffffffffffffffffffffffff1916600260008573ffffffffffffffffffffffffffffffffffffffff1673ffffffffffffffffffffffffffffffffffffffff16815260200190815260200160002060000160199054906101000a900460e01b7bffffffffffffffffffffffffffffffffffffffffffffffffffffffff191614611f2e576040517f08c379a0000000000000000000000000000000000000000000000000000000008152600401611f2590613224565b60405180910390fd5b600060e01b7bffffffffffffffffffffffffffffffffffffffffffffffffffffffff191682606001517bffffffffffffffffffffffffffffffffffffffffffffffffffffffff19161415611fb7576040517f08c379a0000000000000000000000000000000000000000000000000000000008152600401611fae90613290565b60405180910390fd5b606460ff16826020015160ff1611158015611fda57506000826020015160ff1610155b612019576040517f08c379a0000000000000000000000000000000000000000000000000000000008152600401612010906132fc565b60405180910390fd5b81600260008573ffffffffffffffffffffffffffffffffffffffff1673ffffffffffffffffffffffffffffffffffffffff16815260200190815260200160002060008201518160000160006101000a81548173ffffffffffffffffffffffffffffffffffffffff021916908373ffffffffffffffffffffffffffffffffffffffff16021790555060208201518160000160146101000a81548160ff021916908360ff16021790555060408201518160000160156101000a81548163ffffffff021916908360e01c021790555060608201518160000160196101000a81548163ffffffff021916908360e01c02179055509050508273ffffffffffffffffffffffffffffffffffffffff167f366c303fa48e82e8094efa1be126cfbd7dc298a323a6b4066942e9503bbd81128360000151846020015160405161215c929190613357565b60405180910390a26001905092915050565b60008160036000857bffffffffffffffffffffffffffffffffffffffffffffffffffffffff19167bffffffffffffffffffffffffffffffffffffffffffffffffffffffff1916815260200190815260200160002060006101000a81548160ff02191690831515021790555060011515837bffffffffffffffffffffffffffffffffffffffffffffffffffffffff19167f8fd1e21416bf15420b9addb683ec815e9f5e9ee45e1555df547df090f540aa6c60405160405180910390a36001905092915050565b60008073ffffffffffffffffffffffffffffffffffffffff168273ffffffffffffffffffffffffffffffffffffffff16141561226f57476122f9565b8173ffffffffffffffffffffffffffffffffffffffff166370a08231306040518263ffffffff1660e01b81526004016122a89190612556565b60206040518083038186803b1580156122c057600080fd5b505afa1580156122d4573d6000803e3d6000fd5b505050506040513d601f19601f820116820180604052508101906122f891906133ac565b5b9050919050565b6000604051905090565b600080fd5b600080fd5b600073ffffffffffffffffffffffffffffffffffffffff82169050919050565b600061233f82612314565b9050919050565b61234f81612334565b811461235a57600080fd5b50565b60008135905061236c81612346565b92915050565b600080fd5b600080fd5b600080fd5b60008083601f84011261239757612396612372565b5b8235905067ffffffffffffffff8111156123b4576123b3612377565b5b6020830191508360018202830111156123d0576123cf61237c565b5b9250929050565b6000806000604084860312156123f0576123ef61230a565b5b60006123fe8682870161235d565b935050602084013567ffffffffffffffff81111561241f5761241e61230f565b5b61242b86828701612381565b92509250509250925092565b6000819050919050565b61244a81612437565b82525050565b60006020820190506124656000830184612441565b92915050565b600060ff82169050919050565b6124818161246b565b811461248c57600080fd5b50565b60008135905061249e81612478565b92915050565b600080604083850312156124bb576124ba61230a565b5b60006124c98582860161235d565b92505060206124da8582860161248f565b9150509250929050565b60008115159050919050565b6124f9816124e4565b82525050565b600060208201905061251460008301846124f0565b92915050565b6000602082840312156125305761252f61230a565b5b600061253e8482850161235d565b91505092915050565b61255081612334565b82525050565b600060208201905061256b6000830184612547565b92915050565b60008083601f84011261258757612586612372565b5b8235905067ffffffffffffffff8111156125a4576125a3612377565b5b6020830191508360208202830111156125c0576125bf61237c565b5b9250929050565b60008083601f8401126125dd576125dc612372565b5b8235905067ffffffffffffffff8111156125fa576125f9612377565b5b6020830191508360208202830111156126165761261561237c565b5b9250929050565b600080600080604085870312156126375761263661230a565b5b600085013567ffffffffffffffff8111156126555761265461230f565b5b61266187828801612571565b9450945050602085013567ffffffffffffffff8111156126845761268361230f565b5b612690878288016125c7565b925092505092959194509250565b600080fd5b6000601f19601f8301169050919050565b7f4e487b7100000000000000000000000000000000000000000000000000000000600052604160045260246000fd5b6126ec826126a3565b810181811067ffffffffffffffff8211171561270b5761270a6126b4565b5b80604052505050565b600061271e612300565b905061272a82826126e3565b919050565b60007fffffffff0000000000000000000000000000000000000000000000000000000082169050919050565b6127648161272f565b811461276f57600080fd5b50565b6000813590506127818161275b565b92915050565b60006080828403121561279d5761279c61269e565b5b6127a76080612714565b905060006127b78482850161235d565b60008301525060206127cb8482850161248f565b60208301525060406127df84828501612772565b60408301525060606127f384828501612772565b60608301525092915050565b60008060a083850312156128165761281561230a565b5b60006128248582860161235d565b925050602061283585828601612787565b9150509250929050565b6128488161246b565b82525050565b6128578161272f565b82525050565b60006080820190506128726000830187612547565b61287f602083018661283f565b61288c604083018561284e565b612899606083018461284e565b95945050505050565b6128ab816124e4565b81146128b657600080fd5b50565b6000813590506128c8816128a2565b92915050565b600080604083850312156128e5576128e461230a565b5b60006128f385828601612772565b9250506020612904858286016128b9565b9150509250929050565b600082825260208201905092915050565b7f5265656e7472616e637947756172643a207265656e7472616e742063616c6c00600082015250565b6000612955601f8361290e565b91506129608261291f565b602082019050919050565b6000602082019050818103600083015261298481612948565b9050919050565b7f4e487b7100000000000000000000000000000000000000000000000000000000600052601160045260246000fd5b60006129c582612437565b91506129d083612437565b9250817fffffffffffffffffffffffffffffffffffffffffffffffffffffffffffffffff0483118215151615612a0957612a0861298b565b5b828202905092915050565b7f4e487b7100000000000000000000000000000000000000000000000000000000600052601260045260246000fd5b6000612a4e82612437565b9150612a5983612437565b925082612a6957612a68612a14565b5b828204905092915050565b6000612a7f82612437565b9150612a8a83612437565b9250827fffffffffffffffffffffffffffffffffffffffffffffffffffffffffffffffff03821115612abf57612abe61298b565b5b828201905092915050565b6000612ad582612437565b9150612ae083612437565b925082821015612af357612af261298b565b5b828203905092915050565b6000604082019050612b136000830185612441565b612b206020830184612547565b9392505050565b7f537069676f743a206f6e6c79206f776e657220757064617465732073706c6974600082015250565b6000612b5d60208361290e565b9150612b6882612b27565b602082019050919050565b60006020820190508181036000830152612b8c81612b50565b9050919050565b7f537069676f743a20696e76616c6964206f776e65722073706c69740000000000600082015250565b6000612bc9601b8361290e565b9150612bd482612b93565b602082019050919050565b60006020820190508181036000830152612bf881612bbc565b9050919050565b600081519050919050565b600081905092915050565b60005b83811015612c33578082015181840152602081019050612c18565b83811115612c42576000848401525b50505050565b6000612c5382612bff565b612c5d8185612c0a565b9350612c6d818560208601612c15565b80840191505092915050565b6000612c858284612c48565b915081905092915050565b7f4e487b7100000000000000000000000000000000000000000000000000000000600052603260045260246000fd5b600080fd5b600080fd5b600080fd5b60008083356001602003843603038112612ceb57612cea612cbf565b5b80840192508235915067ffffffffffffffff821115612d0d57612d0c612cc4565b5b602083019250600182023603831315612d2957612d28612cc9565b5b509250929050565b6000612d3c82612437565b91507fffffffffffffffffffffffffffffffffffffffffffffffffffffffffffffffff821415612d6f57612d6e61298b565b5b600182019050919050565b7f537069676f743a204e6f20657363726f7720746f20636c61696d000000000000600082015250565b6000612db0601a8361290e565b9150612dbb82612d7a565b602082019050919050565b60006020820190508181036000830152612ddf81612da3565b9050919050565b600082905092915050565b600082821b905092915050565b6000612e0a8383612de6565b82612e15813561272f565b92506004821015612e5557612e507fffffffff0000000000000000000000000000000000000000000000000000000083600403600802612df1565b831692505b505092915050565b7f537069676f743a20496e76616c696420636c61696d2066756e6374696f6e0000600082015250565b6000612e93601e8361290e565b9150612e9e82612e5d565b602082019050919050565b60006020820190508181036000830152612ec281612e86565b9050919050565b82818337600083830152505050565b6000612ee48385612c0a565b9350612ef1838584612ec9565b82840190509392505050565b6000612f0a828486612ed8565b91508190509392505050565b7f537069676f743a20526576656e756520636c61696d206661696c656400000000600082015250565b6000612f4c601c8361290e565b9150612f5782612f16565b602082019050919050565b60006020820190508181036000830152612f7b81612f3f565b9050919050565b7f537069676f743a204e6f20726576656e756520746f20636c61696d0000000000600082015250565b6000612fb8601b8361290e565b9150612fc382612f82565b602082019050919050565b60006020820190508181036000830152612fe781612fab565b9050919050565b60006040820190506130036000830185612547565b6130106020830184612441565b9392505050565b600081519050613026816128a2565b92915050565b6000602082840312156130425761304161230a565b5b600061305084828501613017565b91505092915050565b50565b6000613069600083612c0a565b915061307482613059565b600082019050919050565b600061308a8261305c565b9150819050919050565b7f537069676f743a20446973706572736520657363726f77206661696c65640000600082015250565b60006130ca601e8361290e565b91506130d582613094565b602082019050919050565b600060208201905081810360008301526130f9816130bd565b9050919050565b7f537069676f743a20556e617574686f72697a656420616374696f6e0000000000600082015250565b6000613136601b8361290e565b915061314182613100565b602082019050919050565b6000602082019050818103600083015261316581613129565b9050919050565b7f537069676f743a204f7065726174696f6e206661696c65640000000000000000600082015250565b60006131a260188361290e565b91506131ad8261316c565b602082019050919050565b600060208201905081810360008301526131d181613195565b9050919050565b7f537069676f743a2053657474696e6720616c7265616479206578697374730000600082015250565b600061320e601e8361290e565b9150613219826131d8565b602082019050919050565b6000602082019050818103600083015261323d81613201565b9050919050565b7f537069676f743a20496e76616c696420737069676f742073657474696e670000600082015250565b600061327a601e8361290e565b915061328582613244565b602082019050919050565b600060208201905081810360008301526132a98161326d565b9050919050565b7f537069676f743a20496e76616c69642073706c69742072617465000000000000600082015250565b60006132e6601a8361290e565b91506132f1826132b0565b602082019050919050565b60006020820190508181036000830152613315816132d9565b9050919050565b6000819050919050565b600061334161333c6133378461246b565b61331c565b612437565b9050919050565b61335181613326565b82525050565b600060408201905061336c6000830185612547565b6133796020830184613348565b9392505050565b61338981612437565b811461339457600080fd5b50565b6000815190506133a681613380565b92915050565b6000602082840312156133c2576133c161230a565b5b60006133d084828501613397565b9150509291505056fea2646970667358221220a2c58523aef4491f96e62295f135676d35c337df5e60c096451944b1dbc47b0b64736f6c6343000809003360806040527fffffffffffffffffffffffffffffffffffffffffffffffffffffffffffffffff6001553480156200003557600080fd5b5060405162002b0238038062002b0283398181016040528101906200005b9190620001d4565b8360008190555082600360006101000a81548173ffffffffffffffffffffffffffffffffffffffff021916908373ffffffffffffffffffffffffffffffffffffffff16021790555081600260006101000a81548173ffffffffffffffffffffffffffffffffffffffff021916908373ffffffffffffffffffffffffffffffffffffffff16021790555080600460006101000a81548173ffffffffffffffffffffffffffffffffffffffff021916908373ffffffffffffffffffffffffffffffffffffffff1602179055505050505062000246565b600080fd5b6000819050919050565b620001498162000134565b81146200015557600080fd5b50565b60008151905062000169816200013e565b92915050565b600073ffffffffffffffffffffffffffffffffffffffff82169050919050565b60006200019c826200016f565b9050919050565b620001ae816200018f565b8114620001ba57600080fd5b50565b600081519050620001ce81620001a3565b92915050565b60008060008060808587031215620001f157620001f06200012f565b5b6000620002018782880162000158565b94505060206200021487828801620001bd565b93505060406200022787828801620001bd565b92505060606200023a87828801620001bd565b91505092959194509250565b6128ac80620002566000396000f3fe608060405234801561001057600080fd5b50600436106100ea5760003560e01c8063c047e5631161008c578063cb13cddb11610066578063cb13cddb14610260578063cb5f5ce014610293578063cd377c53146102af578063d285b7b4146102cd576100ea565b8063c047e563146101f6578063c59b1ab414610214578063cadac47914610230576100ea565b80637dc0d1d0116100c85780637dc0d1d01461016b5780637df1f1b9146101895780639f1837ce146101a7578063b6aa6c50146101c5576100ea565b8063060336ec146100ef578063250bc3841461011f5780633a87e3011461014f575b600080fd5b6101096004803603810190610104919061190a565b6102eb565b6040516101169190611978565b60405180910390f35b6101396004803603810190610134919061190a565b6105cd565b60405161014691906119a2565b60405180910390f35b61016960048036038101906101649190611b16565b6108b5565b005b6101736108f0565b6040516101809190611b6e565b60405180910390f35b610191610916565b60405161019e9190611b6e565b60405180910390f35b6101af61093c565b6040516101bc91906119a2565b60405180910390f35b6101df60048036038101906101da9190611b89565b610942565b6040516101ed929190611bf1565b60405180910390f35b6101fe610980565b60405161020b91906119a2565b60405180910390f35b61022e60048036038101906102299190611cd0565b61098f565b005b61024a60048036038101906102459190611d3f565b6109ca565b60405161025791906119a2565b60405180910390f35b61027a60048036038101906102759190611b89565b610c4c565b60405161028a9493929190611d9b565b60405180910390f35b6102ad60048036038101906102a89190611cd0565b610cb6565b005b6102b7610cf1565b6040516102c491906119a2565b60405180910390f35b6102d5610d00565b6040516102e29190611b6e565b60405180910390f35b600080841161032f576040517f08c379a000000000000000000000000000000000000000000000000000000000815260040161032690611e3d565b60405180910390fd5b600260009054906101000a900473ffffffffffffffffffffffffffffffffffffffff1673ffffffffffffffffffffffffffffffffffffffff163373ffffffffffffffffffffffffffffffffffffffff16146103bf576040517f08c379a00000000000000000000000000000000000000000000000000000000081526004016103b690611ecf565b60405180910390fd5b6103c7610d26565b6000541161040a576040517f08c379a000000000000000000000000000000000000000000000000000000000815260040161040190611f61565b60405180910390fd5b83600760008573ffffffffffffffffffffffffffffffffffffffff1673ffffffffffffffffffffffffffffffffffffffff16815260200190815260200160002060000154101561048f576040517f08c379a000000000000000000000000000000000000000000000000000000000815260040161048690611fcd565b60405180910390fd5b83600760008573ffffffffffffffffffffffffffffffffffffffff1673ffffffffffffffffffffffffffffffffffffffff16815260200190815260200160002060000160008282546104e1919061201c565b925050819055508273ffffffffffffffffffffffffffffffffffffffff1663a9059cbb83866040518363ffffffff1660e01b8152600401610523929190612050565b602060405180830381600087803b15801561053d57600080fd5b505af1158015610551573d6000803e3d6000fd5b505050506040513d601f19601f8201168201806040525081019061057591906120a5565b61057e57600080fd5b838373ffffffffffffffffffffffffffffffffffffffff167f08813a3631e12129135cc9440d3fea50eec346f1673b20b994b0456d5d46ccb960405160405180910390a3600190509392505050565b6000808411610611576040517f08c379a000000000000000000000000000000000000000000000000000000000815260040161060890611e3d565b60405180910390fd5b600460009054906101000a900473ffffffffffffffffffffffffffffffffffffffff1673ffffffffffffffffffffffffffffffffffffffff163373ffffffffffffffffffffffffffffffffffffffff16146106a1576040517f08c379a00000000000000000000000000000000000000000000000000000000081526004016106989061211e565b60405180910390fd5b83600760008573ffffffffffffffffffffffffffffffffffffffff1673ffffffffffffffffffffffffffffffffffffffff168152602001908152602001600020600001541015610726576040517f08c379a000000000000000000000000000000000000000000000000000000000815260040161071d90611fcd565b60405180910390fd5b83600760008573ffffffffffffffffffffffffffffffffffffffff1673ffffffffffffffffffffffffffffffffffffffff1681526020019081526020016000206000016000828254610778919061201c565b925050819055508273ffffffffffffffffffffffffffffffffffffffff1663a9059cbb83866040518363ffffffff1660e01b81526004016107ba929190612050565b602060405180830381600087803b1580156107d457600080fd5b505af11580156107e8573d6000803e3d6000fd5b505050506040513d601f19601f8201168201806040525081019061080c91906120a5565b61081557600080fd5b600061081f610d26565b9050600054811015610866576040517f08c379a000000000000000000000000000000000000000000000000000000000815260040161085d906121d6565b60405180910390fd5b848473ffffffffffffffffffffffffffffffffffffffff167fe25410a4059619c9594dc6f022fe231b02aaea733f689e7ab0cd21b3d4d0eb5460405160405180910390a3809150509392505050565b6040517f08c379a00000000000000000000000000000000000000000000000000000000081526004016108e790612242565b60405180910390fd5b600360009054906101000a900473ffffffffffffffffffffffffffffffffffffffff1681565b600460009054906101000a900473ffffffffffffffffffffffffffffffffffffffff1681565b60005481565b60086020528060005260406000206000915090508060000160009054906101000a900460e01b908060000160049054906101000a900460e01b905082565b600061098a610eba565b905090565b6040517f08c379a00000000000000000000000000000000000000000000000000000000081526004016109c190612242565b60405180910390fd5b6000808311610a0e576040517f08c379a0000000000000000000000000000000000000000000000000000000008152600401610a0590611e3d565b60405180910390fd5b6000600360009054906101000a900473ffffffffffffffffffffffffffffffffffffffff1673ffffffffffffffffffffffffffffffffffffffff16636849a3ba846040518263ffffffff1660e01b8152600401610a6b9190611b6e565b602060405180830381600087803b158015610a8557600080fd5b505af1158015610a99573d6000803e3d6000fd5b505050506040513d601f19601f82011682018060405250810190610abd9190612298565b1415610afe576040517f08c379a0000000000000000000000000000000000000000000000000000000008152600401610af590612337565b60405180910390fd5b8173ffffffffffffffffffffffffffffffffffffffff166323b872dd3330866040518463ffffffff1660e01b8152600401610b3b93929190612357565b602060405180830381600087803b158015610b5557600080fd5b505af1158015610b69573d6000803e3d6000fd5b505050506040513d601f19601f82011682018060405250810190610b8d91906120a5565b610b9657600080fd5b82600760008473ffffffffffffffffffffffffffffffffffffffff1673ffffffffffffffffffffffffffffffffffffffff1681526020019081526020016000206000016000828254610be8919061238e565b92505081905550610bf88261123d565b828273ffffffffffffffffffffffffffffffffffffffff167f2ac90482c3b6bea30a2c085cf093016bad7f970d91c5fd233e6b848d3e231dc360405160405180910390a3610c44610d26565b905092915050565b60076020528060005260406000206000915090508060000154908060010160009054906101000a900460ff16908060010160019054906101000a900473ffffffffffffffffffffffffffffffffffffffff16908060010160159054906101000a900460ff16905084565b6040517f08c379a0000000000000000000000000000000000000000000000000000000008152600401610ce890612242565b60405180910390fd5b6000610cfb610d26565b905090565b600260009054906101000a900473ffffffffffffffffffffffffffffffffffffffff1681565b6000600260009054906101000a900473ffffffffffffffffffffffffffffffffffffffff1673ffffffffffffffffffffffffffffffffffffffff1663a6afed956040518163ffffffff1660e01b8152600401602060405180830381600087803b158015610d9257600080fd5b505af1158015610da6573d6000803e3d6000fd5b505050506040513d601f19601f82011682018060405250810190610dca91906123f9565b506000600260009054906101000a900473ffffffffffffffffffffffffffffffffffffffff1673ffffffffffffffffffffffffffffffffffffffff1663dc1f24e66040518163ffffffff1660e01b8152600401602060405180830381600087803b158015610e3757600080fd5b505af1158015610e4b573d6000803e3d6000fd5b505050506040513d601f19601f82011682018060405250810190610e6f91906123f9565b90506000610e7b610eba565b90506000811415610e9157600092505050610eb7565b6000821415610ea65760015492505050610eb7565b610eb281836012611805565b925050505b90565b6000806000905060005b60058054905081101561123557600060058281548110610ee757610ee6612426565b5b9060005260206000200160009054906101000a900473ffffffffffffffffffffffffffffffffffffffff1690506000600760008373ffffffffffffffffffffffffffffffffffffffff1673ffffffffffffffffffffffffffffffffffffffff1681526020019081526020016000206000015490506000811461122057600760008373ffffffffffffffffffffffffffffffffffffffff1673ffffffffffffffffffffffffffffffffffffffff16815260200190815260200160002060010160009054906101000a900460ff16156110cd576000808373ffffffffffffffffffffffffffffffffffffffff1683604051602401610fe391906119a2565b6040516020818303038152906040527f4cdad506000000000000000000000000000000000000000000000000000000007bffffffffffffffffffffffffffffffffffffffffffffffffffffffff19166020820180517bffffffffffffffffffffffffffffffffffffffffffffffffffffffff838183161783525050505060405161106d91906124cf565b6000604051808303816000865af19150503d80600081146110aa576040519150601f19603f3d011682016040523d82523d6000602084013e6110af565b606091505b5091509150808060200190518101906110c891906123f9565b925050505b6000600360009054906101000a900473ffffffffffffffffffffffffffffffffffffffff1673ffffffffffffffffffffffffffffffffffffffff16636849a3ba846040518263ffffffff1660e01b815260040161112a9190611b6e565b602060405180830381600087803b15801561114457600080fd5b505af1158015611158573d6000803e3d6000fd5b505050506040513d601f19601f8201168201806040525081019061117c9190612298565b9050600080821261118d5781611190565b60005b9050600760008573ffffffffffffffffffffffffffffffffffffffff1673ffffffffffffffffffffffffffffffffffffffff16815260200190815260200160002060010160159054906101000a900460ff16600a6111ee9190612619565b60016111fa9190612664565b83826112069190612664565b61121091906126ed565b8661121b919061238e565b955050505b5050808061122d9061271e565b915050610ec4565b508091505090565b600660008273ffffffffffffffffffffffffffffffffffffffff1673ffffffffffffffffffffffffffffffffffffffff16815260200190815260200160002060009054906101000a900460ff16611802576001600660008373ffffffffffffffffffffffffffffffffffffffff1673ffffffffffffffffffffffffffffffffffffffff16815260200190815260200160002060006101000a81548160ff0219169083151502179055506005819080600181540180825580915050600190039060005260206000200160009091909190916101000a81548173ffffffffffffffffffffffffffffffffffffffff021916908373ffffffffffffffffffffffffffffffffffffffff1602179055506000808273ffffffffffffffffffffffffffffffffffffffff166040516024016040516020818303038152906040527f38d52e0f000000000000000000000000000000000000000000000000000000007bffffffffffffffffffffffffffffffffffffffffffffffffffffffff19166020820180517bffffffffffffffffffffffffffffffffffffffffffffffffffffffff83818316178352505050506040516113f391906124cf565b6000604051808303816000865af19150503d8060008114611430576040519150601f19603f3d011682016040523d82523d6000602084013e611435565b606091505b509150915060008082511180156114495750825b905080600760008673ffffffffffffffffffffffffffffffffffffffff1673ffffffffffffffffffffffffffffffffffffffff16815260200190815260200160002060010160006101000a81548160ff021916908315150217905550801561154457818060200190518101906114bf91906127a5565b600760008673ffffffffffffffffffffffffffffffffffffffff1673ffffffffffffffffffffffffffffffffffffffff16815260200190815260200160002060010160016101000a81548173ffffffffffffffffffffffffffffffffffffffff021916908373ffffffffffffffffffffffffffffffffffffffff1602179055506115c6565b83600760008673ffffffffffffffffffffffffffffffffffffffff1673ffffffffffffffffffffffffffffffffffffffff16815260200190815260200160002060010160016101000a81548173ffffffffffffffffffffffffffffffffffffffff021916908373ffffffffffffffffffffffffffffffffffffffff1602179055505b600080600760008773ffffffffffffffffffffffffffffffffffffffff1673ffffffffffffffffffffffffffffffffffffffff16815260200190815260200160002060010160019054906101000a900473ffffffffffffffffffffffffffffffffffffffff1673ffffffffffffffffffffffffffffffffffffffff166040516024016040516020818303038152906040527f313ce567000000000000000000000000000000000000000000000000000000007bffffffffffffffffffffffffffffffffffffffffffffffffffffffff19166020820180517bffffffffffffffffffffffffffffffffffffffffffffffffffffffff83818316178352505050506040516116d291906124cf565b6000604051808303816000865af19150503d806000811461170f576040519150601f19603f3d011682016040523d82523d6000602084013e611714565b606091505b5091509150600081511180156117275750815b1561179f578080602001905181019061174091906127fe565b600760008873ffffffffffffffffffffffffffffffffffffffff1673ffffffffffffffffffffffffffffffffffffffff16815260200190815260200160002060010160156101000a81548160ff021916908360ff1602179055506117fc565b6012600760008873ffffffffffffffffffffffffffffffffffffffff1673ffffffffffffffffffffffffffffffffffffffff16815260200190815260200160002060010160156101000a81548160ff021916908360ff1602179055505b50505050505b50565b600080600183611815919061238e565b600a611821919061282b565b8561182c9190612664565b90506000600a6005868461184091906126ed565b61184a919061238e565b61185491906126ed565b905080925050509392505050565b6000604051905090565b600080fd5b600080fd5b6000819050919050565b61188981611876565b811461189457600080fd5b50565b6000813590506118a681611880565b92915050565b600073ffffffffffffffffffffffffffffffffffffffff82169050919050565b60006118d7826118ac565b9050919050565b6118e7816118cc565b81146118f257600080fd5b50565b600081359050611904816118de565b92915050565b6000806000606084860312156119235761192261186c565b5b600061193186828701611897565b9350506020611942868287016118f5565b9250506040611953868287016118f5565b9150509250925092565b60008115159050919050565b6119728161195d565b82525050565b600060208201905061198d6000830184611969565b92915050565b61199c81611876565b82525050565b60006020820190506119b76000830184611993565b92915050565b600080fd5b6000601f19601f8301169050919050565b7f4e487b7100000000000000000000000000000000000000000000000000000000600052604160045260246000fd5b611a0b826119c2565b810181811067ffffffffffffffff82111715611a2a57611a296119d3565b5b80604052505050565b6000611a3d611862565b9050611a498282611a02565b919050565b600067ffffffffffffffff821115611a6957611a686119d3565b5b602082029050602081019050919050565b600080fd5b6000611a92611a8d84611a4e565b611a33565b90508083825260208201905060208402830185811115611ab557611ab4611a7a565b5b835b81811015611ade5780611aca88826118f5565b845260208401935050602081019050611ab7565b5050509392505050565b600082601f830112611afd57611afc6119bd565b5b8135611b0d848260208601611a7f565b91505092915050565b600060208284031215611b2c57611b2b61186c565b5b600082013567ffffffffffffffff811115611b4a57611b49611871565b5b611b5684828501611ae8565b91505092915050565b611b68816118cc565b82525050565b6000602082019050611b836000830184611b5f565b92915050565b600060208284031215611b9f57611b9e61186c565b5b6000611bad848285016118f5565b91505092915050565b60007fffffffff0000000000000000000000000000000000000000000000000000000082169050919050565b611beb81611bb6565b82525050565b6000604082019050611c066000830185611be2565b611c136020830184611be2565b9392505050565b600080fd5b600080fd5b611c2d81611bb6565b8114611c3857600080fd5b50565b600081359050611c4a81611c24565b92915050565b600060608284031215611c6657611c65611c1a565b5b611c706060611a33565b90506000611c8084828501611c3b565b6000830152506020611c9484828501611c3b565b602083015250604082013567ffffffffffffffff811115611cb857611cb7611c1f565b5b611cc484828501611ae8565b60408301525092915050565b600080600060608486031215611ce957611ce861186c565b5b6000611cf7868287016118f5565b9350506020611d0886828701611897565b925050604084013567ffffffffffffffff811115611d2957611d28611871565b5b611d3586828701611c50565b9150509250925092565b60008060408385031215611d5657611d5561186c565b5b6000611d6485828601611897565b9250506020611d75858286016118f5565b9150509250929050565b600060ff82169050919050565b611d9581611d7f565b82525050565b6000608082019050611db06000830187611993565b611dbd6020830186611969565b611dca6040830185611b5f565b611dd76060830184611d8c565b95945050505050565b600082825260208201905092915050565b7f457363726f773a20616d6f756e74206973203000000000000000000000000000600082015250565b6000611e27601383611de0565b9150611e3282611df1565b602082019050919050565b60006020820190508181036000830152611e5681611e1a565b9050919050565b7f457363726f773a206d73672e73656e646572206d75737420626520746865206c60008201527f6f616e20636f6e74726163740000000000000000000000000000000000000000602082015250565b6000611eb9602c83611de0565b9150611ec482611e5d565b604082019050919050565b60006020820190508181036000830152611ee881611eac565b9050919050565b7f457363726f773a206e6f7420656c696769626c6520666f72206c69717569646160008201527f74696f6e00000000000000000000000000000000000000000000000000000000602082015250565b6000611f4b602483611de0565b9150611f5682611eef565b604082019050919050565b60006020820190508181036000830152611f7a81611f3e565b9050919050565b7f457363726f773a20696e73756666696369656e742062616c616e636500000000600082015250565b6000611fb7601c83611de0565b9150611fc282611f81565b602082019050919050565b60006020820190508181036000830152611fe681611faa565b9050919050565b7f4e487b7100000000000000000000000000000000000000000000000000000000600052601160045260246000fd5b600061202782611876565b915061203283611876565b92508282101561204557612044611fed565b5b828203905092915050565b60006040820190506120656000830185611b5f565b6120726020830184611993565b9392505050565b6120828161195d565b811461208d57600080fd5b50565b60008151905061209f81612079565b92915050565b6000602082840312156120bb576120ba61186c565b5b60006120c984828501612090565b91505092915050565b7f457363726f773a206f6e6c7920626f72726f7765722063616e2063616c6c0000600082015250565b6000612108601e83611de0565b9150612113826120d2565b602082019050919050565b60006020820190508181036000830152612137816120fb565b9050919050565b7f457363726f773a2063616e6e6f742072656c6561736520636f6c6c617465726160008201527f6c2069662063726174696f206265636f6d6573206c6f776572207468616e207460208201527f6865206d696e696d756d00000000000000000000000000000000000000000000604082015250565b60006121c0604a83611de0565b91506121cb8261213e565b606082019050919050565b600060208201905081810360008301526121ef816121b3565b9050919050565b7f4e6f7420696d706c656d656e7465640000000000000000000000000000000000600082015250565b600061222c600f83611de0565b9150612237826121f6565b602082019050919050565b6000602082019050818103600083015261225b8161221f565b9050919050565b6000819050919050565b61227581612262565b811461228057600080fd5b50565b6000815190506122928161226c565b92915050565b6000602082840312156122ae576122ad61186c565b5b60006122bc84828501612283565b91505092915050565b7f457363726f773a206465706f736974656420746f6b656e20646f6573206e6f7460008201527f2068617665206120707269636520666565640000000000000000000000000000602082015250565b6000612321603283611de0565b915061232c826122c5565b604082019050919050565b6000602082019050818103600083015261235081612314565b9050919050565b600060608201905061236c6000830186611b5f565b6123796020830185611b5f565b6123866040830184611993565b949350505050565b600061239982611876565b91506123a483611876565b9250827fffffffffffffffffffffffffffffffffffffffffffffffffffffffffffffffff038211156123d9576123d8611fed565b5b828201905092915050565b6000815190506123f381611880565b92915050565b60006020828403121561240f5761240e61186c565b5b600061241d848285016123e4565b91505092915050565b7f4e487b7100000000000000000000000000000000000000000000000000000000600052603260045260246000fd5b600081519050919050565b600081905092915050565b60005b8381101561248957808201518184015260208101905061246e565b83811115612498576000848401525b50505050565b60006124a982612455565b6124b38185612460565b93506124c381856020860161246b565b80840191505092915050565b60006124db828461249e565b915081905092915050565b60008160011c9050919050565b6000808291508390505b600185111561253d5780860481111561251957612518611fed565b5b60018516156125285780820291505b8081029050612536856124e6565b94506124fd565b94509492505050565b6000826125565760019050612612565b816125645760009050612612565b816001811461257a5760028114612584576125b3565b6001915050612612565b60ff84111561259657612595611fed565b5b8360020a9150848211156125ad576125ac611fed565b5b50612612565b5060208310610133831016604e8410600b84101617156125e85782820a9050838111156125e3576125e2611fed565b5b612612565b6125f584848460016124f3565b9250905081840481111561260c5761260b611fed565b5b81810290505b9392505050565b600061262482611876565b915061262f83611d7f565b925061265c7fffffffffffffffffffffffffffffffffffffffffffffffffffffffffffffffff8484612546565b905092915050565b600061266f82611876565b915061267a83611876565b9250817fffffffffffffffffffffffffffffffffffffffffffffffffffffffffffffffff04831182151516156126b3576126b2611fed565b5b828202905092915050565b7f4e487b7100000000000000000000000000000000000000000000000000000000600052601260045260246000fd5b60006126f882611876565b915061270383611876565b925082612713576127126126be565b5b828204905092915050565b600061272982611876565b91507fffffffffffffffffffffffffffffffffffffffffffffffffffffffffffffffff82141561275c5761275b611fed565b5b600182019050919050565b6000612772826118ac565b9050919050565b61278281612767565b811461278d57600080fd5b50565b60008151905061279f81612779565b92915050565b6000602082840312156127bb576127ba61186c565b5b60006127c984828501612790565b91505092915050565b6127db81611d7f565b81146127e657600080fd5b50565b6000815190506127f8816127d2565b92915050565b6000602082840312156128145761281361186c565b5b6000612822848285016127e9565b91505092915050565b600061283682611876565b915061284183611876565b925061286e7fffffffffffffffffffffffffffffffffffffffffffffffffffffffffffffffff8484612546565b90509291505056fea2646970667358221220ae0a266eebd02ecafb2b7ad2ca5b481e1033bcb5e4172b42db6421c9222b61de64736f6c63430008090033",
  "linkReferences": {
    "contracts/utils/LoanLib.sol": {
      "LoanLib": [
        {
          "length": 20,
          "start": 9525
        },
        {
          "length": 20,
          "start": 15400
        },
        {
          "length": 20,
          "start": 17834
        },
        {
          "length": 20,
          "start": 18142
        },
        {
          "length": 20,
          "start": 18331
        },
        {
          "length": 20,
          "start": 18740
        },
        {
          "length": 20,
          "start": 19432
        },
        {
          "length": 20,
          "start": 20229
        },
        {
          "length": 20,
          "start": 21958
        },
        {
          "length": 20,
          "start": 22156
        }
      ]
    }
  },
  "deployedLinkReferences": {
    "contracts/utils/LoanLib.sol": {
      "LoanLib": [
        {
          "length": 20,
          "start": 7427
        },
        {
          "length": 20,
          "start": 13302
        },
        {
          "length": 20,
          "start": 15736
        },
        {
          "length": 20,
          "start": 16044
        },
        {
          "length": 20,
          "start": 16233
        },
        {
          "length": 20,
          "start": 16642
        },
        {
          "length": 20,
          "start": 17334
        },
        {
          "length": 20,
          "start": 18131
        },
        {
          "length": 20,
          "start": 19860
        },
        {
          "length": 20,
          "start": 20058
        }
      ]
    }
  }
}