{
  "abi": [
    {
      "inputs": [
        {
          "internalType": "address",
          "name": "oracle_",
          "type": "address"
        },
        {
          "internalType": "address",
          "name": "arbiter_",
          "type": "address"
        },
        {
          "internalType": "address",
          "name": "borrower_",
          "type": "address"
        },
        {
          "internalType": "address payable",
          "name": "swapTarget_",
          "type": "address"
        },
        {
          "internalType": "address",
          "name": "spigot_",
          "type": "address"
        },
        {
          "internalType": "address",
          "name": "escrow_",
          "type": "address"
        },
        {
          "internalType": "uint256",
          "name": "ttl_",
          "type": "uint256"
        },
        {
          "internalType": "uint8",
          "name": "defaultSplit_",
          "type": "uint8"
        }
      ],
      "stateMutability": "nonpayable",
      "type": "constructor"
    },
    {
      "inputs": [],
      "name": "AlreadyInitialized",
      "type": "error"
    },
    {
      "inputs": [
        {
          "internalType": "address",
          "name": "module",
          "type": "address"
        }
      ],
      "name": "BadModule",
      "type": "error"
    },
    {
      "inputs": [],
      "name": "BadNewLine",
      "type": "error"
    },
    {
      "inputs": [],
      "name": "BadRollover",
      "type": "error"
    },
    {
      "inputs": [],
      "name": "CallerAccessDenied",
      "type": "error"
    },
    {
      "inputs": [],
      "name": "CloseFailedWithPrincipal",
      "type": "error"
    },
    {
      "inputs": [],
      "name": "DebtOwed",
      "type": "error"
    },
    {
      "inputs": [],
      "name": "NoLiquidity",
      "type": "error"
    },
    {
      "inputs": [],
      "name": "NoTokenPrice",
      "type": "error"
    },
    {
      "inputs": [],
      "name": "NotActive",
      "type": "error"
    },
    {
      "inputs": [],
      "name": "NotBorrowing",
      "type": "error"
    },
    {
      "inputs": [
        {
          "internalType": "address",
          "name": "module",
          "type": "address"
        }
      ],
      "name": "NotInsolvent",
      "type": "error"
    },
    {
      "inputs": [],
      "name": "NotLiquidatable",
      "type": "error"
    },
    {
      "inputs": [],
      "name": "PositionExists",
      "type": "error"
    },
    {
      "inputs": [],
      "name": "TokenTransferFailed",
      "type": "error"
    },
    {
      "inputs": [],
      "name": "Unauthorized",
      "type": "error"
    },
    {
      "anonymous": false,
      "inputs": [
        {
          "indexed": true,
          "internalType": "address",
          "name": "lender",
          "type": "address"
        },
        {
          "indexed": true,
          "internalType": "address",
          "name": "token",
          "type": "address"
        },
        {
          "indexed": true,
          "internalType": "uint256",
          "name": "deposit",
          "type": "uint256"
        },
        {
          "indexed": false,
          "internalType": "bytes32",
          "name": "id",
          "type": "bytes32"
        }
      ],
      "name": "AddCredit",
      "type": "event"
    },
    {
      "anonymous": false,
      "inputs": [
        {
          "indexed": true,
          "internalType": "bytes32",
          "name": "id",
          "type": "bytes32"
        },
        {
          "indexed": true,
          "internalType": "uint256",
          "name": "amount",
          "type": "uint256"
        }
      ],
      "name": "Borrow",
      "type": "event"
    },
    {
      "anonymous": false,
      "inputs": [
        {
          "indexed": true,
          "internalType": "bytes32",
          "name": "id",
          "type": "bytes32"
        }
      ],
      "name": "CloseCreditPosition",
      "type": "event"
    },
    {
      "anonymous": false,
      "inputs": [
        {
          "indexed": true,
          "internalType": "bytes32",
          "name": "id",
          "type": "bytes32"
        }
      ],
      "name": "Default",
      "type": "event"
    },
    {
      "anonymous": false,
      "inputs": [
        {
          "indexed": true,
          "internalType": "address",
          "name": "oracle",
          "type": "address"
        },
        {
          "indexed": true,
          "internalType": "address",
          "name": "arbiter",
          "type": "address"
        },
        {
          "indexed": true,
          "internalType": "address",
          "name": "borrower",
          "type": "address"
        }
      ],
      "name": "DeployLine",
      "type": "event"
    },
    {
      "anonymous": false,
      "inputs": [
        {
          "indexed": true,
          "internalType": "bytes32",
          "name": "id",
          "type": "bytes32"
        },
        {
          "indexed": true,
          "internalType": "uint256",
          "name": "deposit",
          "type": "uint256"
        }
      ],
      "name": "IncreaseCredit",
      "type": "event"
    },
    {
      "anonymous": false,
      "inputs": [
        {
          "indexed": true,
          "internalType": "bytes32",
          "name": "id",
          "type": "bytes32"
        },
        {
          "indexed": true,
          "internalType": "uint256",
          "name": "amount",
          "type": "uint256"
        }
      ],
      "name": "InterestAccrued",
      "type": "event"
    },
    {
      "anonymous": false,
      "inputs": [
        {
          "indexed": true,
          "internalType": "bytes32",
          "name": "id",
          "type": "bytes32"
        },
        {
          "indexed": true,
          "internalType": "uint256",
          "name": "amount",
          "type": "uint256"
        },
        {
          "indexed": true,
          "internalType": "address",
          "name": "token",
          "type": "address"
        },
        {
          "indexed": false,
          "internalType": "address",
          "name": "escrow",
          "type": "address"
        }
      ],
      "name": "Liquidate",
      "type": "event"
    },
    {
      "anonymous": false,
      "inputs": [
        {
          "indexed": false,
          "internalType": "bytes32",
          "name": "_consentHash",
          "type": "bytes32"
        }
      ],
      "name": "MutualConsentRegistered",
      "type": "event"
    },
    {
      "anonymous": false,
      "inputs": [
        {
          "indexed": true,
          "internalType": "bytes32",
          "name": "id",
          "type": "bytes32"
        },
        {
          "indexed": true,
          "internalType": "uint256",
          "name": "amount",
          "type": "uint256"
        }
      ],
      "name": "RepayInterest",
      "type": "event"
    },
    {
      "anonymous": false,
      "inputs": [
        {
          "indexed": true,
          "internalType": "bytes32",
          "name": "id",
          "type": "bytes32"
        },
        {
          "indexed": true,
          "internalType": "uint256",
          "name": "amount",
          "type": "uint256"
        }
      ],
      "name": "RepayPrincipal",
      "type": "event"
    },
    {
      "anonymous": false,
      "inputs": [
        {
          "indexed": true,
          "internalType": "address",
          "name": "token",
          "type": "address"
        },
        {
          "indexed": true,
          "internalType": "uint256",
          "name": "amount",
          "type": "uint256"
        }
      ],
      "name": "RevenuePayment",
      "type": "event"
    },
    {
      "anonymous": false,
      "inputs": [
        {
          "indexed": true,
          "internalType": "bytes32",
          "name": "id",
          "type": "bytes32"
        },
        {
          "indexed": true,
          "internalType": "uint128",
          "name": "dRate",
          "type": "uint128"
        },
        {
          "indexed": true,
          "internalType": "uint128",
          "name": "fRate",
          "type": "uint128"
        }
      ],
      "name": "SetRates",
      "type": "event"
    },
    {
      "anonymous": false,
      "inputs": [
        {
          "indexed": true,
          "internalType": "address",
          "name": "revenueToken",
          "type": "address"
        },
        {
          "indexed": false,
          "internalType": "uint256",
          "name": "revenueTokenAmount",
          "type": "uint256"
        },
        {
          "indexed": true,
          "internalType": "address",
          "name": "debtToken",
          "type": "address"
        },
        {
          "indexed": true,
          "internalType": "uint256",
          "name": "debtTokensBought",
          "type": "uint256"
        }
      ],
      "name": "TradeSpigotRevenue",
      "type": "event"
    },
    {
      "anonymous": false,
      "inputs": [
        {
          "indexed": true,
          "internalType": "uint256",
          "name": "status",
          "type": "uint256"
        }
      ],
      "name": "UpdateStatus",
      "type": "event"
    },
    {
      "anonymous": false,
      "inputs": [
        {
          "indexed": true,
          "internalType": "bytes32",
          "name": "id",
          "type": "bytes32"
        },
        {
          "indexed": true,
          "internalType": "uint256",
          "name": "amount",
          "type": "uint256"
        }
      ],
      "name": "WithdrawDeposit",
      "type": "event"
    },
    {
      "anonymous": false,
      "inputs": [
        {
          "indexed": true,
          "internalType": "bytes32",
          "name": "id",
          "type": "bytes32"
        },
        {
          "indexed": true,
          "internalType": "uint256",
          "name": "amount",
          "type": "uint256"
        }
      ],
      "name": "WithdrawProfit",
      "type": "event"
    },
    {
      "inputs": [],
      "name": "accrueInterest",
      "outputs": [
        {
          "internalType": "bool",
          "name": "",
          "type": "bool"
        }
      ],
      "stateMutability": "nonpayable",
      "type": "function"
    },
    {
      "inputs": [
        {
          "internalType": "uint128",
          "name": "drate",
          "type": "uint128"
        },
        {
          "internalType": "uint128",
          "name": "frate",
          "type": "uint128"
        },
        {
          "internalType": "uint256",
          "name": "amount",
          "type": "uint256"
        },
        {
          "internalType": "address",
          "name": "token",
          "type": "address"
        },
        {
          "internalType": "address",
          "name": "lender",
          "type": "address"
        }
      ],
      "name": "addCredit",
      "outputs": [
        {
          "internalType": "bytes32",
          "name": "",
          "type": "bytes32"
        }
      ],
      "stateMutability": "payable",
      "type": "function"
    },
    {
      "inputs": [
        {
          "internalType": "address",
          "name": "revenueContract",
          "type": "address"
        },
        {
          "components": [
            {
              "internalType": "uint8",
              "name": "ownerSplit",
              "type": "uint8"
            },
            {
              "internalType": "bytes4",
              "name": "claimFunction",
              "type": "bytes4"
            },
            {
              "internalType": "bytes4",
              "name": "transferOwnerFunction",
              "type": "bytes4"
            }
          ],
          "internalType": "struct ISpigot.Setting",
          "name": "setting",
          "type": "tuple"
        }
      ],
      "name": "addSpigot",
      "outputs": [
        {
          "internalType": "bool",
          "name": "",
          "type": "bool"
        }
      ],
      "stateMutability": "nonpayable",
      "type": "function"
    },
    {
      "inputs": [],
      "name": "arbiter",
      "outputs": [
        {
          "internalType": "address",
          "name": "",
          "type": "address"
        }
      ],
      "stateMutability": "view",
      "type": "function"
    },
    {
      "inputs": [
        {
          "internalType": "bytes32",
          "name": "id",
          "type": "bytes32"
        },
        {
          "internalType": "uint256",
          "name": "amount",
          "type": "uint256"
        }
      ],
      "name": "borrow",
      "outputs": [
        {
          "internalType": "bool",
          "name": "",
          "type": "bool"
        }
      ],
      "stateMutability": "nonpayable",
      "type": "function"
    },
    {
      "inputs": [],
      "name": "borrower",
      "outputs": [
        {
          "internalType": "address",
          "name": "",
          "type": "address"
        }
      ],
      "stateMutability": "view",
      "type": "function"
    },
    {
      "inputs": [
        {
          "internalType": "address",
          "name": "claimToken",
          "type": "address"
        },
        {
          "internalType": "bytes",
          "name": "zeroExTradeData",
          "type": "bytes"
        }
      ],
      "name": "claimAndRepay",
      "outputs": [
        {
          "internalType": "uint256",
          "name": "",
          "type": "uint256"
        }
      ],
      "stateMutability": "nonpayable",
      "type": "function"
    },
    {
      "inputs": [
        {
          "internalType": "address",
          "name": "claimToken",
          "type": "address"
        },
        {
          "internalType": "bytes",
          "name": "zeroExTradeData",
          "type": "bytes"
        }
      ],
      "name": "claimAndTrade",
      "outputs": [
        {
          "internalType": "uint256",
          "name": "",
          "type": "uint256"
        }
      ],
      "stateMutability": "nonpayable",
      "type": "function"
    },
    {
      "inputs": [
        {
          "internalType": "bytes32",
          "name": "id",
          "type": "bytes32"
        }
      ],
      "name": "close",
      "outputs": [
        {
          "internalType": "bool",
          "name": "",
          "type": "bool"
        }
      ],
      "stateMutability": "payable",
      "type": "function"
    },
    {
      "inputs": [],
      "name": "counts",
      "outputs": [
        {
          "internalType": "uint256",
          "name": "",
          "type": "uint256"
        },
        {
          "internalType": "uint256",
          "name": "",
          "type": "uint256"
        }
      ],
      "stateMutability": "view",
      "type": "function"
    },
    {
      "inputs": [
        {
          "internalType": "bytes32",
          "name": "",
          "type": "bytes32"
        }
      ],
      "name": "credits",
      "outputs": [
        {
          "internalType": "uint256",
          "name": "deposit",
          "type": "uint256"
        },
        {
          "internalType": "uint256",
          "name": "principal",
          "type": "uint256"
        },
        {
          "internalType": "uint256",
          "name": "interestAccrued",
          "type": "uint256"
        },
        {
          "internalType": "uint256",
          "name": "interestRepaid",
          "type": "uint256"
        },
        {
          "internalType": "uint8",
          "name": "decimals",
          "type": "uint8"
        },
        {
          "internalType": "address",
          "name": "token",
          "type": "address"
        },
        {
          "internalType": "address",
          "name": "lender",
          "type": "address"
        }
      ],
      "stateMutability": "view",
      "type": "function"
    },
    {
      "inputs": [],
      "name": "deadline",
      "outputs": [
        {
          "internalType": "uint256",
          "name": "",
          "type": "uint256"
        }
      ],
      "stateMutability": "view",
      "type": "function"
    },
    {
      "inputs": [],
      "name": "declareInsolvent",
      "outputs": [
        {
          "internalType": "bool",
          "name": "",
          "type": "bool"
        }
      ],
      "stateMutability": "nonpayable",
      "type": "function"
    },
    {
      "inputs": [],
      "name": "defaultRevenueSplit",
      "outputs": [
        {
          "internalType": "uint8",
          "name": "",
          "type": "uint8"
        }
      ],
      "stateMutability": "view",
      "type": "function"
    },
    {
      "inputs": [],
      "name": "depositAndClose",
      "outputs": [
        {
          "internalType": "bool",
          "name": "",
          "type": "bool"
        }
      ],
      "stateMutability": "payable",
      "type": "function"
    },
    {
      "inputs": [
        {
          "internalType": "uint256",
          "name": "amount",
          "type": "uint256"
        }
      ],
      "name": "depositAndRepay",
      "outputs": [
        {
          "internalType": "bool",
          "name": "",
          "type": "bool"
        }
      ],
      "stateMutability": "payable",
      "type": "function"
    },
    {
      "inputs": [],
      "name": "escrow",
      "outputs": [
        {
          "internalType": "contract IEscrow",
          "name": "",
          "type": "address"
        }
      ],
      "stateMutability": "view",
      "type": "function"
    },
    {
      "inputs": [],
      "name": "healthcheck",
      "outputs": [
        {
          "internalType": "enum LineLib.STATUS",
          "name": "",
          "type": "uint8"
        }
      ],
      "stateMutability": "nonpayable",
      "type": "function"
    },
    {
      "inputs": [
        {
          "internalType": "uint256",
          "name": "",
          "type": "uint256"
        }
      ],
      "name": "ids",
      "outputs": [
        {
          "internalType": "bytes32",
          "name": "",
          "type": "bytes32"
        }
      ],
      "stateMutability": "view",
      "type": "function"
    },
    {
      "inputs": [
        {
          "internalType": "bytes32",
          "name": "id",
          "type": "bytes32"
        },
        {
          "internalType": "uint256",
          "name": "amount",
          "type": "uint256"
        }
      ],
      "name": "increaseCredit",
      "outputs": [
        {
          "internalType": "bool",
          "name": "",
          "type": "bool"
        }
      ],
      "stateMutability": "payable",
      "type": "function"
    },
    {
      "inputs": [],
      "name": "init",
      "outputs": [
        {
          "internalType": "enum LineLib.STATUS",
          "name": "",
          "type": "uint8"
        }
      ],
      "stateMutability": "nonpayable",
      "type": "function"
    },
    {
      "inputs": [],
      "name": "interestRate",
      "outputs": [
        {
          "internalType": "contract InterestRateCredit",
          "name": "",
          "type": "address"
        }
      ],
      "stateMutability": "view",
      "type": "function"
    },
    {
      "inputs": [
        {
          "internalType": "uint256",
          "name": "amount",
          "type": "uint256"
        },
        {
          "internalType": "address",
          "name": "targetToken",
          "type": "address"
        }
      ],
      "name": "liquidate",
      "outputs": [
        {
          "internalType": "uint256",
          "name": "",
          "type": "uint256"
        }
      ],
      "stateMutability": "nonpayable",
      "type": "function"
    },
    {
      "inputs": [
        {
          "internalType": "bytes32",
          "name": "",
          "type": "bytes32"
        }
      ],
      "name": "mutualConsents",
      "outputs": [
        {
          "internalType": "bool",
          "name": "",
          "type": "bool"
        }
      ],
      "stateMutability": "view",
      "type": "function"
    },
    {
      "inputs": [],
      "name": "oracle",
      "outputs": [
        {
          "internalType": "contract IOracle",
          "name": "",
          "type": "address"
        }
      ],
      "stateMutability": "view",
      "type": "function"
    },
    {
      "inputs": [],
      "name": "releaseSpigot",
      "outputs": [
        {
          "internalType": "bool",
          "name": "",
          "type": "bool"
        }
      ],
      "stateMutability": "nonpayable",
      "type": "function"
    },
    {
      "inputs": [
        {
          "internalType": "address",
          "name": "newLine",
          "type": "address"
        }
      ],
      "name": "rollover",
      "outputs": [
        {
          "internalType": "bool",
          "name": "",
          "type": "bool"
        }
      ],
      "stateMutability": "nonpayable",
      "type": "function"
    },
    {
      "inputs": [
        {
          "internalType": "bytes32",
          "name": "id",
          "type": "bytes32"
        },
        {
          "internalType": "uint128",
          "name": "drate",
          "type": "uint128"
        },
        {
          "internalType": "uint128",
          "name": "frate",
          "type": "uint128"
        }
      ],
      "name": "setRates",
      "outputs": [
        {
          "internalType": "bool",
          "name": "",
          "type": "bool"
        }
      ],
      "stateMutability": "nonpayable",
      "type": "function"
    },
    {
      "inputs": [],
      "name": "spigot",
      "outputs": [
        {
          "internalType": "contract ISpigot",
          "name": "",
          "type": "address"
        }
      ],
      "stateMutability": "view",
      "type": "function"
    },
    {
      "inputs": [],
      "name": "status",
      "outputs": [
        {
          "internalType": "enum LineLib.STATUS",
          "name": "",
          "type": "uint8"
        }
      ],
      "stateMutability": "view",
      "type": "function"
    },
    {
      "inputs": [],
      "name": "swapTarget",
      "outputs": [
        {
          "internalType": "address payable",
          "name": "",
          "type": "address"
        }
      ],
      "stateMutability": "view",
      "type": "function"
    },
    {
      "inputs": [
        {
          "internalType": "address",
          "name": "to",
          "type": "address"
        },
        {
          "internalType": "address",
          "name": "token",
          "type": "address"
        }
      ],
      "name": "sweep",
      "outputs": [
        {
          "internalType": "uint256",
          "name": "",
          "type": "uint256"
        }
      ],
      "stateMutability": "nonpayable",
      "type": "function"
    },
    {
      "inputs": [
        {
          "internalType": "address",
          "name": "token",
          "type": "address"
        }
      ],
      "name": "unused",
      "outputs": [
        {
          "internalType": "uint256",
          "name": "",
          "type": "uint256"
        }
      ],
      "stateMutability": "view",
      "type": "function"
    },
    {
      "inputs": [],
      "name": "updateOutstandingDebt",
      "outputs": [
        {
          "internalType": "uint256",
          "name": "",
          "type": "uint256"
        },
        {
          "internalType": "uint256",
          "name": "",
          "type": "uint256"
        }
      ],
      "stateMutability": "nonpayable",
      "type": "function"
    },
    {
      "inputs": [
        {
          "internalType": "address",
          "name": "revenueContract",
          "type": "address"
        }
      ],
      "name": "updateOwnerSplit",
      "outputs": [
        {
          "internalType": "bool",
          "name": "",
          "type": "bool"
        }
      ],
      "stateMutability": "nonpayable",
      "type": "function"
    },
    {
      "inputs": [
        {
          "internalType": "bytes4",
          "name": "func",
          "type": "bytes4"
        },
        {
          "internalType": "bool",
          "name": "allowed",
          "type": "bool"
        }
      ],
      "name": "updateWhitelist",
      "outputs": [
        {
          "internalType": "bool",
          "name": "",
          "type": "bool"
        }
      ],
      "stateMutability": "nonpayable",
      "type": "function"
    },
    {
      "inputs": [
        {
          "internalType": "uint256",
          "name": "amount",
          "type": "uint256"
        }
      ],
      "name": "useAndRepay",
      "outputs": [
        {
          "internalType": "bool",
          "name": "",
          "type": "bool"
        }
      ],
      "stateMutability": "nonpayable",
      "type": "function"
    },
    {
      "inputs": [
        {
          "internalType": "bytes32",
          "name": "id",
          "type": "bytes32"
        },
        {
          "internalType": "uint256",
          "name": "amount",
          "type": "uint256"
        }
      ],
      "name": "withdraw",
      "outputs": [
        {
          "internalType": "bool",
          "name": "",
          "type": "bool"
        }
      ],
      "stateMutability": "nonpayable",
      "type": "function"
    },
    {
      "stateMutability": "payable",
      "type": "receive"
    }
  ],
  "bytecode": {
    "object": "0x6101a06040523480156200001257600080fd5b50604051620052a9380380620052a9833981016040819052620000359162000152565b6001600160a01b0380891660e05280881660c052861660a0528288888887898787868686846200006681426200020c565b60805260405162000077906200012b565b604051809103906000f08015801562000094573d6000803e3d6000fd5b506001600160a01b03908116610100526040518382169185811691908716907f823bb3f9854921652e62f2fcf067240bf72adb3bf3717b6e65c78f99df300e5890600090a4505060016005555050606460ff82161115620000f457600080fd5b6001600160a01b039384166101205260ff166101605250811661014052939093166101805250620002339950505050505050505050565b6104c58062004de483390190565b6001600160a01b03811681146200014f57600080fd5b50565b600080600080600080600080610100898b0312156200017057600080fd5b88516200017d8162000139565b60208a0151909850620001908162000139565b60408a0151909750620001a38162000139565b60608a0151909650620001b68162000139565b60808a0151909550620001c98162000139565b60a08a0151909450620001dc8162000139565b60c08a015160e08b0151919450925060ff81168114620001fb57600080fd5b809150509295985092959890939650565b600082198211156200022e57634e487b7160e01b600052601160045260246000fd5b500190565b60805160a05160c05160e05161010051610120516101405161016051610180516149fe620003e66000396000818161072e015281816130390152818161385f01528181613e3001528181613f910152818161400201526140af015260008181610792015261247b0152600081816105e2015261316f01526000818161047a01528181610aea01528181610cc501528181610fda0152818161150401528181611ed8015281816120110152818161244e0152818161319101528181613ee001526140f30152600081816105260152818161235b015281816129c501528181612e60015261367b01526000818161057a0152818161365a0152613b5c0152600081816107f801528181610a840152818161163001528181611f2501528181611fc00152818161257d01528181612d7d015261411b0152600081816105ae01528181610aa501528181610b8b01528181610f250152818161127001528181611457015281816117cd0152818161197401528181611bf901528181611d1801528181611f04015281816121f10152818161255c0152818161267801526128cf0152600081816103110152613da001526149fe6000f3fe6080604052600436106102295760003560e01c80637e7f0cde11610123578063c3651574116100ab578063e7fe4d521161006f578063e7fe4d5214610750578063e96b496f14610780578063fac333ac146107c6578063fe25e00a146107e6578063feccf26f1461081a57600080fd5b8063c3651574146106ce578063cb836209146106e1578063dfe96083146106f4578063e1c7392a14610707578063e2fdcc171461071c57600080fd5b8063921c5fcb116100f2578063921c5fcb14610639578063a6afed9514610659578063ac856fac1461066e578063b57cb9fc1461068e578063b8dc491b146106ae57600080fd5b80637e7f0cde146105d05780637eef544d14610604578063817cc1ea1461060c57806387fffaf31461062457600080fd5b80634f42fc02116101b157806367828fbd1161017557806367828fbd146104f45780637c3a00fd146105145780637c93ec30146105485780637dc0d1d0146105685780637df1f1b91461059c57600080fd5b80634f42fc0214610429578063501b56d81461043e5780635e235d54146104685780635f618768146104b45780635fae8b3d146104d457600080fd5b8063200d2ed2116101f8578063200d2ed2146102d857806329dcb0cf146102ff57806339c79e0c146103335780634299791314610346578063461035af146103f357600080fd5b8063040cf0201461023557806318906bf71461026a5780631a5bb0981461028a5780631acb7525146102aa57600080fd5b3661023057005b600080fd5b34801561024157600080fd5b506102556102503660046141b9565b61082f565b60405190151581526020015b60405180910390f35b34801561027657600080fd5b506102556102853660046141f3565b610a80565b34801561029657600080fd5b506102556102a5366004614234565b610b7e565b3480156102b657600080fd5b506102ca6102c5366004614251565b610e0f565b604051908152602001610261565b3480156102e457600080fd5b506004546102f29060ff1681565b604051610261919061430e565b34801561030b57600080fd5b506102ca7f000000000000000000000000000000000000000000000000000000000000000081565b61025561034136600461431c565b6111fd565b34801561035257600080fd5b506103af61036136600461431c565b6003602081905260009182526040909120805460018201546002830154938301546004840154600590940154929491939192909160ff8116916001600160a01b036101009092048216911687565b60408051978852602088019690965294860193909352606085019190915260ff1660808401526001600160a01b0390811660a08401521660c082015260e001610261565b3480156103ff57600080fd5b506102ca61040e366004614234565b6001600160a01b031660009081526006602052604090205490565b34801561043557600080fd5b506102f2611391565b34801561044a57600080fd5b506104536113cc565b60408051928352602083019190915201610261565b34801561047457600080fd5b5061049c7f000000000000000000000000000000000000000000000000000000000000000081565b6040516001600160a01b039091168152602001610261565b3480156104c057600080fd5b506102ca6104cf366004614251565b6113df565b3480156104e057600080fd5b506102ca6104ef366004614335565b6115c0565b34801561050057600080fd5b5061025561050f36600461431c565b6116d4565b34801561052057600080fd5b5061049c7f000000000000000000000000000000000000000000000000000000000000000081565b34801561055457600080fd5b506102556105633660046141b9565b611930565b34801561057457600080fd5b5061049c7f000000000000000000000000000000000000000000000000000000000000000081565b3480156105a857600080fd5b5061049c7f000000000000000000000000000000000000000000000000000000000000000081565b3480156105dc57600080fd5b5061049c7f000000000000000000000000000000000000000000000000000000000000000081565b610255611ca8565b34801561061857600080fd5b50600154600254610453565b34801561063057600080fd5b50610255611eba565b34801561064557600080fd5b5061025561065436600461438b565b611fb3565b34801561066557600080fd5b50610255612095565b34801561067a57600080fd5b506102556106893660046143ce565b6121dd565b34801561069a57600080fd5b506102556106a9366004614234565b612430565b3480156106ba57600080fd5b506102ca6106c936600461440a565b612509565b6102556106dc3660046141b9565b61262b565b6102ca6106ef366004614438565b612893565b61025561070236600461431c565b612a60565b34801561071357600080fd5b506102f2612cb3565b34801561072857600080fd5b5061049c7f000000000000000000000000000000000000000000000000000000000000000081565b34801561075c57600080fd5b5061025561076b36600461431c565b60006020819052908152604090205460ff1681565b34801561078c57600080fd5b506107b47f000000000000000000000000000000000000000000000000000000000000000081565b60405160ff9091168152602001610261565b3480156107d257600080fd5b506102ca6107e136600461431c565b612cf5565b3480156107f257600080fd5b5061049c7f000000000000000000000000000000000000000000000000000000000000000081565b34801561082657600080fd5b50610255612d16565b6000828152600360208181526040808420815160e08101835281548152600182015493810193909352600281015491830191909152918201546060820152600482015460ff811660808301526001600160a01b03610100909104811660a083015260059092015490911660c0820181905233146108bf57604051631172e7cd60e01b815260040160405180910390fd5b73__$bc5de6d277e12fd1c4c455d259e7f498b2$__63e2c92dfa6108e38387612e25565b86866040518463ffffffff1660e01b8152600401610903939291906144ef565b60e06040518083038186803b15801561091b57600080fd5b505af415801561092f573d6000803e3d6000fd5b505050506040513d601f19601f8201168201806040525081019061095391906145dc565b6000858152600360208181526040928390208451815590840151600182015583830151600282015560608401519181019190915560808301516004808301805460a08088015160ff9095166001600160a81b0319909216919091176101006001600160a01b03958616021790915560c095860151600590940180546001600160a01b03191694909316939093179091559084015192840151915163d55fad0560e01b815273__$ff18c65f9008b599af2f0c9b55637c9558$__9363d55fad0593610a2393919290918991016145f8565b60206040518083038186803b158015610a3b57600080fd5b505af4158015610a4f573d6000803e3d6000fd5b505050506040513d601f19601f82011682018060405250810190610a73919061461c565b5060019150505b92915050565b60007f00000000000000000000000000000000000000000000000000000000000000007f0000000000000000000000000000000000000000000000000000000000000000610ace8282612ed8565b15610b76576040516318906bf760e01b81526001600160a01b037f000000000000000000000000000000000000000000000000000000000000000016906318906bf790610b219088908890600401614639565b602060405180830381600087803b158015610b3b57600080fd5b505af1158015610b4f573d6000803e3d6000fd5b505050506040513d601f19601f82011682018060405250810190610b73919061461c565b92505b505092915050565b6000336001600160a01b037f00000000000000000000000000000000000000000000000000000000000000001614610bc957604051631172e7cd60e01b815260040160405180910390fd5b60036004805460ff1690811115610be257610be26142d6565b14610c00576040516309b4550360e41b815260040160405180910390fd5b6000826001600160a01b031663200d2ed26040518163ffffffff1660e01b8152600401602060405180830381600087803b158015610c3d57600080fd5b505af1158015610c51573d6000803e3d6000fd5b505050506040513d601f19601f82011682018060405250810190610c759190614696565b6004811115610c8657610c866142d6565b14610ca457604051633cd70f8d60e01b815260040160405180910390fd5b610cad82613017565b506040516342cef4b160e01b81526001600160a01b037f0000000000000000000000000000000000000000000000000000000000000000811660048301528316602482015273__$02b15242904e1350de69644766e8b9108a$__906342cef4b19060440160206040518083038186803b158015610d2957600080fd5b505af4158015610d3d573d6000803e3d6000fd5b505050506040513d601f19601f82011682018060405250810190610d61919061461c565b506001826001600160a01b031663e1c7392a6040518163ffffffff1660e01b8152600401602060405180830381600087803b158015610d9f57600080fd5b505af1158015610db3573d6000803e3d6000fd5b505050506040513d601f19601f82011682018060405250810190610dd79190614696565b6004811115610de857610de86142d6565b14610e065760405163b75799e960e01b815260040160405180910390fd5b5060015b919050565b600060015460001480610e565750600360006002600081548110610e3557610e356146b7565b90600052602060002001548152602001908152602001600020600101546000145b15610e745760405163e0d00bd360e01b815260040160405180910390fd5b610e7c6130c0565b60006002600081548110610e9257610e926146b7565b60009182526020808320909101548083526003808352604093849020845160e081018652815481526001820154948101949094526002810154948401949094528301546060830152600483015460ff811660808401526001600160a01b03610100909104811660a084015260059093015490921660c0820152909150610f188183612e25565b9050336001600160a01b037f00000000000000000000000000000000000000000000000000000000000000001614801590610f6957508060c001516001600160a01b0316336001600160a01b031614155b15610f8757604051631172e7cd60e01b815260040160405180910390fd5b60008160a001516001600160a01b0316876001600160a01b031614610fbb57610fb6878360a00151888861311f565b611056565b604051637cd8318f60e11b81526001600160a01b0388811660048301527f0000000000000000000000000000000000000000000000000000000000000000169063f9b0631e90602401602060405180830381600087803b15801561101e57600080fd5b505af1158015611032573d6000803e3d6000fd5b505050506040513d601f19601f8201168201806040525081019061105691906146cd565b60a08301516001600160a01b03166000908152600660205260408120549192509061108190836146fc565b905060008360200151846040015161109991906146fc565b9050808211156110a7578091505b828211156110f0576110b98383614714565b60a08501516001600160a01b0316600090815260066020526040812080549091906110e5908490614714565b9091555061112c9050565b6110fa8284614714565b60a08501516001600160a01b0316600090815260066020526040812080549091906111269084906146fc565b90915550505b611137848684613232565b600086815260036020818152604080842085518155918501516001830155848101516002830155606085015192820192909255608084015160048201805460a087015160ff9093166001600160a81b0319909116176101006001600160a01b039384160217905560c090940151600590910180546001600160a01b0319169185169190911790555184928c16917f8343d4254deba24e9e0e659e47f973c9705b70baa52a884516698b13af1588bb91a350505050506111f66001600555565b9392505050565b6000818152600360208181526040808420815160e08101835281548152600182015493810193909352600281015491830191909152918201546060820152600482015460ff811660808301526001600160a01b03610100909104811660a083015260059092015490911660c082018190527f00000000000000000000000000000000000000000000000000000000000000009033148015906112a85750336001600160a01b03821614155b156112c657604051631172e7cd60e01b815260040160405180910390fd5b6112d08285612e25565b6040810151909250801561137b5760a083015160405162f6020f60e71b815273__$ff18c65f9008b599af2f0c9b55637c9558$__91637b0107809161131c9190869086906004016145f8565b60206040518083038186803b15801561133457600080fd5b505af4158015611348573d6000803e3d6000fd5b505050506040513d601f19601f8201168201806040525081019061136c919061461c565b50611378838683613232565b92505b6113858386613361565b50600195945050505050565b600060016004805460ff16908111156113ac576113ac6142d6565b10156113b757600080fd5b6113c76113c261356d565b6135a6565b905090565b6000806113d761363e565b915091509091565b6000600154600014806114265750600360006002600081548110611405576114056146b7565b90600052602060002001548152602001908152602001600020600101546000145b156114445760405163e0d00bd360e01b815260040160405180910390fd5b61144c6130c0565b336001600160a01b037f0000000000000000000000000000000000000000000000000000000000000000161461148157600080fd5b600060036000600260008154811061149b5761149b6146b7565b600091825260208083209091015483528201929092526040018120600401546001600160a01b0361010090910481169250861682146114e5576114e08683878761311f565b611580565b604051637cd8318f60e11b81526001600160a01b0387811660048301527f0000000000000000000000000000000000000000000000000000000000000000169063f9b0631e90602401602060405180830381600087803b15801561154857600080fd5b505af115801561155c573d6000803e3d6000fd5b505050506040513d601f19601f8201168201806040525081019061158091906146cd565b6001600160a01b0383166000908152600660205260408120805492935083929091906115ad9084906146fc565b9091555090925050506111f66001600555565b60006001546000148061160757506003600060026000815481106115e6576115e66146b7565b90600052602060002001548152602001908152602001600020600101546000145b156116255760405163e0d00bd360e01b815260040160405180910390fd5b336001600160a01b037f0000000000000000000000000000000000000000000000000000000000000000161461166e57604051631172e7cd60e01b815260040160405180910390fd5b600261167b6113c261356d565b600481111561168c5761168c6142d6565b146116aa57604051636ef5bcdd60e11b815260040160405180910390fd5b6111f660026000815481106116c1576116c16146b7565b906000526020600020015484843361382e565b60006001546000148061171b57506003600060026000815481106116fa576116fa6146b7565b90600052602060002001548152602001908152602001600020600101546000145b156117395760405163e0d00bd360e01b815260040160405180910390fd5b6000600260008154811061174f5761174f6146b7565b6000918252602080832091909101548083526003808352604093849020845160e081018652815481526001820154948101949094526002810154948401949094528301546060830152600483015460ff8116608084015261010090046001600160a01b0390811660a0840152600590930154831660c08301529250907f000000000000000000000000000000000000000000000000000000000000000016331480159061181257508060c001516001600160a01b0316336001600160a01b031614155b1561183057604051631172e7cd60e01b815260040160405180910390fd5b60a08101516001600160a01b031660009081526006602052604090205484111561185957600080fd5b60a08101516001600160a01b031660009081526006602052604081208054869290611885908490614714565b9091555061189f90506118988284612e25565b8386613232565b6000928352600360208181526040948590208351815590830151600180830191909155948301516002820155606083015191810191909155608082015160048201805460a085015160ff9093166001600160a81b0319909116176101006001600160a01b039384160217905560c090920151600590910180546001600160a01b031916919092161790555092915050565b600060016004805460ff169081111561194b5761194b6142d6565b1461196957604051634065aaf160e11b815260040160405180910390fd5b336001600160a01b037f000000000000000000000000000000000000000000000000000000000000000016146119b257604051631172e7cd60e01b815260040160405180910390fd5b600083815260036020818152604092839020835160e08101855281548152600182015492810192909252600281015493820193909352908201546060820152600482015460ff811660808301526001600160a01b03610100909104811660a083015260059092015490911660c0820152611a2c8185612e25565b60208101518151919250611a3f91614714565b831115611a5f57604051636180f03f60e11b815260040160405180910390fd5b8281602001818151611a7191906146fc565b9052506000848152600360208181526040928390208451815590840151600180830191909155928401516002820155606084015191810191909155608083015160048201805460a086015160ff9093166001600160a81b0319909116176101006001600160a01b039384160217905560c0840151600590920180546001600160a01b03191692909116919091179055611b0b6113c261356d565b6004811115611b1c57611b1c6142d6565b14611b3a57604051634065aaf160e11b815260040160405180910390fd5b6000848152600360208181526040928390208451815590840151600182015583830151600282015560608401519181019190915560808301516004808301805460a087015160ff9094166001600160a81b0319909116176101006001600160a01b03808616919091029190911790915560c0860151600590940180546001600160a01b0319169490911693909317909255915163d55fad0560e01b815273__$ff18c65f9008b599af2f0c9b55637c9558$__9263d55fad0592611c21927f0000000000000000000000000000000000000000000000000000000000000000918991016145f8565b60206040518083038186803b158015611c3957600080fd5b505af4158015611c4d573d6000803e3d6000fd5b505050506040513d601f19601f82011682018060405250810190611c71919061461c565b50604051839085907f23a87b7444856c0a68cbd431aaafca806284c2bd83791d761cc6adb66f92075990600090a3610a7384613934565b600060015460001480611cef5750600360006002600081548110611cce57611cce6146b7565b90600052602060002001548152602001908152602001600020600101546000145b15611d0d5760405163e0d00bd360e01b815260040160405180910390fd5b336001600160a01b037f00000000000000000000000000000000000000000000000000000000000000001614611d5657604051631172e7cd60e01b815260040160405180910390fd5b60006002600081548110611d6c57611d6c6146b7565b60009182526020808320909101548083526003808352604093849020845160e081018652815481526001820154948101949094526002810154948401949094528301546060830152600483015460ff811660808401526001600160a01b03610100909104811660a084015260059093015490921660c0820152909150611df28183612e25565b9050600081604001518260200151611e0a91906146fc565b60a083015160405162f6020f60e71b815291925073__$ff18c65f9008b599af2f0c9b55637c9558$__91637b01078091611e4a91339086906004016145f8565b60206040518083038186803b158015611e6257600080fd5b505af4158015611e76573d6000803e3d6000fd5b505050506040513d601f19601f82011682018060405250810190611e9a919061461c565b50611eaf611ea9838584613232565b84613361565b506001935050505090565b600073__$02b15242904e1350de69644766e8b9108a$__63e4b55dd37f0000000000000000000000000000000000000000000000000000000000000000611f026113c261356d565b7f00000000000000000000000000000000000000000000000000000000000000007f00000000000000000000000000000000000000000000000000000000000000006040518563ffffffff1660e01b8152600401611f63949392919061472b565b60206040518083038186803b158015611f7b57600080fd5b505af4158015611f8f573d6000803e3d6000fd5b505050506040513d601f19601f820116820180604052508101906113c7919061461c565b6000336001600160a01b037f00000000000000000000000000000000000000000000000000000000000000001614611fea57600080fd5b604051633500fa7b60e21b81526001600160e01b03198416600482015282151560248201527f00000000000000000000000000000000000000000000000000000000000000006001600160a01b03169063d403e9ec90604401602060405180830381600087803b15801561205d57600080fd5b505af1158015612071573d6000803e3d6000fd5b505050506040513d601f19601f820116820180604052508101906111f6919061461c565b60025460009081805b828110156121d357600281815481106120b9576120b96146b7565b60009182526020808320909101548083526003808352604093849020845160e081018652815481526001820154948101949094526002810154948401949094528301546060830152600483015460ff811660808401526001600160a01b03610100909104811660a084015260059093015490921660c082015290925061213f8184612e25565b60008481526003602081815260409283902084518155908401516001820155918301516002830155606083015190820155608082015160048201805460a085015160ff9093166001600160a81b0319909116176101006001600160a01b039384160217905560c090920151600590910180546001600160a01b03191691909216179055506121cc81614764565b905061209e565b5060019250505090565b6000838152600360205260408120600501547f00000000000000000000000000000000000000000000000000000000000000009085906122279083906001600160a01b0316612ed8565b1561242757600086815260036020818152604092839020835160e08101855281548152600182015492810192909252600281015493820193909352908201546060820152600482015460ff811660808301526001600160a01b03610100909104811660a083015260059092015490911660c08201526122a68188612e25565b6000888152600360208181526040928390208451815590840151600182015583830151600282015560608401519181019190915560808301516004808301805460a087015160ff9094166001600160a81b0319909116176101006001600160a01b039485160217905560c090940151600590920180546001600160a01b031916928216929092179091559051639412647f60e01b81529182018990526001600160801b038089166024840152871660448301527f00000000000000000000000000000000000000000000000000000000000000001690639412647f90606401602060405180830381600087803b15801561239f57600080fd5b505af11580156123b3573d6000803e3d6000fd5b505050506040513d601f19601f820116820180604052508101906123d7919061461c565b6123e057600080fd5b846001600160801b0316866001600160801b0316887feb29c2b3e23350f884045ab45689641c7503ccc09063055895c6a8edcf0a7ad160405160405180910390a460019350505b50509392505050565b600073__$02b15242904e1350de69644766e8b9108a$__63306d4f037f0000000000000000000000000000000000000000000000000000000000000000846124796113c261356d565b7f00000000000000000000000000000000000000000000000000000000000000006040518563ffffffff1660e01b81526004016124b9949392919061477f565b60206040518083038186803b1580156124d157600080fd5b505af41580156124e5573d6000803e3d6000fd5b505050506040513d601f19601f82011682018060405250810190610a7a919061461c565b60006125136130c0565b6001600160a01b03821660009081526006602052604081208054908290559073__$02b15242904e1350de69644766e8b9108a$__63cc618e6386868561255a6113c261356d565b7f00000000000000000000000000000000000000000000000000000000000000007f00000000000000000000000000000000000000000000000000000000000000006040518763ffffffff1660e01b81526004016125bd969594939291906147b6565b60206040518083038186803b1580156125d557600080fd5b505af41580156125e9573d6000803e3d6000fd5b505050506040513d601f19601f8201168201806040525081019061260d919061461c565b90508061261b57600061261d565b815b92505050610a7a6001600555565b600060016004805460ff1690811115612646576126466142d6565b1461266457604051634065aaf160e11b815260040160405180910390fd5b6000838152600360205260409020600501547f00000000000000000000000000000000000000000000000000000000000000009084906126ae9083906001600160a01b0316612ed8565b15610b7657600085815260036020818152604092839020835160e08101855281548152600182015492810192909252600281015493820193909352908201546060820152600482015460ff811660808301526001600160a01b03610100909104811660a083015260059092015490911660c082015261272d8187612e25565b9050848160000181815161274191906146fc565b9052506000868152600360208181526040928390208451815590840151600182015583830151600282015560608401519181019190915560808301516004808301805460a087015160ff9094166001600160a81b0319909116176101006001600160a01b03808616919091029190911790915560c0860151600590940180546001600160a01b031916918516919091179055925162f6020f60e71b815273__$ff18c65f9008b599af2f0c9b55637c9558$__93637b01078093612809939290918b91016145f8565b60206040518083038186803b15801561282157600080fd5b505af4158015612835573d6000803e3d6000fd5b505050506040513d601f19601f82011682018060405250810190612859919061461c565b50604051859087907f12a48a2aa5f96e98f382b97b87c5f26c4fa0811d2dc20810972985835540286f90600090a350600195945050505050565b600060016004805460ff16908111156128ae576128ae6142d6565b146128cc57604051634065aaf160e11b815260040160405180910390fd5b817f00000000000000000000000000000000000000000000000000000000000000006128f88282612ed8565b15612a555760405162f6020f60e71b815273__$ff18c65f9008b599af2f0c9b55637c9558$__90637b0107809061293790889088908b906004016145f8565b60206040518083038186803b15801561294f57600080fd5b505af4158015612963573d6000803e3d6000fd5b505050506040513d601f19601f82011682018060405250810190612987919061461c565b506000612995858789613a4f565b604051639412647f60e01b8152600481018290526001600160801b03808c1660248301528a1660448201529091507f00000000000000000000000000000000000000000000000000000000000000006001600160a01b031690639412647f90606401602060405180830381600087803b158015612a1157600080fd5b505af1158015612a25573d6000803e3d6000fd5b505050506040513d601f19601f82011682018060405250810190612a49919061461c565b612a5257600080fd5b92505b505095945050505050565b600060015460001480612aa75750600360006002600081548110612a8657612a866146b7565b90600052602060002001548152602001908152602001600020600101546000145b15612ac55760405163e0d00bd360e01b815260040160405180910390fd5b60006002600081548110612adb57612adb6146b7565b60009182526020808320909101548083526003808352604093849020845160e081018652815481526001820154948101949094526002810154948401949094528301546060830152600483015460ff811660808401526001600160a01b03610100909104811660a084015260059093015490921660c0820152909150612b618183612e25565b905080604001518160200151612b7791906146fc565b841115612b8357600080fd5b612b8e818386613232565b6000838152600360208181526040928390208451815590840151600182015583830151600282015560608401519181019190915560808301516004808301805460a08088015160ff9095166001600160a81b0319909216919091176101006001600160a01b03958616021790915560c090950151600590930180546001600160a01b0319169390921692909217905591830151905162f6020f60e71b815273__$ff18c65f9008b599af2f0c9b55637c9558$__92637b01078092612c5892909133918a91016145f8565b60206040518083038186803b158015612c7057600080fd5b505af4158015612c84573d6000803e3d6000fd5b505050506040513d601f19601f82011682018060405250810190612ca8919061461c565b506001949350505050565b6000806004805460ff1690811115612ccd57612ccd6142d6565b14612cea5760405162dc149f60e41b815260040160405180910390fd5b6113c76113c2613cbc565b60028181548110612d0557600080fd5b600091825260209091200154905081565b600060015460001480612d5d5750600360006002600081548110612d3c57612d3c6146b7565b90600052602060002001548152602001908152602001600020600101546000145b15612d7b5760405163e0d00bd360e01b815260040160405180910390fd5b7f00000000000000000000000000000000000000000000000000000000000000006001600160a01b03163314612dc457604051631172e7cd60e01b815260040160405180910390fd5b612dcf6113c261356d565b6004811115612de057612de06142d6565b600214612e0057604051636ef5bcdd60e11b815260040160405180910390fd5b612e08613d1d565b15612e1f57612e1760046135a6565b506001905090565b50600090565b612e2d614167565b604051634a4b6ed160e11b815273__$bc5de6d277e12fd1c4c455d259e7f498b2$__90639496dda290612e8890869086907f000000000000000000000000000000000000000000000000000000000000000090600401614800565b60e06040518083038186803b158015612ea057600080fd5b505af4158015612eb4573d6000803e3d6000fd5b505050506040513d601f19601f820116820180604052508101906111f691906145dc565b6000336001600160a01b03841614801590612efc5750336001600160a01b03831614155b15612f19576040516282b42960e81b815260040160405180910390fd5b6000612f258484613d36565b90506000803683604051602001612f3e9392919061482f565b60408051601f19818403018152918152815160209283012060008181529283905291205490915060ff16612ff7576000803633604051602001612f839392919061482f565b60408051601f198184030181528282528051602091820120600081815291829052919020805460ff1916600117905591507f075ef07fcf763de969c83a1373acf984e2ac17eb47c274f1f615fa0d84fa852490612fe39083815260200190565b60405180910390a160009350505050610a7a565b6000908152602081905260409020805460ff191690555060019392505050565b60405163a2c5925f60e01b81526001600160a01b0382811660048301526000917f00000000000000000000000000000000000000000000000000000000000000009091169063a2c5925f90602401602060405180830381600087803b15801561307f57600080fd5b505af1158015613093573d6000803e3d6000fd5b505050506040513d601f19601f820116820180604052508101906130b7919061461c565b610e0657600080fd5b600260055414156131185760405162461bcd60e51b815260206004820152601f60248201527f5265656e7472616e637947756172643a207265656e7472616e742063616c6c0060448201526064015b60405180910390fd5b6002600555565b6001600160a01b03841660009081526006602052604080822054905163b085a00d60e01b81528291829173__$02b15242904e1350de69644766e8b9108a$__9163b085a00d916131be918b918b917f0000000000000000000000000000000000000000000000000000000000000000917f000000000000000000000000000000000000000000000000000000000000000091908d908d90600401614855565b604080518083038186803b1580156131d557600080fd5b505af41580156131e9573d6000803e3d6000fd5b505050506040513d601f19601f8201168201806040525081019061320d91906148bb565b6001600160a01b03891660009081526006602052604090205592505050949350505050565b61323a614167565b60405163f052fa5160e01b815273__$bc5de6d277e12fd1c4c455d259e7f498b2$__9063f052fa5190613275908790879087906004016144ef565b60e06040518083038186803b15801561328d57600080fd5b505af41580156132a1573d6000803e3d6000fd5b505050506040513d601f19601f820116820180604052508101906132c591906145dc565b935083602001516000141561335957604051631272aa3360e11b81526002600482015273__$1e23603c5d381ac66161bad82aa10940ad$__906324e554669060240160206040518083038186803b15801561331f57600080fd5b505af4158015613333573d6000803e3d6000fd5b505050506040513d601f19601f82011682018060405250810190613357919061461c565b505b509192915050565b6020820151600090156133875760405163131689dd60e01b815260040160405180910390fd5b6060830151835160009161339a916146fc565b11156134485773__$ff18c65f9008b599af2f0c9b55637c9558$__63d55fad058460a001518560c00151866060015187600001516133d891906146fc565b6040518463ffffffff1660e01b81526004016133f6939291906145f8565b60206040518083038186803b15801561340e57600080fd5b505af4158015613422573d6000803e3d6000fd5b505050506040513d601f19601f82011682018060405250810190613446919061461c565b505b600082815260036020819052604080832083815560018101849055600280820185905592810193909355600480840180546001600160a81b0319169055600590930180546001600160a01b0319169055516299c7a960e21b8152918201526024810183905273__$1e23603c5d381ac66161bad82aa10940ad$__906302671ea49060440160206040518083038186803b1580156134e457600080fd5b505af41580156134f8573d6000803e3d6000fd5b505050506040513d601f19601f8201168201806040525081019061351c919061461c565b506001805460001901908190556135395761353760036135a6565b505b60405182907f7a6d4520711ed1189e0417ec7e099096e5ac3c188863274446a6d3dafded499890600090a250600192915050565b600080613578613d54565b9050600181600481111561358e5761358e6142d6565b1461359857919050565b6135a0613e2c565b91505090565b60008160048111156135ba576135ba6142d6565b6004805460ff16908111156135d1576135d16142d6565b14156135db575090565b8160048111156135ed576135ed6142d6565b6040517f2125b4f86fd7a6a349e4e174a768e7c98ec9b7d124822556b128e40a16b642f790600090a26004805483919060ff191660018383811115613634576136346142d6565b0217905592915050565b60025460009081908061365657506000928392509050565b60007f00000000000000000000000000000000000000000000000000000000000000007f0000000000000000000000000000000000000000000000000000000000000000825b8481101561382557600281815481106136b7576136b76146b7565b6000918252602090912001549350836136cf57613815565b6000848152600360205260408082209051636b579f7b60e11b81528291829173__$bc5de6d277e12fd1c4c455d259e7f498b2$__9163d6af3ef69161371d91908b908b908b906004016148df565b6101206040518083038186803b15801561373657600080fd5b505af415801561374a573d6000803e3d6000fd5b505050506040513d601f19601f8201168201806040525081019061376e9190614973565b9194509250905061377f828b6146fc565b995061378b818a6146fc565b60008881526003602081815260409283902087518155908701516001820155918601516002830155606086015190820155608085015160048201805460a088015160ff9093166001600160a81b0319909116176101006001600160a01b039384160217905560c090950151600590910180546001600160a01b031916919095161790935550909650505b61381e81614764565b905061369c565b50505050509091565b604051630180cdbb60e21b8152600481018490526001600160a01b03838116602483015282811660448301526000917f00000000000000000000000000000000000000000000000000000000000000009182169063060336ec90606401602060405180830381600087803b1580156138a557600080fd5b505af11580156138b9573d6000803e3d6000fd5b505050506040513d601f19601f820116820180604052508101906138dd919061461c565b6138e657600080fd5b6040516001600160a01b038281168252851690869088907feb18a64f5be27a04f549ac2ef204545abfbd24f9274dde558c5321804b08f2629060200160405180910390a45092949350505050565b600254600090819061394890600190614714565b9050806000805b838111613a465760028181548110613969576139696146b7565b906000526020600020015491508186146139b75781158061398a5750838314155b806139a5575060008281526003602052604090206001015415155b156139af57613a36565b809250613a36565b838314156139cb5750600195945050505050565b600283815481106139de576139de6146b7565b9060005260206000200154600282815481106139fc576139fc6146b7565b90600052602060002001819055508560028481548110613a1e57613a1e6146b7565b60009182526020909120015550600195945050505050565b613a3f81614764565b905061394f565b50505050919050565b6040516310ccadff60e21b81523060048201526001600160a01b0380851660248301528316604482015260009073__$bc5de6d277e12fd1c4c455d259e7f498b2$__90634332b7fc9060640160206040518083038186803b158015613ab357600080fd5b505af4158015613ac7573d6000803e3d6000fd5b505050506040513d601f19601f82011682018060405250810190613aeb91906146cd565b6000818152600360205260409020600501549091506001600160a01b031615613b275760405163384e583f60e11b815260040160405180910390fd5b60405163beccf5db60e01b815260048101829052602481018390526001600160a01b03808616604483015280851660648301527f000000000000000000000000000000000000000000000000000000000000000016608482015273__$bc5de6d277e12fd1c4c455d259e7f498b2$__9063beccf5db9060a40160e06040518083038186803b158015613bb857600080fd5b505af4158015613bcc573d6000803e3d6000fd5b505050506040513d601f19601f82011682018060405250810190613bf091906145dc565b6000828152600360208181526040808420855181559185015160018084019190915590850151600280840191909155606086015193830193909355608085015160048301805460a088015160ff9093166001600160a81b0319909116176101006001600160a01b039384160217905560c090950151600590920180546001600160a01b03191692909516919091179093558054808401825591527f405787fa12a823e0f2b7631cc41b3ba8828b3321ca811111fa75cd3aa3bb5ace018290558054810190559392505050565b6000600180613cc9613ed2565b6004811115613cda57613cda6142d6565b141580613d105750806004811115613cf457613cf46142d6565b613cfc613f83565b6004811115613d0d57613d0d6142d6565b14155b15610e0a57600091505090565b6000613d27613ffe565b80156113c757506113c76140dc565b6000336001600160a01b03841614613d4e57826111f6565b50919050565b60045460009060ff166003816004811115613d7157613d716142d6565b1480613d8e57506004816004811115613d8c57613d8c6142d6565b145b15613d9e57505060045460ff1690565b7f00000000000000000000000000000000000000000000000000000000000000004210158015613dd057506000600154115b15613e24576002600081548110613de957613de96146b7565b600091825260208220015460405190917f02a583914117d56eb883091ec1c35f0dfc356386054377ef6914e54eac90fe7c91a2600291505090565b600191505090565b60007f00000000000000000000000000000000000000000000000000000000000000006001600160a01b031663578c65e46040518163ffffffff1660e01b8152600401602060405180830381600087803b158015613e8957600080fd5b505af1158015613e9d573d6000803e3d6000fd5b505050506040513d601f19601f82011682018060405250810190613ec1919061461c565b15613ecc5750600290565b50600190565b6000306001600160a01b03167f00000000000000000000000000000000000000000000000000000000000000006001600160a01b0316638da5cb5b6040518163ffffffff1660e01b815260040160206040518083038186803b158015613f3757600080fd5b505afa158015613f4b573d6000803e3d6000fd5b505050506040513d601f19601f82011682018060405250810190613f6f91906149ab565b6001600160a01b031614613ecc5750600090565b6000306001600160a01b03167f00000000000000000000000000000000000000000000000000000000000000006001600160a01b031663b56b83536040518163ffffffff1660e01b8152600401602060405180830381600087803b158015613fea57600080fd5b505af1158015613f4b573d6000803e3d6000fd5b60007f00000000000000000000000000000000000000000000000000000000000000006001600160a01b031663c047e5636040518163ffffffff1660e01b8152600401602060405180830381600087803b15801561405b57600080fd5b505af115801561406f573d6000803e3d6000fd5b505050506040513d601f19601f8201168201806040525081019061409391906146cd565b15613ecc576040516368f5afab60e01b81526001600160a01b037f000000000000000000000000000000000000000000000000000000000000000016600482015260240161310f565b60405163121ee17760e11b81526001600160a01b037f0000000000000000000000000000000000000000000000000000000000000000811660048301527f000000000000000000000000000000000000000000000000000000000000000016602482015260009073__$02b15242904e1350de69644766e8b9108a$__9063243dc2ee90604401611f63565b6040518060e0016040528060008152602001600081526020016000815260200160008152602001600060ff16815260200160006001600160a01b0316815260200160006001600160a01b031681525090565b600080604083850312156141cc57600080fd5b50508035926020909101359150565b6001600160a01b03811681146141f057600080fd5b50565b600080828403608081121561420757600080fd5b8335614212816141db565b92506060601f198201121561422657600080fd5b506020830190509250929050565b60006020828403121561424657600080fd5b81356111f6816141db565b60008060006040848603121561426657600080fd5b8335614271816141db565b9250602084013567ffffffffffffffff8082111561428e57600080fd5b818601915086601f8301126142a257600080fd5b8135818111156142b157600080fd5b8760208285010111156142c357600080fd5b6020830194508093505050509250925092565b634e487b7160e01b600052602160045260246000fd5b6005811061430a57634e487b7160e01b600052602160045260246000fd5b9052565b60208101610a7a82846142ec565b60006020828403121561432e57600080fd5b5035919050565b6000806040838503121561434857600080fd5b82359150602083013561435a816141db565b809150509250929050565b80356001600160e01b031981168114610e0a57600080fd5b80151581146141f057600080fd5b6000806040838503121561439e57600080fd5b6143a783614365565b9150602083013561435a8161437d565b80356001600160801b0381168114610e0a57600080fd5b6000806000606084860312156143e357600080fd5b833592506143f3602085016143b7565b9150614401604085016143b7565b90509250925092565b6000806040838503121561441d57600080fd5b8235614428816141db565b9150602083013561435a816141db565b600080600080600060a0868803121561445057600080fd5b614459866143b7565b9450614467602087016143b7565b935060408601359250606086013561447e816141db565b9150608086013561448e816141db565b809150509295509295909350565b8051825260208082015190830152604080820151908301526060808201519083015260808082015160ff169083015260a0808201516001600160a01b039081169184019190915260c09182015116910152565b61012081016144fe828661449c565b60e08201939093526101000152919050565b60ff811681146141f057600080fd5b8051610e0a81614510565b8051610e0a816141db565b600060e0828403121561454757600080fd5b60405160e0810181811067ffffffffffffffff8211171561457857634e487b7160e01b600052604160045260246000fd5b8060405250809150825181526020830151602082015260408301516040820152606083015160608201526145ae6080840161451f565b60808201526145bf60a0840161452a565b60a08201526145d060c0840161452a565b60c08201525092915050565b600060e082840312156145ee57600080fd5b6111f68383614535565b6001600160a01b039384168152919092166020820152604081019190915260600190565b60006020828403121561462e57600080fd5b81516111f68161437d565b6001600160a01b038316815260808101823561465481614510565b60ff811660208401525061466a60208401614365565b63ffffffff60e01b80821660408501528061468760408701614365565b16606085015250509392505050565b6000602082840312156146a857600080fd5b8151600581106111f657600080fd5b634e487b7160e01b600052603260045260246000fd5b6000602082840312156146df57600080fd5b5051919050565b634e487b7160e01b600052601160045260246000fd5b6000821982111561470f5761470f6146e6565b500190565b600082821015614726576147266146e6565b500390565b6001600160a01b038581168252608082019061474a60208401876142ec565b808516604084015280841660608401525095945050505050565b6000600019821415614778576147786146e6565b5060010190565b6001600160a01b03858116825284166020820152608081016147a460408301856142ec565b60ff8316606083015295945050505050565b6001600160a01b03878116825286811660208301526040820186905260c08201906147e460608401876142ec565b808516608084015280841660a084015250979650505050505050565b610120810161480f828661449c565b60e08201939093526001600160a01b039190911661010090910152919050565b8284823760609190911b6bffffffffffffffffffffffff19169101908152601401919050565b6001600160a01b03888116825287811660208301528681166040830152851660608201526080810184905260c060a0820181905281018290526000828460e0840137600060e0848401015260e0601f19601f850116830101905098975050505050505050565b600080604083850312156148ce57600080fd5b505080516020909101519092909150565b84548152600185015460208201526002850154604082015260038501546060820152600485015460ff8116608083015260081c6001600160a01b031660a0820152600585015461014082019061493b906001600160a01b031690565b6001600160a01b0390811660c084015260e0830186905284166101008301526001600160a01b03831661012083015295945050505050565b6000806000610120848603121561498957600080fd5b6149938585614535565b925060e0840151915061010084015190509250925092565b6000602082840312156149bd57600080fd5b81516111f6816141db56fea2646970667358221220af1905b297d7db376b418fec5f9d856e1c1c129bcb67c5dfd49c52d62e8988aa64736f6c6343000809003360a060405234801561001057600080fd5b503360805260805161048f6100366000396000818160fe01526101a7015261048f6000f3fe608060405234801561001057600080fd5b50600436106100415760003560e01c80639412647f14610046578063c61983521461006e578063dc7262051461008f575b600080fd5b61005961005436600461030d565b6100f1565b60405190151581526020015b60405180910390f35b61008161007c366004610349565b61019a565b604051908152602001610065565b6100cb61009d366004610375565b600060208190529081526040902080546001909101546001600160801b0380831692600160801b9004169083565b604080516001600160801b03948516815293909216602084015290820152606001610065565b6000336001600160a01b037f000000000000000000000000000000000000000000000000000000000000000016146101445760405162461bcd60e51b815260040161013b9061038e565b60405180910390fd5b50604080516060810182526001600160801b038085168252838116602080840191825242848601908152600089815291829052949020925190518216600160801b02911617815590516001918201559392505050565b6000336001600160a01b037f000000000000000000000000000000000000000000000000000000000000000016146101e45760405162461bcd60e51b815260040161013b9061038e565b6101ef8484846101f7565b949350505050565b600083815260208181526040808320815160608101835281546001600160801b038082168352600160801b909104169381019390935260010154908201819052829061024390426103e9565b600087815260208190526040902042600190910155905061026a6127106301e187e0610400565b8161027587876103e9565b84602001516001600160801b031661028d9190610400565b6102979190610400565b6102a1919061041f565b6102b16127106301e187e0610400565b835183906102c99089906001600160801b0316610400565b6102d39190610400565b6102dd919061041f565b6102e79190610441565b9695505050505050565b80356001600160801b038116811461030857600080fd5b919050565b60008060006060848603121561032257600080fd5b83359250610332602085016102f1565b9150610340604085016102f1565b90509250925092565b60008060006060848603121561035e57600080fd5b505081359360208301359350604090920135919050565b60006020828403121561038757600080fd5b5035919050565b60208082526025908201527f496e74657265737452617465437265643a206f6e6c79206c696e6520636f6e746040820152643930b1ba1760d91b606082015260800190565b634e487b7160e01b600052601160045260246000fd5b6000828210156103fb576103fb6103d3565b500390565b600081600019048311821515161561041a5761041a6103d3565b500290565b60008261043c57634e487b7160e01b600052601260045260246000fd5b500490565b60008219821115610454576104546103d3565b50019056fea2646970667358221220e4d94985edd24e74aec1b0801666680711850e3fc6611cfe6f89188461d8e42564736f6c63430008090033",
    "linkReferences": {
      "contracts/utils/CreditLib.sol": {
        "CreditLib": [
          {
            "start": 3239,
            "length": 20
          },
          {
            "start": 12834,
            "length": 20
          },
          {
            "start": 13871,
            "length": 20
          },
          {
            "start": 15062,
            "length": 20
          },
          {
            "start": 15972,
            "length": 20
          },
          {
            "start": 16233,
            "length": 20
          }
        ]
      },
      "contracts/utils/CreditListLib.sol": {
        "CreditListLib": [
          {
            "start": 14032,
            "length": 20
          },
          {
            "start": 14485,
            "length": 20
          }
        ]
      },
      "contracts/utils/LineLib.sol": {
        "LineLib": [
          {
            "start": 3551,
            "length": 20
          },
          {
            "start": 5847,
            "length": 20
          },
          {
            "start": 8127,
            "length": 20
          },
          {
            "start": 8710,
            "length": 20
          },
          {
            "start": 11206,
            "length": 20
          },
          {
            "start": 11505,
            "length": 20
          },
          {
            "start": 12308,
            "length": 20
          },
          {
            "start": 14216,
            "length": 20
          }
        ]
      },
      "contracts/utils/SpigotedLineLib.sol": {
        "SpigotedLineLib": [
          {
            "start": 4314,
            "length": 20
          },
          {
            "start": 8868,
            "length": 20
          },
          {
            "start": 10266,
            "length": 20
          },
          {
            "start": 10522,
            "length": 20
          },
          {
            "start": 13617,
            "length": 20
          },
          {
            "start": 17707,
            "length": 20
          }
        ]
      }
    }
  },
  "methodIdentifiers": {
    "accrueInterest()": "a6afed95",
    "addCredit(uint128,uint128,uint256,address,address)": "cb836209",
    "addSpigot(address,(uint8,bytes4,bytes4))": "18906bf7",
    "arbiter()": "fe25e00a",
    "borrow(bytes32,uint256)": "7c93ec30",
    "borrower()": "7df1f1b9",
    "claimAndRepay(address,bytes)": "1acb7525",
    "claimAndTrade(address,bytes)": "5f618768",
    "close(bytes32)": "39c79e0c",
    "counts()": "817cc1ea",
    "credits(bytes32)": "42997913",
    "deadline()": "29dcb0cf",
    "declareInsolvent()": "feccf26f",
    "defaultRevenueSplit()": "e96b496f",
    "depositAndClose()": "7eef544d",
    "depositAndRepay(uint256)": "dfe96083",
    "escrow()": "e2fdcc17",
    "healthcheck()": "4f42fc02",
    "ids(uint256)": "fac333ac",
    "increaseCredit(bytes32,uint256)": "c3651574",
    "init()": "e1c7392a",
    "interestRate()": "7c3a00fd",
    "liquidate(uint256,address)": "5fae8b3d",
    "mutualConsents(bytes32)": "e7fe4d52",
    "oracle()": "7dc0d1d0",
    "releaseSpigot()": "87fffaf3",
    "rollover(address)": "1a5bb098",
    "setRates(bytes32,uint128,uint128)": "ac856fac",
    "spigot()": "5e235d54",
    "status()": "200d2ed2",
    "swapTarget()": "7e7f0cde",
    "sweep(address,address)": "b8dc491b",
    "unused(address)": "461035af",
    "updateOutstandingDebt()": "501b56d8",
    "updateOwnerSplit(address)": "b57cb9fc",
    "updateWhitelist(bytes4,bool)": "921c5fcb",
    "useAndRepay(uint256)": "67828fbd",
    "withdraw(bytes32,uint256)": "040cf020"
  },
  "id": 21
}