{
  "abi": [
    {
      "inputs": [
        {
          "internalType": "address",
          "name": "_owner",
          "type": "address"
        },
        {
          "internalType": "address",
          "name": "_treasury",
          "type": "address"
        },
        {
          "internalType": "address",
          "name": "_operator",
          "type": "address"
        }
      ],
      "stateMutability": "nonpayable",
      "type": "constructor"
    },
    {
      "inputs": [],
      "name": "BadFunction",
      "type": "error"
    },
    {
      "inputs": [],
      "name": "BadSetting",
      "type": "error"
    },
    {
      "inputs": [],
      "name": "CallerAccessDenied",
      "type": "error"
    },
    {
      "inputs": [],
      "name": "ClaimFailed",
      "type": "error"
    },
    {
      "inputs": [],
      "name": "NoRevenue",
      "type": "error"
    },
    {
      "inputs": [],
      "name": "UnclaimedRevenue",
      "type": "error"
    },
    {
      "anonymous": false,
      "inputs": [
        {
          "indexed": true,
          "internalType": "address",
          "name": "revenueContract",
          "type": "address"
        },
        {
          "indexed": false,
          "internalType": "uint256",
          "name": "ownerSplit",
          "type": "uint256"
        }
      ],
      "name": "AddSpigot",
      "type": "event"
    },
    {
      "anonymous": false,
      "inputs": [
        {
          "indexed": true,
          "internalType": "address",
          "name": "token",
          "type": "address"
        },
        {
          "indexed": true,
          "internalType": "uint256",
          "name": "amount",
          "type": "uint256"
        },
        {
          "indexed": false,
          "internalType": "address",
          "name": "owner",
          "type": "address"
        }
      ],
      "name": "ClaimEscrow",
      "type": "event"
    },
    {
      "anonymous": false,
      "inputs": [
        {
          "indexed": true,
          "internalType": "address",
          "name": "token",
          "type": "address"
        },
        {
          "indexed": true,
          "internalType": "uint256",
          "name": "amount",
          "type": "uint256"
        },
        {
          "indexed": false,
          "internalType": "uint256",
          "name": "escrowed",
          "type": "uint256"
        },
        {
          "indexed": false,
          "internalType": "address",
          "name": "revenueContract",
          "type": "address"
        }
      ],
      "name": "ClaimRevenue",
      "type": "event"
    },
    {
      "anonymous": false,
      "inputs": [
        {
          "indexed": true,
          "internalType": "address",
          "name": "revenueContract",
          "type": "address"
        },
        {
          "indexed": false,
          "internalType": "address",
          "name": "token",
          "type": "address"
        }
      ],
      "name": "RemoveSpigot",
      "type": "event"
    },
    {
      "anonymous": false,
      "inputs": [
        {
          "indexed": true,
          "internalType": "address",
          "name": "newOperator",
          "type": "address"
        }
      ],
      "name": "UpdateOperator",
      "type": "event"
    },
    {
      "anonymous": false,
      "inputs": [
        {
          "indexed": true,
          "internalType": "address",
          "name": "newOwner",
          "type": "address"
        }
      ],
      "name": "UpdateOwner",
      "type": "event"
    },
    {
      "anonymous": false,
      "inputs": [
        {
          "indexed": true,
          "internalType": "address",
          "name": "revenueContract",
          "type": "address"
        },
        {
          "indexed": true,
          "internalType": "uint8",
          "name": "split",
          "type": "uint8"
        }
      ],
      "name": "UpdateOwnerSplit",
      "type": "event"
    },
    {
      "anonymous": false,
      "inputs": [
        {
          "indexed": true,
          "internalType": "address",
          "name": "newTreasury",
          "type": "address"
        }
      ],
      "name": "UpdateTreasury",
      "type": "event"
    },
    {
      "anonymous": false,
      "inputs": [
        {
          "indexed": true,
          "internalType": "bytes4",
          "name": "func",
          "type": "bytes4"
        },
        {
          "indexed": true,
          "internalType": "bool",
          "name": "allowed",
          "type": "bool"
        }
      ],
      "name": "UpdateWhitelistFunction",
      "type": "event"
    },
    {
      "inputs": [
        {
          "internalType": "address",
          "name": "revenueContract",
          "type": "address"
        },
        {
          "components": [
            {
              "internalType": "uint8",
              "name": "ownerSplit",
              "type": "uint8"
            },
            {
              "internalType": "bytes4",
              "name": "claimFunction",
              "type": "bytes4"
            },
            {
              "internalType": "bytes4",
              "name": "transferOwnerFunction",
              "type": "bytes4"
            }
          ],
          "internalType": "struct ISpigot.Setting",
          "name": "setting",
          "type": "tuple"
        }
      ],
      "name": "addSpigot",
      "outputs": [
        {
          "internalType": "bool",
          "name": "",
          "type": "bool"
        }
      ],
      "stateMutability": "nonpayable",
      "type": "function"
    },
    {
      "inputs": [
        {
          "internalType": "address",
          "name": "token",
          "type": "address"
        }
      ],
      "name": "claimEscrow",
      "outputs": [
        {
          "internalType": "uint256",
          "name": "claimed",
          "type": "uint256"
        }
      ],
      "stateMutability": "nonpayable",
      "type": "function"
    },
    {
      "inputs": [
        {
          "internalType": "address",
          "name": "revenueContract",
          "type": "address"
        },
        {
          "internalType": "address",
          "name": "token",
          "type": "address"
        },
        {
          "internalType": "bytes",
          "name": "data",
          "type": "bytes"
        }
      ],
      "name": "claimRevenue",
      "outputs": [
        {
          "internalType": "uint256",
          "name": "claimed",
          "type": "uint256"
        }
      ],
      "stateMutability": "nonpayable",
      "type": "function"
    },
    {
      "inputs": [
        {
          "internalType": "address",
          "name": "token",
          "type": "address"
        }
      ],
      "name": "getEscrowed",
      "outputs": [
        {
          "internalType": "uint256",
          "name": "",
          "type": "uint256"
        }
      ],
      "stateMutability": "view",
      "type": "function"
    },
    {
      "inputs": [
        {
          "internalType": "address",
          "name": "revenueContract",
          "type": "address"
        }
      ],
      "name": "getSetting",
      "outputs": [
        {
          "internalType": "uint8",
          "name": "",
          "type": "uint8"
        },
        {
          "internalType": "bytes4",
          "name": "",
          "type": "bytes4"
        },
        {
          "internalType": "bytes4",
          "name": "",
          "type": "bytes4"
        }
      ],
      "stateMutability": "view",
      "type": "function"
    },
    {
      "inputs": [
        {
          "internalType": "bytes4",
          "name": "func",
          "type": "bytes4"
        }
      ],
      "name": "isWhitelisted",
      "outputs": [
        {
          "internalType": "bool",
          "name": "",
          "type": "bool"
        }
      ],
      "stateMutability": "view",
      "type": "function"
    },
    {
      "inputs": [
        {
          "internalType": "address",
          "name": "revenueContract",
          "type": "address"
        },
        {
          "internalType": "bytes",
          "name": "data",
          "type": "bytes"
        }
      ],
      "name": "operate",
      "outputs": [
        {
          "internalType": "bool",
          "name": "",
          "type": "bool"
        }
      ],
      "stateMutability": "nonpayable",
      "type": "function"
    },
    {
      "inputs": [],
      "name": "operator",
      "outputs": [
        {
          "internalType": "address",
          "name": "",
          "type": "address"
        }
      ],
      "stateMutability": "view",
      "type": "function"
    },
    {
      "inputs": [],
      "name": "owner",
      "outputs": [
        {
          "internalType": "address",
          "name": "",
          "type": "address"
        }
      ],
      "stateMutability": "view",
      "type": "function"
    },
    {
      "inputs": [
        {
          "internalType": "address",
          "name": "revenueContract",
          "type": "address"
        }
      ],
      "name": "removeSpigot",
      "outputs": [
        {
          "internalType": "bool",
          "name": "",
          "type": "bool"
        }
      ],
      "stateMutability": "nonpayable",
      "type": "function"
    },
    {
      "inputs": [],
      "name": "treasury",
      "outputs": [
        {
          "internalType": "address",
          "name": "",
          "type": "address"
        }
      ],
      "stateMutability": "view",
      "type": "function"
    },
    {
      "inputs": [
        {
          "internalType": "address",
          "name": "newOperator",
          "type": "address"
        }
      ],
      "name": "updateOperator",
      "outputs": [
        {
          "internalType": "bool",
          "name": "",
          "type": "bool"
        }
      ],
      "stateMutability": "nonpayable",
      "type": "function"
    },
    {
      "inputs": [
        {
          "internalType": "address",
          "name": "newOwner",
          "type": "address"
        }
      ],
      "name": "updateOwner",
      "outputs": [
        {
          "internalType": "bool",
          "name": "",
          "type": "bool"
        }
      ],
      "stateMutability": "nonpayable",
      "type": "function"
    },
    {
      "inputs": [
        {
          "internalType": "address",
          "name": "revenueContract",
          "type": "address"
        },
        {
          "internalType": "uint8",
          "name": "ownerSplit",
          "type": "uint8"
        }
      ],
      "name": "updateOwnerSplit",
      "outputs": [
        {
          "internalType": "bool",
          "name": "",
          "type": "bool"
        }
      ],
      "stateMutability": "nonpayable",
      "type": "function"
    },
    {
      "inputs": [
        {
          "internalType": "address",
          "name": "newTreasury",
          "type": "address"
        }
      ],
      "name": "updateTreasury",
      "outputs": [
        {
          "internalType": "bool",
          "name": "",
          "type": "bool"
        }
      ],
      "stateMutability": "nonpayable",
      "type": "function"
    },
    {
      "inputs": [
        {
          "internalType": "bytes4",
          "name": "func",
          "type": "bytes4"
        },
        {
          "internalType": "bool",
          "name": "allowed",
          "type": "bool"
        }
      ],
      "name": "updateWhitelistedFunction",
      "outputs": [
        {
          "internalType": "bool",
          "name": "",
          "type": "bool"
        }
      ],
      "stateMutability": "nonpayable",
      "type": "function"
    },
    {
      "stateMutability": "payable",
      "type": "receive"
    }
  ],
  "bytecode": {
    "object": "0x608060405234801561001057600080fd5b50604051610edf380380610edf83398101604081905261002f91610092565b6001600081905580546001600160a01b039485166001600160a01b0319918216179091556002805492851692821692909217909155600380549290931691161790556100d5565b80516001600160a01b038116811461008d57600080fd5b919050565b6000806000606084860312156100a757600080fd5b6100b084610076565b92506100be60208501610076565b91506100cc60408501610076565b90509250925092565b610dfb806100e46000396000f3fe6080604052600436106100f75760003560e01c80637f51bb1f1161008a578063c2ae60d811610059578063c2ae60d8146102b4578063d2ee1986146102fe578063d403e9ec1461031e578063f9b0631e1461033e57600080fd5b80637f51bb1f14610236578063880cdc31146102565780638da5cb5b14610276578063ac7475ed1461029457600080fd5b806353ad370d116100c657806353ad370d146101a6578063570ca735146101c657806361d027b3146101f8578063744790511461021657600080fd5b806302b0d26d1461010357806312879a52146101365780631846f4791461016657806318906bf71461018657600080fd5b366100fe57005b600080fd5b34801561010f57600080fd5b5061012361011e366004610a2f565b61035e565b6040519081526020015b60405180910390f35b34801561014257600080fd5b50610156610151366004610a5c565b6103f9565b604051901515815260200161012d565b34801561017257600080fd5b50610156610181366004610a2f565b61049f565b34801561019257600080fd5b506101566101a1366004610aa9565b610535565b3480156101b257600080fd5b506101566101c1366004610b99565b6105ac565b3480156101d257600080fd5b506002546001600160a01b03165b6040516001600160a01b03909116815260200161012d565b34801561020457600080fd5b506003546001600160a01b03166101e0565b34801561022257600080fd5b50610123610231366004610bec565b610645565b34801561024257600080fd5b50610156610251366004610a2f565b6106eb565b34801561026257600080fd5b50610156610271366004610a2f565b610735565b34801561028257600080fd5b506001546001600160a01b03166101e0565b3480156102a057600080fd5b506101566102af366004610a2f565b61077f565b3480156102c057600080fd5b506102d46102cf366004610a2f565b6107c9565b6040805160ff90941684526001600160e01b0319928316602085015291169082015260600161012d565b34801561030a57600080fd5b50610156610319366004610c4d565b61086f565b34801561032a57600080fd5b50610156610339366004610c78565b6108ba565b34801561034a57600080fd5b50610123610359366004610a2f565b61090d565b60405163036579e760e41b8152600160048201526001600160a01b038216602482015260009073__$7703afd4da5b3150468ac963f777627f3c$__906336579e709060440160206040518083038186803b1580156103bb57600080fd5b505af41580156103cf573d6000803e3d6000fd5b505050506040513d601f19601f820116820180604052508101906103f39190610ca6565b92915050565b6040516324c4684d60e21b8152600160048201526001600160a01b038316602482015260ff8216604482015260009073__$7703afd4da5b3150468ac963f777627f3c$__90639311a134906064015b60206040518083038186803b15801561046057600080fd5b505af4158015610474573d6000803e3d6000fd5b505050506040513d601f19601f820116820180604052508101906104989190610cbf565b9392505050565b60405163d72efba960e01b8152600160048201526001600160a01b038216602482015260009073__$7703afd4da5b3150468ac963f777627f3c$__9063d72efba9906044015b60206040518083038186803b1580156104fd57600080fd5b505af4158015610511573d6000803e3d6000fd5b505050506040513d601f19601f820116820180604052508101906103f39190610cbf565b6040805163f51fdc4b60e01b8152600160048201526001600160a01b0384166024820152825160ff16604482015260208301516001600160e01b0319908116606483015291830151909116608482015260009073__$7703afd4da5b3150468ac963f777627f3c$__9063f51fdc4b9060a401610448565b604051637f6b516f60e01b815260009073__$7703afd4da5b3150468ac963f777627f3c$__90637f6b516f906105ed90600190889088908890600401610d05565b60206040518083038186803b15801561060557600080fd5b505af4158015610619573d6000803e3d6000fd5b505050506040513d601f19601f8201168201806040525081019061063d9190610cbf565b949350505050565b600061064f6109ba565b604051637796f76360e01b815273__$7703afd4da5b3150468ac963f777627f3c$__90637796f7639061068f906001908990899089908990600401610d3a565b60206040518083038186803b1580156106a757600080fd5b505af41580156106bb573d6000803e3d6000fd5b505050506040513d601f19601f820116820180604052508101906106df9190610ca6565b905061063d6001600055565b604051634467db4960e11b8152600160048201526001600160a01b038216602482015260009073__$7703afd4da5b3150468ac963f777627f3c$__906388cfb692906044016104e5565b604051633f279f2760e11b8152600160048201526001600160a01b038216602482015260009073__$7703afd4da5b3150468ac963f777627f3c$__90637e4f3e4e906044016104e5565b60405163939ee34160e01b8152600160048201526001600160a01b038216602482015260009073__$7703afd4da5b3150468ac963f777627f3c$__9063939ee341906044016104e5565b604051634f94f74160e01b8152600160048201526001600160a01b03821660248201526000908190819073__$7703afd4da5b3150468ac963f777627f3c$__90634f94f7419060440160606040518083038186803b15801561082a57600080fd5b505af415801561083e573d6000803e3d6000fd5b505050506040513d601f19601f820116820180604052508101906108629190610d78565b9250925092509193909250565b6040516320a7a3e560e01b8152600160048201526001600160e01b03198216602482015260009073__$7703afd4da5b3150468ac963f777627f3c$__906320a7a3e5906044016104e5565b604051633f28cbf160e01b8152600160048201526001600160e01b031983166024820152811515604482015260009073__$7703afd4da5b3150468ac963f777627f3c$__90633f28cbf190606401610448565b60006109176109ba565b604051633f166fdf60e21b8152600160048201526001600160a01b038316602482015273__$7703afd4da5b3150468ac963f777627f3c$__9063fc59bf7c9060440160206040518083038186803b15801561097157600080fd5b505af4158015610985573d6000803e3d6000fd5b505050506040513d601f19601f820116820180604052508101906109a99190610ca6565b90506109b56001600055565b919050565b60026000541415610a115760405162461bcd60e51b815260206004820152601f60248201527f5265656e7472616e637947756172643a207265656e7472616e742063616c6c00604482015260640160405180910390fd5b6002600055565b80356001600160a01b03811681146109b557600080fd5b600060208284031215610a4157600080fd5b61049882610a18565b60ff81168114610a5957600080fd5b50565b60008060408385031215610a6f57600080fd5b610a7883610a18565b91506020830135610a8881610a4a565b809150509250929050565b6001600160e01b031981168114610a5957600080fd5b6000808284036080811215610abd57600080fd5b610ac684610a18565b92506060601f1982011215610ada57600080fd5b506040516060810181811067ffffffffffffffff82111715610b0c57634e487b7160e01b600052604160045260246000fd5b6040526020840135610b1d81610a4a565b81526040840135610b2d81610a93565b60208201526060840135610b4081610a93565b6040820152919491935090915050565b60008083601f840112610b6257600080fd5b50813567ffffffffffffffff811115610b7a57600080fd5b602083019150836020828501011115610b9257600080fd5b9250929050565b600080600060408486031215610bae57600080fd5b610bb784610a18565b9250602084013567ffffffffffffffff811115610bd357600080fd5b610bdf86828701610b50565b9497909650939450505050565b60008060008060608587031215610c0257600080fd5b610c0b85610a18565b9350610c1960208601610a18565b9250604085013567ffffffffffffffff811115610c3557600080fd5b610c4187828801610b50565b95989497509550505050565b600060208284031215610c5f57600080fd5b813561049881610a93565b8015158114610a5957600080fd5b60008060408385031215610c8b57600080fd5b8235610c9681610a93565b91506020830135610a8881610c6a565b600060208284031215610cb857600080fd5b5051919050565b600060208284031215610cd157600080fd5b815161049881610c6a565b81835281816020850137506000828201602090810191909152601f909101601f19169091010190565b8481526001600160a01b0384166020820152606060408201819052600090610d309083018486610cdc565b9695505050505050565b8581526001600160a01b03858116602083015284166040820152608060608201819052600090610d6d9083018486610cdc565b979650505050505050565b600080600060608486031215610d8d57600080fd5b8351610d9881610a4a565b6020850151909350610da981610a93565b6040850151909250610dba81610a93565b80915050925092509256fea2646970667358221220aa500ef681092463e265f0649d0ebc151bcc0ee576b8b1e242cb09c573f4949264736f6c63430008090033",
    "linkReferences": {
      "contracts/utils/SpigotLib.sol": {
        "SpigotLib": [
          {
            "start": 1130,
            "length": 20
          },
          {
            "start": 1294,
            "length": 20
          },
          {
            "start": 1451,
            "length": 20
          },
          {
            "start": 1646,
            "length": 20
          },
          {
            "start": 1698,
            "length": 20
          },
          {
            "start": 1858,
            "length": 20
          },
          {
            "start": 2039,
            "length": 20
          },
          {
            "start": 2113,
            "length": 20
          },
          {
            "start": 2187,
            "length": 20
          },
          {
            "start": 2265,
            "length": 20
          },
          {
            "start": 2428,
            "length": 20
          },
          {
            "start": 2511,
            "length": 20
          },
          {
            "start": 2592,
            "length": 20
          }
        ]
      }
    }
  },
  "methodIdentifiers": {
    "addSpigot(address,(uint8,bytes4,bytes4))": "18906bf7",
    "claimEscrow(address)": "f9b0631e",
    "claimRevenue(address,address,bytes)": "74479051",
    "getEscrowed(address)": "02b0d26d",
    "getSetting(address)": "c2ae60d8",
    "isWhitelisted(bytes4)": "d2ee1986",
    "operate(address,bytes)": "53ad370d",
    "operator()": "570ca735",
    "owner()": "8da5cb5b",
    "removeSpigot(address)": "1846f479",
    "treasury()": "61d027b3",
    "updateOperator(address)": "ac7475ed",
    "updateOwner(address)": "880cdc31",
    "updateOwnerSplit(address,uint8)": "12879a52",
    "updateTreasury(address)": "7f51bb1f",
    "updateWhitelistedFunction(bytes4,bool)": "d403e9ec"
  },
  "userdoc": {
    "version": 1,
    "kind": "user",
    "methods": {
      "addSpigot(address,(uint8,bytes4,bytes4))": {
        "notice": "Allows Owner to add a new revenue stream to the Spigot"
      },
      "claimEscrow(address)": {
        "notice": "- Allows Spigot Owner to claim escrowed revenue tokens from a revenue contract"
      },
      "claimRevenue(address,address,bytes)": {
        "notice": "- Claims revenue tokens from the Spigot (push and pull) and makes them available to a Lender for later withdrawal. Calls predefined function in contract settings to claim revenue. Automatically sends portion to treasury and escrows Owner's share N.B. There is no conversion (trade) to the credit token in this case. "
      },
      "getEscrowed(address)": {
        "notice": "- Retrieve amount of revenue tokens escrowed waiting for claim"
      },
      "isWhitelisted(bytes4)": {
        "notice": "- Returns the list of whitelisted functions that an Operator is allowed to perform on the revenue generating smart contracts whilst the Spigot is attached."
      },
      "operate(address,bytes)": {
        "notice": "- Allows Operator to call whitelisted functions on revenue contracts to maintain their product           while still allowing Spigot Owner to receive its revenue stream"
      },
      "removeSpigot(address)": {
        "notice": "- changes control over a single revenue generating contract from its then Owner (A) to another actor (typically the Operator/Borrower)           sends any escrowed tokens to the prior Owner A."
      },
      "updateOperator(address)": {
        "notice": "- Update Operator role of Spigot contract.      New Operator can interact with revenue contracts."
      },
      "updateOwner(address)": {
        "notice": "- Update Owner role of Spigot contract.      New Owner receives revenue stream split and can control Spigot"
      },
      "updateTreasury(address)": {
        "notice": "- Update Treasury role of Spigot contract.      New Treasury receives revenue stream split"
      },
      "updateWhitelistedFunction(bytes4,bool)": {
        "notice": "- Allows Owner to whitelist function methods across all revenue contracts for Operator to call.           Can whitelist \"transfer ownership\" functions on revenue contracts           allowing Spigot to give direct control back to Operator."
      }
    },
    "notice": "A contract allowing the revenue stream of a smart contract (revenue contract) to be split in a secure way between two or more parties  according to an agreement between the parties"
  },
  "devdoc": {
    "version": 1,
    "kind": "dev",
    "author": "Kiba Gateaux",
    "details": "Should be deployed once per agreement. Multiple revenue contracts can be attached to a Spigot.",
    "methods": {
      "addSpigot(address,(uint8,bytes4,bytes4))": {
        "details": "- callable by `owner`",
        "params": {
          "revenueContract": "- smart contract to claim tokens from",
          "setting": "- Spigot settings for smart contract   "
        }
      },
      "claimEscrow(address)": {
        "details": "- callable by `owner`",
        "params": {
          "token": "Revenue token that is being escrowed by spigot"
        },
        "returns": {
          "claimed": "-  The amount of tokens claimed from revenue by the `owner`"
        }
      },
      "claimRevenue(address,address,bytes)": {
        "details": "- callable by anyone",
        "params": {
          "data": "Transaction data, including function signature, to properly claim revenue on revenueContract",
          "revenueContract": "Contract with registered settings to claim revenue from"
        },
        "returns": {
          "claimed": "-  The amount of revenue tokens claimed from revenueContract and split between `owner` and `treasury`"
        }
      },
      "constructor": {
        "details": "Configure data for contract owners and initial revenue contracts. Owner/operator/treasury can all be the same address when setting up a Spigot",
        "params": {
          "_operator": "An address through which Party B able to execute whitelisted functions to carry on business as usual  related to revenue generating contract controlled by the Spigot.",
          "_owner": "An address of Party A that controls the Spigot and owns rights to some or all of the revenue tokens from the revenue contract on behalf of itself or a 3rd party and in exchange for some consideration due to Party B",
          "_treasury": "The Treasury of Party B. It receives revenue tokens that don't accrue to the Owner"
        }
      },
      "getEscrowed(address)": {
        "params": {
          "token": "Revenue token that is being garnished from spigots"
        }
      },
      "isWhitelisted(bytes4)": {
        "params": {
          "func": "Function to check on whitelist "
        }
      },
      "operate(address,bytes)": {
        "details": "- callable by `operator`",
        "params": {
          "data": "- tx data, including function signature, to call contract with",
          "revenueContract": "- smart contract to call"
        }
      },
      "removeSpigot(address)": {
        "details": "- callable by `owner`",
        "params": {
          "revenueContract": "- smart contract to transfer ownership of"
        }
      },
      "updateOperator(address)": {
        "details": "- callable by `operator`",
        "params": {
          "newOperator": "- Address to give control to"
        }
      },
      "updateOwner(address)": {
        "details": "- callable by `owner`",
        "params": {
          "newOwner": "- Address to give control to"
        }
      },
      "updateTreasury(address)": {
        "details": "- callable by `treasury`",
        "params": {
          "newTreasury": "- Address to divert funds to"
        }
      },
      "updateWhitelistedFunction(bytes4,bool)": {
        "details": "- callable by `owner`",
        "params": {
          "allowed": "- true/false whether to allow this function to be called by Operator",
          "func": "- smart contract function signature to whitelist"
        }
      }
    },
    "title": "Spigot"
  },
  "id": 28
}