{
  "_format": "hh-sol-artifact-1",
  "contractName": "SpigotedLoan",
  "sourceName": "contracts/modules/credit/SpigotedLoan.sol",
  "abi": [
    {
      "inputs": [
        {
          "internalType": "address",
          "name": "oracle_",
          "type": "address"
        },
        {
          "internalType": "address",
          "name": "arbiter_",
          "type": "address"
        },
        {
          "internalType": "address",
          "name": "borrower_",
          "type": "address"
        },
        {
          "internalType": "address",
          "name": "swapTarget_",
          "type": "address"
        },
        {
          "internalType": "uint256",
          "name": "ttl_",
          "type": "uint256"
        },
        {
          "internalType": "uint8",
          "name": "defaultRevenueSplit_",
          "type": "uint8"
        }
      ],
      "stateMutability": "nonpayable",
      "type": "constructor"
    },
    {
      "anonymous": false,
      "inputs": [
        {
          "indexed": true,
          "internalType": "address",
          "name": "lender",
          "type": "address"
        },
        {
          "indexed": true,
          "internalType": "address",
          "name": "token",
          "type": "address"
        },
        {
          "indexed": true,
          "internalType": "uint256",
          "name": "deposit",
          "type": "uint256"
        },
        {
          "indexed": false,
          "internalType": "uint256",
          "name": "initialPrincipal",
          "type": "uint256"
        }
      ],
      "name": "AddDebtPosition",
      "type": "event"
    },
    {
      "anonymous": false,
      "inputs": [
        {
          "indexed": true,
          "internalType": "bytes32",
          "name": "positionId",
          "type": "bytes32"
        },
        {
          "indexed": true,
          "internalType": "uint256",
          "name": "amount",
          "type": "uint256"
        },
        {
          "indexed": true,
          "internalType": "uint256",
          "name": "value",
          "type": "uint256"
        }
      ],
      "name": "Borrow",
      "type": "event"
    },
    {
      "anonymous": false,
      "inputs": [
        {
          "indexed": true,
          "internalType": "bytes32",
          "name": "positionId",
          "type": "bytes32"
        }
      ],
      "name": "CloseDebtPosition",
      "type": "event"
    },
    {
      "anonymous": false,
      "inputs": [
        {
          "indexed": true,
          "internalType": "bytes32",
          "name": "positionId",
          "type": "bytes32"
        },
        {
          "indexed": true,
          "internalType": "uint256",
          "name": "amount",
          "type": "uint256"
        },
        {
          "indexed": true,
          "internalType": "uint256",
          "name": "value",
          "type": "uint256"
        }
      ],
      "name": "Default",
      "type": "event"
    },
    {
      "anonymous": false,
      "inputs": [
        {
          "indexed": true,
          "internalType": "address",
          "name": "oracle",
          "type": "address"
        },
        {
          "indexed": true,
          "internalType": "address",
          "name": "arbiter",
          "type": "address"
        },
        {
          "indexed": true,
          "internalType": "address",
          "name": "borrower",
          "type": "address"
        }
      ],
      "name": "DeployLoan",
      "type": "event"
    },
    {
      "anonymous": false,
      "inputs": [
        {
          "indexed": true,
          "internalType": "bytes32",
          "name": "positionId",
          "type": "bytes32"
        },
        {
          "indexed": true,
          "internalType": "uint256",
          "name": "tokenAmount",
          "type": "uint256"
        },
        {
          "indexed": true,
          "internalType": "uint256",
          "name": "value",
          "type": "uint256"
        }
      ],
      "name": "InterestAccrued",
      "type": "event"
    },
    {
      "anonymous": false,
      "inputs": [
        {
          "indexed": true,
          "internalType": "bytes32",
          "name": "positionId",
          "type": "bytes32"
        },
        {
          "indexed": true,
          "internalType": "uint256",
          "name": "amount",
          "type": "uint256"
        },
        {
          "indexed": true,
          "internalType": "address",
          "name": "token",
          "type": "address"
        }
      ],
      "name": "Liquidate",
      "type": "event"
    },
    {
      "anonymous": false,
      "inputs": [
        {
          "indexed": false,
          "internalType": "bytes32",
          "name": "_upgradeHash",
          "type": "bytes32"
        }
      ],
      "name": "MutualUpgradeRegistered",
      "type": "event"
    },
    {
      "anonymous": false,
      "inputs": [
        {
          "indexed": true,
          "internalType": "bytes32",
          "name": "positionId",
          "type": "bytes32"
        },
        {
          "indexed": true,
          "internalType": "uint256",
          "name": "amount",
          "type": "uint256"
        },
        {
          "indexed": true,
          "internalType": "uint256",
          "name": "value",
          "type": "uint256"
        }
      ],
      "name": "RepayInterest",
      "type": "event"
    },
    {
      "anonymous": false,
      "inputs": [
        {
          "indexed": true,
          "internalType": "bytes32",
          "name": "positionId",
          "type": "bytes32"
        },
        {
          "indexed": true,
          "internalType": "uint256",
          "name": "amount",
          "type": "uint256"
        },
        {
          "indexed": true,
          "internalType": "uint256",
          "name": "value",
          "type": "uint256"
        }
      ],
      "name": "RepayPrincipal",
      "type": "event"
    },
    {
      "anonymous": false,
      "inputs": [
        {
          "indexed": true,
          "internalType": "address",
          "name": "token",
          "type": "address"
        },
        {
          "indexed": true,
          "internalType": "uint256",
          "name": "amount",
          "type": "uint256"
        }
      ],
      "name": "RevenuePayment",
      "type": "event"
    },
    {
      "anonymous": false,
      "inputs": [
        {
          "indexed": true,
          "internalType": "address",
          "name": "revenueToken",
          "type": "address"
        },
        {
          "indexed": false,
          "internalType": "uint256",
          "name": "revenueTokenAmount",
          "type": "uint256"
        },
        {
          "indexed": true,
          "internalType": "address",
          "name": "debtToken",
          "type": "address"
        },
        {
          "indexed": true,
          "internalType": "uint256",
          "name": "debtTokensBought",
          "type": "uint256"
        }
      ],
      "name": "TradeSpigotRevenue",
      "type": "event"
    },
    {
      "anonymous": false,
      "inputs": [
        {
          "indexed": true,
          "internalType": "uint256",
          "name": "status",
          "type": "uint256"
        }
      ],
      "name": "UpdateLoanStatus",
      "type": "event"
    },
    {
      "anonymous": false,
      "inputs": [
        {
          "indexed": true,
          "internalType": "bytes32",
          "name": "positionId",
          "type": "bytes32"
        },
        {
          "indexed": true,
          "internalType": "uint256",
          "name": "amount",
          "type": "uint256"
        }
      ],
      "name": "Withdraw",
      "type": "event"
    },
    {
      "inputs": [],
      "name": "accrueInterest",
      "outputs": [
        {
          "internalType": "uint256",
          "name": "accruedValue",
          "type": "uint256"
        }
      ],
      "stateMutability": "nonpayable",
      "type": "function"
    },
    {
      "inputs": [
        {
          "internalType": "uint256",
          "name": "amount",
          "type": "uint256"
        },
        {
          "internalType": "address",
          "name": "token",
          "type": "address"
        },
        {
          "internalType": "address",
          "name": "lender",
          "type": "address"
        }
      ],
      "name": "addDebtPosition",
      "outputs": [
        {
          "internalType": "bool",
          "name": "",
          "type": "bool"
        }
      ],
      "stateMutability": "nonpayable",
      "type": "function"
    },
    {
      "inputs": [
        {
          "internalType": "address",
          "name": "revenueContract",
          "type": "address"
        },
        {
          "components": [
            {
              "internalType": "address",
              "name": "token",
              "type": "address"
            },
            {
              "internalType": "uint8",
              "name": "ownerSplit",
              "type": "uint8"
            },
            {
              "internalType": "bytes4",
              "name": "claimFunction",
              "type": "bytes4"
            },
            {
              "internalType": "bytes4",
              "name": "transferOwnerFunction",
              "type": "bytes4"
            }
          ],
          "internalType": "struct SpigotController.SpigotSettings",
          "name": "setting",
          "type": "tuple"
        }
      ],
      "name": "addSpigot",
      "outputs": [
        {
          "internalType": "bool",
          "name": "",
          "type": "bool"
        }
      ],
      "stateMutability": "nonpayable",
      "type": "function"
    },
    {
      "inputs": [],
      "name": "arbiter",
      "outputs": [
        {
          "internalType": "address",
          "name": "",
          "type": "address"
        }
      ],
      "stateMutability": "view",
      "type": "function"
    },
    {
      "inputs": [
        {
          "internalType": "bytes32",
          "name": "positionId",
          "type": "bytes32"
        },
        {
          "internalType": "uint256",
          "name": "amount",
          "type": "uint256"
        }
      ],
      "name": "borrow",
      "outputs": [
        {
          "internalType": "bool",
          "name": "",
          "type": "bool"
        }
      ],
      "stateMutability": "nonpayable",
      "type": "function"
    },
    {
      "inputs": [],
      "name": "borrower",
      "outputs": [
        {
          "internalType": "address",
          "name": "",
          "type": "address"
        }
      ],
      "stateMutability": "view",
      "type": "function"
    },
    {
      "inputs": [
        {
          "internalType": "address",
          "name": "claimToken",
          "type": "address"
        },
        {
          "internalType": "bytes",
          "name": "zeroExTradeData",
          "type": "bytes"
        }
      ],
      "name": "claimAndRepay",
      "outputs": [
        {
          "internalType": "bool",
          "name": "",
          "type": "bool"
        }
      ],
      "stateMutability": "nonpayable",
      "type": "function"
    },
    {
      "inputs": [
        {
          "internalType": "address",
          "name": "claimToken",
          "type": "address"
        },
        {
          "internalType": "bytes",
          "name": "zeroExTradeData",
          "type": "bytes"
        }
      ],
      "name": "claimAndTrade",
      "outputs": [
        {
          "internalType": "uint256",
          "name": "tokensBought",
          "type": "uint256"
        }
      ],
      "stateMutability": "nonpayable",
      "type": "function"
    },
    {
      "inputs": [
        {
          "internalType": "bytes32",
          "name": "positionId",
          "type": "bytes32"
        }
      ],
      "name": "close",
      "outputs": [
        {
          "internalType": "bool",
          "name": "",
          "type": "bool"
        }
      ],
      "stateMutability": "nonpayable",
      "type": "function"
    },
    {
      "inputs": [],
      "name": "deadline",
      "outputs": [
        {
          "internalType": "uint256",
          "name": "",
          "type": "uint256"
        }
      ],
      "stateMutability": "view",
      "type": "function"
    },
    {
      "inputs": [
        {
          "internalType": "bytes32",
          "name": "",
          "type": "bytes32"
        }
      ],
      "name": "debts",
      "outputs": [
        {
          "internalType": "uint256",
          "name": "deposit",
          "type": "uint256"
        },
        {
          "internalType": "uint256",
          "name": "principal",
          "type": "uint256"
        },
        {
          "internalType": "uint256",
          "name": "interestAccrued",
          "type": "uint256"
        },
        {
          "internalType": "uint256",
          "name": "interestRepaid",
          "type": "uint256"
        },
        {
          "internalType": "uint8",
          "name": "decimals",
          "type": "uint8"
        },
        {
          "internalType": "address",
          "name": "lender",
          "type": "address"
        },
        {
          "internalType": "address",
          "name": "token",
          "type": "address"
        }
      ],
      "stateMutability": "view",
      "type": "function"
    },
    {
      "inputs": [],
      "name": "defaultRevenueSplit",
      "outputs": [
        {
          "internalType": "uint8",
          "name": "",
          "type": "uint8"
        }
      ],
      "stateMutability": "view",
      "type": "function"
    },
    {
      "inputs": [],
      "name": "depositAndClose",
      "outputs": [
        {
          "internalType": "bool",
          "name": "",
          "type": "bool"
        }
      ],
      "stateMutability": "nonpayable",
      "type": "function"
    },
    {
      "inputs": [
        {
          "internalType": "uint256",
          "name": "amount",
          "type": "uint256"
        }
      ],
      "name": "depositAndRepay",
      "outputs": [
        {
          "internalType": "bool",
          "name": "",
          "type": "bool"
        }
      ],
      "stateMutability": "nonpayable",
      "type": "function"
    },
    {
      "inputs": [],
      "name": "getOutstandingDebt",
      "outputs": [
        {
          "internalType": "uint256",
          "name": "",
          "type": "uint256"
        }
      ],
      "stateMutability": "nonpayable",
      "type": "function"
    },
    {
      "inputs": [],
      "name": "healthcheck",
      "outputs": [
        {
          "internalType": "enum LoanLib.STATUS",
          "name": "",
          "type": "uint8"
        }
      ],
      "stateMutability": "nonpayable",
      "type": "function"
    },
    {
      "inputs": [],
      "name": "interestRate",
      "outputs": [
        {
          "internalType": "contract InterestRateCredit",
          "name": "",
          "type": "address"
        }
      ],
      "stateMutability": "view",
      "type": "function"
    },
    {
      "inputs": [],
      "name": "interestUsd",
      "outputs": [
        {
          "internalType": "uint256",
          "name": "",
          "type": "uint256"
        }
      ],
      "stateMutability": "view",
      "type": "function"
    },
    {
      "inputs": [
        {
          "internalType": "bytes32",
          "name": "positionId",
          "type": "bytes32"
        },
        {
          "internalType": "uint256",
          "name": "amount",
          "type": "uint256"
        },
        {
          "internalType": "address",
          "name": "targetToken",
          "type": "address"
        }
      ],
      "name": "liquidate",
      "outputs": [
        {
          "internalType": "uint256",
          "name": "",
          "type": "uint256"
        }
      ],
      "stateMutability": "nonpayable",
      "type": "function"
    },
    {
      "inputs": [],
      "name": "loanStatus",
      "outputs": [
        {
          "internalType": "enum LoanLib.STATUS",
          "name": "",
          "type": "uint8"
        }
      ],
      "stateMutability": "view",
      "type": "function"
    },
    {
      "inputs": [
        {
          "internalType": "bytes32",
          "name": "",
          "type": "bytes32"
        }
      ],
      "name": "mutualUpgrades",
      "outputs": [
        {
          "internalType": "bool",
          "name": "",
          "type": "bool"
        }
      ],
      "stateMutability": "view",
      "type": "function"
    },
    {
      "inputs": [],
      "name": "oracle",
      "outputs": [
        {
          "internalType": "contract IOracle",
          "name": "",
          "type": "address"
        }
      ],
      "stateMutability": "view",
      "type": "function"
    },
    {
      "inputs": [
        {
          "internalType": "uint256",
          "name": "",
          "type": "uint256"
        }
      ],
      "name": "positionIds",
      "outputs": [
        {
          "internalType": "bytes32",
          "name": "",
          "type": "bytes32"
        }
      ],
      "stateMutability": "view",
      "type": "function"
    },
    {
      "inputs": [],
      "name": "principalUsd",
      "outputs": [
        {
          "internalType": "uint256",
          "name": "",
          "type": "uint256"
        }
      ],
      "stateMutability": "view",
      "type": "function"
    },
    {
      "inputs": [],
      "name": "releaseSpigot",
      "outputs": [
        {
          "internalType": "bool",
          "name": "",
          "type": "bool"
        }
      ],
      "stateMutability": "nonpayable",
      "type": "function"
    },
    {
      "inputs": [],
      "name": "spigot",
      "outputs": [
        {
          "internalType": "contract SpigotController",
          "name": "",
          "type": "address"
        }
      ],
      "stateMutability": "view",
      "type": "function"
    },
    {
      "inputs": [],
      "name": "swapTarget",
      "outputs": [
        {
          "internalType": "address",
          "name": "",
          "type": "address"
        }
      ],
      "stateMutability": "view",
      "type": "function"
    },
    {
      "inputs": [
        {
          "internalType": "address",
          "name": "token",
          "type": "address"
        }
      ],
      "name": "sweep",
      "outputs": [
        {
          "internalType": "uint256",
          "name": "",
          "type": "uint256"
        }
      ],
      "stateMutability": "nonpayable",
      "type": "function"
    },
    {
      "inputs": [
        {
          "internalType": "address",
          "name": "revenueContract",
          "type": "address"
        }
      ],
      "name": "updateOwnerSplit",
      "outputs": [],
      "stateMutability": "nonpayable",
      "type": "function"
    },
    {
      "inputs": [
        {
          "internalType": "bytes32",
          "name": "positionId",
          "type": "bytes32"
        },
        {
          "internalType": "uint256",
          "name": "amount",
          "type": "uint256"
        }
      ],
      "name": "withdraw",
      "outputs": [
        {
          "internalType": "bool",
          "name": "",
          "type": "bool"
        }
      ],
      "stateMutability": "nonpayable",
      "type": "function"
    }
  ],
  "bytecode": "0x6101806040523480156200001257600080fd5b506040516200c16e3803806200c16e833981810160405281019062000038919062000421565b858585848383838073ffffffffffffffffffffffffffffffffffffffff1660808173ffffffffffffffffffffffffffffffffffffffff16815250508173ffffffffffffffffffffffffffffffffffffffff1660c08173ffffffffffffffffffffffffffffffffffffffff16815250508273ffffffffffffffffffffffffffffffffffffffff1660a08173ffffffffffffffffffffffffffffffffffffffff168152505060018060006101000a81548160ff0219169083600b811115620001035762000102620004bd565b5b02179055508073ffffffffffffffffffffffffffffffffffffffff168273ffffffffffffffffffffffffffffffffffffffff168473ffffffffffffffffffffffffffffffffffffffff167e230e6d5b76fd5f4a1863818841fa8d09044c464e751ca16c0f2cbf7c81ebfb60405160405180910390a4505050604051620001899062000322565b604051809103906000f080158015620001a6573d6000803e3d6000fd5b5073ffffffffffffffffffffffffffffffffffffffff166101008173ffffffffffffffffffffffffffffffffffffffff16815250508042620001e991906200051b565b60e081815250506002600160006101000a81548160ff0219169083600b811115620002195762000218620004bd565b5b0217905550505050506060806060306080516080518585856040516200023f9062000330565b62000250969594939291906200087c565b604051809103906000f0801580156200026d573d6000803e3d6000fd5b5073ffffffffffffffffffffffffffffffffffffffff166101208173ffffffffffffffffffffffffffffffffffffffff16815250508360ff166101608160ff16815250508573ffffffffffffffffffffffffffffffffffffffff166101408173ffffffffffffffffffffffffffffffffffffffff168152505060018060006101000a81548160ff0219169083600b8111156200030e576200030d620004bd565b5b0217905550505050505050505050620008fe565b6109bb806200749883390190565b61431b8062007e5383390190565b600080fd5b600073ffffffffffffffffffffffffffffffffffffffff82169050919050565b6000620003708262000343565b9050919050565b620003828162000363565b81146200038e57600080fd5b50565b600081519050620003a28162000377565b92915050565b6000819050919050565b620003bd81620003a8565b8114620003c957600080fd5b50565b600081519050620003dd81620003b2565b92915050565b600060ff82169050919050565b620003fb81620003e3565b81146200040757600080fd5b50565b6000815190506200041b81620003f0565b92915050565b60008060008060008060c087890312156200044157620004406200033e565b5b60006200045189828a0162000391565b96505060206200046489828a0162000391565b95505060406200047789828a0162000391565b94505060606200048a89828a0162000391565b93505060806200049d89828a01620003cc565b92505060a0620004b089828a016200040a565b9150509295509295509295565b7f4e487b7100000000000000000000000000000000000000000000000000000000600052602160045260246000fd5b7f4e487b7100000000000000000000000000000000000000000000000000000000600052601160045260246000fd5b60006200052882620003a8565b91506200053583620003a8565b9250827fffffffffffffffffffffffffffffffffffffffffffffffffffffffffffffffff038211156200056d576200056c620004ec565b5b828201905092915050565b620005838162000363565b82525050565b600081519050919050565b600082825260208201905092915050565b6000819050602082019050919050565b620005c08162000363565b82525050565b6000620005d48383620005b5565b60208301905092915050565b6000602082019050919050565b6000620005fa8262000589565b62000606818562000594565b93506200061383620005a5565b8060005b838110156200064a5781516200062e8882620005c6565b97506200063b83620005e0565b92505060018101905062000617565b5085935050505092915050565b600081519050919050565b600082825260208201905092915050565b6000819050602082019050919050565b6200068e81620003e3565b82525050565b60007fffffffff0000000000000000000000000000000000000000000000000000000082169050919050565b620006cb8162000694565b82525050565b608082016000820151620006e96000850182620005b5565b506020820151620006fe602085018262000683565b506040820151620007136040850182620006c0565b506060820151620007286060850182620006c0565b50505050565b60006200073c8383620006d1565b60808301905092915050565b6000602082019050919050565b6000620007628262000657565b6200076e818562000662565b93506200077b8362000673565b8060005b83811015620007b25781516200079688826200072e565b9750620007a38362000748565b9250506001810190506200077f565b5085935050505092915050565b600081519050919050565b600082825260208201905092915050565b6000819050602082019050919050565b6000620007f98383620006c0565b60208301905092915050565b6000602082019050919050565b60006200081f82620007bf565b6200082b8185620007ca565b93506200083883620007db565b8060005b838110156200086f578151620008538882620007eb565b9750620008608362000805565b9250506001810190506200083c565b5085935050505092915050565b600060c08201905062000893600083018962000578565b620008a2602083018862000578565b620008b1604083018762000578565b8181036060830152620008c58186620005ed565b90508181036080830152620008db818562000755565b905081810360a0830152620008f1818462000812565b9050979650505050505050565b60805160a05160c05160e05161010051610120516101405161016051616a2362000a7560003960008181612474015281816124e10152612b82015260008181611cab015281816135230152818161361301526136a701526000818161149001528181611f8a015281816120d101528181612302015281816124a401528181612604015281816128be015261343f015260008181611633015261305f015260008181611053015261423b0152600081816107e601528181610dde015281816113670152818161150b0152818161210d015281816126bc0152612f2501526000818161190601528181611c630152818161314901528181613ac001528181613bf401528181613cb101528181614302015281816147f0015281816148b601526149800152600081816106af01528181610d89015281816111e4015281816114b6015281816116cf01528181611b4201528181611c8701528181611d2301528181611fc6015281816126dd0152612c1f0152616a236000f3fe608060405234801561001057600080fd5b50600436106101da5760003560e01c80637df1f1b911610104578063b57cb9fc116100a2578063e96b496f11610071578063e96b496f146105c7578063ed6b3d2b146105e5578063f3d96a5014610615578063fe25e00a14610633576101da565b8063b57cb9fc1461052d578063b8bf1c0914610549578063dc1f24e614610579578063dfe9608314610597576101da565b806387fffaf3116100de57806387fffaf31461048b578063939c5f7a146104a9578063a6afed95146104d9578063a9caa411146104f7576101da565b80637df1f1b9146104315780637e7f0cde1461044f5780637eef544d1461046d576101da565b80634f42fc021161017c5780637af39dbe1161014b5780637af39dbe146103a75780637c3a00fd146103c55780637c93ec30146103e35780637dc0d1d014610413576101da565b80634f42fc021461030b5780635a37eb64146103295780635e235d54146103595780635f61876814610377576101da565b80631acb7525116101b85780631acb75251461025d57806329dcb0cf1461028d578063389f1532146102ab57806339c79e0c146102db576101da565b806301681a62146101df578063040cf0201461020f578063074ca9661461023f575b600080fd5b6101f960048036038101906101f49190615057565b610651565b604051610206919061509d565b60405180910390f35b6102296004803603810190610224919061511a565b6108c7565b6040516102369190615175565b60405180910390f35b610247610d4f565b6040516102549190615207565b60405180910390f35b61027760048036038101906102729190615287565b610d62565b6040516102849190615175565b60405180910390f35b610295611051565b6040516102a2919061509d565b60405180910390f35b6102c560048036038101906102c091906152e7565b611075565b6040516102d29190615175565b60405180910390f35b6102f560048036038101906102f091906152e7565b611095565b6040516103029190615175565b60405180910390f35b61031361134c565b6040516103209190615207565b60405180910390f35b610343600480360381019061033e9190615314565b611363565b604051610350919061509d565b60405180910390f35b61036161148e565b60405161036e91906153c6565b60405180910390f35b610391600480360381019061038c9190615287565b6114b2565b60405161039e919061509d565b60405180910390f35b6103af61162b565b6040516103bc919061509d565b60405180910390f35b6103cd611631565b6040516103da9190615414565b60405180910390f35b6103fd60048036038101906103f8919061511a565b611655565b60405161040a9190615175565b60405180910390f35b61041b611c61565b6040516104289190615450565b60405180910390f35b610439611c85565b604051610446919061547a565b60405180910390f35b610457611ca9565b604051610464919061547a565b60405180910390f35b610475611ccd565b6040516104829190615175565b60405180910390f35b610493611f4a565b6040516104a09190615175565b60405180910390f35b6104c360048036038101906104be9190615495565b6121e1565b6040516104d091906154d1565b60405180910390f35b6104e1612205565b6040516104ee919061509d565b60405180910390f35b610511600480360381019061050c91906152e7565b61226e565b6040516105249796959493929190615508565b60405180910390f35b61054760048036038101906105429190615057565b6122fd565b005b610563600480360381019061055e919061559b565b6126b8565b6040516105709190615175565b60405180910390f35b610581612976565b60405161058e919061509d565b60405180910390f35b6105b160048036038101906105ac9190615495565b61299a565b6040516105be9190615175565b60405180910390f35b6105cf612b80565b6040516105dc91906155db565b60405180910390f35b6105ff60048036038101906105fa91906155f6565b612ba4565b60405161060c9190615175565b60405180910390f35b61061d612f1d565b60405161062a919061509d565b60405180910390f35b61063b612f23565b604051610648919061547a565b60405180910390f35b6000600a600b81111561066757610666615190565b5b600160009054906101000a900460ff16600b81111561068957610688615190565b5b141561078b5760008273ffffffffffffffffffffffffffffffffffffffff1663a9059cbb7f0000000000000000000000000000000000000000000000000000000000000000600660008773ffffffffffffffffffffffffffffffffffffffff1673ffffffffffffffffffffffffffffffffffffffff168152602001908152602001600020546040518363ffffffff1660e01b815260040161072b929190615649565b602060405180830381600087803b15801561074557600080fd5b505af1158015610759573d6000803e3d6000fd5b505050506040513d601f19601f8201168201806040525081019061077d919061569e565b90508061078957600080fd5b505b600b8081111561079e5761079d615190565b5b600160009054906101000a900460ff16600b8111156107c0576107bf615190565b5b14156108c25760008273ffffffffffffffffffffffffffffffffffffffff1663a9059cbb7f0000000000000000000000000000000000000000000000000000000000000000600660008773ffffffffffffffffffffffffffffffffffffffff1673ffffffffffffffffffffffffffffffffffffffff168152602001908152602001600020546040518363ffffffff1660e01b8152600401610862929190615649565b602060405180830381600087803b15801561087c57600080fd5b505af1158015610890573d6000803e3d6000fd5b505050506040513d601f19601f820116820180604052508101906108b4919061569e565b9050806108c057600080fd5b505b919050565b60006005600084815260200190815260200160002060040160019054906101000a900473ffffffffffffffffffffffffffffffffffffffff1673ffffffffffffffffffffffffffffffffffffffff163373ffffffffffffffffffffffffffffffffffffffff161461096d576040517f08c379a000000000000000000000000000000000000000000000000000000000815260040161096490615728565b60405180910390fd5b61097683612f47565b50506000600560008581526020019081526020016000206040518060e0016040529081600082015481526020016001820154815260200160028201548152602001600382015481526020016004820160009054906101000a900460ff1660ff1660ff1681526020016004820160019054906101000a900473ffffffffffffffffffffffffffffffffffffffff1673ffffffffffffffffffffffffffffffffffffffff1673ffffffffffffffffffffffffffffffffffffffff1681526020016005820160009054906101000a900473ffffffffffffffffffffffffffffffffffffffff1673ffffffffffffffffffffffffffffffffffffffff1673ffffffffffffffffffffffffffffffffffffffff16815250509050806020015181606001518260000151610aa49190615777565b610aae91906157cd565b831115610af0576040517f08c379a0000000000000000000000000000000000000000000000000000000008152600401610ae79061584d565b60405180910390fd5b8060600151831115610b3457806060015183610b0c91906157cd565b81600001818151610b1d91906157cd565b915081815250506000816060018181525050610b4e565b8281606001818151610b4691906157cd565b915081815250505b60008160c0015173ffffffffffffffffffffffffffffffffffffffff1663a9059cbb8360a00151866040518363ffffffff1660e01b8152600401610b93929190615649565b602060405180830381600087803b158015610bad57600080fd5b505af1158015610bc1573d6000803e3d6000fd5b505050506040513d601f19601f82011682018060405250810190610be5919061569e565b905080610c27576040517f08c379a0000000000000000000000000000000000000000000000000000000008152600401610c1e906158b9565b60405180910390fd5b81600560008781526020019081526020016000206000820151816000015560208201518160010155604082015181600201556060820151816003015560808201518160040160006101000a81548160ff021916908360ff16021790555060a08201518160040160016101000a81548173ffffffffffffffffffffffffffffffffffffffff021916908373ffffffffffffffffffffffffffffffffffffffff16021790555060c08201518160050160006101000a81548173ffffffffffffffffffffffffffffffffffffffff021916908373ffffffffffffffffffffffffffffffffffffffff16021790555090505083857f4591ca0897d0d8e83f7153dfe0b2912125672084ab8d84be59ee13240a1778bc60405160405180910390a360019250505092915050565b600160009054906101000a900460ff1681565b6000806004600081548110610d7a57610d796158d9565b5b906000526020600020015490507f000000000000000000000000000000000000000000000000000000000000000073ffffffffffffffffffffffffffffffffffffffff163373ffffffffffffffffffffffffffffffffffffffff161480610e2c57507f000000000000000000000000000000000000000000000000000000000000000073ffffffffffffffffffffffffffffffffffffffff163373ffffffffffffffffffffffffffffffffffffffff16145b610e3557600080fd5b610e3e81612f47565b505060006005600083815260200190815260200160002060050160009054906101000a900473ffffffffffffffffffffffffffffffffffffffff1690506000610e8987838888613320565b90506000600660008473ffffffffffffffffffffffffffffffffffffffff1673ffffffffffffffffffffffffffffffffffffffff1681526020019081526020016000205482610ed89190615777565b9050600060056000868152602001908152602001600020600101546005600087815260200190815260200160002060020154610f149190615777565b905080821115610f22578091505b82821115610f90578282610f3691906157cd565b600660008673ffffffffffffffffffffffffffffffffffffffff1673ffffffffffffffffffffffffffffffffffffffff1681526020019081526020016000206000828254610f8491906157cd565b92505081905550610ff2565b8183610f9c91906157cd565b600660008673ffffffffffffffffffffffffffffffffffffffff1673ffffffffffffffffffffffffffffffffffffffff1681526020019081526020016000206000828254610fea9190615777565b925050819055505b610ffc858461396a565b50828973ffffffffffffffffffffffffffffffffffffffff167f8343d4254deba24e9e0e659e47f973c9705b70baa52a884516698b13af1588bb60405160405180910390a36001955050505050509392505050565b7f000000000000000000000000000000000000000000000000000000000000000081565b60006020528060005260406000206000915054906101000a900460ff1681565b600080600560008481526020019081526020016000206040518060e0016040529081600082015481526020016001820154815260200160028201548152602001600382015481526020016004820160009054906101000a900460ff1660ff1660ff1681526020016004820160019054906101000a900473ffffffffffffffffffffffffffffffffffffffff1673ffffffffffffffffffffffffffffffffffffffff1673ffffffffffffffffffffffffffffffffffffffff1681526020016005820160009054906101000a900473ffffffffffffffffffffffffffffffffffffffff1673ffffffffffffffffffffffffffffffffffffffff1673ffffffffffffffffffffffffffffffffffffffff168152505090508060a0015173ffffffffffffffffffffffffffffffffffffffff163373ffffffffffffffffffffffffffffffffffffffff16148061123257507f000000000000000000000000000000000000000000000000000000000000000073ffffffffffffffffffffffffffffffffffffffff163373ffffffffffffffffffffffffffffffffffffffff16145b611271576040517f08c379a00000000000000000000000000000000000000000000000000000000081526004016112689061597a565b60405180910390fd5b600081600001511115611330578060c0015173ffffffffffffffffffffffffffffffffffffffff1663a9059cbb8260a00151836060015184600001516112b79190615777565b6040518363ffffffff1660e01b81526004016112d4929190615649565b602060405180830381600087803b1580156112ee57600080fd5b505af1158015611302573d6000803e3d6000fd5b505050506040513d601f19601f82011682018060405250810190611326919061569e565b61132f57600080fd5b5b61133983613fcf565b61134257600080fd5b6001915050919050565b600061135e6113596141f7565b614448565b905090565b60007f000000000000000000000000000000000000000000000000000000000000000073ffffffffffffffffffffffffffffffffffffffff163373ffffffffffffffffffffffffffffffffffffffff16146113f3576040517f08c379a00000000000000000000000000000000000000000000000000000000081526004016113ea906159e6565b60405180910390fd5b6114036113fe6141f7565b614448565b506004600b81111561141857611417615190565b5b600160009054906101000a900460ff16600b81111561143a57611439615190565b5b1461147a576040517f08c379a000000000000000000000000000000000000000000000000000000000815260040161147190615a52565b60405180910390fd5b61148584848461450e565b90509392505050565b7f000000000000000000000000000000000000000000000000000000000000000081565b60007f000000000000000000000000000000000000000000000000000000000000000073ffffffffffffffffffffffffffffffffffffffff163373ffffffffffffffffffffffffffffffffffffffff16148061155957507f000000000000000000000000000000000000000000000000000000000000000073ffffffffffffffffffffffffffffffffffffffff163373ffffffffffffffffffffffffffffffffffffffff16145b61156257600080fd5b600060056000600460008154811061157d5761157c6158d9565b5b9060005260206000200154815260200190815260200160002060050160009054906101000a900473ffffffffffffffffffffffffffffffffffffffff16905060006115ca86838787613320565b905080600660008473ffffffffffffffffffffffffffffffffffffffff1673ffffffffffffffffffffffffffffffffffffffff168152602001908152602001600020600082825461161b9190615777565b9250508190555050509392505050565b60035481565b7f000000000000000000000000000000000000000000000000000000000000000081565b60006002600b81111561166b5761166a615190565b5b600160009054906101000a900460ff16600b81111561168d5761168c615190565b5b146116cd576040517f08c379a00000000000000000000000000000000000000000000000000000000081526004016116c490615abe565b60405180910390fd5b7f000000000000000000000000000000000000000000000000000000000000000073ffffffffffffffffffffffffffffffffffffffff163373ffffffffffffffffffffffffffffffffffffffff161461175b576040517f08c379a000000000000000000000000000000000000000000000000000000000815260040161175290615b2a565b60405180910390fd5b61176483612f47565b50506000600560008581526020019081526020016000206040518060e0016040529081600082015481526020016001820154815260200160028201548152602001600382015481526020016004820160009054906101000a900460ff1660ff1660ff1681526020016004820160019054906101000a900473ffffffffffffffffffffffffffffffffffffffff1673ffffffffffffffffffffffffffffffffffffffff1673ffffffffffffffffffffffffffffffffffffffff1681526020016005820160009054906101000a900473ffffffffffffffffffffffffffffffffffffffff1673ffffffffffffffffffffffffffffffffffffffff1673ffffffffffffffffffffffffffffffffffffffff168152505090508060200151816000015161188d91906157cd565b8311156118cf576040517f08c379a00000000000000000000000000000000000000000000000000000000081526004016118c69061584d565b60405180910390fd5b82816020018181516118e19190615777565b91508181525050600073__$32ba42df846b62dd60aa3eb92b7287f6a6$__63cae8b7127f00000000000000000000000000000000000000000000000000000000000000008460c001518786608001516040518563ffffffff1660e01b815260040161194f9493929190615b86565b60206040518083038186803b15801561196757600080fd5b505af415801561197b573d6000803e3d6000fd5b505050506040513d601f19601f8201168201806040525081019061199f9190615be0565b905080600260008282546119b39190615777565b9250508190555081600560008781526020019081526020016000206000820151816000015560208201518160010155604082015181600201556060820151816003015560808201518160040160006101000a81548160ff021916908360ff16021790555060a08201518160040160016101000a81548173ffffffffffffffffffffffffffffffffffffffff021916908373ffffffffffffffffffffffffffffffffffffffff16021790555060c08201518160050160006101000a81548173ffffffffffffffffffffffffffffffffffffffff021916908373ffffffffffffffffffffffffffffffffffffffff1602179055509050506002600b811115611abc57611abb615190565b5b611acc611ac76141f7565b614448565b600b811115611ade57611add615190565b5b14611b1e576040517f08c379a0000000000000000000000000000000000000000000000000000000008152600401611b1590615c59565b60405180910390fd5b60008260c0015173ffffffffffffffffffffffffffffffffffffffff1663a9059cbb7f0000000000000000000000000000000000000000000000000000000000000000876040518363ffffffff1660e01b8152600401611b7f929190615649565b602060405180830381600087803b158015611b9957600080fd5b505af1158015611bad573d6000803e3d6000fd5b505050506040513d601f19601f82011682018060405250810190611bd1919061569e565b905080611c13576040517f08c379a0000000000000000000000000000000000000000000000000000000008152600401611c0a90615cc5565b60405180910390fd5b8185877fdf4f9775f935591b5bdb8939150c67d9bb433821a8b1e65ec53eb44674e16ad660405160405180910390a4611c4b86614517565b611c5457600080fd5b6001935050505092915050565b7f000000000000000000000000000000000000000000000000000000000000000081565b7f000000000000000000000000000000000000000000000000000000000000000081565b7f000000000000000000000000000000000000000000000000000000000000000081565b600080600480549050118015611d1857506000600560006004600081548110611cf957611cf86158d9565b5b9060005260206000200154815260200190815260200160002060010154115b611d2157600080fd5b7f000000000000000000000000000000000000000000000000000000000000000073ffffffffffffffffffffffffffffffffffffffff163373ffffffffffffffffffffffffffffffffffffffff1614611daf576040517f08c379a0000000000000000000000000000000000000000000000000000000008152600401611da690615b2a565b60405180910390fd5b60006004600081548110611dc657611dc56158d9565b5b90600052602060002001549050611ddc81612f47565b5050600060056000838152602001908152602001600020600201546005600084815260200190815260200160002060010154611e189190615777565b905060006005600084815260200190815260200160002060050160009054906101000a900473ffffffffffffffffffffffffffffffffffffffff1673ffffffffffffffffffffffffffffffffffffffff166323b872dd3330856040518463ffffffff1660e01b8152600401611e8f93929190615ce5565b602060405180830381600087803b158015611ea957600080fd5b505af1158015611ebd573d6000803e3d6000fd5b505050506040513d601f19601f82011682018060405250810190611ee1919061569e565b905080611f23576040517f08c379a0000000000000000000000000000000000000000000000000000000008152600401611f1a90615d68565b60405180910390fd5b611f2d838361396a565b50611f3783613fcf565b611f4057600080fd5b6001935050505090565b6000600a600b811115611f6057611f5f615190565b5b600160009054906101000a900460ff16600b811115611f8257611f81615190565b5b1415612093577f000000000000000000000000000000000000000000000000000000000000000073ffffffffffffffffffffffffffffffffffffffff1663880cdc317f00000000000000000000000000000000000000000000000000000000000000006040518263ffffffff1660e01b8152600401612001919061547a565b602060405180830381600087803b15801561201b57600080fd5b505af115801561202f573d6000803e3d6000fd5b505050506040513d601f19601f82011682018060405250810190612053919061569e565b612092576040517f08c379a000000000000000000000000000000000000000000000000000000000815260040161208990615dd4565b60405180910390fd5b5b6004600b8111156120a7576120a6615190565b5b600160009054906101000a900460ff16600b8111156120c9576120c8615190565b5b14156121da577f000000000000000000000000000000000000000000000000000000000000000073ffffffffffffffffffffffffffffffffffffffff1663880cdc317f00000000000000000000000000000000000000000000000000000000000000006040518263ffffffff1660e01b8152600401612148919061547a565b602060405180830381600087803b15801561216257600080fd5b505af1158015612176573d6000803e3d6000fd5b505050506040513d601f19601f8201168201806040525081019061219a919061569e565b6121d9576040517f08c379a00000000000000000000000000000000000000000000000000000000081526004016121d090615dd4565b60405180910390fd5b5b6001905090565b600481815481106121f157600080fd5b906000526020600020016000915090505481565b600080600480549050905060005b8181101561226957600061224460048381548110612234576122336158d9565b5b9060005260206000200154612f47565b91505080846122539190615777565b935050808061226190615df4565b915050612213565b505090565b60056020528060005260406000206000915090508060000154908060010154908060020154908060030154908060040160009054906101000a900460ff16908060040160019054906101000a900473ffffffffffffffffffffffffffffffffffffffff16908060050160009054906101000a900473ffffffffffffffffffffffffffffffffffffffff16905087565b6000807f000000000000000000000000000000000000000000000000000000000000000073ffffffffffffffffffffffffffffffffffffffff1663c2ae60d8846040518263ffffffff1660e01b8152600401612359919061547a565b60806040518083038186803b15801561237157600080fd5b505afa158015612385573d6000803e3d6000fd5b505050506040513d601f19601f820116820180604052508101906123a99190615ed6565b935050925050600060e01b7bffffffffffffffffffffffffffffffffffffffffffffffffffffffff1916817bffffffffffffffffffffffffffffffffffffffffffffffffffffffff19161415612434576040517f08c379a000000000000000000000000000000000000000000000000000000000815260040161242b90615f89565b60405180910390fd5b6002600b81111561244857612447615190565b5b600160009054906101000a900460ff16600b81111561246a57612469615190565b5b14801561249d57507f000000000000000000000000000000000000000000000000000000000000000060ff168260ff1614155b15612575577f000000000000000000000000000000000000000000000000000000000000000073ffffffffffffffffffffffffffffffffffffffff166312879a52847f00000000000000000000000000000000000000000000000000000000000000006040518363ffffffff1660e01b815260040161251d929190615fa9565b602060405180830381600087803b15801561253757600080fd5b505af115801561254b573d6000803e3d6000fd5b505050506040513d601f19601f8201168201806040525081019061256f919061569e565b506126b3565b606460ff168260ff16141580156125fd57506005600b81111561259b5761259a615190565b5b600160009054906101000a900460ff16600b8111156125bd576125bc615190565b5b14806125fc57506004600b8111156125d8576125d7615190565b5b600160009054906101000a900460ff16600b8111156125fa576125f9615190565b5b145b5b156126b2577f000000000000000000000000000000000000000000000000000000000000000073ffffffffffffffffffffffffffffffffffffffff166312879a528460646040518363ffffffff1660e01b815260040161265e929190615fa9565b602060405180830381600087803b15801561267857600080fd5b505af115801561268c573d6000803e3d6000fd5b505050506040513d601f19601f820116820180604052508101906126b0919061569e565b505b5b505050565b60007f00000000000000000000000000000000000000000000000000000000000000007f00000000000000000000000000000000000000000000000000000000000000008173ffffffffffffffffffffffffffffffffffffffff163373ffffffffffffffffffffffffffffffffffffffff16148061276157508073ffffffffffffffffffffffffffffffffffffffff163373ffffffffffffffffffffffffffffffffffffffff16145b6127a0576040517f08c379a00000000000000000000000000000000000000000000000000000000081526004016127979061601e565b60405180910390fd5b60006127ac8383614622565b905060008036836040516020016127c5939291906160c5565b60405160208183030381529060405280519060200120905060008082815260200190815260200160002060009054906101000a900460ff1661289a576000803633604051602001612818939291906160c5565b604051602081830303815290604052805190602001209050600160008083815260200190815260200160002060006101000a81548160ff0219169083151502179055507f2d8be207af2fa24175b649fe62755a7b86fb6cb82c6efbd96de7447196d652ff8160405161288a91906154d1565b60405180910390a150505061296e565b60008082815260200190815260200160002060006101000a81549060ff02191690557f000000000000000000000000000000000000000000000000000000000000000073ffffffffffffffffffffffffffffffffffffffff1663b8bf1c0988886040518363ffffffff1660e01b8152600401612917929190616200565b602060405180830381600087803b15801561293157600080fd5b505af1158015612945573d6000803e3d6000fd5b505050506040513d601f19601f82011682018060405250810190612969919061569e565b945050505b505092915050565b6000806000612983614667565b9150915080826129939190615777565b9250505090565b6000806004805490501180156129e5575060006005600060046000815481106129c6576129c56158d9565b5b9060005260206000200154815260200190815260200160002060010154115b6129ee57600080fd5b60006004600081548110612a0557612a046158d9565b5b90600052602060002001549050612a1b81612f47565b505060056000828152602001908152602001600020600201546005600083815260200190815260200160002060010154612a559190615777565b831115612a6157600080fd5b60006005600083815260200190815260200160002060050160009054906101000a900473ffffffffffffffffffffffffffffffffffffffff1673ffffffffffffffffffffffffffffffffffffffff166323b872dd3330876040518463ffffffff1660e01b8152600401612ad693929190615ce5565b602060405180830381600087803b158015612af057600080fd5b505af1158015612b04573d6000803e3d6000fd5b505050506040513d601f19601f82011682018060405250810190612b28919061569e565b905080612b6a576040517f08c379a0000000000000000000000000000000000000000000000000000000008152600401612b6190616275565b60405180910390fd5b612b74828561396a565b50600192505050919050565b7f000000000000000000000000000000000000000000000000000000000000000081565b60006002600b811115612bba57612bb9615190565b5b600160009054906101000a900460ff16600b811115612bdc57612bdb615190565b5b14612c1c576040517f08c379a0000000000000000000000000000000000000000000000000000000008152600401612c1390615abe565b60405180910390fd5b817f00000000000000000000000000000000000000000000000000000000000000008173ffffffffffffffffffffffffffffffffffffffff163373ffffffffffffffffffffffffffffffffffffffff161480612ca357508073ffffffffffffffffffffffffffffffffffffffff163373ffffffffffffffffffffffffffffffffffffffff16145b612ce2576040517f08c379a0000000000000000000000000000000000000000000000000000000008152600401612cd99061601e565b60405180910390fd5b6000612cee8383614622565b90506000803683604051602001612d07939291906160c5565b60405160208183030381529060405280519060200120905060008082815260200190815260200160002060009054906101000a900460ff16612ddc576000803633604051602001612d5a939291906160c5565b604051602081830303815290604052805190602001209050600160008083815260200190815260200160002060006101000a81548160ff0219169083151502179055507f2d8be207af2fa24175b649fe62755a7b86fb6cb82c6efbd96de7447196d652ff81604051612dcc91906154d1565b60405180910390a1505050612f14565b60008082815260200190815260200160002060006101000a81549060ff021916905560008773ffffffffffffffffffffffffffffffffffffffff166323b872dd88308c6040518463ffffffff1660e01b8152600401612e3d93929190615ce5565b602060405180830381600087803b158015612e5757600080fd5b505af1158015612e6b573d6000803e3d6000fd5b505050506040513d601f19601f82011682018060405250810190612e8f919061569e565b905080612ed1576040517f08c379a0000000000000000000000000000000000000000000000000000000008152600401612ec8906162e1565b60405180910390fd5b6000612ee0888a8c600061497b565b9050600481908060018154018082558091505060019003906000526020600020016000909190919091505560019650505050505b50509392505050565b60025481565b7f000000000000000000000000000000000000000000000000000000000000000081565b6000806000600560008581526020019081526020016000206040518060e0016040529081600082015481526020016001820154815260200160028201548152602001600382015481526020016004820160009054906101000a900460ff1660ff1660ff1681526020016004820160019054906101000a900473ffffffffffffffffffffffffffffffffffffffff1673ffffffffffffffffffffffffffffffffffffffff1673ffffffffffffffffffffffffffffffffffffffff1681526020016005820160009054906101000a900473ffffffffffffffffffffffffffffffffffffffff1673ffffffffffffffffffffffffffffffffffffffff1673ffffffffffffffffffffffffffffffffffffffff168152505090507f000000000000000000000000000000000000000000000000000000000000000073ffffffffffffffffffffffffffffffffffffffff1663c619835285836020015184600001516040518463ffffffff1660e01b81526004016130c293929190616301565b60206040518083038186803b1580156130da57600080fd5b505afa1580156130ee573d6000803e3d6000fd5b505050506040513d601f19601f820116820180604052508101906131129190615be0565b925082816040018181516131269190615777565b9150818152505073__$32ba42df846b62dd60aa3eb92b7287f6a6$__63cae8b7127f00000000000000000000000000000000000000000000000000000000000000008360c001518685608001516040518563ffffffff1660e01b81526004016131929493929190615b86565b60206040518083038186803b1580156131aa57600080fd5b505af41580156131be573d6000803e3d6000fd5b505050506040513d601f19601f820116820180604052508101906131e29190615be0565b915081600360008282546131f69190615777565b925050819055508183857f0b320ff38540b6525aa1a9c5356993dee599155c20cce3cba7ad5f9edc20706560405160405180910390a480600560008681526020019081526020016000206000820151816000015560208201518160010155604082015181600201556060820151816003015560808201518160040160006101000a81548160ff021916908360ff16021790555060a08201518160040160016101000a81548173ffffffffffffffffffffffffffffffffffffffff021916908373ffffffffffffffffffffffffffffffffffffffff16021790555060c08201518160050160006101000a81548173ffffffffffffffffffffffffffffffffffffffff021916908373ffffffffffffffffffffffffffffffffffffffff16021790555090505050915091565b6000808573ffffffffffffffffffffffffffffffffffffffff166370a08231306040518263ffffffff1660e01b815260040161335c919061547a565b60206040518083038186803b15801561337457600080fd5b505afa158015613388573d6000803e3d6000fd5b505050506040513d601f19601f820116820180604052508101906133ac9190615be0565b905060008573ffffffffffffffffffffffffffffffffffffffff166370a08231306040518263ffffffff1660e01b81526004016133e9919061547a565b60206040518083038186803b15801561340157600080fd5b505afa158015613415573d6000803e3d6000fd5b505050506040513d601f19601f820116820180604052508101906134399190615be0565b905060007f000000000000000000000000000000000000000000000000000000000000000073ffffffffffffffffffffffffffffffffffffffff1663f9b0631e896040518263ffffffff1660e01b8152600401613496919061547a565b602060405180830381600087803b1580156134b057600080fd5b505af11580156134c4573d6000803e3d6000fd5b505050506040513d601f19601f820116820180604052508101906134e89190615be0565b9050600073ffffffffffffffffffffffffffffffffffffffff168873ffffffffffffffffffffffffffffffffffffffff1614156135f55760007f000000000000000000000000000000000000000000000000000000000000000073ffffffffffffffffffffffffffffffffffffffff16828888604051613569929190616338565b60006040518083038185875af1925050503d80600081146135a6576040519150601f19603f3d011682016040523d82523d6000602084013e6135ab565b606091505b50509050806135ef576040517f08c379a00000000000000000000000000000000000000000000000000000000081526004016135e69061639d565b60405180910390fd5b50613774565b8773ffffffffffffffffffffffffffffffffffffffff1663095ea7b37f0000000000000000000000000000000000000000000000000000000000000000836040518363ffffffff1660e01b8152600401613650929190615649565b602060405180830381600087803b15801561366a57600080fd5b505af115801561367e573d6000803e3d6000fd5b505050506040513d601f19601f820116820180604052508101906136a2919061569e565b5060007f000000000000000000000000000000000000000000000000000000000000000073ffffffffffffffffffffffffffffffffffffffff1687876040516136ec929190616338565b6000604051808303816000865af19150503d8060008114613729576040519150601f19603f3d011682016040523d82523d6000602084013e61372e565b606091505b5050905080613772576040517f08c379a00000000000000000000000000000000000000000000000000000000081526004016137699061639d565b60405180910390fd5b505b60008773ffffffffffffffffffffffffffffffffffffffff166370a08231306040518263ffffffff1660e01b81526004016137af919061547a565b60206040518083038186803b1580156137c757600080fd5b505afa1580156137db573d6000803e3d6000fd5b505050506040513d601f19601f820116820180604052508101906137ff9190615be0565b9050828161380d91906157cd565b9450848873ffffffffffffffffffffffffffffffffffffffff168a73ffffffffffffffffffffffffffffffffffffffff167f9c7e3719be13960547a8b4b08bb9a149591882ce5bdd3f07331d27590ab41e618560405161386d919061509d565b60405180910390a4838973ffffffffffffffffffffffffffffffffffffffff166370a08231306040518263ffffffff1660e01b81526004016138af919061547a565b60206040518083038186803b1580156138c757600080fd5b505afa1580156138db573d6000803e3d6000fd5b505050506040513d601f19601f820116820180604052508101906138ff9190615be0565b61390991906157cd565b600660008b73ffffffffffffffffffffffffffffffffffffffff1673ffffffffffffffffffffffffffffffffffffffff16815260200190815260200160002060008282546139579190615777565b9250508190555050505050949350505050565b600080600560008581526020019081526020016000206040518060e0016040529081600082015481526020016001820154815260200160028201548152602001600382015481526020016004820160009054906101000a900460ff1660ff1660ff1681526020016004820160019054906101000a900473ffffffffffffffffffffffffffffffffffffffff1673ffffffffffffffffffffffffffffffffffffffff1673ffffffffffffffffffffffffffffffffffffffff1681526020016005820160009054906101000a900473ffffffffffffffffffffffffffffffffffffffff1673ffffffffffffffffffffffffffffffffffffffff1673ffffffffffffffffffffffffffffffffffffffff1681525050905080604001518311613bc2578281604001818151613a9b91906157cd565b91508181525050600073__$32ba42df846b62dd60aa3eb92b7287f6a6$__63cae8b7127f00000000000000000000000000000000000000000000000000000000000000008460c001518786608001516040518563ffffffff1660e01b8152600401613b099493929190615b86565b60206040518083038186803b158015613b2157600080fd5b505af4158015613b35573d6000803e3d6000fd5b505050506040513d601f19601f82011682018060405250810190613b599190615be0565b90508060036000828254613b6d91906157cd565b925050819055508382606001818151613b869190615777565b915081815250508084867f493b5242b5e71fbfca59ceaffcd60d4b1f97185a1c7ea80d0bdc2c57ff35346960405160405180910390a450613ed6565b6000816040015184613bd491906157cd565b9050600073__$32ba42df846b62dd60aa3eb92b7287f6a6$__63cae8b7127f00000000000000000000000000000000000000000000000000000000000000008560c00151866040015187608001516040518563ffffffff1660e01b8152600401613c419493929190615b86565b60206040518083038186803b158015613c5957600080fd5b505af4158015613c6d573d6000803e3d6000fd5b505050506040513d601f19601f82011682018060405250810190613c919190615be0565b9050600073__$32ba42df846b62dd60aa3eb92b7287f6a6$__63cae8b7127f00000000000000000000000000000000000000000000000000000000000000008660c001518688608001516040518563ffffffff1660e01b8152600401613cfa9493929190615b86565b60206040518083038186803b158015613d1257600080fd5b505af4158015613d26573d6000803e3d6000fd5b505050506040513d601f19601f82011682018060405250810190613d4a9190615be0565b9050818460400151887f493b5242b5e71fbfca59ceaffcd60d4b1f97185a1c7ea80d0bdc2c57ff35346960405160405180910390a48083887ff81347d4d280ec95c13f366f2f78184a5dcc5757808a397ee829ae79df53390460405160405180910390a48160036000828254613dc091906157cd565b925050819055508060026000828254613dd991906157cd565b925050819055508284602001818151613df291906157cd565b91508181525050836040015184606001818151613e0f9190615777565b915081815250506000846040018181525050600084602001511415613ed25773__$32ba42df846b62dd60aa3eb92b7287f6a6$__635ee9739660046040518263ffffffff1660e01b8152600401613e6691906164cb565b60006040518083038186803b158015613e7e57600080fd5b505af4158015613e92573d6000803e3d6000fd5b505050506040513d6000823e3d601f19601f82011682018060405250810190613ebb9190616651565b60049080519060200190613ed0929190614f0f565b505b5050505b80600560008681526020019081526020016000206000820151816000015560208201518160010155604082015181600201556060820151816003015560808201518160040160006101000a81548160ff021916908360ff16021790555060a08201518160040160016101000a81548173ffffffffffffffffffffffffffffffffffffffff021916908373ffffffffffffffffffffffffffffffffffffffff16021790555060c08201518160050160006101000a81548173ffffffffffffffffffffffffffffffffffffffff021916908373ffffffffffffffffffffffffffffffffffffffff160217905550905050600191505092915050565b6000806005600084815260200190815260200160002060020154600560008581526020019081526020016000206001015461400a9190615777565b1461404a576040517f08c379a0000000000000000000000000000000000000000000000000000000008152600401614041906166e6565b60405180910390fd5b600560008381526020019081526020016000206000808201600090556001820160009055600282016000905560038201600090556004820160006101000a81549060ff02191690556004820160016101000a81549073ffffffffffffffffffffffffffffffffffffffff02191690556005820160006101000a81549073ffffffffffffffffffffffffffffffffffffffff0219169055505073__$32ba42df846b62dd60aa3eb92b7287f6a6$__634706a0f36004846040518363ffffffff1660e01b815260040161411c929190616715565b60006040518083038186803b15801561413457600080fd5b505af4158015614148573d6000803e3d6000fd5b505050506040513d6000823e3d601f19601f820116820180604052508101906141719190616651565b60049080519060200190614186929190614f0f565b50600060048054905014156141c157600a600160006101000a81548160ff0219169083600b8111156141bb576141ba615190565b5b02179055505b817fb030856cac6c0a7c8fbc3d2d0bc055a3977935b03d68f17a6e7ce9c132dd75dd60405160405180910390a260019050919050565b600080614202614e75565b90506002600b81111561421857614217615190565b5b81600b81111561422b5761422a615190565b5b146142395780915050614445565b7f0000000000000000000000000000000000000000000000000000000000000000421015801561426b57506000600254115b1561443f576000600480549050905060005b818110156144335760006004828154811061429b5761429a6158d9565b5b906000526020600020015490506000600560008381526020019081526020016000206002015460056000848152602001908152602001600020600101546142e29190615777565b9050600073__$32ba42df846b62dd60aa3eb92b7287f6a6$__63cae8b7127f00000000000000000000000000000000000000000000000000000000000000006005600087815260200190815260200160002060050160009054906101000a900473ffffffffffffffffffffffffffffffffffffffff16856005600089815260200190815260200160002060040160009054906101000a900460ff166040518563ffffffff1660e01b815260040161439c9493929190615b86565b60206040518083038186803b1580156143b457600080fd5b505af41580156143c8573d6000803e3d6000fd5b505050506040513d601f19601f820116820180604052508101906143ec9190615be0565b90508082847f1dd6ce01249599c62b4995559e456cfee4f9d2d3c5a556344fe191b4e7c13a0360405160405180910390a4505050808061442b90615df4565b91505061427d565b50600492505050614445565b60029150505b90565b600081600b81111561445d5761445c615190565b5b600160009054906101000a900460ff16600b81111561447f5761447e615190565b5b141561449c57600160009054906101000a900460ff169050614509565b81600160006101000a81548160ff0219169083600b8111156144c1576144c0615190565b5b021790555081600b8111156144d9576144d8615190565b5b7f111617786a4a1f5fb27b9fde0dc3f64f94edda8039b1ced53fc47b602b80603260405160405180910390a28190505b919050565b60009392505050565b60008060048054905090506000805b8281101561461557600060048281548110614544576145436158d9565b5b906000526020600020015490508086146145855760006005600083815260200190815260200160002060010154111561457d5750614602565b819250614600565b600083141561459b57600194505050505061461d565b600483815481106145af576145ae6158d9565b5b9060005260206000200154600483815481106145ce576145cd6158d9565b5b906000526020600020018190555085600484815481106145f1576145f06158d9565b5b90600052602060002001819055505b505b808061460d90615df4565b915050614526565b506001925050505b919050565b60008273ffffffffffffffffffffffffffffffffffffffff163373ffffffffffffffffffffffffffffffffffffffff161461465d578261465f565b815b905092915050565b60008060006004805490509050600081141561468a576000809250925050614977565b6000614694614f5c565b5b6000831115614965578260019003925060056000600485815481106146bd576146bc6158d9565b5b906000526020600020015481526020019081526020016000206040518060e0016040529081600082015481526020016001820154815260200160028201548152602001600382015481526020016004820160009054906101000a900460ff1660ff1660ff1681526020016004820160019054906101000a900473ffffffffffffffffffffffffffffffffffffffff1673ffffffffffffffffffffffffffffffffffffffff1673ffffffffffffffffffffffffffffffffffffffff1681526020016005820160009054906101000a900473ffffffffffffffffffffffffffffffffffffffff1673ffffffffffffffffffffffffffffffffffffffff1673ffffffffffffffffffffffffffffffffffffffff1681525050905073__$32ba42df846b62dd60aa3eb92b7287f6a6$__63cae8b7127f00000000000000000000000000000000000000000000000000000000000000008360c00151846020015185608001516040518563ffffffff1660e01b815260040161483d9493929190615b86565b60206040518083038186803b15801561485557600080fd5b505af4158015614869573d6000803e3d6000fd5b505050506040513d601f19601f8201168201806040525081019061488d9190615be0565b856148989190615777565b945073__$32ba42df846b62dd60aa3eb92b7287f6a6$__63cae8b7127f00000000000000000000000000000000000000000000000000000000000000008360c00151846040015185608001516040518563ffffffff1660e01b81526004016149039493929190615b86565b60206040518083038186803b15801561491b57600080fd5b505af415801561492f573d6000803e3d6000fd5b505050506040513d601f19601f820116820180604052508101906149539190615be0565b8461495e9190615777565b9350614695565b84600281905550836003819055505050505b9091565b6000807f000000000000000000000000000000000000000000000000000000000000000073ffffffffffffffffffffffffffffffffffffffff16636849a3ba866040518263ffffffff1660e01b81526004016149d7919061547a565b602060405180830381600087803b1580156149f157600080fd5b505af1158015614a05573d6000803e3d6000fd5b505050506040513d601f19601f82011682018060405250810190614a29919061677b565b13614a69576040517f08c379a0000000000000000000000000000000000000000000000000000000008152600401614a60906167f4565b60405180910390fd5b73__$32ba42df846b62dd60aa3eb92b7287f6a6$__63eb21469a3087876040518463ffffffff1660e01b8152600401614aa493929190616814565b60206040518083038186803b158015614abc57600080fd5b505af4158015614ad0573d6000803e3d6000fd5b505050506040513d601f19601f82011682018060405250810190614af4919061684b565b9050600073ffffffffffffffffffffffffffffffffffffffff166005600083815260200190815260200160002060040160019054906101000a900473ffffffffffffffffffffffffffffffffffffffff1673ffffffffffffffffffffffffffffffffffffffff1614614b9b576040517f08c379a0000000000000000000000000000000000000000000000000000000008152600401614b92906168c4565b60405180910390fd5b6000808573ffffffffffffffffffffffffffffffffffffffff166040516024016040516020818303038152906040527f313ce567000000000000000000000000000000000000000000000000000000007bffffffffffffffffffffffffffffffffffffffffffffffffffffffff19166020820180517bffffffffffffffffffffffffffffffffffffffffffffffffffffffff8381831617835250505050604051614c459190616953565b6000604051808303816000865af19150503d8060008114614c82576040519150601f19603f3d011682016040523d82523d6000602084013e614c87565b606091505b509150915060008215614cad5781806020019051810190614ca8919061696a565b614cb0565b60125b90506040518060e0016040528087815260200186815260200160008152602001600081526020018260ff1681526020018973ffffffffffffffffffffffffffffffffffffffff1681526020018873ffffffffffffffffffffffffffffffffffffffff16815250600560008681526020019081526020016000206000820151816000015560208201518160010155604082015181600201556060820151816003015560808201518160040160006101000a81548160ff021916908360ff16021790555060a08201518160040160016101000a81548173ffffffffffffffffffffffffffffffffffffffff021916908373ffffffffffffffffffffffffffffffffffffffff16021790555060c08201518160050160006101000a81548173ffffffffffffffffffffffffffffffffffffffff021916908373ffffffffffffffffffffffffffffffffffffffff160217905550905050858773ffffffffffffffffffffffffffffffffffffffff168973ffffffffffffffffffffffffffffffffffffffff167f2baafc50cc7a4143f1d78d7c2b1b2fa21c80c3b9f81d78f0b4eedde1b5e34cf76000604051614e6291906169d2565b60405180910390a4505050949350505050565b6000600a600b811115614e8b57614e8a615190565b5b600160009054906101000a900460ff16600b811115614ead57614eac615190565b5b1480614eeb5750600b80811115614ec757614ec6615190565b5b600160009054906101000a900460ff16600b811115614ee957614ee8615190565b5b145b15614f0757600160009054906101000a900460ff169050614f0c565b600290505b90565b828054828255906000526020600020908101928215614f4b579160200282015b82811115614f4a578251825591602001919060010190614f2f565b5b509050614f589190614fc8565b5090565b6040518060e0016040528060008152602001600081526020016000815260200160008152602001600060ff168152602001600073ffffffffffffffffffffffffffffffffffffffff168152602001600073ffffffffffffffffffffffffffffffffffffffff1681525090565b5b80821115614fe1576000816000905550600101614fc9565b5090565b6000604051905090565b600080fd5b600080fd5b600073ffffffffffffffffffffffffffffffffffffffff82169050919050565b600061502482614ff9565b9050919050565b61503481615019565b811461503f57600080fd5b50565b6000813590506150518161502b565b92915050565b60006020828403121561506d5761506c614fef565b5b600061507b84828501615042565b91505092915050565b6000819050919050565b61509781615084565b82525050565b60006020820190506150b2600083018461508e565b92915050565b6000819050919050565b6150cb816150b8565b81146150d657600080fd5b50565b6000813590506150e8816150c2565b92915050565b6150f781615084565b811461510257600080fd5b50565b600081359050615114816150ee565b92915050565b6000806040838503121561513157615130614fef565b5b600061513f858286016150d9565b925050602061515085828601615105565b9150509250929050565b60008115159050919050565b61516f8161515a565b82525050565b600060208201905061518a6000830184615166565b92915050565b7f4e487b7100000000000000000000000000000000000000000000000000000000600052602160045260246000fd5b600c81106151d0576151cf615190565b5b50565b60008190506151e1826151bf565b919050565b60006151f1826151d3565b9050919050565b615201816151e6565b82525050565b600060208201905061521c60008301846151f8565b92915050565b600080fd5b600080fd5b600080fd5b60008083601f84011261524757615246615222565b5b8235905067ffffffffffffffff81111561526457615263615227565b5b6020830191508360018202830111156152805761527f61522c565b5b9250929050565b6000806000604084860312156152a05761529f614fef565b5b60006152ae86828701615042565b935050602084013567ffffffffffffffff8111156152cf576152ce614ff4565b5b6152db86828701615231565b92509250509250925092565b6000602082840312156152fd576152fc614fef565b5b600061530b848285016150d9565b91505092915050565b60008060006060848603121561532d5761532c614fef565b5b600061533b868287016150d9565b935050602061534c86828701615105565b925050604061535d86828701615042565b9150509250925092565b6000819050919050565b600061538c61538761538284614ff9565b615367565b614ff9565b9050919050565b600061539e82615371565b9050919050565b60006153b082615393565b9050919050565b6153c0816153a5565b82525050565b60006020820190506153db60008301846153b7565b92915050565b60006153ec82615371565b9050919050565b60006153fe826153e1565b9050919050565b61540e816153f3565b82525050565b60006020820190506154296000830184615405565b92915050565b600061543a826153e1565b9050919050565b61544a8161542f565b82525050565b60006020820190506154656000830184615441565b92915050565b61547481615019565b82525050565b600060208201905061548f600083018461546b565b92915050565b6000602082840312156154ab576154aa614fef565b5b60006154b984828501615105565b91505092915050565b6154cb816150b8565b82525050565b60006020820190506154e660008301846154c2565b92915050565b600060ff82169050919050565b615502816154ec565b82525050565b600060e08201905061551d600083018a61508e565b61552a602083018961508e565b615537604083018861508e565b615544606083018761508e565b61555160808301866154f9565b61555e60a083018561546b565b61556b60c083018461546b565b98975050505050505050565b600080fd5b60006080828403121561559257615591615577565b5b81905092915050565b60008060a083850312156155b2576155b1614fef565b5b60006155c085828601615042565b92505060206155d18582860161557c565b9150509250929050565b60006020820190506155f060008301846154f9565b92915050565b60008060006060848603121561560f5761560e614fef565b5b600061561d86828701615105565b935050602061562e86828701615042565b925050604061563f86828701615042565b9150509250925092565b600060408201905061565e600083018561546b565b61566b602083018461508e565b9392505050565b61567b8161515a565b811461568657600080fd5b50565b60008151905061569881615672565b92915050565b6000602082840312156156b4576156b3614fef565b5b60006156c284828501615689565b91505092915050565b600082825260208201905092915050565b7f4c6f616e3a206f6e6c79206c656e6465722063616e2077697468647261770000600082015250565b6000615712601e836156cb565b915061571d826156dc565b602082019050919050565b6000602082019050818103600083015261574181615705565b9050919050565b7f4e487b7100000000000000000000000000000000000000000000000000000000600052601160045260246000fd5b600061578282615084565b915061578d83615084565b9250827fffffffffffffffffffffffffffffffffffffffffffffffffffffffffffffffff038211156157c2576157c1615748565b5b828201905092915050565b60006157d882615084565b91506157e383615084565b9250828210156157f6576157f5615748565b5b828203905092915050565b7f4c6f616e3a206e6f206c69717569646974790000000000000000000000000000600082015250565b60006158376012836156cb565b915061584282615801565b602082019050919050565b600060208201905081810360008301526158668161582a565b9050919050565b7f4c6f616e3a207769746864726177206661696c65640000000000000000000000600082015250565b60006158a36015836156cb565b91506158ae8261586d565b602082019050919050565b600060208201905081810360008301526158d281615896565b9050919050565b7f4e487b7100000000000000000000000000000000000000000000000000000000600052603260045260246000fd5b7f4c6f616e3a206d73672e73656e646572206d75737420626520746865206c656e60008201527f646572206f7220626f72726f7765720000000000000000000000000000000000602082015250565b6000615964602f836156cb565b915061596f82615908565b604082019050919050565b6000602082019050818103600083015261599381615957565b9050919050565b7f4c6f616e3a206f6e6c7920617262697465720000000000000000000000000000600082015250565b60006159d06012836156cb565b91506159db8261599a565b602082019050919050565b600060208201905081810360008301526159ff816159c3565b9050919050565b7f4c6f616e3a206e6f74206c6971756964617461626c6500000000000000000000600082015250565b6000615a3c6016836156cb565b9150615a4782615a06565b602082019050919050565b60006020820190508181036000830152615a6b81615a2f565b9050919050565b7f4c6f616e3a206e6f206f70000000000000000000000000000000000000000000600082015250565b6000615aa8600b836156cb565b9150615ab382615a72565b602082019050919050565b60006020820190508181036000830152615ad781615a9b565b9050919050565b7f4c6f616e3a206f6e6c7920626f72726f77657200000000000000000000000000600082015250565b6000615b146013836156cb565b9150615b1f82615ade565b602082019050919050565b60006020820190508181036000830152615b4381615b07565b9050919050565b615b538161542f565b82525050565b615b6281615019565b82525050565b615b7181615084565b82525050565b615b80816154ec565b82525050565b6000608082019050615b9b6000830187615b4a565b615ba86020830186615b59565b615bb56040830185615b68565b615bc26060830184615b77565b95945050505050565b600081519050615bda816150ee565b92915050565b600060208284031215615bf657615bf5614fef565b5b6000615c0484828501615bcb565b91505092915050565b7f4c6f616e3a2063616e7420626f72726f77000000000000000000000000000000600082015250565b6000615c436011836156cb565b9150615c4e82615c0d565b602082019050919050565b60006020820190508181036000830152615c7281615c36565b9050919050565b7f4c6f616e3a20626f72726f77206661696c656400000000000000000000000000600082015250565b6000615caf6013836156cb565b9150615cba82615c79565b602082019050919050565b60006020820190508181036000830152615cde81615ca2565b9050919050565b6000606082019050615cfa600083018661546b565b615d07602083018561546b565b615d14604083018461508e565b949350505050565b7f4c6f616e3a206465706f736974206661696c6564000000000000000000000000600082015250565b6000615d526014836156cb565b9150615d5d82615d1c565b602082019050919050565b60006020820190508181036000830152615d8181615d45565b9050919050565b7f537069676f74436e736d723a2063616e742072656c6561736520737069676f74600082015250565b6000615dbe6020836156cb565b9150615dc982615d88565b602082019050919050565b60006020820190508181036000830152615ded81615db1565b9050919050565b6000615dff82615084565b91507fffffffffffffffffffffffffffffffffffffffffffffffffffffffffffffffff821415615e3257615e31615748565b5b600182019050919050565b600081519050615e4c8161502b565b92915050565b615e5b816154ec565b8114615e6657600080fd5b50565b600081519050615e7881615e52565b92915050565b60007fffffffff0000000000000000000000000000000000000000000000000000000082169050919050565b615eb381615e7e565b8114615ebe57600080fd5b50565b600081519050615ed081615eaa565b92915050565b60008060008060808587031215615ef057615eef614fef565b5b6000615efe87828801615e3d565b9450506020615f0f87828801615e69565b9350506040615f2087828801615ec1565b9250506060615f3187828801615ec1565b91505092959194509250565b7f537067744c6f616e3a206e6f20737069676f7400000000000000000000000000600082015250565b6000615f736013836156cb565b9150615f7e82615f3d565b602082019050919050565b60006020820190508181036000830152615fa281615f66565b9050919050565b6000604082019050615fbe600083018561546b565b615fcb60208301846154f9565b9392505050565b7f4d75737420626520617574686f72697a65642061646472657373000000000000600082015250565b6000616008601a836156cb565b915061601382615fd2565b602082019050919050565b6000602082019050818103600083015261603781615ffb565b9050919050565b600081905092915050565b82818337600083830152505050565b6000616064838561603e565b9350616071838584616049565b82840190509392505050565b60008160601b9050919050565b60006160958261607d565b9050919050565b60006160a78261608a565b9050919050565b6160bf6160ba82615019565b61609c565b82525050565b60006160d2828587616058565b91506160de82846160ae565b601482019150819050949350505050565b60006160fe6020840184615042565b905092915050565b61610f81615019565b82525050565b60008135905061612481615e52565b92915050565b60006161396020840184616115565b905092915050565b61614a816154ec565b82525050565b60008135905061615f81615eaa565b92915050565b60006161746020840184616150565b905092915050565b61618581615e7e565b82525050565b6080820161619c60008301836160ef565b6161a96000850182616106565b506161b7602083018361612a565b6161c46020850182616141565b506161d26040830183616165565b6161df604085018261617c565b506161ed6060830183616165565b6161fa606085018261617c565b50505050565b600060a082019050616215600083018561546b565b616222602083018461618b565b9392505050565b7f4c6f616e3a206661696c65642072657061796d656e7400000000000000000000600082015250565b600061625f6016836156cb565b915061626a82616229565b602082019050919050565b6000602082019050818103600083015261628e81616252565b9050919050565b7f4c6f616e3a206e6f20746f6b656e7320746f206c656e64000000000000000000600082015250565b60006162cb6017836156cb565b91506162d682616295565b602082019050919050565b600060208201905081810360008301526162fa816162be565b9050919050565b600060608201905061631660008301866154c2565b616323602083018561508e565b616330604083018461508e565b949350505050565b6000616345828486616058565b91508190509392505050565b7f537069676f74436e736d3a207472616465206661696c65640000000000000000600082015250565b60006163876018836156cb565b915061639282616351565b602082019050919050565b600060208201905081810360008301526163b68161637a565b9050919050565b600081549050919050565b600082825260208201905092915050565b60008190508160005260206000209050919050565b6163f7816150b8565b82525050565b600061640983836163ee565b60208301905092915050565b60008160001c9050919050565b6000819050919050565b600061643f61643a83616415565b616422565b9050919050565b6000616452825461642c565b9050919050565b6000600182019050919050565b6000616471826163bd565b61647b81856163c8565b9350616486836163d9565b8060005b838110156164be5761649b82616446565b6164a588826163fd565b97506164b083616459565b92505060018101905061648a565b5085935050505092915050565b600060208201905081810360008301526164e58184616466565b905092915050565b6000601f19601f8301169050919050565b7f4e487b7100000000000000000000000000000000000000000000000000000000600052604160045260246000fd5b616536826164ed565b810181811067ffffffffffffffff82111715616555576165546164fe565b5b80604052505050565b6000616568614fe5565b9050616574828261652d565b919050565b600067ffffffffffffffff821115616594576165936164fe565b5b602082029050602081019050919050565b6000815190506165b4816150c2565b92915050565b60006165cd6165c884616579565b61655e565b905080838252602082019050602084028301858111156165f0576165ef61522c565b5b835b81811015616619578061660588826165a5565b8452602084019350506020810190506165f2565b5050509392505050565b600082601f83011261663857616637615222565b5b81516166488482602086016165ba565b91505092915050565b60006020828403121561666757616666614fef565b5b600082015167ffffffffffffffff81111561668557616684614ff4565b5b61669184828501616623565b91505092915050565b7f4c6f616e3a20636c6f7365206661696c65642e2064656274206f776564000000600082015250565b60006166d0601d836156cb565b91506166db8261669a565b602082019050919050565b600060208201905081810360008301526166ff816166c3565b9050919050565b61670f816150b8565b82525050565b6000604082019050818103600083015261672f8185616466565b905061673e6020830184616706565b9392505050565b6000819050919050565b61675881616745565b811461676357600080fd5b50565b6000815190506167758161674f565b92915050565b60006020828403121561679157616790614fef565b5b600061679f84828501616766565b91505092915050565b7f4c6f616e3a20746f6b656e2063616e6e6f742062652076616c75656400000000600082015250565b60006167de601c836156cb565b91506167e9826167a8565b602082019050919050565b6000602082019050818103600083015261680d816167d1565b9050919050565b60006060820190506168296000830186615b59565b6168366020830185615b59565b6168436040830184615b59565b949350505050565b60006020828403121561686157616860614fef565b5b600061686f848285016165a5565b91505092915050565b7f4c6f616e3a20706f736974696f6e206578697374730000000000000000000000600082015250565b60006168ae6015836156cb565b91506168b982616878565b602082019050919050565b600060208201905081810360008301526168dd816168a1565b9050919050565b600081519050919050565b60005b8381101561690d5780820151818401526020810190506168f2565b8381111561691c576000848401525b50505050565b600061692d826168e4565b616937818561603e565b93506169478185602086016168ef565b80840191505092915050565b600061695f8284616922565b915081905092915050565b6000602082840312156169805761697f614fef565b5b600061698e84828501615e69565b91505092915050565b6000819050919050565b60006169bc6169b76169b284616997565b615367565b615084565b9050919050565b6169cc816169a1565b82525050565b60006020820190506169e760008301846169c3565b9291505056fea26469706673582212206d07ee9c9bb589da594449119c3a6950f3d4e3652226acc4730e890a771506a364736f6c6343000809003360a060405234801561001057600080fd5b503373ffffffffffffffffffffffffffffffffffffffff1660808173ffffffffffffffffffffffffffffffffffffffff16815250506080516109556100666000396000818160dc015261024f01526109556000f3fe608060405234801561001057600080fd5b50600436106100415760003560e01c8063a35108ab14610046578063c619835214610076578063dc726205146100a6575b600080fd5b610060600480360381019061005b919061055a565b6100d8565b60405161006d91906105c8565b60405180910390f35b610090600480360381019061008b9190610619565b61024b565b60405161009d919061067b565b60405180910390f35b6100c060048036038101906100bb9190610696565b6102ef565b6040516100cf939291906106d2565b60405180910390f35b60007f000000000000000000000000000000000000000000000000000000000000000073ffffffffffffffffffffffffffffffffffffffff163373ffffffffffffffffffffffffffffffffffffffff1614610168576040517f08c379a000000000000000000000000000000000000000000000000000000000815260040161015f9061078c565b60405180910390fd5b6040518060600160405280846fffffffffffffffffffffffffffffffff168152602001836fffffffffffffffffffffffffffffffff1681526020014281525060008086815260200190815260200160002060008201518160000160006101000a8154816fffffffffffffffffffffffffffffffff02191690836fffffffffffffffffffffffffffffffff16021790555060208201518160000160106101000a8154816fffffffffffffffffffffffffffffffff02191690836fffffffffffffffffffffffffffffffff160217905550604082015181600101559050509392505050565b60007f000000000000000000000000000000000000000000000000000000000000000073ffffffffffffffffffffffffffffffffffffffff163373ffffffffffffffffffffffffffffffffffffffff16146102db576040517f08c379a00000000000000000000000000000000000000000000000000000000081526004016102d29061078c565b60405180910390fd5b6102e6848484610351565b90509392505050565b60006020528060005260406000206000915090508060000160009054906101000a90046fffffffffffffffffffffffffffffffff16908060000160109054906101000a90046fffffffffffffffffffffffffffffffff16908060010154905083565b6000806000808681526020019081526020016000206040518060600160405290816000820160009054906101000a90046fffffffffffffffffffffffffffffffff166fffffffffffffffffffffffffffffffff166fffffffffffffffffffffffffffffffff1681526020016000820160109054906101000a90046fffffffffffffffffffffffffffffffff166fffffffffffffffffffffffffffffffff166fffffffffffffffffffffffffffffffff1681526020016001820154815250509050600081604001514261042391906107db565b90506127106301e03660610437919061080f565b81868661044491906107db565b84602001516fffffffffffffffffffffffffffffffff16610465919061080f565b61046f919061080f565b6104799190610898565b6127106301e0366061048b919061080f565b828785600001516fffffffffffffffffffffffffffffffff166104ae919061080f565b6104b8919061080f565b6104c29190610898565b6104cc91906108c9565b925050509392505050565b600080fd5b6000819050919050565b6104ef816104dc565b81146104fa57600080fd5b50565b60008135905061050c816104e6565b92915050565b60006fffffffffffffffffffffffffffffffff82169050919050565b61053781610512565b811461054257600080fd5b50565b6000813590506105548161052e565b92915050565b600080600060608486031215610573576105726104d7565b5b6000610581868287016104fd565b935050602061059286828701610545565b92505060406105a386828701610545565b9150509250925092565b60008115159050919050565b6105c2816105ad565b82525050565b60006020820190506105dd60008301846105b9565b92915050565b6000819050919050565b6105f6816105e3565b811461060157600080fd5b50565b600081359050610613816105ed565b92915050565b600080600060608486031215610632576106316104d7565b5b6000610640868287016104fd565b935050602061065186828701610604565b925050604061066286828701610604565b9150509250925092565b610675816105e3565b82525050565b6000602082019050610690600083018461066c565b92915050565b6000602082840312156106ac576106ab6104d7565b5b60006106ba848285016104fd565b91505092915050565b6106cc81610512565b82525050565b60006060820190506106e760008301866106c3565b6106f460208301856106c3565b610701604083018461066c565b949350505050565b600082825260208201905092915050565b7f496e74657265737452617465437265643a206f6e6c79206c6f616e20636f6e7460008201527f726163742e000000000000000000000000000000000000000000000000000000602082015250565b6000610776602583610709565b91506107818261071a565b604082019050919050565b600060208201905081810360008301526107a581610769565b9050919050565b7f4e487b7100000000000000000000000000000000000000000000000000000000600052601160045260246000fd5b60006107e6826105e3565b91506107f1836105e3565b925082821015610804576108036107ac565b5b828203905092915050565b600061081a826105e3565b9150610825836105e3565b9250817fffffffffffffffffffffffffffffffffffffffffffffffffffffffffffffffff048311821515161561085e5761085d6107ac565b5b828202905092915050565b7f4e487b7100000000000000000000000000000000000000000000000000000000600052601260045260246000fd5b60006108a3826105e3565b91506108ae836105e3565b9250826108be576108bd610869565b5b828204905092915050565b60006108d4826105e3565b91506108df836105e3565b9250827fffffffffffffffffffffffffffffffffffffffffffffffffffffffffffffffff03821115610914576109136107ac565b5b82820190509291505056fea264697066735822122080e39be33d864ea1d8142c595b8241cc74977dd55e8ec6a1be8dfe5c0b72a8d764736f6c6343000809003360806040523480156200001157600080fd5b506040516200431b3803806200431b833981810160405281019062000037919062000b65565b60016000819055508573ffffffffffffffffffffffffffffffffffffffff16600073ffffffffffffffffffffffffffffffffffffffff1614156200007a57600080fd5b8473ffffffffffffffffffffffffffffffffffffffff16600073ffffffffffffffffffffffffffffffffffffffff161415620000b557600080fd5b8373ffffffffffffffffffffffffffffffffffffffff16600073ffffffffffffffffffffffffffffffffffffffff161415620000f057600080fd5b85600460006101000a81548173ffffffffffffffffffffffffffffffffffffffff021916908373ffffffffffffffffffffffffffffffffffffffff16021790555083600560006101000a81548173ffffffffffffffffffffffffffffffffffffffff021916908373ffffffffffffffffffffffffffffffffffffffff16021790555084600660006101000a81548173ffffffffffffffffffffffffffffffffffffffff021916908373ffffffffffffffffffffffffffffffffffffffff16021790555060005b835181111562000223576200020c848281518110620001da57620001d962000c5e565b5b6020026020010151848381518110620001f857620001f762000c5e565b5b60200260200101516200028660201b60201c565b5080806200021a9062000cc6565b915050620001b6565b600090505b81518111156200027957620002628282815181106200024c576200024b62000c5e565b5b60200260200101516001620005e160201b60201c565b508080620002709062000cc6565b91505062000228565b5050505050505062000efc565b60003073ffffffffffffffffffffffffffffffffffffffff168373ffffffffffffffffffffffffffffffffffffffff161415620002c257600080fd5b600060e01b7bffffffffffffffffffffffffffffffffffffffffffffffffffffffff1916600260008573ffffffffffffffffffffffffffffffffffffffff1673ffffffffffffffffffffffffffffffffffffffff16815260200190815260200160002060000160199054906101000a900460e01b7bffffffffffffffffffffffffffffffffffffffffffffffffffffffff19161462000398576040517f08c379a00000000000000000000000000000000000000000000000000000000081526004016200038f9062000d75565b60405180910390fd5b600060e01b7bffffffffffffffffffffffffffffffffffffffffffffffffffffffff191682606001517bffffffffffffffffffffffffffffffffffffffffffffffffffffffff1916141562000424576040517f08c379a00000000000000000000000000000000000000000000000000000000081526004016200041b9062000de7565b60405180910390fd5b606460ff16826020015160ff16111580156200044857506000826020015160ff1610155b6200048a576040517f08c379a0000000000000000000000000000000000000000000000000000000008152600401620004819062000e59565b60405180910390fd5b81600260008573ffffffffffffffffffffffffffffffffffffffff1673ffffffffffffffffffffffffffffffffffffffff16815260200190815260200160002060008201518160000160006101000a81548173ffffffffffffffffffffffffffffffffffffffff021916908373ffffffffffffffffffffffffffffffffffffffff16021790555060208201518160000160146101000a81548160ff021916908360ff16021790555060408201518160000160156101000a81548163ffffffff021916908360e01c021790555060608201518160000160196101000a81548163ffffffff021916908360e01c02179055509050508273ffffffffffffffffffffffffffffffffffffffff167f366c303fa48e82e8094efa1be126cfbd7dc298a323a6b4066942e9503bbd811283600001518460200151604051620005cf92919062000ecf565b60405180910390a26001905092915050565b60008160036000857bffffffffffffffffffffffffffffffffffffffffffffffffffffffff19167bffffffffffffffffffffffffffffffffffffffffffffffffffffffff1916815260200190815260200160002060006101000a81548160ff02191690831515021790555060011515837bffffffffffffffffffffffffffffffffffffffffffffffffffffffff19167f8fd1e21416bf15420b9addb683ec815e9f5e9ee45e1555df547df090f540aa6c60405160405180910390a36001905092915050565b6000604051905090565b600080fd5b600080fd5b600073ffffffffffffffffffffffffffffffffffffffff82169050919050565b6000620006e782620006ba565b9050919050565b620006f981620006da565b81146200070557600080fd5b50565b6000815190506200071981620006ee565b92915050565b600080fd5b6000601f19601f8301169050919050565b7f4e487b7100000000000000000000000000000000000000000000000000000000600052604160045260246000fd5b6200076f8262000724565b810181811067ffffffffffffffff8211171562000791576200079062000735565b5b80604052505050565b6000620007a6620006a6565b9050620007b4828262000764565b919050565b600067ffffffffffffffff821115620007d757620007d662000735565b5b602082029050602081019050919050565b600080fd5b600062000804620007fe84620007b9565b6200079a565b905080838252602082019050602084028301858111156200082a5762000829620007e8565b5b835b8181101562000857578062000842888262000708565b8452602084019350506020810190506200082c565b5050509392505050565b600082601f8301126200087957620008786200071f565b5b81516200088b848260208601620007ed565b91505092915050565b600067ffffffffffffffff821115620008b257620008b162000735565b5b602082029050602081019050919050565b600080fd5b600060ff82169050919050565b620008e081620008c8565b8114620008ec57600080fd5b50565b6000815190506200090081620008d5565b92915050565b60007fffffffff0000000000000000000000000000000000000000000000000000000082169050919050565b6200093d8162000906565b81146200094957600080fd5b50565b6000815190506200095d8162000932565b92915050565b6000608082840312156200097c576200097b620008c3565b5b6200098860806200079a565b905060006200099a8482850162000708565b6000830152506020620009b084828501620008ef565b6020830152506040620009c6848285016200094c565b6040830152506060620009dc848285016200094c565b60608301525092915050565b6000620009ff620009f98462000894565b6200079a565b9050808382526020820190506080840283018581111562000a255762000a24620007e8565b5b835b8181101562000a52578062000a3d888262000963565b84526020840193505060808101905062000a27565b5050509392505050565b600082601f83011262000a745762000a736200071f565b5b815162000a86848260208601620009e8565b91505092915050565b600067ffffffffffffffff82111562000aad5762000aac62000735565b5b602082029050602081019050919050565b600062000ad562000acf8462000a8f565b6200079a565b9050808382526020820190506020840283018581111562000afb5762000afa620007e8565b5b835b8181101562000b28578062000b1388826200094c565b84526020840193505060208101905062000afd565b5050509392505050565b600082601f83011262000b4a5762000b496200071f565b5b815162000b5c84826020860162000abe565b91505092915050565b60008060008060008060c0878903121562000b855762000b84620006b0565b5b600062000b9589828a0162000708565b965050602062000ba889828a0162000708565b955050604062000bbb89828a0162000708565b945050606087015167ffffffffffffffff81111562000bdf5762000bde620006b5565b5b62000bed89828a0162000861565b935050608087015167ffffffffffffffff81111562000c115762000c10620006b5565b5b62000c1f89828a0162000a5c565b92505060a087015167ffffffffffffffff81111562000c435762000c42620006b5565b5b62000c5189828a0162000b32565b9150509295509295509295565b7f4e487b7100000000000000000000000000000000000000000000000000000000600052603260045260246000fd5b7f4e487b7100000000000000000000000000000000000000000000000000000000600052601160045260246000fd5b6000819050919050565b600062000cd38262000cbc565b91507fffffffffffffffffffffffffffffffffffffffffffffffffffffffffffffffff82141562000d095762000d0862000c8d565b5b600182019050919050565b600082825260208201905092915050565b7f537069676f743a2053657474696e6720616c7265616479206578697374730000600082015250565b600062000d5d601e8362000d14565b915062000d6a8262000d25565b602082019050919050565b6000602082019050818103600083015262000d908162000d4e565b9050919050565b7f537069676f743a20496e76616c696420737069676f742073657474696e670000600082015250565b600062000dcf601e8362000d14565b915062000ddc8262000d97565b602082019050919050565b6000602082019050818103600083015262000e028162000dc0565b9050919050565b7f537069676f743a20496e76616c69642073706c69742072617465000000000000600082015250565b600062000e41601a8362000d14565b915062000e4e8262000e09565b602082019050919050565b6000602082019050818103600083015262000e748162000e32565b9050919050565b62000e8681620006da565b82525050565b6000819050919050565b600062000eb762000eb162000eab84620008c8565b62000e8c565b62000cbc565b9050919050565b62000ec98162000e96565b82525050565b600060408201905062000ee6600083018562000e7b565b62000ef5602083018462000ebe565b9392505050565b61340f8062000f0c6000396000f3fe6080604052600436106100f75760003560e01c8063880cdc311161008a578063b8bf1c0911610059578063b8bf1c09146103a9578063c2ae60d8146103e6578063d403e9ec14610426578063f9b0631e14610463576100fe565b8063880cdc31146102c75780638c0f2b04146103045780638da5cb5b14610341578063ac7475ed1461036c576100fe565b8063570ca735116100c6578063570ca735146101f757806361d027b3146102225780636374b11b1461024d5780637f51bb1f1461028a576100fe565b806308b6eb411461010357806312879a52146101405780631846f4791461017d57806353ad370d146101ba576100fe565b366100fe57005b600080fd5b34801561010f57600080fd5b5061012a600480360381019061012591906123d7565b6104a0565b6040516101379190612450565b60405180910390f35b34801561014c57600080fd5b50610167600480360381019061016291906124a4565b61070d565b60405161017491906124ff565b60405180910390f35b34801561018957600080fd5b506101a4600480360381019061019f919061251a565b61085e565b6040516101b191906124ff565b60405180910390f35b3480156101c657600080fd5b506101e160048036038101906101dc91906123d7565b610c74565b6040516101ee91906124ff565b60405180910390f35b34801561020357600080fd5b5061020c610ce4565b6040516102199190612556565b60405180910390f35b34801561022e57600080fd5b50610237610d0a565b6040516102449190612556565b60405180910390f35b34801561025957600080fd5b50610274600480360381019061026f919061251a565b610d30565b6040516102819190612450565b60405180910390f35b34801561029657600080fd5b506102b160048036038101906102ac919061251a565b610d79565b6040516102be91906124ff565b60405180910390f35b3480156102d357600080fd5b506102ee60048036038101906102e9919061251a565b610ef4565b6040516102fb91906124ff565b60405180910390f35b34801561031057600080fd5b5061032b6004803603810190610326919061261d565b611017565b60405161033891906124ff565b60405180910390f35b34801561034d57600080fd5b506103566110f7565b6040516103639190612556565b60405180910390f35b34801561037857600080fd5b50610393600480360381019061038e919061251a565b61111d565b6040516103a091906124ff565b60405180910390f35b3480156103b557600080fd5b506103d060048036038101906103cb91906127ff565b611240565b6040516103dd91906124ff565b60405180910390f35b3480156103f257600080fd5b5061040d6004803603810190610408919061251a565b6112ae565b60405161041d949392919061285d565b60405180910390f35b34801561043257600080fd5b5061044d600480360381019061044891906128ce565b611416565b60405161045a91906124ff565b60405180910390f35b34801561046f57600080fd5b5061048a6004803603810190610485919061251a565b611484565b6040516104979190612450565b60405180910390f35b6000600260005414156104e8576040517f08c379a00000000000000000000000000000000000000000000000000000000081526004016104df9061296b565b60405180910390fd5b60026000819055506000600260008673ffffffffffffffffffffffffffffffffffffffff1673ffffffffffffffffffffffffffffffffffffffff16815260200190815260200160002060000160009054906101000a900473ffffffffffffffffffffffffffffffffffffffff169050610563858585846116ac565b915060006064600260008873ffffffffffffffffffffffffffffffffffffffff1673ffffffffffffffffffffffffffffffffffffffff16815260200190815260200160002060000160149054906101000a900460ff1660ff16846105c791906129ba565b6105d19190612a43565b905080600160008473ffffffffffffffffffffffffffffffffffffffff1673ffffffffffffffffffffffffffffffffffffffff1681526020019081526020016000205461061e9190612a74565b600160008473ffffffffffffffffffffffffffffffffffffffff1673ffffffffffffffffffffffffffffffffffffffff16815260200190815260200160002081905550808311156106ab576106a182600660009054906101000a900473ffffffffffffffffffffffffffffffffffffffff16838661069c9190612aca565b611a00565b6106aa57600080fd5b5b828273ffffffffffffffffffffffffffffffffffffffff167fe775ebd008d93b9afec302f34cd39033092430ec8e7eaab7b3104568503a442983896040516106f4929190612afe565b60405180910390a3505060016000819055509392505050565b6000600460009054906101000a900473ffffffffffffffffffffffffffffffffffffffff1673ffffffffffffffffffffffffffffffffffffffff163373ffffffffffffffffffffffffffffffffffffffff161461079f576040517f08c379a000000000000000000000000000000000000000000000000000000000815260040161079690612b73565b60405180910390fd5b60008260ff16101580156107ba5750606460ff168260ff1611155b6107f9576040517f08c379a00000000000000000000000000000000000000000000000000000000081526004016107f090612bdf565b60405180910390fd5b81600260008573ffffffffffffffffffffffffffffffffffffffff1673ffffffffffffffffffffffffffffffffffffffff16815260200190815260200160002060000160146101000a81548160ff021916908360ff1602179055506001905092915050565b6000600460009054906101000a900473ffffffffffffffffffffffffffffffffffffffff1673ffffffffffffffffffffffffffffffffffffffff163373ffffffffffffffffffffffffffffffffffffffff16146108ba57600080fd5b6000600260008473ffffffffffffffffffffffffffffffffffffffff1673ffffffffffffffffffffffffffffffffffffffff16815260200190815260200160002060000160009054906101000a900473ffffffffffffffffffffffffffffffffffffffff1690506000600160008373ffffffffffffffffffffffffffffffffffffffff1673ffffffffffffffffffffffffffffffffffffffff1681526020019081526020016000205490506000811115610a165761099b82600460009054906101000a900473ffffffffffffffffffffffffffffffffffffffff1683611a00565b6109a457600080fd5b808273ffffffffffffffffffffffffffffffffffffffff167f081bbafdf188a33eeeba9f44cd5f54b98f151cb1058475e8c555bf9fa0020623600460009054906101000a900473ffffffffffffffffffffffffffffffffffffffff16604051610a0d9190612556565b60405180910390a35b6000808573ffffffffffffffffffffffffffffffffffffffff16600260008873ffffffffffffffffffffffffffffffffffffffff1673ffffffffffffffffffffffffffffffffffffffff16815260200190815260200160002060000160199054906101000a900460e01b600560009054906101000a900473ffffffffffffffffffffffffffffffffffffffff16604051602401610ab39190612556565b604051602081830303815290604052907bffffffffffffffffffffffffffffffffffffffffffffffffffffffff19166020820180517bffffffffffffffffffffffffffffffffffffffffffffffffffffffff8381831617835250505050604051610b1d9190612c79565b6000604051808303816000865af19150503d8060008114610b5a576040519150601f19603f3d011682016040523d82523d6000602084013e610b5f565b606091505b509150915081610b6e57600080fd5b600260008773ffffffffffffffffffffffffffffffffffffffff1673ffffffffffffffffffffffffffffffffffffffff168152602001908152602001600020600080820160006101000a81549073ffffffffffffffffffffffffffffffffffffffff02191690556000820160146101000a81549060ff02191690556000820160156101000a81549063ffffffff02191690556000820160196101000a81549063ffffffff021916905550508573ffffffffffffffffffffffffffffffffffffffff167f708a88df6c6322df6982b1b78b07623652300cf8e98e73998ed28b264aaec60185604051610c5f9190612556565b60405180910390a26001945050505050919050565b6000600560009054906101000a900473ffffffffffffffffffffffffffffffffffffffff1673ffffffffffffffffffffffffffffffffffffffff163373ffffffffffffffffffffffffffffffffffffffff1614610cd057600080fd5b610cdb848484611b84565b90509392505050565b600560009054906101000a900473ffffffffffffffffffffffffffffffffffffffff1681565b600660009054906101000a900473ffffffffffffffffffffffffffffffffffffffff1681565b6000600160008373ffffffffffffffffffffffffffffffffffffffff1673ffffffffffffffffffffffffffffffffffffffff168152602001908152602001600020549050919050565b6000600660009054906101000a900473ffffffffffffffffffffffffffffffffffffffff1673ffffffffffffffffffffffffffffffffffffffff163373ffffffffffffffffffffffffffffffffffffffff161480610e245750600560009054906101000a900473ffffffffffffffffffffffffffffffffffffffff1673ffffffffffffffffffffffffffffffffffffffff163373ffffffffffffffffffffffffffffffffffffffff16145b610e2d57600080fd5b600073ffffffffffffffffffffffffffffffffffffffff168273ffffffffffffffffffffffffffffffffffffffff161415610e6757600080fd5b81600660006101000a81548173ffffffffffffffffffffffffffffffffffffffff021916908373ffffffffffffffffffffffffffffffffffffffff1602179055508173ffffffffffffffffffffffffffffffffffffffff167f1f54d231bb9d500b1923e4a1cb25e600f366a8368873d9af7c1c623814df19fc60405160405180910390a260019050919050565b6000600460009054906101000a900473ffffffffffffffffffffffffffffffffffffffff1673ffffffffffffffffffffffffffffffffffffffff163373ffffffffffffffffffffffffffffffffffffffff1614610f5057600080fd5b600073ffffffffffffffffffffffffffffffffffffffff168273ffffffffffffffffffffffffffffffffffffffff161415610f8a57600080fd5b81600460006101000a81548173ffffffffffffffffffffffffffffffffffffffff021916908373ffffffffffffffffffffffffffffffffffffffff1602179055508173ffffffffffffffffffffffffffffffffffffffff167f84022644ce39de434e8f39c4398a3628815893104188274c37205d41c2d5096760405160405180910390a260019050919050565b6000600560009054906101000a900473ffffffffffffffffffffffffffffffffffffffff1673ffffffffffffffffffffffffffffffffffffffff163373ffffffffffffffffffffffffffffffffffffffff161461107357600080fd5b60005b838390508110156110ea576110d686868381811061109757611096612c90565b5b90506020020160208101906110ac919061251a565b8585848181106110bf576110be612c90565b5b90506020028101906110d19190612cce565b611b84565b5080806110e290612d31565b915050611076565b5060019050949350505050565b600460009054906101000a900473ffffffffffffffffffffffffffffffffffffffff1681565b6000600560009054906101000a900473ffffffffffffffffffffffffffffffffffffffff1673ffffffffffffffffffffffffffffffffffffffff163373ffffffffffffffffffffffffffffffffffffffff161461117957600080fd5b600073ffffffffffffffffffffffffffffffffffffffff168273ffffffffffffffffffffffffffffffffffffffff1614156111b357600080fd5b81600560006101000a81548173ffffffffffffffffffffffffffffffffffffffff021916908373ffffffffffffffffffffffffffffffffffffffff1602179055508173ffffffffffffffffffffffffffffffffffffffff167fff936929f68b51b2ddfe0c6fcc3e9c817996ae17a98869dd0754af1323f101ee60405160405180910390a260019050919050565b6000600460009054906101000a900473ffffffffffffffffffffffffffffffffffffffff1673ffffffffffffffffffffffffffffffffffffffff163373ffffffffffffffffffffffffffffffffffffffff161461129c57600080fd5b6112a68383611e20565b905092915050565b600080600080600260008673ffffffffffffffffffffffffffffffffffffffff1673ffffffffffffffffffffffffffffffffffffffff16815260200190815260200160002060000160009054906101000a900473ffffffffffffffffffffffffffffffffffffffff16600260008773ffffffffffffffffffffffffffffffffffffffff1673ffffffffffffffffffffffffffffffffffffffff16815260200190815260200160002060000160149054906101000a900460ff16600260008873ffffffffffffffffffffffffffffffffffffffff1673ffffffffffffffffffffffffffffffffffffffff16815260200190815260200160002060000160159054906101000a900460e01b600260008973ffffffffffffffffffffffffffffffffffffffff1673ffffffffffffffffffffffffffffffffffffffff16815260200190815260200160002060000160199054906101000a900460e01b93509350935093509193509193565b6000600460009054906101000a900473ffffffffffffffffffffffffffffffffffffffff1673ffffffffffffffffffffffffffffffffffffffff163373ffffffffffffffffffffffffffffffffffffffff161461147257600080fd5b61147c838361216e565b905092915050565b6000600260005414156114cc576040517f08c379a00000000000000000000000000000000000000000000000000000000081526004016114c39061296b565b60405180910390fd5b6002600081905550600460009054906101000a900473ffffffffffffffffffffffffffffffffffffffff1673ffffffffffffffffffffffffffffffffffffffff163373ffffffffffffffffffffffffffffffffffffffff161461152e57600080fd5b600160008373ffffffffffffffffffffffffffffffffffffffff1673ffffffffffffffffffffffffffffffffffffffff168152602001908152602001600020549050600081116115b3576040517f08c379a00000000000000000000000000000000000000000000000000000000081526004016115aa90612dc6565b60405180910390fd5b6115e082600460009054906101000a900473ffffffffffffffffffffffffffffffffffffffff1683611a00565b6115e957600080fd5b6000600160008473ffffffffffffffffffffffffffffffffffffffff1673ffffffffffffffffffffffffffffffffffffffff16815260200190815260200160002081905550808273ffffffffffffffffffffffffffffffffffffffff167f081bbafdf188a33eeeba9f44cd5f54b98f151cb1058475e8c555bf9fa0020623600460009054906101000a900473ffffffffffffffffffffffffffffffffffffffff166040516116979190612556565b60405180910390a36001600081905550919050565b6000806116b883612233565b9050600060e01b7bffffffffffffffffffffffffffffffffffffffffffffffffffffffff1916600260008873ffffffffffffffffffffffffffffffffffffffff1673ffffffffffffffffffffffffffffffffffffffff16815260200190815260200160002060000160159054906101000a900460e01b7bffffffffffffffffffffffffffffffffffffffffffffffffffffffff191614156117a557600160008473ffffffffffffffffffffffffffffffffffffffff1673ffffffffffffffffffffffffffffffffffffffff168152602001908152602001600020548161179e9190612aca565b915061194a565b600260008773ffffffffffffffffffffffffffffffffffffffff1673ffffffffffffffffffffffffffffffffffffffff16815260200190815260200160002060000160159054906101000a900460e01b7bffffffffffffffffffffffffffffffffffffffffffffffffffffffff19168585906118219190612dfe565b7bffffffffffffffffffffffffffffffffffffffffffffffffffffffff191614611880576040517f08c379a000000000000000000000000000000000000000000000000000000000815260040161187790612ea9565b60405180910390fd5b6000808773ffffffffffffffffffffffffffffffffffffffff1687876040516118aa929190612efd565b6000604051808303816000865af19150503d80600081146118e7576040519150601f19603f3d011682016040523d82523d6000602084013e6118ec565b606091505b509150915081611931576040517f08c379a000000000000000000000000000000000000000000000000000000000815260040161192890612f62565b60405180910390fd5b8261193b86612233565b6119459190612aca565b935050505b6000821161198d576040517f08c379a000000000000000000000000000000000000000000000000000000000815260040161198490612fce565b60405180910390fd5b606460ff167fffffffffffffffffffffffffffffffffffffffffffffffffffffffffffffffff6119bd9190612a43565b8211156119f757606460ff167fffffffffffffffffffffffffffffffffffffffffffffffffffffffffffffffff6119f49190612a43565b91505b50949350505050565b60008073ffffffffffffffffffffffffffffffffffffffff168473ffffffffffffffffffffffffffffffffffffffff1614611ac8578373ffffffffffffffffffffffffffffffffffffffff1663a9059cbb84846040518363ffffffff1660e01b8152600401611a70929190612fee565b602060405180830381600087803b158015611a8a57600080fd5b505af1158015611a9e573d6000803e3d6000fd5b505050506040513d601f19601f82011682018060405250810190611ac2919061302c565b50611b79565b6000808473ffffffffffffffffffffffffffffffffffffffff1684604051611aef9061307f565b60006040518083038185875af1925050503d8060008114611b2c576040519150601f19603f3d011682016040523d82523d6000602084013e611b31565b606091505b509150915081611b76576040517f08c379a0000000000000000000000000000000000000000000000000000000008152600401611b6d906130e0565b60405180910390fd5b50505b600190509392505050565b600060026000541415611bcc576040517f08c379a0000000000000000000000000000000000000000000000000000000008152600401611bc39061296b565b60405180910390fd5b600260008190555060036000848490611be59190612dfe565b7bffffffffffffffffffffffffffffffffffffffffffffffffffffffff19167bffffffffffffffffffffffffffffffffffffffffffffffffffffffff1916815260200190815260200160002060009054906101000a900460ff16611c7e576040517f08c379a0000000000000000000000000000000000000000000000000000000008152600401611c759061314c565b60405180910390fd5b828290611c8b9190612dfe565b7bffffffffffffffffffffffffffffffffffffffffffffffffffffffff1916600260008673ffffffffffffffffffffffffffffffffffffffff1673ffffffffffffffffffffffffffffffffffffffff16815260200190815260200160002060000160159054906101000a900460e01b7bffffffffffffffffffffffffffffffffffffffffffffffffffffffff19161415611d5a576040517f08c379a0000000000000000000000000000000000000000000000000000000008152600401611d519061314c565b60405180910390fd5b6000808573ffffffffffffffffffffffffffffffffffffffff168585604051611d84929190612efd565b6000604051808303816000865af19150503d8060008114611dc1576040519150601f19603f3d011682016040523d82523d6000602084013e611dc6565b606091505b509150915081611e0b576040517f08c379a0000000000000000000000000000000000000000000000000000000008152600401611e02906131b8565b60405180910390fd5b60019250505060016000819055509392505050565b60003073ffffffffffffffffffffffffffffffffffffffff168373ffffffffffffffffffffffffffffffffffffffff161415611e5b57600080fd5b600060e01b7bffffffffffffffffffffffffffffffffffffffffffffffffffffffff1916600260008573ffffffffffffffffffffffffffffffffffffffff1673ffffffffffffffffffffffffffffffffffffffff16815260200190815260200160002060000160199054906101000a900460e01b7bffffffffffffffffffffffffffffffffffffffffffffffffffffffff191614611f2e576040517f08c379a0000000000000000000000000000000000000000000000000000000008152600401611f2590613224565b60405180910390fd5b600060e01b7bffffffffffffffffffffffffffffffffffffffffffffffffffffffff191682606001517bffffffffffffffffffffffffffffffffffffffffffffffffffffffff19161415611fb7576040517f08c379a0000000000000000000000000000000000000000000000000000000008152600401611fae90613290565b60405180910390fd5b606460ff16826020015160ff1611158015611fda57506000826020015160ff1610155b612019576040517f08c379a0000000000000000000000000000000000000000000000000000000008152600401612010906132fc565b60405180910390fd5b81600260008573ffffffffffffffffffffffffffffffffffffffff1673ffffffffffffffffffffffffffffffffffffffff16815260200190815260200160002060008201518160000160006101000a81548173ffffffffffffffffffffffffffffffffffffffff021916908373ffffffffffffffffffffffffffffffffffffffff16021790555060208201518160000160146101000a81548160ff021916908360ff16021790555060408201518160000160156101000a81548163ffffffff021916908360e01c021790555060608201518160000160196101000a81548163ffffffff021916908360e01c02179055509050508273ffffffffffffffffffffffffffffffffffffffff167f366c303fa48e82e8094efa1be126cfbd7dc298a323a6b4066942e9503bbd81128360000151846020015160405161215c929190613357565b60405180910390a26001905092915050565b60008160036000857bffffffffffffffffffffffffffffffffffffffffffffffffffffffff19167bffffffffffffffffffffffffffffffffffffffffffffffffffffffff1916815260200190815260200160002060006101000a81548160ff02191690831515021790555060011515837bffffffffffffffffffffffffffffffffffffffffffffffffffffffff19167f8fd1e21416bf15420b9addb683ec815e9f5e9ee45e1555df547df090f540aa6c60405160405180910390a36001905092915050565b60008073ffffffffffffffffffffffffffffffffffffffff168273ffffffffffffffffffffffffffffffffffffffff16141561226f57476122f9565b8173ffffffffffffffffffffffffffffffffffffffff166370a08231306040518263ffffffff1660e01b81526004016122a89190612556565b60206040518083038186803b1580156122c057600080fd5b505afa1580156122d4573d6000803e3d6000fd5b505050506040513d601f19601f820116820180604052508101906122f891906133ac565b5b9050919050565b6000604051905090565b600080fd5b600080fd5b600073ffffffffffffffffffffffffffffffffffffffff82169050919050565b600061233f82612314565b9050919050565b61234f81612334565b811461235a57600080fd5b50565b60008135905061236c81612346565b92915050565b600080fd5b600080fd5b600080fd5b60008083601f84011261239757612396612372565b5b8235905067ffffffffffffffff8111156123b4576123b3612377565b5b6020830191508360018202830111156123d0576123cf61237c565b5b9250929050565b6000806000604084860312156123f0576123ef61230a565b5b60006123fe8682870161235d565b935050602084013567ffffffffffffffff81111561241f5761241e61230f565b5b61242b86828701612381565b92509250509250925092565b6000819050919050565b61244a81612437565b82525050565b60006020820190506124656000830184612441565b92915050565b600060ff82169050919050565b6124818161246b565b811461248c57600080fd5b50565b60008135905061249e81612478565b92915050565b600080604083850312156124bb576124ba61230a565b5b60006124c98582860161235d565b92505060206124da8582860161248f565b9150509250929050565b60008115159050919050565b6124f9816124e4565b82525050565b600060208201905061251460008301846124f0565b92915050565b6000602082840312156125305761252f61230a565b5b600061253e8482850161235d565b91505092915050565b61255081612334565b82525050565b600060208201905061256b6000830184612547565b92915050565b60008083601f84011261258757612586612372565b5b8235905067ffffffffffffffff8111156125a4576125a3612377565b5b6020830191508360208202830111156125c0576125bf61237c565b5b9250929050565b60008083601f8401126125dd576125dc612372565b5b8235905067ffffffffffffffff8111156125fa576125f9612377565b5b6020830191508360208202830111156126165761261561237c565b5b9250929050565b600080600080604085870312156126375761263661230a565b5b600085013567ffffffffffffffff8111156126555761265461230f565b5b61266187828801612571565b9450945050602085013567ffffffffffffffff8111156126845761268361230f565b5b612690878288016125c7565b925092505092959194509250565b600080fd5b6000601f19601f8301169050919050565b7f4e487b7100000000000000000000000000000000000000000000000000000000600052604160045260246000fd5b6126ec826126a3565b810181811067ffffffffffffffff8211171561270b5761270a6126b4565b5b80604052505050565b600061271e612300565b905061272a82826126e3565b919050565b60007fffffffff0000000000000000000000000000000000000000000000000000000082169050919050565b6127648161272f565b811461276f57600080fd5b50565b6000813590506127818161275b565b92915050565b60006080828403121561279d5761279c61269e565b5b6127a76080612714565b905060006127b78482850161235d565b60008301525060206127cb8482850161248f565b60208301525060406127df84828501612772565b60408301525060606127f384828501612772565b60608301525092915050565b60008060a083850312156128165761281561230a565b5b60006128248582860161235d565b925050602061283585828601612787565b9150509250929050565b6128488161246b565b82525050565b6128578161272f565b82525050565b60006080820190506128726000830187612547565b61287f602083018661283f565b61288c604083018561284e565b612899606083018461284e565b95945050505050565b6128ab816124e4565b81146128b657600080fd5b50565b6000813590506128c8816128a2565b92915050565b600080604083850312156128e5576128e461230a565b5b60006128f385828601612772565b9250506020612904858286016128b9565b9150509250929050565b600082825260208201905092915050565b7f5265656e7472616e637947756172643a207265656e7472616e742063616c6c00600082015250565b6000612955601f8361290e565b91506129608261291f565b602082019050919050565b6000602082019050818103600083015261298481612948565b9050919050565b7f4e487b7100000000000000000000000000000000000000000000000000000000600052601160045260246000fd5b60006129c582612437565b91506129d083612437565b9250817fffffffffffffffffffffffffffffffffffffffffffffffffffffffffffffffff0483118215151615612a0957612a0861298b565b5b828202905092915050565b7f4e487b7100000000000000000000000000000000000000000000000000000000600052601260045260246000fd5b6000612a4e82612437565b9150612a5983612437565b925082612a6957612a68612a14565b5b828204905092915050565b6000612a7f82612437565b9150612a8a83612437565b9250827fffffffffffffffffffffffffffffffffffffffffffffffffffffffffffffffff03821115612abf57612abe61298b565b5b828201905092915050565b6000612ad582612437565b9150612ae083612437565b925082821015612af357612af261298b565b5b828203905092915050565b6000604082019050612b136000830185612441565b612b206020830184612547565b9392505050565b7f537069676f743a206f6e6c79206f776e657220757064617465732073706c6974600082015250565b6000612b5d60208361290e565b9150612b6882612b27565b602082019050919050565b60006020820190508181036000830152612b8c81612b50565b9050919050565b7f537069676f743a20696e76616c6964206f776e65722073706c69740000000000600082015250565b6000612bc9601b8361290e565b9150612bd482612b93565b602082019050919050565b60006020820190508181036000830152612bf881612bbc565b9050919050565b600081519050919050565b600081905092915050565b60005b83811015612c33578082015181840152602081019050612c18565b83811115612c42576000848401525b50505050565b6000612c5382612bff565b612c5d8185612c0a565b9350612c6d818560208601612c15565b80840191505092915050565b6000612c858284612c48565b915081905092915050565b7f4e487b7100000000000000000000000000000000000000000000000000000000600052603260045260246000fd5b600080fd5b600080fd5b600080fd5b60008083356001602003843603038112612ceb57612cea612cbf565b5b80840192508235915067ffffffffffffffff821115612d0d57612d0c612cc4565b5b602083019250600182023603831315612d2957612d28612cc9565b5b509250929050565b6000612d3c82612437565b91507fffffffffffffffffffffffffffffffffffffffffffffffffffffffffffffffff821415612d6f57612d6e61298b565b5b600182019050919050565b7f537069676f743a204e6f20657363726f7720746f20636c61696d000000000000600082015250565b6000612db0601a8361290e565b9150612dbb82612d7a565b602082019050919050565b60006020820190508181036000830152612ddf81612da3565b9050919050565b600082905092915050565b600082821b905092915050565b6000612e0a8383612de6565b82612e15813561272f565b92506004821015612e5557612e507fffffffff0000000000000000000000000000000000000000000000000000000083600403600802612df1565b831692505b505092915050565b7f537069676f743a20496e76616c696420636c61696d2066756e6374696f6e0000600082015250565b6000612e93601e8361290e565b9150612e9e82612e5d565b602082019050919050565b60006020820190508181036000830152612ec281612e86565b9050919050565b82818337600083830152505050565b6000612ee48385612c0a565b9350612ef1838584612ec9565b82840190509392505050565b6000612f0a828486612ed8565b91508190509392505050565b7f537069676f743a20526576656e756520636c61696d206661696c656400000000600082015250565b6000612f4c601c8361290e565b9150612f5782612f16565b602082019050919050565b60006020820190508181036000830152612f7b81612f3f565b9050919050565b7f537069676f743a204e6f20726576656e756520746f20636c61696d0000000000600082015250565b6000612fb8601b8361290e565b9150612fc382612f82565b602082019050919050565b60006020820190508181036000830152612fe781612fab565b9050919050565b60006040820190506130036000830185612547565b6130106020830184612441565b9392505050565b600081519050613026816128a2565b92915050565b6000602082840312156130425761304161230a565b5b600061305084828501613017565b91505092915050565b50565b6000613069600083612c0a565b915061307482613059565b600082019050919050565b600061308a8261305c565b9150819050919050565b7f537069676f743a20446973706572736520657363726f77206661696c65640000600082015250565b60006130ca601e8361290e565b91506130d582613094565b602082019050919050565b600060208201905081810360008301526130f9816130bd565b9050919050565b7f537069676f743a20556e617574686f72697a656420616374696f6e0000000000600082015250565b6000613136601b8361290e565b915061314182613100565b602082019050919050565b6000602082019050818103600083015261316581613129565b9050919050565b7f537069676f743a204f7065726174696f6e206661696c65640000000000000000600082015250565b60006131a260188361290e565b91506131ad8261316c565b602082019050919050565b600060208201905081810360008301526131d181613195565b9050919050565b7f537069676f743a2053657474696e6720616c7265616479206578697374730000600082015250565b600061320e601e8361290e565b9150613219826131d8565b602082019050919050565b6000602082019050818103600083015261323d81613201565b9050919050565b7f537069676f743a20496e76616c696420737069676f742073657474696e670000600082015250565b600061327a601e8361290e565b915061328582613244565b602082019050919050565b600060208201905081810360008301526132a98161326d565b9050919050565b7f537069676f743a20496e76616c69642073706c69742072617465000000000000600082015250565b60006132e6601a8361290e565b91506132f1826132b0565b602082019050919050565b60006020820190508181036000830152613315816132d9565b9050919050565b6000819050919050565b600061334161333c6133378461246b565b61331c565b612437565b9050919050565b61335181613326565b82525050565b600060408201905061336c6000830185612547565b6133796020830184613348565b9392505050565b61338981612437565b811461339457600080fd5b50565b6000815190506133a681613380565b92915050565b6000602082840312156133c2576133c161230a565b5b60006133d084828501613397565b9150509291505056fea26469706673582212207b2470243562263bbad3a78630e4b5a6bbdc8ac8da1ad6d972de79c257c9796b64736f6c63430008090033",
  "linkReferences": {
    "contracts/utils/LoanLib.sol": {
      "LoanLib": [
        {
          "length": 20,
          "start": 9057
        },
        {
          "length": 20,
          "start": 15268
        },
        {
          "length": 20,
          "start": 17691
        },
        {
          "length": 20,
          "start": 17999
        },
        {
          "length": 20,
          "start": 18188
        },
        {
          "length": 20,
          "start": 18597
        },
        {
          "length": 20,
          "start": 19289
        },
        {
          "length": 20,
          "start": 19805
        },
        {
          "length": 20,
          "start": 21067
        },
        {
          "length": 20,
          "start": 21265
        },
        {
          "length": 20,
          "start": 21728
        }
      ]
    }
  },
  "deployedLinkReferences": {
    "contracts/utils/LoanLib.sol": {
      "LoanLib": [
        {
          "length": 20,
          "start": 6380
        },
        {
          "length": 20,
          "start": 12591
        },
        {
          "length": 20,
          "start": 15014
        },
        {
          "length": 20,
          "start": 15322
        },
        {
          "length": 20,
          "start": 15511
        },
        {
          "length": 20,
          "start": 15920
        },
        {
          "length": 20,
          "start": 16612
        },
        {
          "length": 20,
          "start": 17128
        },
        {
          "length": 20,
          "start": 18390
        },
        {
          "length": 20,
          "start": 18588
        },
        {
          "length": 20,
          "start": 19051
        }
      ]
    }
  }
}