{
  "_format": "hh-sol-artifact-1",
  "contractName": "SpigotController",
  "sourceName": "contracts/modules/spigot/Spigot.sol",
  "abi": [
    {
      "inputs": [
        {
          "internalType": "address",
          "name": "_owner",
          "type": "address"
        },
        {
          "internalType": "address",
          "name": "_treasury",
          "type": "address"
        },
        {
          "internalType": "address",
          "name": "_operator",
          "type": "address"
        },
        {
          "internalType": "address[]",
          "name": "_contracts",
          "type": "address[]"
        },
        {
          "components": [
            {
              "internalType": "address",
              "name": "token",
              "type": "address"
            },
            {
              "internalType": "uint8",
              "name": "ownerSplit",
              "type": "uint8"
            },
            {
              "internalType": "bytes4",
              "name": "claimFunction",
              "type": "bytes4"
            },
            {
              "internalType": "bytes4",
              "name": "transferOwnerFunction",
              "type": "bytes4"
            }
          ],
          "internalType": "struct SpigotController.SpigotSettings[]",
          "name": "_settings",
          "type": "tuple[]"
        },
        {
          "internalType": "bytes4[]",
          "name": "_whitelist",
          "type": "bytes4[]"
        }
      ],
      "stateMutability": "nonpayable",
      "type": "constructor"
    },
    {
      "anonymous": false,
      "inputs": [
        {
          "indexed": true,
          "internalType": "address",
          "name": "revenueContract",
          "type": "address"
        },
        {
          "indexed": false,
          "internalType": "address",
          "name": "token",
          "type": "address"
        },
        {
          "indexed": false,
          "internalType": "uint256",
          "name": "ownerSplit",
          "type": "uint256"
        }
      ],
      "name": "AddSpigot",
      "type": "event"
    },
    {
      "anonymous": false,
      "inputs": [
        {
          "indexed": true,
          "internalType": "address",
          "name": "token",
          "type": "address"
        },
        {
          "indexed": true,
          "internalType": "uint256",
          "name": "amount",
          "type": "uint256"
        },
        {
          "indexed": false,
          "internalType": "address",
          "name": "owner",
          "type": "address"
        }
      ],
      "name": "ClaimEscrow",
      "type": "event"
    },
    {
      "anonymous": false,
      "inputs": [
        {
          "indexed": true,
          "internalType": "address",
          "name": "token",
          "type": "address"
        },
        {
          "indexed": true,
          "internalType": "uint256",
          "name": "amount",
          "type": "uint256"
        },
        {
          "indexed": false,
          "internalType": "uint256",
          "name": "escrowed",
          "type": "uint256"
        },
        {
          "indexed": false,
          "internalType": "address",
          "name": "revenueContract",
          "type": "address"
        }
      ],
      "name": "ClaimRevenue",
      "type": "event"
    },
    {
      "anonymous": false,
      "inputs": [
        {
          "indexed": true,
          "internalType": "address",
          "name": "revenueContract",
          "type": "address"
        },
        {
          "indexed": false,
          "internalType": "address",
          "name": "token",
          "type": "address"
        }
      ],
      "name": "RemoveSpigot",
      "type": "event"
    },
    {
      "anonymous": false,
      "inputs": [
        {
          "indexed": true,
          "internalType": "address",
          "name": "newOperator",
          "type": "address"
        }
      ],
      "name": "UpdateOperator",
      "type": "event"
    },
    {
      "anonymous": false,
      "inputs": [
        {
          "indexed": true,
          "internalType": "address",
          "name": "newOwner",
          "type": "address"
        }
      ],
      "name": "UpdateOwner",
      "type": "event"
    },
    {
      "anonymous": false,
      "inputs": [
        {
          "indexed": true,
          "internalType": "address",
          "name": "newTreasury",
          "type": "address"
        }
      ],
      "name": "UpdateTreasury",
      "type": "event"
    },
    {
      "anonymous": false,
      "inputs": [
        {
          "indexed": true,
          "internalType": "bytes4",
          "name": "func",
          "type": "bytes4"
        },
        {
          "indexed": true,
          "internalType": "bool",
          "name": "allowed",
          "type": "bool"
        }
      ],
      "name": "UpdateWhitelistFunction",
      "type": "event"
    },
    {
      "inputs": [
        {
          "internalType": "address",
          "name": "revenueContract",
          "type": "address"
        },
        {
          "components": [
            {
              "internalType": "address",
              "name": "token",
              "type": "address"
            },
            {
              "internalType": "uint8",
              "name": "ownerSplit",
              "type": "uint8"
            },
            {
              "internalType": "bytes4",
              "name": "claimFunction",
              "type": "bytes4"
            },
            {
              "internalType": "bytes4",
              "name": "transferOwnerFunction",
              "type": "bytes4"
            }
          ],
          "internalType": "struct SpigotController.SpigotSettings",
          "name": "setting",
          "type": "tuple"
        }
      ],
      "name": "addSpigot",
      "outputs": [
        {
          "internalType": "bool",
          "name": "",
          "type": "bool"
        }
      ],
      "stateMutability": "nonpayable",
      "type": "function"
    },
    {
      "inputs": [
        {
          "internalType": "address",
          "name": "token",
          "type": "address"
        }
      ],
      "name": "claimEscrow",
      "outputs": [
        {
          "internalType": "uint256",
          "name": "claimed",
          "type": "uint256"
        }
      ],
      "stateMutability": "nonpayable",
      "type": "function"
    },
    {
      "inputs": [
        {
          "internalType": "address",
          "name": "revenueContract",
          "type": "address"
        },
        {
          "internalType": "bytes",
          "name": "data",
          "type": "bytes"
        }
      ],
      "name": "claimRevenue",
      "outputs": [
        {
          "internalType": "uint256",
          "name": "claimed",
          "type": "uint256"
        }
      ],
      "stateMutability": "nonpayable",
      "type": "function"
    },
    {
      "inputs": [
        {
          "internalType": "address[]",
          "name": "contracts",
          "type": "address[]"
        },
        {
          "internalType": "bytes[]",
          "name": "data",
          "type": "bytes[]"
        }
      ],
      "name": "doOperations",
      "outputs": [
        {
          "internalType": "bool",
          "name": "",
          "type": "bool"
        }
      ],
      "stateMutability": "nonpayable",
      "type": "function"
    },
    {
      "inputs": [
        {
          "internalType": "address",
          "name": "token",
          "type": "address"
        }
      ],
      "name": "getEscrowBalance",
      "outputs": [
        {
          "internalType": "uint256",
          "name": "",
          "type": "uint256"
        }
      ],
      "stateMutability": "view",
      "type": "function"
    },
    {
      "inputs": [
        {
          "internalType": "address",
          "name": "revenueContract",
          "type": "address"
        }
      ],
      "name": "getSetting",
      "outputs": [
        {
          "internalType": "address",
          "name": "",
          "type": "address"
        },
        {
          "internalType": "uint8",
          "name": "",
          "type": "uint8"
        },
        {
          "internalType": "bytes4",
          "name": "",
          "type": "bytes4"
        },
        {
          "internalType": "bytes4",
          "name": "",
          "type": "bytes4"
        }
      ],
      "stateMutability": "view",
      "type": "function"
    },
    {
      "inputs": [
        {
          "internalType": "address",
          "name": "revenueContract",
          "type": "address"
        },
        {
          "internalType": "bytes",
          "name": "data",
          "type": "bytes"
        }
      ],
      "name": "operate",
      "outputs": [
        {
          "internalType": "bool",
          "name": "",
          "type": "bool"
        }
      ],
      "stateMutability": "nonpayable",
      "type": "function"
    },
    {
      "inputs": [],
      "name": "operator",
      "outputs": [
        {
          "internalType": "address",
          "name": "",
          "type": "address"
        }
      ],
      "stateMutability": "view",
      "type": "function"
    },
    {
      "inputs": [],
      "name": "owner",
      "outputs": [
        {
          "internalType": "address",
          "name": "",
          "type": "address"
        }
      ],
      "stateMutability": "view",
      "type": "function"
    },
    {
      "inputs": [
        {
          "internalType": "address",
          "name": "revenueContract",
          "type": "address"
        }
      ],
      "name": "removeSpigot",
      "outputs": [
        {
          "internalType": "bool",
          "name": "",
          "type": "bool"
        }
      ],
      "stateMutability": "nonpayable",
      "type": "function"
    },
    {
      "inputs": [],
      "name": "treasury",
      "outputs": [
        {
          "internalType": "address",
          "name": "",
          "type": "address"
        }
      ],
      "stateMutability": "view",
      "type": "function"
    },
    {
      "inputs": [
        {
          "internalType": "address",
          "name": "newOperator",
          "type": "address"
        }
      ],
      "name": "updateOperator",
      "outputs": [
        {
          "internalType": "bool",
          "name": "",
          "type": "bool"
        }
      ],
      "stateMutability": "nonpayable",
      "type": "function"
    },
    {
      "inputs": [
        {
          "internalType": "address",
          "name": "newOwner",
          "type": "address"
        }
      ],
      "name": "updateOwner",
      "outputs": [
        {
          "internalType": "bool",
          "name": "",
          "type": "bool"
        }
      ],
      "stateMutability": "nonpayable",
      "type": "function"
    },
    {
      "inputs": [
        {
          "internalType": "address",
          "name": "revenueContract",
          "type": "address"
        },
        {
          "internalType": "uint8",
          "name": "ownerSplit",
          "type": "uint8"
        }
      ],
      "name": "updateOwnerSplit",
      "outputs": [
        {
          "internalType": "bool",
          "name": "",
          "type": "bool"
        }
      ],
      "stateMutability": "nonpayable",
      "type": "function"
    },
    {
      "inputs": [
        {
          "internalType": "address",
          "name": "newTreasury",
          "type": "address"
        }
      ],
      "name": "updateTreasury",
      "outputs": [
        {
          "internalType": "bool",
          "name": "",
          "type": "bool"
        }
      ],
      "stateMutability": "nonpayable",
      "type": "function"
    },
    {
      "inputs": [
        {
          "internalType": "bytes4",
          "name": "func",
          "type": "bytes4"
        },
        {
          "internalType": "bool",
          "name": "allowed",
          "type": "bool"
        }
      ],
      "name": "updateWhitelistedFunction",
      "outputs": [
        {
          "internalType": "bool",
          "name": "",
          "type": "bool"
        }
      ],
      "stateMutability": "nonpayable",
      "type": "function"
    },
    {
      "stateMutability": "payable",
      "type": "receive"
    }
  ],
  "bytecode": "0x60806040523480156200001157600080fd5b506040516200431b3803806200431b833981810160405281019062000037919062000b65565b60016000819055508573ffffffffffffffffffffffffffffffffffffffff16600073ffffffffffffffffffffffffffffffffffffffff1614156200007a57600080fd5b8473ffffffffffffffffffffffffffffffffffffffff16600073ffffffffffffffffffffffffffffffffffffffff161415620000b557600080fd5b8373ffffffffffffffffffffffffffffffffffffffff16600073ffffffffffffffffffffffffffffffffffffffff161415620000f057600080fd5b85600460006101000a81548173ffffffffffffffffffffffffffffffffffffffff021916908373ffffffffffffffffffffffffffffffffffffffff16021790555083600560006101000a81548173ffffffffffffffffffffffffffffffffffffffff021916908373ffffffffffffffffffffffffffffffffffffffff16021790555084600660006101000a81548173ffffffffffffffffffffffffffffffffffffffff021916908373ffffffffffffffffffffffffffffffffffffffff16021790555060005b835181111562000223576200020c848281518110620001da57620001d962000c5e565b5b6020026020010151848381518110620001f857620001f762000c5e565b5b60200260200101516200028660201b60201c565b5080806200021a9062000cc6565b915050620001b6565b600090505b81518111156200027957620002628282815181106200024c576200024b62000c5e565b5b60200260200101516001620005e160201b60201c565b508080620002709062000cc6565b91505062000228565b5050505050505062000efc565b60003073ffffffffffffffffffffffffffffffffffffffff168373ffffffffffffffffffffffffffffffffffffffff161415620002c257600080fd5b600060e01b7bffffffffffffffffffffffffffffffffffffffffffffffffffffffff1916600260008573ffffffffffffffffffffffffffffffffffffffff1673ffffffffffffffffffffffffffffffffffffffff16815260200190815260200160002060000160199054906101000a900460e01b7bffffffffffffffffffffffffffffffffffffffffffffffffffffffff19161462000398576040517f08c379a00000000000000000000000000000000000000000000000000000000081526004016200038f9062000d75565b60405180910390fd5b600060e01b7bffffffffffffffffffffffffffffffffffffffffffffffffffffffff191682606001517bffffffffffffffffffffffffffffffffffffffffffffffffffffffff1916141562000424576040517f08c379a00000000000000000000000000000000000000000000000000000000081526004016200041b9062000de7565b60405180910390fd5b606460ff16826020015160ff16111580156200044857506000826020015160ff1610155b6200048a576040517f08c379a0000000000000000000000000000000000000000000000000000000008152600401620004819062000e59565b60405180910390fd5b81600260008573ffffffffffffffffffffffffffffffffffffffff1673ffffffffffffffffffffffffffffffffffffffff16815260200190815260200160002060008201518160000160006101000a81548173ffffffffffffffffffffffffffffffffffffffff021916908373ffffffffffffffffffffffffffffffffffffffff16021790555060208201518160000160146101000a81548160ff021916908360ff16021790555060408201518160000160156101000a81548163ffffffff021916908360e01c021790555060608201518160000160196101000a81548163ffffffff021916908360e01c02179055509050508273ffffffffffffffffffffffffffffffffffffffff167f366c303fa48e82e8094efa1be126cfbd7dc298a323a6b4066942e9503bbd811283600001518460200151604051620005cf92919062000ecf565b60405180910390a26001905092915050565b60008160036000857bffffffffffffffffffffffffffffffffffffffffffffffffffffffff19167bffffffffffffffffffffffffffffffffffffffffffffffffffffffff1916815260200190815260200160002060006101000a81548160ff02191690831515021790555060011515837bffffffffffffffffffffffffffffffffffffffffffffffffffffffff19167f8fd1e21416bf15420b9addb683ec815e9f5e9ee45e1555df547df090f540aa6c60405160405180910390a36001905092915050565b6000604051905090565b600080fd5b600080fd5b600073ffffffffffffffffffffffffffffffffffffffff82169050919050565b6000620006e782620006ba565b9050919050565b620006f981620006da565b81146200070557600080fd5b50565b6000815190506200071981620006ee565b92915050565b600080fd5b6000601f19601f8301169050919050565b7f4e487b7100000000000000000000000000000000000000000000000000000000600052604160045260246000fd5b6200076f8262000724565b810181811067ffffffffffffffff8211171562000791576200079062000735565b5b80604052505050565b6000620007a6620006a6565b9050620007b4828262000764565b919050565b600067ffffffffffffffff821115620007d757620007d662000735565b5b602082029050602081019050919050565b600080fd5b600062000804620007fe84620007b9565b6200079a565b905080838252602082019050602084028301858111156200082a5762000829620007e8565b5b835b8181101562000857578062000842888262000708565b8452602084019350506020810190506200082c565b5050509392505050565b600082601f8301126200087957620008786200071f565b5b81516200088b848260208601620007ed565b91505092915050565b600067ffffffffffffffff821115620008b257620008b162000735565b5b602082029050602081019050919050565b600080fd5b600060ff82169050919050565b620008e081620008c8565b8114620008ec57600080fd5b50565b6000815190506200090081620008d5565b92915050565b60007fffffffff0000000000000000000000000000000000000000000000000000000082169050919050565b6200093d8162000906565b81146200094957600080fd5b50565b6000815190506200095d8162000932565b92915050565b6000608082840312156200097c576200097b620008c3565b5b6200098860806200079a565b905060006200099a8482850162000708565b6000830152506020620009b084828501620008ef565b6020830152506040620009c6848285016200094c565b6040830152506060620009dc848285016200094c565b60608301525092915050565b6000620009ff620009f98462000894565b6200079a565b9050808382526020820190506080840283018581111562000a255762000a24620007e8565b5b835b8181101562000a52578062000a3d888262000963565b84526020840193505060808101905062000a27565b5050509392505050565b600082601f83011262000a745762000a736200071f565b5b815162000a86848260208601620009e8565b91505092915050565b600067ffffffffffffffff82111562000aad5762000aac62000735565b5b602082029050602081019050919050565b600062000ad562000acf8462000a8f565b6200079a565b9050808382526020820190506020840283018581111562000afb5762000afa620007e8565b5b835b8181101562000b28578062000b1388826200094c565b84526020840193505060208101905062000afd565b5050509392505050565b600082601f83011262000b4a5762000b496200071f565b5b815162000b5c84826020860162000abe565b91505092915050565b60008060008060008060c0878903121562000b855762000b84620006b0565b5b600062000b9589828a0162000708565b965050602062000ba889828a0162000708565b955050604062000bbb89828a0162000708565b945050606087015167ffffffffffffffff81111562000bdf5762000bde620006b5565b5b62000bed89828a0162000861565b935050608087015167ffffffffffffffff81111562000c115762000c10620006b5565b5b62000c1f89828a0162000a5c565b92505060a087015167ffffffffffffffff81111562000c435762000c42620006b5565b5b62000c5189828a0162000b32565b9150509295509295509295565b7f4e487b7100000000000000000000000000000000000000000000000000000000600052603260045260246000fd5b7f4e487b7100000000000000000000000000000000000000000000000000000000600052601160045260246000fd5b6000819050919050565b600062000cd38262000cbc565b91507fffffffffffffffffffffffffffffffffffffffffffffffffffffffffffffffff82141562000d095762000d0862000c8d565b5b600182019050919050565b600082825260208201905092915050565b7f537069676f743a2053657474696e6720616c7265616479206578697374730000600082015250565b600062000d5d601e8362000d14565b915062000d6a8262000d25565b602082019050919050565b6000602082019050818103600083015262000d908162000d4e565b9050919050565b7f537069676f743a20496e76616c696420737069676f742073657474696e670000600082015250565b600062000dcf601e8362000d14565b915062000ddc8262000d97565b602082019050919050565b6000602082019050818103600083015262000e028162000dc0565b9050919050565b7f537069676f743a20496e76616c69642073706c69742072617465000000000000600082015250565b600062000e41601a8362000d14565b915062000e4e8262000e09565b602082019050919050565b6000602082019050818103600083015262000e748162000e32565b9050919050565b62000e8681620006da565b82525050565b6000819050919050565b600062000eb762000eb162000eab84620008c8565b62000e8c565b62000cbc565b9050919050565b62000ec98162000e96565b82525050565b600060408201905062000ee6600083018562000e7b565b62000ef5602083018462000ebe565b9392505050565b61340f8062000f0c6000396000f3fe6080604052600436106100f75760003560e01c8063880cdc311161008a578063b8bf1c0911610059578063b8bf1c09146103a9578063c2ae60d8146103e6578063d403e9ec14610426578063f9b0631e14610463576100fe565b8063880cdc31146102c75780638c0f2b04146103045780638da5cb5b14610341578063ac7475ed1461036c576100fe565b8063570ca735116100c6578063570ca735146101f757806361d027b3146102225780636374b11b1461024d5780637f51bb1f1461028a576100fe565b806308b6eb411461010357806312879a52146101405780631846f4791461017d57806353ad370d146101ba576100fe565b366100fe57005b600080fd5b34801561010f57600080fd5b5061012a600480360381019061012591906123d7565b6104a0565b6040516101379190612450565b60405180910390f35b34801561014c57600080fd5b50610167600480360381019061016291906124a4565b61070d565b60405161017491906124ff565b60405180910390f35b34801561018957600080fd5b506101a4600480360381019061019f919061251a565b61085e565b6040516101b191906124ff565b60405180910390f35b3480156101c657600080fd5b506101e160048036038101906101dc91906123d7565b610c74565b6040516101ee91906124ff565b60405180910390f35b34801561020357600080fd5b5061020c610ce4565b6040516102199190612556565b60405180910390f35b34801561022e57600080fd5b50610237610d0a565b6040516102449190612556565b60405180910390f35b34801561025957600080fd5b50610274600480360381019061026f919061251a565b610d30565b6040516102819190612450565b60405180910390f35b34801561029657600080fd5b506102b160048036038101906102ac919061251a565b610d79565b6040516102be91906124ff565b60405180910390f35b3480156102d357600080fd5b506102ee60048036038101906102e9919061251a565b610ef4565b6040516102fb91906124ff565b60405180910390f35b34801561031057600080fd5b5061032b6004803603810190610326919061261d565b611017565b60405161033891906124ff565b60405180910390f35b34801561034d57600080fd5b506103566110f7565b6040516103639190612556565b60405180910390f35b34801561037857600080fd5b50610393600480360381019061038e919061251a565b61111d565b6040516103a091906124ff565b60405180910390f35b3480156103b557600080fd5b506103d060048036038101906103cb91906127ff565b611240565b6040516103dd91906124ff565b60405180910390f35b3480156103f257600080fd5b5061040d6004803603810190610408919061251a565b6112ae565b60405161041d949392919061285d565b60405180910390f35b34801561043257600080fd5b5061044d600480360381019061044891906128ce565b611416565b60405161045a91906124ff565b60405180910390f35b34801561046f57600080fd5b5061048a6004803603810190610485919061251a565b611484565b6040516104979190612450565b60405180910390f35b6000600260005414156104e8576040517f08c379a00000000000000000000000000000000000000000000000000000000081526004016104df9061296b565b60405180910390fd5b60026000819055506000600260008673ffffffffffffffffffffffffffffffffffffffff1673ffffffffffffffffffffffffffffffffffffffff16815260200190815260200160002060000160009054906101000a900473ffffffffffffffffffffffffffffffffffffffff169050610563858585846116ac565b915060006064600260008873ffffffffffffffffffffffffffffffffffffffff1673ffffffffffffffffffffffffffffffffffffffff16815260200190815260200160002060000160149054906101000a900460ff1660ff16846105c791906129ba565b6105d19190612a43565b905080600160008473ffffffffffffffffffffffffffffffffffffffff1673ffffffffffffffffffffffffffffffffffffffff1681526020019081526020016000205461061e9190612a74565b600160008473ffffffffffffffffffffffffffffffffffffffff1673ffffffffffffffffffffffffffffffffffffffff16815260200190815260200160002081905550808311156106ab576106a182600660009054906101000a900473ffffffffffffffffffffffffffffffffffffffff16838661069c9190612aca565b611a00565b6106aa57600080fd5b5b828273ffffffffffffffffffffffffffffffffffffffff167fe775ebd008d93b9afec302f34cd39033092430ec8e7eaab7b3104568503a442983896040516106f4929190612afe565b60405180910390a3505060016000819055509392505050565b6000600460009054906101000a900473ffffffffffffffffffffffffffffffffffffffff1673ffffffffffffffffffffffffffffffffffffffff163373ffffffffffffffffffffffffffffffffffffffff161461079f576040517f08c379a000000000000000000000000000000000000000000000000000000000815260040161079690612b73565b60405180910390fd5b60008260ff16101580156107ba5750606460ff168260ff1611155b6107f9576040517f08c379a00000000000000000000000000000000000000000000000000000000081526004016107f090612bdf565b60405180910390fd5b81600260008573ffffffffffffffffffffffffffffffffffffffff1673ffffffffffffffffffffffffffffffffffffffff16815260200190815260200160002060000160146101000a81548160ff021916908360ff1602179055506001905092915050565b6000600460009054906101000a900473ffffffffffffffffffffffffffffffffffffffff1673ffffffffffffffffffffffffffffffffffffffff163373ffffffffffffffffffffffffffffffffffffffff16146108ba57600080fd5b6000600260008473ffffffffffffffffffffffffffffffffffffffff1673ffffffffffffffffffffffffffffffffffffffff16815260200190815260200160002060000160009054906101000a900473ffffffffffffffffffffffffffffffffffffffff1690506000600160008373ffffffffffffffffffffffffffffffffffffffff1673ffffffffffffffffffffffffffffffffffffffff1681526020019081526020016000205490506000811115610a165761099b82600460009054906101000a900473ffffffffffffffffffffffffffffffffffffffff1683611a00565b6109a457600080fd5b808273ffffffffffffffffffffffffffffffffffffffff167f081bbafdf188a33eeeba9f44cd5f54b98f151cb1058475e8c555bf9fa0020623600460009054906101000a900473ffffffffffffffffffffffffffffffffffffffff16604051610a0d9190612556565b60405180910390a35b6000808573ffffffffffffffffffffffffffffffffffffffff16600260008873ffffffffffffffffffffffffffffffffffffffff1673ffffffffffffffffffffffffffffffffffffffff16815260200190815260200160002060000160199054906101000a900460e01b600560009054906101000a900473ffffffffffffffffffffffffffffffffffffffff16604051602401610ab39190612556565b604051602081830303815290604052907bffffffffffffffffffffffffffffffffffffffffffffffffffffffff19166020820180517bffffffffffffffffffffffffffffffffffffffffffffffffffffffff8381831617835250505050604051610b1d9190612c79565b6000604051808303816000865af19150503d8060008114610b5a576040519150601f19603f3d011682016040523d82523d6000602084013e610b5f565b606091505b509150915081610b6e57600080fd5b600260008773ffffffffffffffffffffffffffffffffffffffff1673ffffffffffffffffffffffffffffffffffffffff168152602001908152602001600020600080820160006101000a81549073ffffffffffffffffffffffffffffffffffffffff02191690556000820160146101000a81549060ff02191690556000820160156101000a81549063ffffffff02191690556000820160196101000a81549063ffffffff021916905550508573ffffffffffffffffffffffffffffffffffffffff167f708a88df6c6322df6982b1b78b07623652300cf8e98e73998ed28b264aaec60185604051610c5f9190612556565b60405180910390a26001945050505050919050565b6000600560009054906101000a900473ffffffffffffffffffffffffffffffffffffffff1673ffffffffffffffffffffffffffffffffffffffff163373ffffffffffffffffffffffffffffffffffffffff1614610cd057600080fd5b610cdb848484611b84565b90509392505050565b600560009054906101000a900473ffffffffffffffffffffffffffffffffffffffff1681565b600660009054906101000a900473ffffffffffffffffffffffffffffffffffffffff1681565b6000600160008373ffffffffffffffffffffffffffffffffffffffff1673ffffffffffffffffffffffffffffffffffffffff168152602001908152602001600020549050919050565b6000600660009054906101000a900473ffffffffffffffffffffffffffffffffffffffff1673ffffffffffffffffffffffffffffffffffffffff163373ffffffffffffffffffffffffffffffffffffffff161480610e245750600560009054906101000a900473ffffffffffffffffffffffffffffffffffffffff1673ffffffffffffffffffffffffffffffffffffffff163373ffffffffffffffffffffffffffffffffffffffff16145b610e2d57600080fd5b600073ffffffffffffffffffffffffffffffffffffffff168273ffffffffffffffffffffffffffffffffffffffff161415610e6757600080fd5b81600660006101000a81548173ffffffffffffffffffffffffffffffffffffffff021916908373ffffffffffffffffffffffffffffffffffffffff1602179055508173ffffffffffffffffffffffffffffffffffffffff167f1f54d231bb9d500b1923e4a1cb25e600f366a8368873d9af7c1c623814df19fc60405160405180910390a260019050919050565b6000600460009054906101000a900473ffffffffffffffffffffffffffffffffffffffff1673ffffffffffffffffffffffffffffffffffffffff163373ffffffffffffffffffffffffffffffffffffffff1614610f5057600080fd5b600073ffffffffffffffffffffffffffffffffffffffff168273ffffffffffffffffffffffffffffffffffffffff161415610f8a57600080fd5b81600460006101000a81548173ffffffffffffffffffffffffffffffffffffffff021916908373ffffffffffffffffffffffffffffffffffffffff1602179055508173ffffffffffffffffffffffffffffffffffffffff167f84022644ce39de434e8f39c4398a3628815893104188274c37205d41c2d5096760405160405180910390a260019050919050565b6000600560009054906101000a900473ffffffffffffffffffffffffffffffffffffffff1673ffffffffffffffffffffffffffffffffffffffff163373ffffffffffffffffffffffffffffffffffffffff161461107357600080fd5b60005b838390508110156110ea576110d686868381811061109757611096612c90565b5b90506020020160208101906110ac919061251a565b8585848181106110bf576110be612c90565b5b90506020028101906110d19190612cce565b611b84565b5080806110e290612d31565b915050611076565b5060019050949350505050565b600460009054906101000a900473ffffffffffffffffffffffffffffffffffffffff1681565b6000600560009054906101000a900473ffffffffffffffffffffffffffffffffffffffff1673ffffffffffffffffffffffffffffffffffffffff163373ffffffffffffffffffffffffffffffffffffffff161461117957600080fd5b600073ffffffffffffffffffffffffffffffffffffffff168273ffffffffffffffffffffffffffffffffffffffff1614156111b357600080fd5b81600560006101000a81548173ffffffffffffffffffffffffffffffffffffffff021916908373ffffffffffffffffffffffffffffffffffffffff1602179055508173ffffffffffffffffffffffffffffffffffffffff167fff936929f68b51b2ddfe0c6fcc3e9c817996ae17a98869dd0754af1323f101ee60405160405180910390a260019050919050565b6000600460009054906101000a900473ffffffffffffffffffffffffffffffffffffffff1673ffffffffffffffffffffffffffffffffffffffff163373ffffffffffffffffffffffffffffffffffffffff161461129c57600080fd5b6112a68383611e20565b905092915050565b600080600080600260008673ffffffffffffffffffffffffffffffffffffffff1673ffffffffffffffffffffffffffffffffffffffff16815260200190815260200160002060000160009054906101000a900473ffffffffffffffffffffffffffffffffffffffff16600260008773ffffffffffffffffffffffffffffffffffffffff1673ffffffffffffffffffffffffffffffffffffffff16815260200190815260200160002060000160149054906101000a900460ff16600260008873ffffffffffffffffffffffffffffffffffffffff1673ffffffffffffffffffffffffffffffffffffffff16815260200190815260200160002060000160159054906101000a900460e01b600260008973ffffffffffffffffffffffffffffffffffffffff1673ffffffffffffffffffffffffffffffffffffffff16815260200190815260200160002060000160199054906101000a900460e01b93509350935093509193509193565b6000600460009054906101000a900473ffffffffffffffffffffffffffffffffffffffff1673ffffffffffffffffffffffffffffffffffffffff163373ffffffffffffffffffffffffffffffffffffffff161461147257600080fd5b61147c838361216e565b905092915050565b6000600260005414156114cc576040517f08c379a00000000000000000000000000000000000000000000000000000000081526004016114c39061296b565b60405180910390fd5b6002600081905550600460009054906101000a900473ffffffffffffffffffffffffffffffffffffffff1673ffffffffffffffffffffffffffffffffffffffff163373ffffffffffffffffffffffffffffffffffffffff161461152e57600080fd5b600160008373ffffffffffffffffffffffffffffffffffffffff1673ffffffffffffffffffffffffffffffffffffffff168152602001908152602001600020549050600081116115b3576040517f08c379a00000000000000000000000000000000000000000000000000000000081526004016115aa90612dc6565b60405180910390fd5b6115e082600460009054906101000a900473ffffffffffffffffffffffffffffffffffffffff1683611a00565b6115e957600080fd5b6000600160008473ffffffffffffffffffffffffffffffffffffffff1673ffffffffffffffffffffffffffffffffffffffff16815260200190815260200160002081905550808273ffffffffffffffffffffffffffffffffffffffff167f081bbafdf188a33eeeba9f44cd5f54b98f151cb1058475e8c555bf9fa0020623600460009054906101000a900473ffffffffffffffffffffffffffffffffffffffff166040516116979190612556565b60405180910390a36001600081905550919050565b6000806116b883612233565b9050600060e01b7bffffffffffffffffffffffffffffffffffffffffffffffffffffffff1916600260008873ffffffffffffffffffffffffffffffffffffffff1673ffffffffffffffffffffffffffffffffffffffff16815260200190815260200160002060000160159054906101000a900460e01b7bffffffffffffffffffffffffffffffffffffffffffffffffffffffff191614156117a557600160008473ffffffffffffffffffffffffffffffffffffffff1673ffffffffffffffffffffffffffffffffffffffff168152602001908152602001600020548161179e9190612aca565b915061194a565b600260008773ffffffffffffffffffffffffffffffffffffffff1673ffffffffffffffffffffffffffffffffffffffff16815260200190815260200160002060000160159054906101000a900460e01b7bffffffffffffffffffffffffffffffffffffffffffffffffffffffff19168585906118219190612dfe565b7bffffffffffffffffffffffffffffffffffffffffffffffffffffffff191614611880576040517f08c379a000000000000000000000000000000000000000000000000000000000815260040161187790612ea9565b60405180910390fd5b6000808773ffffffffffffffffffffffffffffffffffffffff1687876040516118aa929190612efd565b6000604051808303816000865af19150503d80600081146118e7576040519150601f19603f3d011682016040523d82523d6000602084013e6118ec565b606091505b509150915081611931576040517f08c379a000000000000000000000000000000000000000000000000000000000815260040161192890612f62565b60405180910390fd5b8261193b86612233565b6119459190612aca565b935050505b6000821161198d576040517f08c379a000000000000000000000000000000000000000000000000000000000815260040161198490612fce565b60405180910390fd5b606460ff167fffffffffffffffffffffffffffffffffffffffffffffffffffffffffffffffff6119bd9190612a43565b8211156119f757606460ff167fffffffffffffffffffffffffffffffffffffffffffffffffffffffffffffffff6119f49190612a43565b91505b50949350505050565b60008073ffffffffffffffffffffffffffffffffffffffff168473ffffffffffffffffffffffffffffffffffffffff1614611ac8578373ffffffffffffffffffffffffffffffffffffffff1663a9059cbb84846040518363ffffffff1660e01b8152600401611a70929190612fee565b602060405180830381600087803b158015611a8a57600080fd5b505af1158015611a9e573d6000803e3d6000fd5b505050506040513d601f19601f82011682018060405250810190611ac2919061302c565b50611b79565b6000808473ffffffffffffffffffffffffffffffffffffffff1684604051611aef9061307f565b60006040518083038185875af1925050503d8060008114611b2c576040519150601f19603f3d011682016040523d82523d6000602084013e611b31565b606091505b509150915081611b76576040517f08c379a0000000000000000000000000000000000000000000000000000000008152600401611b6d906130e0565b60405180910390fd5b50505b600190509392505050565b600060026000541415611bcc576040517f08c379a0000000000000000000000000000000000000000000000000000000008152600401611bc39061296b565b60405180910390fd5b600260008190555060036000848490611be59190612dfe565b7bffffffffffffffffffffffffffffffffffffffffffffffffffffffff19167bffffffffffffffffffffffffffffffffffffffffffffffffffffffff1916815260200190815260200160002060009054906101000a900460ff16611c7e576040517f08c379a0000000000000000000000000000000000000000000000000000000008152600401611c759061314c565b60405180910390fd5b828290611c8b9190612dfe565b7bffffffffffffffffffffffffffffffffffffffffffffffffffffffff1916600260008673ffffffffffffffffffffffffffffffffffffffff1673ffffffffffffffffffffffffffffffffffffffff16815260200190815260200160002060000160159054906101000a900460e01b7bffffffffffffffffffffffffffffffffffffffffffffffffffffffff19161415611d5a576040517f08c379a0000000000000000000000000000000000000000000000000000000008152600401611d519061314c565b60405180910390fd5b6000808573ffffffffffffffffffffffffffffffffffffffff168585604051611d84929190612efd565b6000604051808303816000865af19150503d8060008114611dc1576040519150601f19603f3d011682016040523d82523d6000602084013e611dc6565b606091505b509150915081611e0b576040517f08c379a0000000000000000000000000000000000000000000000000000000008152600401611e02906131b8565b60405180910390fd5b60019250505060016000819055509392505050565b60003073ffffffffffffffffffffffffffffffffffffffff168373ffffffffffffffffffffffffffffffffffffffff161415611e5b57600080fd5b600060e01b7bffffffffffffffffffffffffffffffffffffffffffffffffffffffff1916600260008573ffffffffffffffffffffffffffffffffffffffff1673ffffffffffffffffffffffffffffffffffffffff16815260200190815260200160002060000160199054906101000a900460e01b7bffffffffffffffffffffffffffffffffffffffffffffffffffffffff191614611f2e576040517f08c379a0000000000000000000000000000000000000000000000000000000008152600401611f2590613224565b60405180910390fd5b600060e01b7bffffffffffffffffffffffffffffffffffffffffffffffffffffffff191682606001517bffffffffffffffffffffffffffffffffffffffffffffffffffffffff19161415611fb7576040517f08c379a0000000000000000000000000000000000000000000000000000000008152600401611fae90613290565b60405180910390fd5b606460ff16826020015160ff1611158015611fda57506000826020015160ff1610155b612019576040517f08c379a0000000000000000000000000000000000000000000000000000000008152600401612010906132fc565b60405180910390fd5b81600260008573ffffffffffffffffffffffffffffffffffffffff1673ffffffffffffffffffffffffffffffffffffffff16815260200190815260200160002060008201518160000160006101000a81548173ffffffffffffffffffffffffffffffffffffffff021916908373ffffffffffffffffffffffffffffffffffffffff16021790555060208201518160000160146101000a81548160ff021916908360ff16021790555060408201518160000160156101000a81548163ffffffff021916908360e01c021790555060608201518160000160196101000a81548163ffffffff021916908360e01c02179055509050508273ffffffffffffffffffffffffffffffffffffffff167f366c303fa48e82e8094efa1be126cfbd7dc298a323a6b4066942e9503bbd81128360000151846020015160405161215c929190613357565b60405180910390a26001905092915050565b60008160036000857bffffffffffffffffffffffffffffffffffffffffffffffffffffffff19167bffffffffffffffffffffffffffffffffffffffffffffffffffffffff1916815260200190815260200160002060006101000a81548160ff02191690831515021790555060011515837bffffffffffffffffffffffffffffffffffffffffffffffffffffffff19167f8fd1e21416bf15420b9addb683ec815e9f5e9ee45e1555df547df090f540aa6c60405160405180910390a36001905092915050565b60008073ffffffffffffffffffffffffffffffffffffffff168273ffffffffffffffffffffffffffffffffffffffff16141561226f57476122f9565b8173ffffffffffffffffffffffffffffffffffffffff166370a08231306040518263ffffffff1660e01b81526004016122a89190612556565b60206040518083038186803b1580156122c057600080fd5b505afa1580156122d4573d6000803e3d6000fd5b505050506040513d601f19601f820116820180604052508101906122f891906133ac565b5b9050919050565b6000604051905090565b600080fd5b600080fd5b600073ffffffffffffffffffffffffffffffffffffffff82169050919050565b600061233f82612314565b9050919050565b61234f81612334565b811461235a57600080fd5b50565b60008135905061236c81612346565b92915050565b600080fd5b600080fd5b600080fd5b60008083601f84011261239757612396612372565b5b8235905067ffffffffffffffff8111156123b4576123b3612377565b5b6020830191508360018202830111156123d0576123cf61237c565b5b9250929050565b6000806000604084860312156123f0576123ef61230a565b5b60006123fe8682870161235d565b935050602084013567ffffffffffffffff81111561241f5761241e61230f565b5b61242b86828701612381565b92509250509250925092565b6000819050919050565b61244a81612437565b82525050565b60006020820190506124656000830184612441565b92915050565b600060ff82169050919050565b6124818161246b565b811461248c57600080fd5b50565b60008135905061249e81612478565b92915050565b600080604083850312156124bb576124ba61230a565b5b60006124c98582860161235d565b92505060206124da8582860161248f565b9150509250929050565b60008115159050919050565b6124f9816124e4565b82525050565b600060208201905061251460008301846124f0565b92915050565b6000602082840312156125305761252f61230a565b5b600061253e8482850161235d565b91505092915050565b61255081612334565b82525050565b600060208201905061256b6000830184612547565b92915050565b60008083601f84011261258757612586612372565b5b8235905067ffffffffffffffff8111156125a4576125a3612377565b5b6020830191508360208202830111156125c0576125bf61237c565b5b9250929050565b60008083601f8401126125dd576125dc612372565b5b8235905067ffffffffffffffff8111156125fa576125f9612377565b5b6020830191508360208202830111156126165761261561237c565b5b9250929050565b600080600080604085870312156126375761263661230a565b5b600085013567ffffffffffffffff8111156126555761265461230f565b5b61266187828801612571565b9450945050602085013567ffffffffffffffff8111156126845761268361230f565b5b612690878288016125c7565b925092505092959194509250565b600080fd5b6000601f19601f8301169050919050565b7f4e487b7100000000000000000000000000000000000000000000000000000000600052604160045260246000fd5b6126ec826126a3565b810181811067ffffffffffffffff8211171561270b5761270a6126b4565b5b80604052505050565b600061271e612300565b905061272a82826126e3565b919050565b60007fffffffff0000000000000000000000000000000000000000000000000000000082169050919050565b6127648161272f565b811461276f57600080fd5b50565b6000813590506127818161275b565b92915050565b60006080828403121561279d5761279c61269e565b5b6127a76080612714565b905060006127b78482850161235d565b60008301525060206127cb8482850161248f565b60208301525060406127df84828501612772565b60408301525060606127f384828501612772565b60608301525092915050565b60008060a083850312156128165761281561230a565b5b60006128248582860161235d565b925050602061283585828601612787565b9150509250929050565b6128488161246b565b82525050565b6128578161272f565b82525050565b60006080820190506128726000830187612547565b61287f602083018661283f565b61288c604083018561284e565b612899606083018461284e565b95945050505050565b6128ab816124e4565b81146128b657600080fd5b50565b6000813590506128c8816128a2565b92915050565b600080604083850312156128e5576128e461230a565b5b60006128f385828601612772565b9250506020612904858286016128b9565b9150509250929050565b600082825260208201905092915050565b7f5265656e7472616e637947756172643a207265656e7472616e742063616c6c00600082015250565b6000612955601f8361290e565b91506129608261291f565b602082019050919050565b6000602082019050818103600083015261298481612948565b9050919050565b7f4e487b7100000000000000000000000000000000000000000000000000000000600052601160045260246000fd5b60006129c582612437565b91506129d083612437565b9250817fffffffffffffffffffffffffffffffffffffffffffffffffffffffffffffffff0483118215151615612a0957612a0861298b565b5b828202905092915050565b7f4e487b7100000000000000000000000000000000000000000000000000000000600052601260045260246000fd5b6000612a4e82612437565b9150612a5983612437565b925082612a6957612a68612a14565b5b828204905092915050565b6000612a7f82612437565b9150612a8a83612437565b9250827fffffffffffffffffffffffffffffffffffffffffffffffffffffffffffffffff03821115612abf57612abe61298b565b5b828201905092915050565b6000612ad582612437565b9150612ae083612437565b925082821015612af357612af261298b565b5b828203905092915050565b6000604082019050612b136000830185612441565b612b206020830184612547565b9392505050565b7f537069676f743a206f6e6c79206f776e657220757064617465732073706c6974600082015250565b6000612b5d60208361290e565b9150612b6882612b27565b602082019050919050565b60006020820190508181036000830152612b8c81612b50565b9050919050565b7f537069676f743a20696e76616c6964206f776e65722073706c69740000000000600082015250565b6000612bc9601b8361290e565b9150612bd482612b93565b602082019050919050565b60006020820190508181036000830152612bf881612bbc565b9050919050565b600081519050919050565b600081905092915050565b60005b83811015612c33578082015181840152602081019050612c18565b83811115612c42576000848401525b50505050565b6000612c5382612bff565b612c5d8185612c0a565b9350612c6d818560208601612c15565b80840191505092915050565b6000612c858284612c48565b915081905092915050565b7f4e487b7100000000000000000000000000000000000000000000000000000000600052603260045260246000fd5b600080fd5b600080fd5b600080fd5b60008083356001602003843603038112612ceb57612cea612cbf565b5b80840192508235915067ffffffffffffffff821115612d0d57612d0c612cc4565b5b602083019250600182023603831315612d2957612d28612cc9565b5b509250929050565b6000612d3c82612437565b91507fffffffffffffffffffffffffffffffffffffffffffffffffffffffffffffffff821415612d6f57612d6e61298b565b5b600182019050919050565b7f537069676f743a204e6f20657363726f7720746f20636c61696d000000000000600082015250565b6000612db0601a8361290e565b9150612dbb82612d7a565b602082019050919050565b60006020820190508181036000830152612ddf81612da3565b9050919050565b600082905092915050565b600082821b905092915050565b6000612e0a8383612de6565b82612e15813561272f565b92506004821015612e5557612e507fffffffff0000000000000000000000000000000000000000000000000000000083600403600802612df1565b831692505b505092915050565b7f537069676f743a20496e76616c696420636c61696d2066756e6374696f6e0000600082015250565b6000612e93601e8361290e565b9150612e9e82612e5d565b602082019050919050565b60006020820190508181036000830152612ec281612e86565b9050919050565b82818337600083830152505050565b6000612ee48385612c0a565b9350612ef1838584612ec9565b82840190509392505050565b6000612f0a828486612ed8565b91508190509392505050565b7f537069676f743a20526576656e756520636c61696d206661696c656400000000600082015250565b6000612f4c601c8361290e565b9150612f5782612f16565b602082019050919050565b60006020820190508181036000830152612f7b81612f3f565b9050919050565b7f537069676f743a204e6f20726576656e756520746f20636c61696d0000000000600082015250565b6000612fb8601b8361290e565b9150612fc382612f82565b602082019050919050565b60006020820190508181036000830152612fe781612fab565b9050919050565b60006040820190506130036000830185612547565b6130106020830184612441565b9392505050565b600081519050613026816128a2565b92915050565b6000602082840312156130425761304161230a565b5b600061305084828501613017565b91505092915050565b50565b6000613069600083612c0a565b915061307482613059565b600082019050919050565b600061308a8261305c565b9150819050919050565b7f537069676f743a20446973706572736520657363726f77206661696c65640000600082015250565b60006130ca601e8361290e565b91506130d582613094565b602082019050919050565b600060208201905081810360008301526130f9816130bd565b9050919050565b7f537069676f743a20556e617574686f72697a656420616374696f6e0000000000600082015250565b6000613136601b8361290e565b915061314182613100565b602082019050919050565b6000602082019050818103600083015261316581613129565b9050919050565b7f537069676f743a204f7065726174696f6e206661696c65640000000000000000600082015250565b60006131a260188361290e565b91506131ad8261316c565b602082019050919050565b600060208201905081810360008301526131d181613195565b9050919050565b7f537069676f743a2053657474696e6720616c7265616479206578697374730000600082015250565b600061320e601e8361290e565b9150613219826131d8565b602082019050919050565b6000602082019050818103600083015261323d81613201565b9050919050565b7f537069676f743a20496e76616c696420737069676f742073657474696e670000600082015250565b600061327a601e8361290e565b915061328582613244565b602082019050919050565b600060208201905081810360008301526132a98161326d565b9050919050565b7f537069676f743a20496e76616c69642073706c69742072617465000000000000600082015250565b60006132e6601a8361290e565b91506132f1826132b0565b602082019050919050565b60006020820190508181036000830152613315816132d9565b9050919050565b6000819050919050565b600061334161333c6133378461246b565b61331c565b612437565b9050919050565b61335181613326565b82525050565b600060408201905061336c6000830185612547565b6133796020830184613348565b9392505050565b61338981612437565b811461339457600080fd5b50565b6000815190506133a681613380565b92915050565b6000602082840312156133c2576133c161230a565b5b60006133d084828501613397565b9150509291505056fea26469706673582212207b2470243562263bbad3a78630e4b5a6bbdc8ac8da1ad6d972de79c257c9796b64736f6c63430008090033",
  "linkReferences": {},
  "deployedLinkReferences": {}
}